{
  "contractName": "Certificates",
  "abi": [
    {
      "inputs": [
        {
          "internalType": "address",
          "name": "_identityContract",
          "type": "address"
        }
      ],
      "stateMutability": "nonpayable",
      "type": "constructor"
    },
    {
      "anonymous": false,
      "inputs": [
        {
          "indexed": true,
          "internalType": "bytes32",
          "name": "certificateId",
          "type": "bytes32"
        },
        {
          "indexed": true,
          "internalType": "address",
          "name": "student",
          "type": "address"
        },
        {
          "indexed": true,
          "internalType": "address",
          "name": "institution",
          "type": "address"
        }
      ],
      "name": "CertificateIssued",
      "type": "event"
    },
    {
      "anonymous": false,
      "inputs": [
        {
          "indexed": true,
          "internalType": "bytes32",
          "name": "certificateId",
          "type": "bytes32"
        }
      ],
      "name": "CertificateRevoked",
      "type": "event"
    },
    {
      "inputs": [
        {
          "internalType": "bytes32",
          "name": "",
          "type": "bytes32"
        }
      ],
      "name": "certificates",
      "outputs": [
        {
          "internalType": "address",
          "name": "student",
          "type": "address"
        },
        {
          "internalType": "address",
          "name": "institution",
          "type": "address"
        },
        {
          "internalType": "string",
          "name": "ipfsHash",
          "type": "string"
        },
        {
          "internalType": "uint256",
          "name": "issuedAt",
          "type": "uint256"
        },
        {
          "internalType": "bool",
          "name": "isValid",
          "type": "bool"
        }
      ],
      "stateMutability": "view",
      "type": "function",
      "constant": true
    },
    {
      "inputs": [],
      "name": "identityContract",
      "outputs": [
        {
          "internalType": "contract Identity",
          "name": "",
          "type": "address"
        }
      ],
      "stateMutability": "view",
      "type": "function",
      "constant": true
    },
    {
      "inputs": [
        {
          "internalType": "address",
          "name": "",
          "type": "address"
        },
        {
          "internalType": "uint256",
          "name": "",
          "type": "uint256"
        }
      ],
      "name": "studentCertificates",
      "outputs": [
        {
          "internalType": "bytes32",
          "name": "",
          "type": "bytes32"
        }
      ],
      "stateMutability": "view",
      "type": "function",
      "constant": true
    },
    {
      "inputs": [
        {
          "internalType": "address",
          "name": "_student",
          "type": "address"
        },
        {
          "internalType": "string",
          "name": "_ipfsHash",
          "type": "string"
        }
      ],
      "name": "issueCertificate",
      "outputs": [
        {
          "internalType": "bytes32",
          "name": "",
          "type": "bytes32"
        }
      ],
      "stateMutability": "nonpayable",
      "type": "function"
    },
    {
      "inputs": [
        {
          "internalType": "bytes32",
          "name": "_certificateId",
          "type": "bytes32"
        }
      ],
      "name": "revokeCertificate",
      "outputs": [],
      "stateMutability": "nonpayable",
      "type": "function"
    },
    {
      "inputs": [
        {
          "internalType": "bytes32",
          "name": "_certificateId",
          "type": "bytes32"
        }
      ],
      "name": "verifyCertificate",
      "outputs": [
        {
          "internalType": "address",
          "name": "student",
          "type": "address"
        },
        {
          "internalType": "address",
          "name": "institution",
          "type": "address"
        },
        {
          "internalType": "string",
          "name": "ipfsHash",
          "type": "string"
        },
        {
          "internalType": "uint256",
          "name": "issuedAt",
          "type": "uint256"
        },
        {
          "internalType": "bool",
          "name": "isValid",
          "type": "bool"
        }
      ],
      "stateMutability": "view",
      "type": "function",
      "constant": true
    },
    {
      "inputs": [
        {
          "internalType": "address",
          "name": "_student",
          "type": "address"
        }
      ],
      "name": "getStudentCertificates",
      "outputs": [
        {
          "internalType": "bytes32[]",
          "name": "",
          "type": "bytes32[]"
        }
      ],
      "stateMutability": "view",
      "type": "function",
      "constant": true
    }
  ],
  "bytecode": "0x60806040523480156200001157600080fd5b5060405162001bd138038062001bd18339818101604052810190620000379190620000f1565b600160008190555080600160006101000a81548173ffffffffffffffffffffffffffffffffffffffff021916908373ffffffffffffffffffffffffffffffffffffffff1602179055505062000123565b600080fd5b600073ffffffffffffffffffffffffffffffffffffffff82169050919050565b6000620000b9826200008c565b9050919050565b620000cb81620000ac565b8114620000d757600080fd5b50565b600081519050620000eb81620000c0565b92915050565b6000602082840312156200010a576200010962000087565b5b60006200011a84828501620000da565b91505092915050565b611a9e80620001336000396000f3fe608060405234801561001057600080fd5b506004361061007d5760003560e01c8063bb721aab1161005b578063bb721aab14610108578063c3934f0e14610138578063c6cbc52a14610168578063ebc63bc0146101845761007d565b806367031bae14610082578063742f0688146100a0578063850c1768146100d4575b600080fd5b61008a6101b4565b6040516100979190610d1f565b60405180910390f35b6100ba60048036038101906100b59190610d84565b6101da565b6040516100cb959493929190610e96565b60405180910390f35b6100ee60048036038101906100e99190610d84565b6102e5565b6040516100ff959493929190610e96565b60405180910390f35b610122600480360381019061011d9190611051565b6104e6565b60405161012f91906110bc565b60405180910390f35b610152600480360381019061014d9190611103565b6109e0565b60405161015f91906110bc565b60405180910390f35b610182600480360381019061017d9190610d84565b610a11565b005b61019e60048036038101906101999190611143565b610bb0565b6040516101ab919061122e565b60405180910390f35b600160009054906101000a900473ffffffffffffffffffffffffffffffffffffffff1681565b60026020528060005260406000206000915090508060000160009054906101000a900473ffffffffffffffffffffffffffffffffffffffff16908060010160009054906101000a900473ffffffffffffffffffffffffffffffffffffffff16908060020180546102499061127f565b80601f01602080910402602001604051908101604052809291908181526020018280546102759061127f565b80156102c25780601f10610297576101008083540402835291602001916102c2565b820191906000526020600020905b8154815290600101906020018083116102a557829003601f168201915b5050505050908060030154908060040160009054906101000a900460ff16905085565b60008060606000806000600260008881526020019081526020016000206040518060a00160405290816000820160009054906101000a900473ffffffffffffffffffffffffffffffffffffffff1673ffffffffffffffffffffffffffffffffffffffff1673ffffffffffffffffffffffffffffffffffffffff1681526020016001820160009054906101000a900473ffffffffffffffffffffffffffffffffffffffff1673ffffffffffffffffffffffffffffffffffffffff1673ffffffffffffffffffffffffffffffffffffffff1681526020016002820180546103c99061127f565b80601f01602080910402602001604051908101604052809291908181526020018280546103f59061127f565b80156104425780601f1061041757610100808354040283529160200191610442565b820191906000526020600020905b81548152906001019060200180831161042557829003601f168201915b50505050508152602001600382015481526020016004820160009054906101000a900460ff161515151581525050905060008160600151116104b9576040517f08c379a00000000000000000000000000000000000000000000000000000000081526004016104b0906112fc565b60405180910390fd5b80600001518160200151826040015183606001518460800151955095509550955095505091939590929450565b6000600260048111156104fc576104fb61131c565b5b600160009054906101000a900473ffffffffffffffffffffffffffffffffffffffff1673ffffffffffffffffffffffffffffffffffffffff166327820851336040518263ffffffff1660e01b8152600401610557919061134b565b602060405180830381865afa158015610574573d6000803e3d6000fd5b505050506040513d601f19601f82011682018060405250810190610598919061138b565b60048111156105aa576105a961131c565b5b14801561064f5750600160009054906101000a900473ffffffffffffffffffffffffffffffffffffffff1673ffffffffffffffffffffffffffffffffffffffff16633da1c0c3336040518263ffffffff1660e01b815260040161060d919061134b565b602060405180830381865afa15801561062a573d6000803e3d6000fd5b505050506040513d601f19601f8201168201806040525081019061064e91906113e4565b5b61068e576040517f08c379a00000000000000000000000000000000000000000000000000000000081526004016106859061145d565b60405180910390fd5b610696610c47565b600073ffffffffffffffffffffffffffffffffffffffff168373ffffffffffffffffffffffffffffffffffffffff1603610705576040517f08c379a00000000000000000000000000000000000000000000000000000000081526004016106fc906114c9565b60405180910390fd5b6000825111610749576040517f08c379a000000000000000000000000000000000000000000000000000000000815260040161074090611535565b60405180910390fd5b60008333844260405160200161076294939291906115fa565b60405160208183030381529060405280519060200120905060006002600083815260200190815260200160002060030154146107d3576040517f08c379a00000000000000000000000000000000000000000000000000000000081526004016107ca90611690565b60405180910390fd5b6040518060a001604052808573ffffffffffffffffffffffffffffffffffffffff1681526020013373ffffffffffffffffffffffffffffffffffffffff168152602001848152602001428152602001600115158152506002600083815260200190815260200160002060008201518160000160006101000a81548173ffffffffffffffffffffffffffffffffffffffff021916908373ffffffffffffffffffffffffffffffffffffffff16021790555060208201518160010160006101000a81548173ffffffffffffffffffffffffffffffffffffffff021916908373ffffffffffffffffffffffffffffffffffffffff16021790555060408201518160020190816108df9190611852565b506060820151816003015560808201518160040160006101000a81548160ff021916908315150217905550905050600360008573ffffffffffffffffffffffffffffffffffffffff1673ffffffffffffffffffffffffffffffffffffffff1681526020019081526020016000208190806001815401808255809150506001900390600052602060002001600090919091909150553373ffffffffffffffffffffffffffffffffffffffff168473ffffffffffffffffffffffffffffffffffffffff16827f96acc7d29f59de96f3b52573049182d873062e60b6dd01e0bf81b3cb8f10782260405160405180910390a4809150506109da610c96565b92915050565b600360205281600052604060002081815481106109fc57600080fd5b90600052602060002001600091509150505481565b610a19610c47565b60006002600083815260200190815260200160002090506000816003015411610a77576040517f08c379a0000000000000000000000000000000000000000000000000000000008152600401610a6e906112fc565b60405180910390fd5b3373ffffffffffffffffffffffffffffffffffffffff168160010160009054906101000a900473ffffffffffffffffffffffffffffffffffffffff1673ffffffffffffffffffffffffffffffffffffffff1614610b09576040517f08c379a0000000000000000000000000000000000000000000000000000000008152600401610b0090611970565b60405180910390fd5b8060040160009054906101000a900460ff16610b5a576040517f08c379a0000000000000000000000000000000000000000000000000000000008152600401610b51906119dc565b60405180910390fd5b60008160040160006101000a81548160ff021916908315150217905550817f44d80a438cb4fa3b5aedbe551ce3d9382e37f446917b783e1dee70a03b4180e360405160405180910390a250610bad610c96565b50565b6060600360008373ffffffffffffffffffffffffffffffffffffffff1673ffffffffffffffffffffffffffffffffffffffff168152602001908152602001600020805480602002602001604051908101604052809291908181526020018280548015610c3b57602002820191906000526020600020905b815481526020019060010190808311610c27575b50505050509050919050565b600260005403610c8c576040517f08c379a0000000000000000000000000000000000000000000000000000000008152600401610c8390611a48565b60405180910390fd5b6002600081905550565b6001600081905550565b600073ffffffffffffffffffffffffffffffffffffffff82169050919050565b6000819050919050565b6000610ce5610ce0610cdb84610ca0565b610cc0565b610ca0565b9050919050565b6000610cf782610cca565b9050919050565b6000610d0982610cec565b9050919050565b610d1981610cfe565b82525050565b6000602082019050610d346000830184610d10565b92915050565b6000604051905090565b600080fd5b600080fd5b6000819050919050565b610d6181610d4e565b8114610d6c57600080fd5b50565b600081359050610d7e81610d58565b92915050565b600060208284031215610d9a57610d99610d44565b5b6000610da884828501610d6f565b91505092915050565b6000610dbc82610ca0565b9050919050565b610dcc81610db1565b82525050565b600081519050919050565b600082825260208201905092915050565b60005b83811015610e0c578082015181840152602081019050610df1565b60008484015250505050565b6000601f19601f8301169050919050565b6000610e3482610dd2565b610e3e8185610ddd565b9350610e4e818560208601610dee565b610e5781610e18565b840191505092915050565b6000819050919050565b610e7581610e62565b82525050565b60008115159050919050565b610e9081610e7b565b82525050565b600060a082019050610eab6000830188610dc3565b610eb86020830187610dc3565b8181036040830152610eca8186610e29565b9050610ed96060830185610e6c565b610ee66080830184610e87565b9695505050505050565b610ef981610db1565b8114610f0457600080fd5b50565b600081359050610f1681610ef0565b92915050565b600080fd5b600080fd5b7f4e487b7100000000000000000000000000000000000000000000000000000000600052604160045260246000fd5b610f5e82610e18565b810181811067ffffffffffffffff82111715610f7d57610f7c610f26565b5b80604052505050565b6000610f90610d3a565b9050610f9c8282610f55565b919050565b600067ffffffffffffffff821115610fbc57610fbb610f26565b5b610fc582610e18565b9050602081019050919050565b82818337600083830152505050565b6000610ff4610fef84610fa1565b610f86565b9050828152602081018484840111156110105761100f610f21565b5b61101b848285610fd2565b509392505050565b600082601f83011261103857611037610f1c565b5b8135611048848260208601610fe1565b91505092915050565b6000806040838503121561106857611067610d44565b5b600061107685828601610f07565b925050602083013567ffffffffffffffff81111561109757611096610d49565b5b6110a385828601611023565b9150509250929050565b6110b681610d4e565b82525050565b60006020820190506110d160008301846110ad565b92915050565b6110e081610e62565b81146110eb57600080fd5b50565b6000813590506110fd816110d7565b92915050565b6000806040838503121561111a57611119610d44565b5b600061112885828601610f07565b9250506020611139858286016110ee565b9150509250929050565b60006020828403121561115957611158610d44565b5b600061116784828501610f07565b91505092915050565b600081519050919050565b600082825260208201905092915050565b6000819050602082019050919050565b6111a581610d4e565b82525050565b60006111b7838361119c565b60208301905092915050565b6000602082019050919050565b60006111db82611170565b6111e5818561117b565b93506111f08361118c565b8060005b8381101561122157815161120888826111ab565b9750611213836111c3565b9250506001810190506111f4565b5085935050505092915050565b6000602082019050818103600083015261124881846111d0565b905092915050565b7f4e487b7100000000000000000000000000000000000000000000000000000000600052602260045260246000fd5b6000600282049050600182168061129757607f821691505b6020821081036112aa576112a9611250565b5b50919050565b7f436572746966696361746520646f6573206e6f74206578697374000000000000600082015250565b60006112e6601a83610ddd565b91506112f1826112b0565b602082019050919050565b60006020820190508181036000830152611315816112d9565b9050919050565b7f4e487b7100000000000000000000000000000000000000000000000000000000600052602160045260246000fd5b60006020820190506113606000830184610dc3565b92915050565b6005811061137357600080fd5b50565b60008151905061138581611366565b92915050565b6000602082840312156113a1576113a0610d44565b5b60006113af84828501611376565b91505092915050565b6113c181610e7b565b81146113cc57600080fd5b50565b6000815190506113de816113b8565b92915050565b6000602082840312156113fa576113f9610d44565b5b6000611408848285016113cf565b91505092915050565b7f4e6f74206120766572696669656420696e737469747574696f6e000000000000600082015250565b6000611447601a83610ddd565b915061145282611411565b602082019050919050565b600060208201905081810360008301526114768161143a565b9050919050565b7f496e76616c69642073747564656e742061646472657373000000000000000000600082015250565b60006114b3601783610ddd565b91506114be8261147d565b602082019050919050565b600060208201905081810360008301526114e2816114a6565b9050919050565b7f496e76616c696420495046532068617368000000000000000000000000000000600082015250565b600061151f601183610ddd565b915061152a826114e9565b602082019050919050565b6000602082019050818103600083015261154e81611512565b9050919050565b60008160601b9050919050565b600061156d82611555565b9050919050565b600061157f82611562565b9050919050565b61159761159282610db1565b611574565b82525050565b600081905092915050565b60006115b382610dd2565b6115bd818561159d565b93506115cd818560208601610dee565b80840191505092915050565b6000819050919050565b6115f46115ef82610e62565b6115d9565b82525050565b60006116068287611586565b6014820191506116168286611586565b60148201915061162682856115a8565b915061163282846115e3565b60208201915081905095945050505050565b7f436572746966696361746520616c726561647920657869737473000000000000600082015250565b600061167a601a83610ddd565b915061168582611644565b602082019050919050565b600060208201905081810360008301526116a98161166d565b9050919050565b60008190508160005260206000209050919050565b60006020601f8301049050919050565b600082821b905092915050565b6000600883026117127fffffffffffffffffffffffffffffffffffffffffffffffffffffffffffffffff826116d5565b61171c86836116d5565b95508019841693508086168417925050509392505050565b600061174f61174a61174584610e62565b610cc0565b610e62565b9050919050565b6000819050919050565b61176983611734565b61177d61177582611756565b8484546116e2565b825550505050565b600090565b611792611785565b61179d818484611760565b505050565b5b818110156117c1576117b660008261178a565b6001810190506117a3565b5050565b601f821115611806576117d7816116b0565b6117e0846116c5565b810160208510156117ef578190505b6118036117fb856116c5565b8301826117a2565b50505b505050565b600082821c905092915050565b60006118296000198460080261180b565b1980831691505092915050565b60006118428383611818565b9150826002028217905092915050565b61185b82610dd2565b67ffffffffffffffff81111561187457611873610f26565b5b61187e825461127f565b6118898282856117c5565b600060209050601f8311600181146118bc57600084156118aa578287015190505b6118b48582611836565b86555061191c565b601f1984166118ca866116b0565b60005b828110156118f2578489015182556001820191506020850194506020810190506118cd565b8683101561190f578489015161190b601f891682611818565b8355505b6001600288020188555050505b505050505050565b7f4e6f742063657274696669636174652069737375657200000000000000000000600082015250565b600061195a601683610ddd565b915061196582611924565b602082019050919050565b600060208201905081810360008301526119898161194d565b9050919050565b7f436572746966696361746520616c7265616479207265766f6b65640000000000600082015250565b60006119c6601b83610ddd565b91506119d182611990565b602082019050919050565b600060208201905081810360008301526119f5816119b9565b9050919050565b7f5265656e7472616e637947756172643a207265656e7472616e742063616c6c00600082015250565b6000611a32601f83610ddd565b9150611a3d826119fc565b602082019050919050565b60006020820190508181036000830152611a6181611a25565b905091905056fea2646970667358221220390292e2710a2cd1892fe525eaff7c80334b45acc1d87eb74e97355f58dfa7bd64736f6c63430008130033",
  "immutableReferences": {},
  "source": "// SPDX-License-Identifier: MIT\npragma solidity ^0.8.19;\n\nimport \"@openzeppelin/contracts/security/ReentrancyGuard.sol\";\nimport \"./Identity.sol\";\n\ncontract Certificates is ReentrancyGuard {\n    Identity public identityContract;\n    \n    struct Certificate {\n        address student;\n        address institution;\n        string ipfsHash;\n        uint256 issuedAt;\n        bool isValid;\n    }\n    \n    // certificateId => Certificate\n    mapping(bytes32 => Certificate) public certificates;\n    // student => certificateIds[]\n    mapping(address => bytes32[]) public studentCertificates;\n    \n    event CertificateIssued(bytes32 indexed certificateId, address indexed student, address indexed institution);\n    event CertificateRevoked(bytes32 indexed certificateId);\n    \n    constructor(address _identityContract) {\n        identityContract = Identity(_identityContract);\n    }\n    \n    modifier onlyVerifiedInstitution() {\n        require(\n            identityContract.getUserRole(msg.sender) == Identity.UserRole.INSTITUTION &&\n            identityContract.isVerifiedUser(msg.sender),\n            \"Not a verified institution\"\n        );\n        _;\n    }\n    \n    function issueCertificate(\n        address _student,\n        string memory _ipfsHash\n    ) external onlyVerifiedInstitution nonReentrant returns (bytes32) {\n        require(_student != address(0), \"Invalid student address\");\n        require(bytes(_ipfsHash).length > 0, \"Invalid IPFS hash\");\n        \n        bytes32 certificateId = keccak256(\n            abi.encodePacked(_student, msg.sender, _ipfsHash, block.timestamp)\n        );\n        \n        require(certificates[certificateId].issuedAt == 0, \"Certificate already exists\");\n        \n        certificates[certificateId] = Certificate(\n            _student,\n            msg.sender,\n            _ipfsHash,\n            block.timestamp,\n            true\n        );\n        \n        studentCertificates[_student].push(certificateId);\n        \n        emit CertificateIssued(certificateId, _student, msg.sender);\n        \n        return certificateId;\n    }\n    \n    function revokeCertificate(bytes32 _certificateId) external nonReentrant {\n        Certificate storage cert = certificates[_certificateId];\n        require(cert.issuedAt > 0, \"Certificate does not exist\");\n        require(cert.institution == msg.sender, \"Not certificate issuer\");\n        require(cert.isValid, \"Certificate already revoked\");\n        \n        cert.isValid = false;\n        emit CertificateRevoked(_certificateId);\n    }\n    \n    function verifyCertificate(bytes32 _certificateId) external view returns (\n        address student,\n        address institution,\n        string memory ipfsHash,\n        uint256 issuedAt,\n        bool isValid\n    ) {\n        Certificate memory cert = certificates[_certificateId];\n        require(cert.issuedAt > 0, \"Certificate does not exist\");\n        \n        return (\n            cert.student,\n            cert.institution,\n            cert.ipfsHash,\n            cert.issuedAt,\n            cert.isValid\n        );\n    }\n    \n    function getStudentCertificates(address _student) external view returns (bytes32[] memory) {\n        return studentCertificates[_student];\n    }\n} ",
  "sourcePath": "C:\\Users\\osama\\OneDrive\\Desktop\\Graduation\\grad-main-0.1\\contracts\\Certificates.sol",
  "compiler": {
    "name": "solc",
    "version": "0.8.19+commit.7dd6d404.Emscripten.clang"
  },
  "schemaVersion": "3.4.16",
  "updatedAt": "2025-04-17T00:42:23.825Z",
  "networkType": "ethereum",
  "devdoc": {
    "kind": "dev",
    "methods": {},
    "version": 1
  },
  "userdoc": {
    "kind": "user",
    "methods": {},
    "version": 1
  }
}