{
  "contractName": "Certificates",
  "abi": [
    {
      "inputs": [
        {
          "internalType": "address",
          "name": "_identityContract",
          "type": "address"
        }
      ],
      "stateMutability": "nonpayable",
      "type": "constructor"
    },
    {
      "anonymous": false,
      "inputs": [
        {
          "indexed": true,
          "internalType": "bytes32",
          "name": "certificateId",
          "type": "bytes32"
        },
        {
          "indexed": true,
          "internalType": "address",
          "name": "student",
          "type": "address"
        },
        {
          "indexed": true,
          "internalType": "address",
          "name": "institution",
          "type": "address"
        }
      ],
      "name": "CertificateIssued",
      "type": "event"
    },
    {
      "anonymous": false,
      "inputs": [
        {
          "indexed": true,
          "internalType": "bytes32",
          "name": "certificateId",
          "type": "bytes32"
        }
      ],
      "name": "CertificateRevoked",
      "type": "event"
    },
    {
      "inputs": [
        {
          "internalType": "bytes32",
          "name": "",
          "type": "bytes32"
        }
      ],
      "name": "certificates",
      "outputs": [
        {
          "internalType": "address",
          "name": "student",
          "type": "address"
        },
        {
          "internalType": "address",
          "name": "institution",
          "type": "address"
        },
        {
          "internalType": "string",
          "name": "ipfsHash",
          "type": "string"
        },
        {
          "internalType": "uint256",
          "name": "issuedAt",
          "type": "uint256"
        },
        {
          "internalType": "bool",
          "name": "isValid",
          "type": "bool"
        }
      ],
      "stateMutability": "view",
      "type": "function",
      "constant": true
    },
    {
      "inputs": [],
      "name": "identityContract",
      "outputs": [
        {
          "internalType": "contract Identity",
          "name": "",
          "type": "address"
        }
      ],
      "stateMutability": "view",
      "type": "function",
      "constant": true
    },
    {
      "inputs": [
        {
          "internalType": "address",
          "name": "",
          "type": "address"
        },
        {
          "internalType": "uint256",
          "name": "",
          "type": "uint256"
        }
      ],
      "name": "studentCertificates",
      "outputs": [
        {
          "internalType": "bytes32",
          "name": "",
          "type": "bytes32"
        }
      ],
      "stateMutability": "view",
      "type": "function",
      "constant": true
    },
    {
      "inputs": [
        {
          "internalType": "address",
          "name": "_student",
          "type": "address"
        },
        {
          "internalType": "string",
          "name": "_ipfsHash",
          "type": "string"
        }
      ],
      "name": "issueCertificate",
      "outputs": [
        {
          "internalType": "bytes32",
          "name": "",
          "type": "bytes32"
        }
      ],
      "stateMutability": "nonpayable",
      "type": "function"
    },
    {
      "inputs": [
        {
          "internalType": "bytes32",
          "name": "_certificateId",
          "type": "bytes32"
        }
      ],
      "name": "revokeCertificate",
      "outputs": [],
      "stateMutability": "nonpayable",
      "type": "function"
    },
    {
      "inputs": [
        {
          "internalType": "bytes32",
          "name": "_certificateId",
          "type": "bytes32"
        }
      ],
      "name": "verifyCertificate",
      "outputs": [
        {
          "internalType": "address",
          "name": "student",
          "type": "address"
        },
        {
          "internalType": "address",
          "name": "institution",
          "type": "address"
        },
        {
          "internalType": "string",
          "name": "ipfsHash",
          "type": "string"
        },
        {
          "internalType": "uint256",
          "name": "issuedAt",
          "type": "uint256"
        },
        {
          "internalType": "bool",
          "name": "isValid",
          "type": "bool"
        }
      ],
      "stateMutability": "view",
      "type": "function",
      "constant": true
    },
    {
      "inputs": [
        {
          "internalType": "address",
          "name": "_student",
          "type": "address"
        }
      ],
      "name": "getStudentCertificates",
      "outputs": [
        {
          "internalType": "bytes32[]",
          "name": "",
          "type": "bytes32[]"
        }
      ],
      "stateMutability": "view",
      "type": "function",
      "constant": true
    }
  ],
  "bytecode": "0x608060405234801561001057600080fd5b50604051610e08380380610e0883398101604081905261002f91610059565b6001600081905580546001600160a01b0319166001600160a01b0392909216919091179055610089565b60006020828403121561006b57600080fd5b81516001600160a01b038116811461008257600080fd5b9392505050565b610d70806100986000396000f3fe608060405234801561001057600080fd5b506004361061006d5760003560e01c806367031bae14610072578063742f06881461009b578063850c1768146100bf578063bb721aab146100d2578063c3934f0e146100f3578063c6cbc52a14610106578063ebc63bc01461011b575b600080fd5b600154610085906001600160a01b031681565b60405161009291906108ec565b60405180910390f35b6100ae6100a9366004610900565b61013b565b60405161009295949392919061093d565b6100ae6100cd366004610900565b610205565b6100e56100e03660046109cb565b61034b565b604051908152602001610092565b6100e5610101366004610a8d565b6106d3565b610119610114366004610900565b610704565b005b61012e610129366004610ab7565b610827565b6040516100929190610ad9565b60026020819052600091825260409091208054600182015492820180546001600160a01b0392831694909216929161017290610b1d565b80601f016020809104026020016040519081016040528092919081815260200182805461019e90610b1d565b80156101eb5780601f106101c0576101008083540402835291602001916101eb565b820191906000526020600020905b8154815290600101906020018083116101ce57829003601f168201915b50505050600383015460049093015491929160ff16905085565b6000818152600260208181526040808420815160a08101835281546001600160a01b03908116825260018301541693810193909352928301805485946060948694859485949293929184019161025a90610b1d565b80601f016020809104026020016040519081016040528092919081815260200182805461028690610b1d565b80156102d35780601f106102a8576101008083540402835291602001916102d3565b820191906000526020600020905b8154815290600101906020018083116102b657829003601f168201915b50505091835250506003820154602082015260049091015460ff16151560409091015260608101519091506103235760405162461bcd60e51b815260040161031a90610b57565b60405180910390fd5b8051602082015160408301516060840151608090940151929a91995097509195509350915050565b60006002600154604051632782085160e01b81526001600160a01b039091169063278208519061037f9033906004016108ec565b602060405180830381865afa15801561039c573d6000803e3d6000fd5b505050506040513d601f19601f820116820180604052508101906103c09190610ba1565b60048111156103d1576103d1610b8b565b14801561044a5750600154604051633da1c0c360e01b81526001600160a01b0390911690633da1c0c3906104099033906004016108ec565b602060405180830381865afa158015610426573d6000803e3d6000fd5b505050506040513d601f19601f8201168201806040525081019061044a9190610bc2565b6104935760405162461bcd60e51b815260206004820152601a6024820152792737ba1030903b32b934b334b2b21034b739ba34ba3aba34b7b760311b604482015260640161031a565b61049b610893565b6001600160a01b0383166104eb5760405162461bcd60e51b8152602060048201526017602482015276496e76616c69642073747564656e74206164647265737360481b604482015260640161031a565b60008251116105305760405162461bcd60e51b8152602060048201526011602482015270092dcecc2d8d2c84092a08ca640d0c2e6d607b1b604482015260640161031a565b6000833384426040516020016105499493929190610be4565b60408051601f19818403018152918152815160209283012060008181526002909352912060030154909150156105be5760405162461bcd60e51b815260206004820152601a602482015279436572746966696361746520616c72656164792065786973747360301b604482015260640161031a565b6040805160a0810182526001600160a01b038087168252336020808401918252838501888152426060860152600160808601819052600088815260029384905296909620855181549086166001600160a01b0319918216178255935196810180549790951696909316959095179092559251919291908201906106419082610c7a565b5060608201516003828101919091556080909201516004909101805460ff19169115159190911790556001600160a01b03851660008181526020928352604080822080546001810182559083529382209093018490559151339284917f96acc7d29f59de96f3b52573049182d873062e60b6dd01e0bf81b3cb8f1078229190a490506106cd6001600055565b92915050565b600360205281600052604060002081815481106106ef57600080fd5b90600052602060002001600091509150505481565b61070c610893565b6000818152600260205260409020600381015461073b5760405162461bcd60e51b815260040161031a90610b57565b60018101546001600160a01b031633146107905760405162461bcd60e51b81526020600482015260166024820152752737ba1031b2b93a34b334b1b0ba329034b9b9bab2b960511b604482015260640161031a565b600481015460ff166107e25760405162461bcd60e51b815260206004820152601b60248201527a10d95c9d1a599a58d85d1948185b1c9958591e481c995d9bdad959602a1b604482015260640161031a565b60048101805460ff1916905560405182907f44d80a438cb4fa3b5aedbe551ce3d9382e37f446917b783e1dee70a03b4180e390600090a2506108246001600055565b50565b6001600160a01b03811660009081526003602090815260409182902080548351818402810184019094528084526060939283018282801561088757602002820191906000526020600020905b815481526020019060010190808311610873575b50505050509050919050565b6002600054036108e55760405162461bcd60e51b815260206004820152601f60248201527f5265656e7472616e637947756172643a207265656e7472616e742063616c6c00604482015260640161031a565b6002600055565b6001600160a01b0391909116815260200190565b60006020828403121561091257600080fd5b5035919050565b60005b8381101561093457818101518382015260200161091c565b50506000910152565b600060018060a01b03808816835280871660208401525060a0604083015284518060a08401526109748160c0850160208901610919565b606083019490945250901515608082015260c0601f909201601f191601019392505050565b80356001600160a01b03811681146109b057600080fd5b919050565b634e487b7160e01b600052604160045260246000fd5b600080604083850312156109de57600080fd5b6109e783610999565b9150602083013567ffffffffffffffff80821115610a0457600080fd5b818501915085601f830112610a1857600080fd5b813581811115610a2a57610a2a6109b5565b604051601f8201601f19908116603f01168101908382118183101715610a5257610a526109b5565b81604052828152886020848701011115610a6b57600080fd5b8260208601602083013760006020848301015280955050505050509250929050565b60008060408385031215610aa057600080fd5b610aa983610999565b946020939093013593505050565b600060208284031215610ac957600080fd5b610ad282610999565b9392505050565b6020808252825182820181905260009190848201906040850190845b81811015610b1157835183529284019291840191600101610af5565b50909695505050505050565b600181811c90821680610b3157607f821691505b602082108103610b5157634e487b7160e01b600052602260045260246000fd5b50919050565b6020808252601a908201527910d95c9d1a599a58d85d1948191bd95cc81b9bdd08195e1a5cdd60321b604082015260600190565b634e487b7160e01b600052602160045260246000fd5b600060208284031215610bb357600080fd5b815160058110610ad257600080fd5b600060208284031215610bd457600080fd5b81518015158114610ad257600080fd5b6001600160601b0319606086811b8216835285901b1660148201528251600090610c15816028850160208801610919565b6028920191820192909252604801949350505050565b601f821115610c7557600081815260208120601f850160051c81016020861015610c525750805b601f850160051c820191505b81811015610c7157828155600101610c5e565b5050505b505050565b815167ffffffffffffffff811115610c9457610c946109b5565b610ca881610ca28454610b1d565b84610c2b565b602080601f831160018114610cdd5760008415610cc55750858301515b600019600386901b1c1916600185901b178555610c71565b600085815260208120601f198616915b82811015610d0c57888601518255948401946001909101908401610ced565b5085821015610d2a5787850151600019600388901b60f8161c191681555b5050505050600190811b0190555056fea264697066735822122091940c38e9878621b33ca4711de0a1a38cfdd13cff633179a32bbe61aa76be1364736f6c63430008130033",
  "immutableReferences": {},
  "source": "// SPDX-License-Identifier: MIT\r\npragma solidity ^0.8.19;\r\n\r\nimport \"@openzeppelin/contracts/security/ReentrancyGuard.sol\";\r\nimport \"./Identity.sol\";\r\n\r\ncontract Certificates is ReentrancyGuard {\r\n    Identity public identityContract;\r\n    \r\n    struct Certificate {\r\n        address student;\r\n        address institution;\r\n        string ipfsHash;\r\n        uint256 issuedAt;\r\n        bool isValid;\r\n    }\r\n    \r\n    // certificateId => Certificate\r\n    mapping(bytes32 => Certificate) public certificates;\r\n    // student => certificateIds[]\r\n    mapping(address => bytes32[]) public studentCertificates;\r\n    \r\n    event CertificateIssued(bytes32 indexed certificateId, address indexed student, address indexed institution);\r\n    event CertificateRevoked(bytes32 indexed certificateId);\r\n    \r\n    constructor(address _identityContract) {\r\n        identityContract = Identity(_identityContract);\r\n    }\r\n    \r\n    modifier onlyVerifiedInstitution() {\r\n        require(\r\n            identityContract.getUserRole(msg.sender) == Identity.UserRole.INSTITUTION &&\r\n            identityContract.isVerifiedUser(msg.sender),\r\n            \"Not a verified institution\"\r\n        );\r\n        _;\r\n    }\r\n    \r\n    function issueCertificate(\r\n        address _student,\r\n        string memory _ipfsHash\r\n    ) external onlyVerifiedInstitution nonReentrant returns (bytes32) {\r\n        require(_student != address(0), \"Invalid student address\");\r\n        require(bytes(_ipfsHash).length > 0, \"Invalid IPFS hash\");\r\n        \r\n        bytes32 certificateId = keccak256(\r\n            abi.encodePacked(_student, msg.sender, _ipfsHash, block.timestamp)\r\n        );\r\n        \r\n        require(certificates[certificateId].issuedAt == 0, \"Certificate already exists\");\r\n        \r\n        certificates[certificateId] = Certificate(\r\n            _student,\r\n            msg.sender,\r\n            _ipfsHash,\r\n            block.timestamp,\r\n            true\r\n        );\r\n        \r\n        studentCertificates[_student].push(certificateId);\r\n        \r\n        emit CertificateIssued(certificateId, _student, msg.sender);\r\n        \r\n        return certificateId;\r\n    }\r\n    \r\n    function revokeCertificate(bytes32 _certificateId) external nonReentrant {\r\n        Certificate storage cert = certificates[_certificateId];\r\n        require(cert.issuedAt > 0, \"Certificate does not exist\");\r\n        require(cert.institution == msg.sender, \"Not certificate issuer\");\r\n        require(cert.isValid, \"Certificate already revoked\");\r\n        \r\n        cert.isValid = false;\r\n        emit CertificateRevoked(_certificateId);\r\n    }\r\n    \r\n    function verifyCertificate(bytes32 _certificateId) external view returns (\r\n        address student,\r\n        address institution,\r\n        string memory ipfsHash,\r\n        uint256 issuedAt,\r\n        bool isValid\r\n    ) {\r\n        Certificate memory cert = certificates[_certificateId];\r\n        require(cert.issuedAt > 0, \"Certificate does not exist\");\r\n        \r\n        return (\r\n            cert.student,\r\n            cert.institution,\r\n            cert.ipfsHash,\r\n            cert.issuedAt,\r\n            cert.isValid\r\n        );\r\n    }\r\n    \r\n    function getStudentCertificates(address _student) external view returns (bytes32[] memory) {\r\n        return studentCertificates[_student];\r\n    }\r\n} ",
  "sourcePath": "C:\\Users\\osama\\OneDrive\\Desktop\\Graduation\\education-blockchain\\contracts\\Certificates.sol",
  "compiler": {
    "name": "solc",
    "version": "0.8.19+commit.7dd6d404.Emscripten.clang"
  },
  "schemaVersion": "3.4.16",
  "updatedAt": "2025-05-02T18:18:34.050Z",
  "networkType": "ethereum",
  "devdoc": {
    "kind": "dev",
    "methods": {},
    "version": 1
  },
  "userdoc": {
    "kind": "user",
    "methods": {},
    "version": 1
  }
}