{
  "contractName": "ExamManagement",
  "abi": [
    {
      "inputs": [
        {
          "internalType": "address",
          "name": "_identityContractAddress",
          "type": "address"
        }
      ],
      "stateMutability": "nonpayable",
      "type": "constructor"
    },
    {
      "anonymous": false,
      "inputs": [
        {
          "indexed": true,
          "internalType": "bytes32",
          "name": "certificateId",
          "type": "bytes32"
        },
        {
          "indexed": true,
          "internalType": "address",
          "name": "student",
          "type": "address"
        }
      ],
      "name": "CertificateIssued",
      "type": "event"
    },
    {
      "anonymous": false,
      "inputs": [
        {
          "indexed": true,
          "internalType": "bytes32",
          "name": "examId",
          "type": "bytes32"
        },
        {
          "indexed": false,
          "internalType": "string",
          "name": "title",
          "type": "string"
        }
      ],
      "name": "ExamCreated",
      "type": "event"
    },
    {
      "anonymous": false,
      "inputs": [
        {
          "indexed": true,
          "internalType": "bytes32",
          "name": "examId",
          "type": "bytes32"
        },
        {
          "indexed": false,
          "internalType": "string",
          "name": "status",
          "type": "string"
        }
      ],
      "name": "ExamStatusUpdated",
      "type": "event"
    },
    {
      "anonymous": false,
      "inputs": [
        {
          "indexed": true,
          "internalType": "address",
          "name": "institution",
          "type": "address"
        },
        {
          "indexed": false,
          "internalType": "string",
          "name": "name",
          "type": "string"
        }
      ],
      "name": "InstitutionProfileUpdated",
      "type": "event"
    },
    {
      "anonymous": false,
      "inputs": [
        {
          "indexed": true,
          "internalType": "address",
          "name": "institution",
          "type": "address"
        },
        {
          "indexed": false,
          "internalType": "string",
          "name": "name",
          "type": "string"
        }
      ],
      "name": "InstitutionRegistered",
      "type": "event"
    },
    {
      "anonymous": false,
      "inputs": [
        {
          "indexed": true,
          "internalType": "address",
          "name": "institution",
          "type": "address"
        }
      ],
      "name": "InstitutionVerified",
      "type": "event"
    },
    {
      "anonymous": false,
      "inputs": [
        {
          "indexed": true,
          "internalType": "address",
          "name": "previousOwner",
          "type": "address"
        },
        {
          "indexed": true,
          "internalType": "address",
          "name": "newOwner",
          "type": "address"
        }
      ],
      "name": "OwnershipTransferred",
      "type": "event"
    },
    {
      "anonymous": false,
      "inputs": [
        {
          "indexed": false,
          "internalType": "address",
          "name": "account",
          "type": "address"
        }
      ],
      "name": "Paused",
      "type": "event"
    },
    {
      "anonymous": false,
      "inputs": [
        {
          "indexed": true,
          "internalType": "bytes32",
          "name": "examId",
          "type": "bytes32"
        },
        {
          "indexed": true,
          "internalType": "address",
          "name": "student",
          "type": "address"
        }
      ],
      "name": "ResultSubmitted",
      "type": "event"
    },
    {
      "anonymous": false,
      "inputs": [
        {
          "indexed": true,
          "internalType": "address",
          "name": "institution",
          "type": "address"
        },
        {
          "indexed": true,
          "internalType": "address",
          "name": "student",
          "type": "address"
        }
      ],
      "name": "StudentAdded",
      "type": "event"
    },
    {
      "anonymous": false,
      "inputs": [
        {
          "indexed": true,
          "internalType": "address",
          "name": "student",
          "type": "address"
        },
        {
          "indexed": false,
          "internalType": "string",
          "name": "status",
          "type": "string"
        }
      ],
      "name": "StudentStatusUpdated",
      "type": "event"
    },
    {
      "anonymous": false,
      "inputs": [
        {
          "indexed": true,
          "internalType": "bytes32",
          "name": "examId",
          "type": "bytes32"
        },
        {
          "indexed": false,
          "internalType": "address[]",
          "name": "students",
          "type": "address[]"
        }
      ],
      "name": "StudentsRegistered",
      "type": "event"
    },
    {
      "anonymous": false,
      "inputs": [
        {
          "indexed": false,
          "internalType": "address",
          "name": "account",
          "type": "address"
        }
      ],
      "name": "Unpaused",
      "type": "event"
    },
    {
      "inputs": [
        {
          "internalType": "bytes32",
          "name": "",
          "type": "bytes32"
        }
      ],
      "name": "certificates",
      "outputs": [
        {
          "internalType": "address",
          "name": "student",
          "type": "address"
        },
        {
          "internalType": "address",
          "name": "issuer",
          "type": "address"
        },
        {
          "internalType": "string",
          "name": "ipfsHash",
          "type": "string"
        },
        {
          "internalType": "uint256",
          "name": "issuedAt",
          "type": "uint256"
        },
        {
          "internalType": "bool",
          "name": "exists",
          "type": "bool"
        }
      ],
      "stateMutability": "view",
      "type": "function",
      "constant": true
    },
    {
      "inputs": [
        {
          "internalType": "bytes32",
          "name": "",
          "type": "bytes32"
        },
        {
          "internalType": "address",
          "name": "",
          "type": "address"
        }
      ],
      "name": "examResults",
      "outputs": [
        {
          "internalType": "uint256",
          "name": "score",
          "type": "uint256"
        },
        {
          "internalType": "string",
          "name": "grade",
          "type": "string"
        },
        {
          "internalType": "string",
          "name": "notes",
          "type": "string"
        },
        {
          "internalType": "bool",
          "name": "exists",
          "type": "bool"
        }
      ],
      "stateMutability": "view",
      "type": "function",
      "constant": true
    },
    {
      "inputs": [
        {
          "internalType": "bytes32",
          "name": "",
          "type": "bytes32"
        }
      ],
      "name": "exams",
      "outputs": [
        {
          "internalType": "string",
          "name": "title",
          "type": "string"
        },
        {
          "internalType": "string",
          "name": "description",
          "type": "string"
        },
        {
          "internalType": "uint256",
          "name": "date",
          "type": "uint256"
        },
        {
          "internalType": "uint256",
          "name": "duration",
          "type": "uint256"
        },
        {
          "internalType": "string",
          "name": "status",
          "type": "string"
        },
        {
          "internalType": "string",
          "name": "ipfsHash",
          "type": "string"
        },
        {
          "internalType": "bool",
          "name": "exists",
          "type": "bool"
        }
      ],
      "stateMutability": "view",
      "type": "function",
      "constant": true
    },
    {
      "inputs": [],
      "name": "identityContract",
      "outputs": [
        {
          "internalType": "contract IIdentity",
          "name": "",
          "type": "address"
        }
      ],
      "stateMutability": "view",
      "type": "function",
      "constant": true
    },
    {
      "inputs": [
        {
          "internalType": "address",
          "name": "",
          "type": "address"
        },
        {
          "internalType": "uint256",
          "name": "",
          "type": "uint256"
        }
      ],
      "name": "institutionExams",
      "outputs": [
        {
          "internalType": "bytes32",
          "name": "",
          "type": "bytes32"
        }
      ],
      "stateMutability": "view",
      "type": "function",
      "constant": true
    },
    {
      "inputs": [
        {
          "internalType": "address",
          "name": "",
          "type": "address"
        },
        {
          "internalType": "address",
          "name": "",
          "type": "address"
        }
      ],
      "name": "institutionStudents",
      "outputs": [
        {
          "internalType": "bool",
          "name": "",
          "type": "bool"
        }
      ],
      "stateMutability": "view",
      "type": "function",
      "constant": true
    },
    {
      "inputs": [
        {
          "internalType": "address",
          "name": "",
          "type": "address"
        }
      ],
      "name": "institutions",
      "outputs": [
        {
          "internalType": "string",
          "name": "name",
          "type": "string"
        },
        {
          "internalType": "string",
          "name": "description",
          "type": "string"
        },
        {
          "internalType": "string",
          "name": "physicalAddress",
          "type": "string"
        },
        {
          "internalType": "string",
          "name": "email",
          "type": "string"
        },
        {
          "internalType": "string",
          "name": "phone",
          "type": "string"
        },
        {
          "internalType": "string",
          "name": "website",
          "type": "string"
        },
        {
          "internalType": "string",
          "name": "logo",
          "type": "string"
        },
        {
          "internalType": "string",
          "name": "ministry",
          "type": "string"
        },
        {
          "internalType": "string",
          "name": "university",
          "type": "string"
        },
        {
          "internalType": "string",
          "name": "college",
          "type": "string"
        },
        {
          "internalType": "bool",
          "name": "isVerified",
          "type": "bool"
        },
        {
          "internalType": "bool",
          "name": "exists",
          "type": "bool"
        }
      ],
      "stateMutability": "view",
      "type": "function",
      "constant": true
    },
    {
      "inputs": [],
      "name": "owner",
      "outputs": [
        {
          "internalType": "address",
          "name": "",
          "type": "address"
        }
      ],
      "stateMutability": "view",
      "type": "function",
      "constant": true
    },
    {
      "inputs": [],
      "name": "paused",
      "outputs": [
        {
          "internalType": "bool",
          "name": "",
          "type": "bool"
        }
      ],
      "stateMutability": "view",
      "type": "function",
      "constant": true
    },
    {
      "inputs": [],
      "name": "renounceOwnership",
      "outputs": [],
      "stateMutability": "nonpayable",
      "type": "function"
    },
    {
      "inputs": [
        {
          "internalType": "address",
          "name": "",
          "type": "address"
        }
      ],
      "name": "students",
      "outputs": [
        {
          "internalType": "string",
          "name": "name",
          "type": "string"
        },
        {
          "internalType": "string",
          "name": "email",
          "type": "string"
        },
        {
          "internalType": "uint256",
          "name": "enrollmentDate",
          "type": "uint256"
        },
        {
          "internalType": "string",
          "name": "status",
          "type": "string"
        },
        {
          "internalType": "bool",
          "name": "exists",
          "type": "bool"
        }
      ],
      "stateMutability": "view",
      "type": "function",
      "constant": true
    },
    {
      "inputs": [
        {
          "internalType": "address",
          "name": "newOwner",
          "type": "address"
        }
      ],
      "name": "transferOwnership",
      "outputs": [],
      "stateMutability": "nonpayable",
      "type": "function"
    },
    {
      "inputs": [
        {
          "internalType": "string",
          "name": "name",
          "type": "string"
        },
        {
          "internalType": "string",
          "name": "description",
          "type": "string"
        },
        {
          "internalType": "string",
          "name": "physicalAddress",
          "type": "string"
        },
        {
          "internalType": "string",
          "name": "email",
          "type": "string"
        },
        {
          "internalType": "string",
          "name": "phone",
          "type": "string"
        },
        {
          "internalType": "string",
          "name": "website",
          "type": "string"
        },
        {
          "internalType": "string",
          "name": "logo",
          "type": "string"
        },
        {
          "internalType": "string",
          "name": "ministry",
          "type": "string"
        },
        {
          "internalType": "string",
          "name": "university",
          "type": "string"
        },
        {
          "internalType": "string",
          "name": "college",
          "type": "string"
        }
      ],
      "name": "registerInstitution",
      "outputs": [],
      "stateMutability": "nonpayable",
      "type": "function"
    },
    {
      "inputs": [
        {
          "internalType": "address",
          "name": "institution",
          "type": "address"
        }
      ],
      "name": "verifyInstitution",
      "outputs": [],
      "stateMutability": "nonpayable",
      "type": "function"
    },
    {
      "inputs": [
        {
          "internalType": "string",
          "name": "name",
          "type": "string"
        },
        {
          "internalType": "string",
          "name": "ministry",
          "type": "string"
        },
        {
          "internalType": "string",
          "name": "university",
          "type": "string"
        },
        {
          "internalType": "string",
          "name": "college",
          "type": "string"
        },
        {
          "internalType": "string",
          "name": "description",
          "type": "string"
        },
        {
          "internalType": "string",
          "name": "logo",
          "type": "string"
        },
        {
          "internalType": "string",
          "name": "website",
          "type": "string"
        },
        {
          "internalType": "string",
          "name": "email",
          "type": "string"
        },
        {
          "internalType": "string",
          "name": "phone",
          "type": "string"
        }
      ],
      "name": "updateInstitutionProfile",
      "outputs": [],
      "stateMutability": "nonpayable",
      "type": "function"
    },
    {
      "inputs": [
        {
          "internalType": "address",
          "name": "studentAddress",
          "type": "address"
        },
        {
          "internalType": "string",
          "name": "name",
          "type": "string"
        },
        {
          "internalType": "string",
          "name": "email",
          "type": "string"
        }
      ],
      "name": "addStudent",
      "outputs": [],
      "stateMutability": "nonpayable",
      "type": "function"
    },
    {
      "inputs": [
        {
          "internalType": "address",
          "name": "studentAddress",
          "type": "address"
        },
        {
          "internalType": "string",
          "name": "newStatus",
          "type": "string"
        }
      ],
      "name": "updateStudentStatus",
      "outputs": [],
      "stateMutability": "nonpayable",
      "type": "function"
    },
    {
      "inputs": [
        {
          "internalType": "string",
          "name": "title",
          "type": "string"
        },
        {
          "internalType": "string",
          "name": "description",
          "type": "string"
        },
        {
          "internalType": "uint256",
          "name": "date",
          "type": "uint256"
        },
        {
          "internalType": "uint256",
          "name": "duration",
          "type": "uint256"
        },
        {
          "internalType": "string",
          "name": "ipfsHash",
          "type": "string"
        }
      ],
      "name": "createExam",
      "outputs": [
        {
          "internalType": "bytes32",
          "name": "",
          "type": "bytes32"
        }
      ],
      "stateMutability": "nonpayable",
      "type": "function"
    },
    {
      "inputs": [
        {
          "internalType": "bytes32",
          "name": "examId",
          "type": "bytes32"
        },
        {
          "internalType": "string",
          "name": "newStatus",
          "type": "string"
        }
      ],
      "name": "updateExamStatus",
      "outputs": [],
      "stateMutability": "nonpayable",
      "type": "function"
    },
    {
      "inputs": [
        {
          "internalType": "bytes32",
          "name": "examId",
          "type": "bytes32"
        },
        {
          "internalType": "address[]",
          "name": "studentAddresses",
          "type": "address[]"
        }
      ],
      "name": "registerStudentsForExam",
      "outputs": [],
      "stateMutability": "nonpayable",
      "type": "function"
    },
    {
      "inputs": [
        {
          "internalType": "bytes32",
          "name": "examId",
          "type": "bytes32"
        },
        {
          "internalType": "address",
          "name": "student",
          "type": "address"
        },
        {
          "internalType": "uint256",
          "name": "score",
          "type": "uint256"
        },
        {
          "internalType": "string",
          "name": "grade",
          "type": "string"
        },
        {
          "internalType": "string",
          "name": "notes",
          "type": "string"
        }
      ],
      "name": "submitResult",
      "outputs": [],
      "stateMutability": "nonpayable",
      "type": "function"
    },
    {
      "inputs": [
        {
          "internalType": "address",
          "name": "student",
          "type": "address"
        },
        {
          "internalType": "string",
          "name": "ipfsHash",
          "type": "string"
        }
      ],
      "name": "issueCertificate",
      "outputs": [],
      "stateMutability": "nonpayable",
      "type": "function"
    },
    {
      "inputs": [
        {
          "internalType": "address",
          "name": "institution",
          "type": "address"
        }
      ],
      "name": "getInstitution",
      "outputs": [
        {
          "internalType": "string",
          "name": "name",
          "type": "string"
        },
        {
          "internalType": "string",
          "name": "description",
          "type": "string"
        },
        {
          "internalType": "string",
          "name": "physicalAddress",
          "type": "string"
        },
        {
          "internalType": "string",
          "name": "email",
          "type": "string"
        },
        {
          "internalType": "string",
          "name": "phone",
          "type": "string"
        },
        {
          "internalType": "string",
          "name": "website",
          "type": "string"
        },
        {
          "internalType": "string",
          "name": "logo",
          "type": "string"
        },
        {
          "internalType": "string",
          "name": "ministry",
          "type": "string"
        },
        {
          "internalType": "string",
          "name": "university",
          "type": "string"
        },
        {
          "internalType": "string",
          "name": "college",
          "type": "string"
        },
        {
          "internalType": "bool",
          "name": "isVerified",
          "type": "bool"
        }
      ],
      "stateMutability": "view",
      "type": "function",
      "constant": true
    },
    {
      "inputs": [
        {
          "internalType": "address",
          "name": "student",
          "type": "address"
        }
      ],
      "name": "getStudent",
      "outputs": [
        {
          "internalType": "string",
          "name": "name",
          "type": "string"
        },
        {
          "internalType": "string",
          "name": "email",
          "type": "string"
        },
        {
          "internalType": "uint256",
          "name": "enrollmentDate",
          "type": "uint256"
        },
        {
          "internalType": "string",
          "name": "status",
          "type": "string"
        }
      ],
      "stateMutability": "view",
      "type": "function",
      "constant": true
    },
    {
      "inputs": [
        {
          "internalType": "bytes32",
          "name": "examId",
          "type": "bytes32"
        },
        {
          "internalType": "address",
          "name": "student",
          "type": "address"
        }
      ],
      "name": "getExamResult",
      "outputs": [
        {
          "internalType": "uint256",
          "name": "score",
          "type": "uint256"
        },
        {
          "internalType": "string",
          "name": "grade",
          "type": "string"
        },
        {
          "internalType": "string",
          "name": "notes",
          "type": "string"
        }
      ],
      "stateMutability": "view",
      "type": "function",
      "constant": true
    },
    {
      "inputs": [
        {
          "internalType": "bytes32",
          "name": "examId",
          "type": "bytes32"
        }
      ],
      "name": "getExamStatistics",
      "outputs": [
        {
          "internalType": "uint256",
          "name": "totalStudents",
          "type": "uint256"
        },
        {
          "internalType": "uint256",
          "name": "passRate",
          "type": "uint256"
        },
        {
          "internalType": "uint256",
          "name": "averageScore",
          "type": "uint256"
        }
      ],
      "stateMutability": "view",
      "type": "function",
      "constant": true
    },
    {
      "inputs": [
        {
          "internalType": "address",
          "name": "institution",
          "type": "address"
        }
      ],
      "name": "getInstitutionExamList",
      "outputs": [
        {
          "internalType": "bytes32[]",
          "name": "",
          "type": "bytes32[]"
        }
      ],
      "stateMutability": "view",
      "type": "function",
      "constant": true
    },
    {
      "inputs": [
        {
          "internalType": "bytes32",
          "name": "examId",
          "type": "bytes32"
        }
      ],
      "name": "getExam",
      "outputs": [
        {
          "components": [
            {
              "internalType": "string",
              "name": "title",
              "type": "string"
            },
            {
              "internalType": "string",
              "name": "description",
              "type": "string"
            },
            {
              "internalType": "uint256",
              "name": "date",
              "type": "uint256"
            },
            {
              "internalType": "uint256",
              "name": "duration",
              "type": "uint256"
            },
            {
              "internalType": "string",
              "name": "status",
              "type": "string"
            },
            {
              "internalType": "string",
              "name": "ipfsHash",
              "type": "string"
            },
            {
              "internalType": "address[]",
              "name": "students",
              "type": "address[]"
            },
            {
              "internalType": "bool",
              "name": "exists",
              "type": "bool"
            }
          ],
          "internalType": "struct ExamManagement.Exam",
          "name": "",
          "type": "tuple"
        }
      ],
      "stateMutability": "view",
      "type": "function",
      "constant": true
    }
  ],
  "bytecode": "0x60806040523480156200001157600080fd5b5060405162004d0138038062004d018339810160408190526200003491620000c2565b6200003f3362000072565b6000805460ff60a01b19169055600180546001600160a01b0319166001600160a01b0392909216919091179055620000f4565b600080546001600160a01b038381166001600160a01b0319831681178455604051919092169283917f8be0079c531659141344cd1fd0a4f28419497f9722a3daafe3b4186f6b6457e09190a35050565b600060208284031215620000d557600080fd5b81516001600160a01b0381168114620000ed57600080fd5b9392505050565b614bfd80620001046000396000f3fe608060405234801561001057600080fd5b50600436106101645760003560e01c806399341a8a116100c957806399341a8a146102e9578063a6c807a91461030f578063b2d9767f14610333578063b532363b1461035e578063b6c11da814610371578063bb721aab14610384578063c0a9062a14610397578063cb28b17d146103aa578063db183022146103cd578063dd6aa93c146103e0578063f2fde38b1461040e578063f87b8b0c14610421578063fb3548d01461044f578063fec4b0361461047157600080fd5b8063181862a01461016957806321a829c61461017e578063360535ed146101915780633e168516146101ba5780634b841ff7146101cd5780635c975abb146101ed5780636155cce81461020b57806367031bae1461021e5780636b7b44d71461023e5780636e6dbb3f146102615780637119923614610282578063715018a6146102ac578063742f0688146102b45780638da5cb5b146102d8575b600080fd5b61017c610177366004613c2f565b610484565b005b61017c61018c366004613daf565b6105a4565b6101a461019f366004613e22565b61090f565b6040516101b19190613ec5565b60405180910390f35b61017c6101c8366004613f8d565b610c78565b6101e06101db366004613f8d565b610d0f565b6040516101b19190613faf565b600054600160a01b900460ff165b60405190151581526020016101b1565b61017c610219366004613ff3565b610dbc565b600154610231906001600160a01b031681565b6040516101b19190614040565b61025161024c366004613f8d565b610fc3565b6040516101b19493929190614054565b61027461026f36600461409e565b6111ee565b6040519081526020016101b1565b610295610290366004613f8d565b61121f565b6040516101b19b9a999897969594939291906140c8565b61017c6118ae565b6102c76102c2366004613e22565b6118c2565b6040516101b19594939291906141b4565b6000546001600160a01b0316610231565b6102fc6102f7366004613e22565b61198a565b6040516101b197969594939291906141f9565b61032261031d366004613f8d565b611be7565b6040516101b1959493929190614269565b610346610341366004613f8d565b611db0565b6040516101b19c9b9a999897969594939291906142bd565b61017c61036c3660046143b2565b61235e565b61017c61037f36600461453c565b612566565b61017c610392366004613ff3565b6127c0565b61017c6103a53660046145c3565b612a9e565b6103bd6103b83660046145f3565b612c37565b6040516101b1949392919061461f565b61017c6103db36600461465e565b612d7e565b6101fb6103ee366004614716565b600460209081526000928352604080842090915290825290205460ff1681565b61017c61041c366004613f8d565b612ff7565b61043461042f366004613e22565b613070565b604080519384526020840192909252908201526060016101b1565b61046261045d3660046145f3565b6135b3565b6040516101b193929190614740565b61027461047f366004614775565b61373f565b336000908152600260205260409020600a0154610100900460ff166104c45760405162461bcd60e51b81526004016104bb906147f6565b60405180910390fd5b336000908152600260205260409020806104de8b826148b3565b50600781016104ed8a826148b3565b50600881016104fc89826148b3565b506009810161050b88826148b3565b506001810161051a87826148b3565b506006810161052986826148b3565b506005810161053885826148b3565b506003810161054784826148b3565b506004810161055683826148b3565b50336001600160a01b03167f655d9a02ca12cc7569076641886b1626a4dda688c79db17d717c86aad58e60748b6040516105909190614972565b60405180910390a250505050505050505050565b600154604051630331df0760e01b81526001600160a01b0390911690630331df07906105d4903390600401614040565b602060405180830381865afa1580156105f1573d6000803e3d6000fd5b505050506040513d601f19601f820116820180604052508101906106159190614985565b6106315760405162461bcd60e51b81526004016104bb906149a7565b600154604051633da1c0c360e01b81526001600160a01b0390911690633da1c0c390610661903390600401614040565b602060405180830381865afa15801561067e573d6000803e3d6000fd5b505050506040513d601f19601f820116820180604052508101906106a29190614985565b6106be5760405162461bcd60e51b81526004016104bb906149de565b6001600160a01b03831660009081526003602052604090206004015460ff16156107235760405162461bcd60e51b815260206004820152601660248201527553747564656e7420616c72656164792065786973747360501b60448201526064016104bb565b60018054604051632782085160e01b81526001600160a01b0390911690632782085190610754908790600401614040565b602060405180830381865afa158015610771573d6000803e3d6000fd5b505050506040513d601f19601f820116820180604052508101906107959190614a29565b60048111156107a6576107a6614a13565b146108025760405162461bcd60e51b815260206004820152602660248201527f41646472657373206973206e6f742072656769737465726564206173206120736044820152651d1d59195b9d60d21b60648201526084016104bb565b6040805160a0810182528381526020808201849052428284015282518084018452600681526561637469766560d01b818301526060830152600160808301526001600160a01b03861660009081526003909152919091208151819061086790826148b3565b506020820151600182019061087c90826148b3565b50604082015160028201556060820151600382019061089b90826148b3565b50608091909101516004918201805491151560ff19928316179055336000818152602093845260408082206001600160a01b03891680845295528082208054909416600117909355915190917fc93a03c6c4e1438e4120d83d473f9028b8bb1947b3d183cafd9519473754e34c91a3505050565b610959604051806101000160405280606081526020016060815260200160008152602001600081526020016060815260200160608152602001606081526020016000151581525090565b60008281526005602052604090206007015460ff1661098a5760405162461bcd60e51b81526004016104bb90614a4a565b60008281526005602052604090819020815161010081019092528054829082906109b39061482a565b80601f01602080910402602001604051908101604052809291908181526020018280546109df9061482a565b8015610a2c5780601f10610a0157610100808354040283529160200191610a2c565b820191906000526020600020905b815481529060010190602001808311610a0f57829003601f168201915b50505050508152602001600182018054610a459061482a565b80601f0160208091040260200160405190810160405280929190818152602001828054610a719061482a565b8015610abe5780601f10610a9357610100808354040283529160200191610abe565b820191906000526020600020905b815481529060010190602001808311610aa157829003601f168201915b505050505081526020016002820154815260200160038201548152602001600482018054610aeb9061482a565b80601f0160208091040260200160405190810160405280929190818152602001828054610b179061482a565b8015610b645780601f10610b3957610100808354040283529160200191610b64565b820191906000526020600020905b815481529060010190602001808311610b4757829003601f168201915b50505050508152602001600582018054610b7d9061482a565b80601f0160208091040260200160405190810160405280929190818152602001828054610ba99061482a565b8015610bf65780601f10610bcb57610100808354040283529160200191610bf6565b820191906000526020600020905b815481529060010190602001808311610bd957829003601f168201915b5050505050815260200160068201805480602002602001604051908101604052809291908181526020018280548015610c5857602002820191906000526020600020905b81546001600160a01b03168152600190910190602001808311610c3a575b50505091835250506007919091015460ff16151560209091015292915050565b610c80613a56565b6001600160a01b0381166000908152600260205260409020600a0154610100900460ff16610cc05760405162461bcd60e51b81526004016104bb906147f6565b6001600160a01b038116600081815260026020526040808220600a01805460ff19166001179055517f59eb63526c88dac6c2e738ca3b5d5511d9955629a0f9d61ff80c1abc63d1cfb19190a250565b6001600160a01b0381166000908152600260205260409020600a0154606090610100900460ff16610d525760405162461bcd60e51b81526004016104bb906147f6565b6001600160a01b03821660009081526008602090815260409182902080548351818402810184019094528084529091830182828015610db057602002820191906000526020600020905b815481526020019060010190808311610d9c575b50505050509050919050565b600154604051630331df0760e01b81526001600160a01b0390911690630331df0790610dec903390600401614040565b602060405180830381865afa158015610e09573d6000803e3d6000fd5b505050506040513d601f19601f82011682018060405250810190610e2d9190614985565b610e495760405162461bcd60e51b81526004016104bb906149a7565b600154604051633da1c0c360e01b81526001600160a01b0390911690633da1c0c390610e79903390600401614040565b602060405180830381865afa158015610e96573d6000803e3d6000fd5b505050506040513d601f19601f82011682018060405250810190610eba9190614985565b610ed65760405162461bcd60e51b81526004016104bb906149de565b6001600160a01b038216600090815260036020526040902060040154829060ff16610f135760405162461bcd60e51b81526004016104bb90614a77565b3360009081526004602090815260408083206001600160a01b038716845290915290205460ff16610f565760405162461bcd60e51b81526004016104bb90614aa7565b6001600160a01b038316600090815260036020819052604090912001610f7c83826148b3565b50826001600160a01b03167f08c864cdb2074c7e172f9f881a919f5b24830abcfd1290e79d656504627177b483604051610fb69190614972565b60405180910390a2505050565b60608060006060600060036000876001600160a01b03166001600160a01b031681526020019081526020016000206040518060a001604052908160008201805461100c9061482a565b80601f01602080910402602001604051908101604052809291908181526020018280546110389061482a565b80156110855780601f1061105a57610100808354040283529160200191611085565b820191906000526020600020905b81548152906001019060200180831161106857829003601f168201915b5050505050815260200160018201805461109e9061482a565b80601f01602080910402602001604051908101604052809291908181526020018280546110ca9061482a565b80156111175780601f106110ec57610100808354040283529160200191611117565b820191906000526020600020905b8154815290600101906020018083116110fa57829003601f168201915b505050505081526020016002820154815260200160038201805461113a9061482a565b80601f01602080910402602001604051908101604052809291908181526020018280546111669061482a565b80156111b35780601f10611188576101008083540402835291602001916111b3565b820191906000526020600020905b81548152906001019060200180831161119657829003601f168201915b50505091835250506004919091015460ff16151560209182015281519082015160408301516060909301519199909850919650945092505050565b6008602052816000526040600020818154811061120a57600080fd5b90600052602060002001600091509150505481565b606080606080606080606080606080600080600260008e6001600160a01b03166001600160a01b03168152602001908152602001600020604051806101800160405290816000820180546112729061482a565b80601f016020809104026020016040519081016040528092919081815260200182805461129e9061482a565b80156112eb5780601f106112c0576101008083540402835291602001916112eb565b820191906000526020600020905b8154815290600101906020018083116112ce57829003601f168201915b505050505081526020016001820180546113049061482a565b80601f01602080910402602001604051908101604052809291908181526020018280546113309061482a565b801561137d5780601f106113525761010080835404028352916020019161137d565b820191906000526020600020905b81548152906001019060200180831161136057829003601f168201915b505050505081526020016002820180546113969061482a565b80601f01602080910402602001604051908101604052809291908181526020018280546113c29061482a565b801561140f5780601f106113e45761010080835404028352916020019161140f565b820191906000526020600020905b8154815290600101906020018083116113f257829003601f168201915b505050505081526020016003820180546114289061482a565b80601f01602080910402602001604051908101604052809291908181526020018280546114549061482a565b80156114a15780601f10611476576101008083540402835291602001916114a1565b820191906000526020600020905b81548152906001019060200180831161148457829003601f168201915b505050505081526020016004820180546114ba9061482a565b80601f01602080910402602001604051908101604052809291908181526020018280546114e69061482a565b80156115335780601f1061150857610100808354040283529160200191611533565b820191906000526020600020905b81548152906001019060200180831161151657829003601f168201915b5050505050815260200160058201805461154c9061482a565b80601f01602080910402602001604051908101604052809291908181526020018280546115789061482a565b80156115c55780601f1061159a576101008083540402835291602001916115c5565b820191906000526020600020905b8154815290600101906020018083116115a857829003601f168201915b505050505081526020016006820180546115de9061482a565b80601f016020809104026020016040519081016040528092919081815260200182805461160a9061482a565b80156116575780601f1061162c57610100808354040283529160200191611657565b820191906000526020600020905b81548152906001019060200180831161163a57829003601f168201915b505050505081526020016007820180546116709061482a565b80601f016020809104026020016040519081016040528092919081815260200182805461169c9061482a565b80156116e95780601f106116be576101008083540402835291602001916116e9565b820191906000526020600020905b8154815290600101906020018083116116cc57829003601f168201915b505050505081526020016008820180546117029061482a565b80601f016020809104026020016040519081016040528092919081815260200182805461172e9061482a565b801561177b5780601f106117505761010080835404028352916020019161177b565b820191906000526020600020905b81548152906001019060200180831161175e57829003601f168201915b505050505081526020016009820180546117949061482a565b80601f01602080910402602001604051908101604052809291908181526020018280546117c09061482a565b801561180d5780601f106117e25761010080835404028352916020019161180d565b820191906000526020600020905b8154815290600101906020018083116117f057829003601f168201915b50505050508152602001600a820160009054906101000a900460ff16151515158152602001600a820160019054906101000a900460ff1615151515815250509050806000015181602001518260400151836060015184608001518560a001518660c001518760e001518861010001518961012001518a61014001519b509b509b509b509b509b509b509b509b509b509b505091939597999b90929496989a50565b6118b6613a56565b6118c06000613ab0565b565b6007602052600090815260409020805460018201546002830180546001600160a01b039384169492909316926118f79061482a565b80601f01602080910402602001604051908101604052809291908181526020018280546119239061482a565b80156119705780601f1061194557610100808354040283529160200191611970565b820191906000526020600020905b81548152906001019060200180831161195357829003601f168201915b50505050600383015460049093015491929160ff16905085565b6005602052600090815260409020805481906119a59061482a565b80601f01602080910402602001604051908101604052809291908181526020018280546119d19061482a565b8015611a1e5780601f106119f357610100808354040283529160200191611a1e565b820191906000526020600020905b815481529060010190602001808311611a0157829003601f168201915b505050505090806001018054611a339061482a565b80601f0160208091040260200160405190810160405280929190818152602001828054611a5f9061482a565b8015611aac5780601f10611a8157610100808354040283529160200191611aac565b820191906000526020600020905b815481529060010190602001808311611a8f57829003601f168201915b505050505090806002015490806003015490806004018054611acd9061482a565b80601f0160208091040260200160405190810160405280929190818152602001828054611af99061482a565b8015611b465780601f10611b1b57610100808354040283529160200191611b46565b820191906000526020600020905b815481529060010190602001808311611b2957829003601f168201915b505050505090806005018054611b5b9061482a565b80601f0160208091040260200160405190810160405280929190818152602001828054611b879061482a565b8015611bd45780601f10611ba957610100808354040283529160200191611bd4565b820191906000526020600020905b815481529060010190602001808311611bb757829003601f168201915b5050506007909301549192505060ff1687565b600360205260009081526040902080548190611c029061482a565b80601f0160208091040260200160405190810160405280929190818152602001828054611c2e9061482a565b8015611c7b5780601f10611c5057610100808354040283529160200191611c7b565b820191906000526020600020905b815481529060010190602001808311611c5e57829003601f168201915b505050505090806001018054611c909061482a565b80601f0160208091040260200160405190810160405280929190818152602001828054611cbc9061482a565b8015611d095780601f10611cde57610100808354040283529160200191611d09565b820191906000526020600020905b815481529060010190602001808311611cec57829003601f168201915b505050505090806002015490806003018054611d249061482a565b80601f0160208091040260200160405190810160405280929190818152602001828054611d509061482a565b8015611d9d5780601f10611d7257610100808354040283529160200191611d9d565b820191906000526020600020905b815481529060010190602001808311611d8057829003601f168201915b5050506004909301549192505060ff1685565b600260205260009081526040902080548190611dcb9061482a565b80601f0160208091040260200160405190810160405280929190818152602001828054611df79061482a565b8015611e445780601f10611e1957610100808354040283529160200191611e44565b820191906000526020600020905b815481529060010190602001808311611e2757829003601f168201915b505050505090806001018054611e599061482a565b80601f0160208091040260200160405190810160405280929190818152602001828054611e859061482a565b8015611ed25780601f10611ea757610100808354040283529160200191611ed2565b820191906000526020600020905b815481529060010190602001808311611eb557829003601f168201915b505050505090806002018054611ee79061482a565b80601f0160208091040260200160405190810160405280929190818152602001828054611f139061482a565b8015611f605780601f10611f3557610100808354040283529160200191611f60565b820191906000526020600020905b815481529060010190602001808311611f4357829003601f168201915b505050505090806003018054611f759061482a565b80601f0160208091040260200160405190810160405280929190818152602001828054611fa19061482a565b8015611fee5780601f10611fc357610100808354040283529160200191611fee565b820191906000526020600020905b815481529060010190602001808311611fd157829003601f168201915b5050505050908060040180546120039061482a565b80601f016020809104026020016040519081016040528092919081815260200182805461202f9061482a565b801561207c5780601f106120515761010080835404028352916020019161207c565b820191906000526020600020905b81548152906001019060200180831161205f57829003601f168201915b5050505050908060050180546120919061482a565b80601f01602080910402602001604051908101604052809291908181526020018280546120bd9061482a565b801561210a5780601f106120df5761010080835404028352916020019161210a565b820191906000526020600020905b8154815290600101906020018083116120ed57829003601f168201915b50505050509080600601805461211f9061482a565b80601f016020809104026020016040519081016040528092919081815260200182805461214b9061482a565b80156121985780601f1061216d57610100808354040283529160200191612198565b820191906000526020600020905b81548152906001019060200180831161217b57829003601f168201915b5050505050908060070180546121ad9061482a565b80601f01602080910402602001604051908101604052809291908181526020018280546121d99061482a565b80156122265780601f106121fb57610100808354040283529160200191612226565b820191906000526020600020905b81548152906001019060200180831161220957829003601f168201915b50505050509080600801805461223b9061482a565b80601f01602080910402602001604051908101604052809291908181526020018280546122679061482a565b80156122b45780601f10612289576101008083540402835291602001916122b4565b820191906000526020600020905b81548152906001019060200180831161229757829003601f168201915b5050505050908060090180546122c99061482a565b80601f01602080910402602001604051908101604052809291908181526020018280546122f59061482a565b80156123425780601f1061231757610100808354040283529160200191612342565b820191906000526020600020905b81548152906001019060200180831161232557829003601f168201915b505050600a909301549192505060ff808216916101009004168c565b336000908152600260205260409020600a0154610100900460ff16156123c65760405162461bcd60e51b815260206004820152601e60248201527f496e737469747574696f6e20616c72656164792072656769737465726564000060448201526064016104bb565b60408051610180810182528b815260208082018c90528183018b9052606082018a90526080820189905260a0820188905260c0820187905260e08201869052610100820185905261012082018490526000610140830181905260016101608401523381526002909152919091208151819061244190826148b3565b506020820151600182019061245690826148b3565b506040820151600282019061246b90826148b3565b506060820151600382019061248090826148b3565b506080820151600482019061249590826148b3565b5060a082015160058201906124aa90826148b3565b5060c082015160068201906124bf90826148b3565b5060e082015160078201906124d490826148b3565b5061010082015160088201906124ea90826148b3565b50610120820151600982019061250090826148b3565b50610140820151600a90910180546101609093015115156101000261ff00199215159290921661ffff199093169290921717905560405133907f73a52c071d4a02996481449bf1ad04d8f24559a7ec51210c4ec5e43d3baee88190610590908d90614972565b600154604051630331df0760e01b81526001600160a01b0390911690630331df0790612596903390600401614040565b602060405180830381865afa1580156125b3573d6000803e3d6000fd5b505050506040513d601f19601f820116820180604052508101906125d79190614985565b6125f35760405162461bcd60e51b81526004016104bb906149a7565b600154604051633da1c0c360e01b81526001600160a01b0390911690633da1c0c390612623903390600401614040565b602060405180830381865afa158015612640573d6000803e3d6000fd5b505050506040513d601f19601f820116820180604052508101906126649190614985565b6126805760405162461bcd60e51b81526004016104bb906149de565b600085815260056020526040902060070154859060ff166126b35760405162461bcd60e51b81526004016104bb90614a4a565b3360009081526004602090815260408083206001600160a01b038916845290915290205460ff166126f65760405162461bcd60e51b81526004016104bb90614aa7565b60408051608081018252858152602080820186815282840186905260016060840181905260008b8152600684528581206001600160a01b038c16825290935293909120825181559051919290919082019061275190826148b3565b506040820151600282019061276690826148b3565b50606091909101516003909101805460ff19169115159190911790556040516001600160a01b0386169087907ff97d37817a3016d675a5cf7d2f08c621bf2ace42e26029a856fefb5b538ef2f890600090a3505050505050565b600154604051630331df0760e01b81526001600160a01b0390911690630331df07906127f0903390600401614040565b602060405180830381865afa15801561280d573d6000803e3d6000fd5b505050506040513d601f19601f820116820180604052508101906128319190614985565b61284d5760405162461bcd60e51b81526004016104bb906149a7565b600154604051633da1c0c360e01b81526001600160a01b0390911690633da1c0c39061287d903390600401614040565b602060405180830381865afa15801561289a573d6000803e3d6000fd5b505050506040513d601f19601f820116820180604052508101906128be9190614985565b6128da5760405162461bcd60e51b81526004016104bb906149de565b6001600160a01b038216600090815260036020526040902060040154829060ff166129175760405162461bcd60e51b81526004016104bb90614a77565b3360009081526004602090815260408083206001600160a01b038716845290915290205460ff1661295a5760405162461bcd60e51b81526004016104bb90614aa7565b612968600a80546001019055565b6000612973600a5490565b33856040516020016129a993929190928352606091821b6001600160601b03199081166020850152911b16603482015260480190565b60408051601f19818403018152828252805160209182012060a0840183526001600160a01b038089168552338584019081528585018981524260608801526001608088018190526000858152600790965295909420865181549084166001600160a01b031991821617825591519581018054969093169590911694909417905590519093506002820190612a3d90826148b3565b50606082015160038201556080909101516004909101805460ff19169115159190911790556040516001600160a01b0385169082907f11fb9f283c08b0122fe14bf3b5692d38f07282003f545f4bbc8b766ddcbda83290600090a350505050565b600154604051630331df0760e01b81526001600160a01b0390911690630331df0790612ace903390600401614040565b602060405180830381865afa158015612aeb573d6000803e3d6000fd5b505050506040513d601f19601f82011682018060405250810190612b0f9190614985565b612b2b5760405162461bcd60e51b81526004016104bb906149a7565b600154604051633da1c0c360e01b81526001600160a01b0390911690633da1c0c390612b5b903390600401614040565b602060405180830381865afa158015612b78573d6000803e3d6000fd5b505050506040513d601f19601f82011682018060405250810190612b9c9190614985565b612bb85760405162461bcd60e51b81526004016104bb906149de565b600082815260056020526040902060070154829060ff16612beb5760405162461bcd60e51b81526004016104bb90614a4a565b6000838152600560205260409020600401612c0683826148b3565b50827ff992fe1bd266a3995a256e5cc687b256f18fc830ade96b248360ef2fe29a4c4c83604051610fb69190614972565b600660209081526000928352604080842090915290825290208054600182018054919291612c649061482a565b80601f0160208091040260200160405190810160405280929190818152602001828054612c909061482a565b8015612cdd5780601f10612cb257610100808354040283529160200191612cdd565b820191906000526020600020905b815481529060010190602001808311612cc057829003601f168201915b505050505090806002018054612cf29061482a565b80601f0160208091040260200160405190810160405280929190818152602001828054612d1e9061482a565b8015612d6b5780601f10612d4057610100808354040283529160200191612d6b565b820191906000526020600020905b815481529060010190602001808311612d4e57829003601f168201915b5050506003909301549192505060ff1684565b600154604051630331df0760e01b81526001600160a01b0390911690630331df0790612dae903390600401614040565b602060405180830381865afa158015612dcb573d6000803e3d6000fd5b505050506040513d601f19601f82011682018060405250810190612def9190614985565b612e0b5760405162461bcd60e51b81526004016104bb906149a7565b600154604051633da1c0c360e01b81526001600160a01b0390911690633da1c0c390612e3b903390600401614040565b602060405180830381865afa158015612e58573d6000803e3d6000fd5b505050506040513d601f19601f82011682018060405250810190612e7c9190614985565b612e985760405162461bcd60e51b81526004016104bb906149de565b600082815260056020526040902060070154829060ff16612ecb5760405162461bcd60e51b81526004016104bb90614a4a565b60005b8251811015612fa0573360009081526004602052604081208451909190859084908110612efd57612efd614aef565b6020908102919091018101516001600160a01b031682528101919091526040016000205460ff16612f8e5760405162461bcd60e51b815260206004820152603560248201527f4f6e65206f72206d6f72652073747564656e7473206e6f7420656e726f6c6c65604482015274321034b7103a3434b99034b739ba34ba3aba34b7b760591b60648201526084016104bb565b80612f9881614b1b565b915050612ece565b5060008381526005602090815260409091208351612fc692600690920191850190613b00565b50827f70b162532c2b8935bbf6a4aa9c3d8f91fe22c1aa0c8e5d3d34264e9b7570e0c583604051610fb69190614b34565b612fff613a56565b6001600160a01b0381166130645760405162461bcd60e51b815260206004820152602660248201527f4f776e61626c653a206e6577206f776e657220697320746865207a65726f206160448201526564647265737360d01b60648201526084016104bb565b61306d81613ab0565b50565b6000818152600560205260408082208151610100810190925280548392839283928290829061309e9061482a565b80601f01602080910402602001604051908101604052809291908181526020018280546130ca9061482a565b80156131175780601f106130ec57610100808354040283529160200191613117565b820191906000526020600020905b8154815290600101906020018083116130fa57829003601f168201915b505050505081526020016001820180546131309061482a565b80601f016020809104026020016040519081016040528092919081815260200182805461315c9061482a565b80156131a95780601f1061317e576101008083540402835291602001916131a9565b820191906000526020600020905b81548152906001019060200180831161318c57829003601f168201915b5050505050815260200160028201548152602001600382015481526020016004820180546131d69061482a565b80601f01602080910402602001604051908101604052809291908181526020018280546132029061482a565b801561324f5780601f106132245761010080835404028352916020019161324f565b820191906000526020600020905b81548152906001019060200180831161323257829003601f168201915b505050505081526020016005820180546132689061482a565b80601f01602080910402602001604051908101604052809291908181526020018280546132949061482a565b80156132e15780601f106132b6576101008083540402835291602001916132e1565b820191906000526020600020905b8154815290600101906020018083116132c457829003601f168201915b505050505081526020016006820180548060200260200160405190810160405280929190818152602001828054801561334357602002820191906000526020600020905b81546001600160a01b03168152600190910190602001808311613325575b50505091835250506007919091015460ff161515602090910152905060008080805b8460c001515181101561356257600089815260066020526040812060c087015180518391908590811061339a5761339a614aef565b60200260200101516001600160a01b03166001600160a01b03168152602001908152602001600020604051806080016040529081600082015481526020016001820180546133e79061482a565b80601f01602080910402602001604051908101604052809291908181526020018280546134139061482a565b80156134605780601f1061343557610100808354040283529160200191613460565b820191906000526020600020905b81548152906001019060200180831161344357829003601f168201915b505050505081526020016002820180546134799061482a565b80601f01602080910402602001604051908101604052809291908181526020018280546134a59061482a565b80156134f25780601f106134c7576101008083540402835291602001916134f2565b820191906000526020600020905b8154815290600101906020018083116134d557829003601f168201915b50505091835250506003919091015460ff16151560209091015260608101519091501561354f578461352381614b1b565b8251909650613533915084614b75565b9250603c81600001511061354f578361354b81614b1b565b9450505b508061355a81614b1b565b915050613365565b508260008411613573576000613589565b8361357f846064614b8e565b6135899190614ba5565b600085116135985760006135a2565b6135a28584614ba5565b965096509650505050509193909250565b60008281526006602090815260408083206001600160a01b03851684528252808320815160808101909252805482526001810180546060948594879490939092918401916136009061482a565b80601f016020809104026020016040519081016040528092919081815260200182805461362c9061482a565b80156136795780601f1061364e57610100808354040283529160200191613679565b820191906000526020600020905b81548152906001019060200180831161365c57829003601f168201915b505050505081526020016002820180546136929061482a565b80601f01602080910402602001604051908101604052809291908181526020018280546136be9061482a565b801561370b5780601f106136e05761010080835404028352916020019161370b565b820191906000526020600020905b8154815290600101906020018083116136ee57829003601f168201915b50505091835250506003919091015460ff161515602091820152815190820151604090920151909891975095509350505050565b600154604051630331df0760e01b81526000916001600160a01b031690630331df0790613770903390600401614040565b602060405180830381865afa15801561378d573d6000803e3d6000fd5b505050506040513d601f19601f820116820180604052508101906137b19190614985565b6137cd5760405162461bcd60e51b81526004016104bb906149a7565b600154604051633da1c0c360e01b81526001600160a01b0390911690633da1c0c3906137fd903390600401614040565b602060405180830381865afa15801561381a573d6000803e3d6000fd5b505050506040513d601f19601f8201168201806040525081019061383e9190614985565b61385a5760405162461bcd60e51b81526004016104bb906149de565b613868600980546001019055565b600061387360095490565b6040805160208101929092526001600160601b03193360601b16908201526054016040516020818303038152906040528051906020012090506040518061010001604052808881526020018781526020018681526020018581526020016040518060400160405280600781526020016670656e64696e6760c81b815250815260200184815260200160006001600160401b0381111561391457613914613b7a565b60405190808252806020026020018201604052801561393d578160200160208202803683370190505b508152600160209182015260008381526005909152604090208151819061396490826148b3565b506020820151600182019061397990826148b3565b506040820151600282015560608201516003820155608082015160048201906139a290826148b3565b5060a082015160058201906139b790826148b3565b5060c082015180516139d3916006840191602090910190613b00565b5060e091909101516007909101805460ff1916911515919091179055336000908152600860209081526040808320805460018101825590845291909220018290555181907f01cc58dcd5983c834936e93747192e03a1d4179dc2bf868e41eb1021e237368990613a44908a90614972565b60405180910390a29695505050505050565b6000546001600160a01b031633146118c05760405162461bcd60e51b815260206004820181905260248201527f4f776e61626c653a2063616c6c6572206973206e6f7420746865206f776e657260448201526064016104bb565b600080546001600160a01b038381166001600160a01b0319831681178455604051919092169283917f8be0079c531659141344cd1fd0a4f28419497f9722a3daafe3b4186f6b6457e09190a35050565b828054828255906000526020600020908101928215613b55579160200282015b82811115613b5557825182546001600160a01b0319166001600160a01b03909116178255602090920191600190910190613b20565b50613b61929150613b65565b5090565b5b80821115613b615760008155600101613b66565b634e487b7160e01b600052604160045260246000fd5b604051601f8201601f191681016001600160401b0381118282101715613bb857613bb8613b7a565b604052919050565b600082601f830112613bd157600080fd5b81356001600160401b03811115613bea57613bea613b7a565b613bfd601f8201601f1916602001613b90565b818152846020838601011115613c1257600080fd5b816020850160208301376000918101602001919091529392505050565b60008060008060008060008060006101208a8c031215613c4e57600080fd5b89356001600160401b0380821115613c6557600080fd5b613c718d838e01613bc0565b9a5060208c0135915080821115613c8757600080fd5b613c938d838e01613bc0565b995060408c0135915080821115613ca957600080fd5b613cb58d838e01613bc0565b985060608c0135915080821115613ccb57600080fd5b613cd78d838e01613bc0565b975060808c0135915080821115613ced57600080fd5b613cf98d838e01613bc0565b965060a08c0135915080821115613d0f57600080fd5b613d1b8d838e01613bc0565b955060c08c0135915080821115613d3157600080fd5b613d3d8d838e01613bc0565b945060e08c0135915080821115613d5357600080fd5b613d5f8d838e01613bc0565b93506101008c0135915080821115613d7657600080fd5b50613d838c828d01613bc0565b9150509295985092959850929598565b80356001600160a01b0381168114613daa57600080fd5b919050565b600080600060608486031215613dc457600080fd5b613dcd84613d93565b925060208401356001600160401b0380821115613de957600080fd5b613df587838801613bc0565b93506040860135915080821115613e0b57600080fd5b50613e1886828701613bc0565b9150509250925092565b600060208284031215613e3457600080fd5b5035919050565b6000815180845260005b81811015613e6157602081850181015186830182015201613e45565b506000602082860101526020601f19601f83011685010191505092915050565b600081518084526020808501945080840160005b83811015613eba5781516001600160a01b031687529582019590820190600101613e95565b509495945050505050565b6020815260008251610100806020850152613ee4610120850183613e3b565b91506020850151601f1980868503016040870152613f028483613e3b565b9350604087015160608701526060870151608087015260808701519150808685030160a0870152613f338483613e3b565b935060a08701519150808685030160c0870152613f508483613e3b565b935060c08701519150808685030160e087015250613f6e8382613e81565b92505060e0850151613f838286018215159052565b5090949350505050565b600060208284031215613f9f57600080fd5b613fa882613d93565b9392505050565b6020808252825182820181905260009190848201906040850190845b81811015613fe757835183529284019291840191600101613fcb565b50909695505050505050565b6000806040838503121561400657600080fd5b61400f83613d93565b915060208301356001600160401b0381111561402a57600080fd5b61403685828601613bc0565b9150509250929050565b6001600160a01b0391909116815260200190565b6080815260006140676080830187613e3b565b82810360208401526140798187613e3b565b905084604084015282810360608401526140938185613e3b565b979650505050505050565b600080604083850312156140b157600080fd5b6140ba83613d93565b946020939093013593505050565b60006101608083526140dc8184018f613e3b565b905082810360208401526140f0818e613e3b565b90508281036040840152614104818d613e3b565b90508281036060840152614118818c613e3b565b9050828103608084015261412c818b613e3b565b905082810360a0840152614140818a613e3b565b905082810360c08401526141548189613e3b565b905082810360e08401526141688188613e3b565b905082810361010084015261417d8187613e3b565b90508281036101208401526141928186613e3b565b9150506141a461014083018415159052565b9c9b505050505050505050505050565b6001600160a01b0386811682528516602082015260a0604082018190526000906141e090830186613e3b565b6060830194909452509015156080909101529392505050565b60e08152600061420c60e083018a613e3b565b828103602084015261421e818a613e3b565b9050876040840152866060840152828103608084015261423e8187613e3b565b905082810360a08401526142528186613e3b565b91505082151560c083015298975050505050505050565b60a08152600061427c60a0830188613e3b565b828103602084015261428e8188613e3b565b905085604084015282810360608401526142a88186613e3b565b91505082151560808301529695505050505050565b610180815260006142d261018083018f613e3b565b82810360208401526142e4818f613e3b565b905082810360408401526142f8818e613e3b565b9050828103606084015261430c818d613e3b565b90508281036080840152614320818c613e3b565b905082810360a0840152614334818b613e3b565b905082810360c0840152614348818a613e3b565b905082810360e084015261435c8189613e3b565b90508281036101008401526143718188613e3b565b90508281036101208401526143868187613e3b565b91505061439861014083018515159052565b8215156101608301529d9c50505050505050505050505050565b6000806000806000806000806000806101408b8d0312156143d257600080fd5b8a356001600160401b03808211156143e957600080fd5b6143f58e838f01613bc0565b9b5060208d013591508082111561440b57600080fd5b6144178e838f01613bc0565b9a5060408d013591508082111561442d57600080fd5b6144398e838f01613bc0565b995060608d013591508082111561444f57600080fd5b61445b8e838f01613bc0565b985060808d013591508082111561447157600080fd5b61447d8e838f01613bc0565b975060a08d013591508082111561449357600080fd5b61449f8e838f01613bc0565b965060c08d01359150808211156144b557600080fd5b6144c18e838f01613bc0565b955060e08d01359150808211156144d757600080fd5b6144e38e838f01613bc0565b94506101008d01359150808211156144fa57600080fd5b6145068e838f01613bc0565b93506101208d013591508082111561451d57600080fd5b5061452a8d828e01613bc0565b9150509295989b9194979a5092959850565b600080600080600060a0868803121561455457600080fd5b8535945061456460208701613d93565b93506040860135925060608601356001600160401b038082111561458757600080fd5b61459389838a01613bc0565b935060808801359150808211156145a957600080fd5b506145b688828901613bc0565b9150509295509295909350565b600080604083850312156145d657600080fd5b8235915060208301356001600160401b0381111561402a57600080fd5b6000806040838503121561460657600080fd5b8235915061461660208401613d93565b90509250929050565b8481526080602082015260006146386080830186613e3b565b828103604084015261464a8186613e3b565b915050821515606083015295945050505050565b6000806040838503121561467157600080fd5b823591506020808401356001600160401b038082111561469057600080fd5b818601915086601f8301126146a457600080fd5b8135818111156146b6576146b6613b7a565b8060051b91506146c7848301613b90565b81815291830184019184810190898411156146e157600080fd5b938501935b83851015614706576146f785613d93565b825293850193908501906146e6565b8096505050505050509250929050565b6000806040838503121561472957600080fd5b61473283613d93565b915061461660208401613d93565b8381526060602082015260006147596060830185613e3b565b828103604084015261476b8185613e3b565b9695505050505050565b600080600080600060a0868803121561478d57600080fd5b85356001600160401b03808211156147a457600080fd5b6147b089838a01613bc0565b965060208801359150808211156147c657600080fd5b6147d289838a01613bc0565b9550604088013594506060880135935060808801359150808211156145a957600080fd5b6020808252601a9082015279125b9cdd1a5d1d5d1a5bdb88191bd95cc81b9bdd08195e1a5cdd60321b604082015260600190565b600181811c9082168061483e57607f821691505b60208210810361485e57634e487b7160e01b600052602260045260246000fd5b50919050565b601f8211156148ae57600081815260208120601f850160051c8101602086101561488b5750805b601f850160051c820191505b818110156148aa57828155600101614897565b5050505b505050565b81516001600160401b038111156148cc576148cc613b7a565b6148e0816148da845461482a565b84614864565b602080601f83116001811461491557600084156148fd5750858301515b600019600386901b1c1916600185901b1785556148aa565b600085815260208120601f198616915b8281101561494457888601518255948401946001909101908401614925565b50858210156149625787850151600019600388901b60f8161c191681555b5050505050600190811b01905550565b602081526000613fa86020830184613e3b565b60006020828403121561499757600080fd5b81518015158114613fa857600080fd5b6020808252601c908201527f4e6f742061207265676973746572656420696e737469747574696f6e00000000604082015260600190565b6020808252601b908201527a125b9cdd1a5d1d5d1a5bdb881a5cc81b9bdd081d995c9a599a5959602a1b604082015260600190565b634e487b7160e01b600052602160045260246000fd5b600060208284031215614a3b57600080fd5b815160058110613fa857600080fd5b602080825260139082015272115e185b48191bd95cc81b9bdd08195e1a5cdd606a1b604082015260600190565b60208082526016908201527514dd1d59195b9d08191bd95cc81b9bdd08195e1a5cdd60521b604082015260600190565b60208082526028908201527f53747564656e74206e6f7420656e726f6c6c656420696e207468697320696e736040820152673a34ba3aba34b7b760c11b606082015260800190565b634e487b7160e01b600052603260045260246000fd5b634e487b7160e01b600052601160045260246000fd5b600060018201614b2d57614b2d614b05565b5060010190565b6020808252825182820181905260009190848201906040850190845b81811015613fe75783516001600160a01b031683529284019291840191600101614b50565b80820180821115614b8857614b88614b05565b92915050565b8082028115828204841417614b8857614b88614b05565b600082614bc257634e487b7160e01b600052601260045260246000fd5b50049056fea2646970667358221220d2079de2f6399006c241e62a3e19d738568f9e53b47828b9d514bc5d2aecb68764736f6c63430008130033",
  "immutableReferences": {},
  "source": "// SPDX-License-Identifier: MIT\r\npragma solidity ^0.8.19;\r\n\r\nimport \"@openzeppelin/contracts/access/Ownable.sol\";\r\nimport \"@openzeppelin/contracts/security/Pausable.sol\";\r\nimport \"@openzeppelin/contracts/utils/Counters.sol\";\r\n\r\ninterface IIdentity {\r\n    enum UserRole { NONE, STUDENT, INSTITUTION, EMPLOYER, ADMIN }\r\n    \r\n    function getUserRole(address _userAddress) external view returns (UserRole);\r\n    function isVerifiedUser(address _userAddress) external view returns (bool);\r\n    function isInstitution(address _address) external view returns (bool);\r\n}\r\n\r\ncontract ExamManagement is Ownable, Pausable {\r\n    using Counters for Counters.Counter;\r\n\r\n    IIdentity public identityContract;\r\n\r\n    struct Institution {\r\n        string name;\r\n        string description;\r\n        string physicalAddress;\r\n        string email;\r\n        string phone;\r\n        string website;\r\n        string logo;\r\n        string ministry;\r\n        string university;\r\n        string college;\r\n        bool isVerified;\r\n        bool exists;\r\n    }\r\n\r\n    struct Student {\r\n        string name;\r\n        string email;\r\n        uint256 enrollmentDate;\r\n        string status; // \"active\", \"inactive\", \"graduated\"\r\n        bool exists;\r\n    }\r\n\r\n    struct Exam {\r\n        string title;\r\n        string description;\r\n        uint256 date;\r\n        uint256 duration;\r\n        string status; // \"pending\", \"active\", \"completed\"\r\n        string ipfsHash;\r\n        address[] students;\r\n        bool exists;\r\n    }\r\n\r\n    struct Certificate {\r\n        address student;\r\n        address issuer;\r\n        string ipfsHash;\r\n        uint256 issuedAt;\r\n        bool exists;\r\n    }\r\n\r\n    struct ExamResult {\r\n        uint256 score;\r\n        string grade;\r\n        string notes;\r\n        bool exists;\r\n    }\r\n\r\n    // Mappings\r\n    mapping(address => Institution) public institutions;\r\n    mapping(address => Student) public students;\r\n    mapping(address => mapping(address => bool)) public institutionStudents;\r\n    mapping(bytes32 => Exam) public exams;\r\n    mapping(bytes32 => mapping(address => ExamResult)) public examResults;\r\n    mapping(bytes32 => Certificate) public certificates;\r\n    mapping(address => bytes32[]) public institutionExams;\r\n    \r\n    // Counters\r\n    Counters.Counter private _examIds;\r\n    Counters.Counter private _certificateIds;\r\n\r\n    // Events\r\n    event InstitutionRegistered(address indexed institution, string name);\r\n    event InstitutionVerified(address indexed institution);\r\n    event StudentAdded(address indexed institution, address indexed student);\r\n    event StudentStatusUpdated(address indexed student, string status);\r\n    event ExamCreated(bytes32 indexed examId, string title);\r\n    event ExamStatusUpdated(bytes32 indexed examId, string status);\r\n    event StudentsRegistered(bytes32 indexed examId, address[] students);\r\n    event ResultSubmitted(bytes32 indexed examId, address indexed student);\r\n    event CertificateIssued(bytes32 indexed certificateId, address indexed student);\r\n    event InstitutionProfileUpdated(address indexed institution, string name);\r\n\r\n    constructor(address _identityContractAddress) {\r\n        identityContract = IIdentity(_identityContractAddress);\r\n    }\r\n\r\n    // Modifiers\r\n    modifier onlyVerifiedInstitution() {\r\n        require(identityContract.isInstitution(msg.sender), \"Not a registered institution\");\r\n        require(identityContract.isVerifiedUser(msg.sender), \"Institution is not verified\");\r\n        _;\r\n    }\r\n\r\n    modifier onlyExistingExam(bytes32 examId) {\r\n        require(exams[examId].exists, \"Exam does not exist\");\r\n        _;\r\n    }\r\n\r\n    modifier onlyExistingStudent(address student) {\r\n        require(students[student].exists, \"Student does not exist\");\r\n        _;\r\n    }\r\n\r\n    // Institution Management\r\n    function registerInstitution(\r\n        string memory name,\r\n        string memory description,\r\n        string memory physicalAddress,\r\n        string memory email,\r\n        string memory phone,\r\n        string memory website,\r\n        string memory logo,\r\n        string memory ministry,\r\n        string memory university,\r\n        string memory college\r\n    ) external {\r\n        require(!institutions[msg.sender].exists, \"Institution already registered\");\r\n        \r\n        institutions[msg.sender] = Institution({\r\n            name: name,\r\n            description: description,\r\n            physicalAddress: physicalAddress,\r\n            email: email,\r\n            phone: phone,\r\n            website: website,\r\n            logo: logo,\r\n            ministry: ministry,\r\n            university: university,\r\n            college: college,\r\n            isVerified: false,\r\n            exists: true\r\n        });\r\n\r\n        emit InstitutionRegistered(msg.sender, name);\r\n    }\r\n\r\n    function verifyInstitution(address institution) external onlyOwner {\r\n        require(institutions[institution].exists, \"Institution does not exist\");\r\n        institutions[institution].isVerified = true;\r\n        emit InstitutionVerified(institution);\r\n    }\r\n\r\n    function updateInstitutionProfile(\r\n        string memory name,\r\n        string memory ministry,\r\n        string memory university,\r\n        string memory college,\r\n        string memory description,\r\n        string memory logo,\r\n        string memory website,\r\n        string memory email,\r\n        string memory phone\r\n    ) external {\r\n        require(institutions[msg.sender].exists, \"Institution does not exist\");\r\n        \r\n        Institution storage institution = institutions[msg.sender];\r\n        institution.name = name;\r\n        institution.ministry = ministry;\r\n        institution.university = university;\r\n        institution.college = college;\r\n        institution.description = description;\r\n        institution.logo = logo;\r\n        institution.website = website;\r\n        institution.email = email;\r\n        institution.phone = phone;\r\n\r\n        emit InstitutionProfileUpdated(msg.sender, name);\r\n    }\r\n\r\n    // Student Management\r\n    function addStudent(\r\n        address studentAddress,\r\n        string memory name,\r\n        string memory email\r\n    ) external onlyVerifiedInstitution {\r\n        require(!students[studentAddress].exists, \"Student already exists\");\r\n        require(identityContract.getUserRole(studentAddress) == IIdentity.UserRole.STUDENT, \"Address is not registered as a student\");\r\n        \r\n        students[studentAddress] = Student({\r\n            name: name,\r\n            email: email,\r\n            enrollmentDate: block.timestamp,\r\n            status: \"active\",\r\n            exists: true\r\n        });\r\n\r\n        institutionStudents[msg.sender][studentAddress] = true;\r\n        emit StudentAdded(msg.sender, studentAddress);\r\n    }\r\n\r\n    function updateStudentStatus(\r\n        address studentAddress,\r\n        string memory newStatus\r\n    ) external onlyVerifiedInstitution onlyExistingStudent(studentAddress) {\r\n        require(institutionStudents[msg.sender][studentAddress], \"Student not enrolled in this institution\");\r\n        students[studentAddress].status = newStatus;\r\n        emit StudentStatusUpdated(studentAddress, newStatus);\r\n    }\r\n\r\n    // Exam Management\r\n    function createExam(\r\n        string memory title,\r\n        string memory description,\r\n        uint256 date,\r\n        uint256 duration,\r\n        string memory ipfsHash\r\n    ) external onlyVerifiedInstitution returns (bytes32) {\r\n        _examIds.increment();\r\n        bytes32 examId = keccak256(abi.encodePacked(_examIds.current(), msg.sender));\r\n        \r\n        exams[examId] = Exam({\r\n            title: title,\r\n            description: description,\r\n            date: date,\r\n            duration: duration,\r\n            status: \"pending\",\r\n            ipfsHash: ipfsHash,\r\n            students: new address[](0),\r\n            exists: true\r\n        });\r\n\r\n        institutionExams[msg.sender].push(examId);\r\n\r\n        emit ExamCreated(examId, title);\r\n        return examId;\r\n    }\r\n\r\n    function updateExamStatus(\r\n        bytes32 examId,\r\n        string memory newStatus\r\n    ) external onlyVerifiedInstitution onlyExistingExam(examId) {\r\n        exams[examId].status = newStatus;\r\n        emit ExamStatusUpdated(examId, newStatus);\r\n    }\r\n\r\n    function registerStudentsForExam(\r\n        bytes32 examId,\r\n        address[] memory studentAddresses\r\n    ) external onlyVerifiedInstitution onlyExistingExam(examId) {\r\n        for (uint i = 0; i < studentAddresses.length; i++) {\r\n            require(\r\n                institutionStudents[msg.sender][studentAddresses[i]],\r\n                \"One or more students not enrolled in this institution\"\r\n            );\r\n        }\r\n        exams[examId].students = studentAddresses;\r\n        emit StudentsRegistered(examId, studentAddresses);\r\n    }\r\n\r\n    // Result Management\r\n    function submitResult(\r\n        bytes32 examId,\r\n        address student,\r\n        uint256 score,\r\n        string memory grade,\r\n        string memory notes\r\n    ) external onlyVerifiedInstitution onlyExistingExam(examId) {\r\n        require(\r\n            institutionStudents[msg.sender][student],\r\n            \"Student not enrolled in this institution\"\r\n        );\r\n        \r\n        examResults[examId][student] = ExamResult({\r\n            score: score,\r\n            grade: grade,\r\n            notes: notes,\r\n            exists: true\r\n        });\r\n\r\n        emit ResultSubmitted(examId, student);\r\n    }\r\n\r\n    // Certificate Management\r\n    function issueCertificate(\r\n        address student,\r\n        string memory ipfsHash\r\n    ) external onlyVerifiedInstitution onlyExistingStudent(student) {\r\n        require(\r\n            institutionStudents[msg.sender][student],\r\n            \"Student not enrolled in this institution\"\r\n        );\r\n\r\n        _certificateIds.increment();\r\n        bytes32 certificateId = keccak256(abi.encodePacked(_certificateIds.current(), msg.sender, student));\r\n        \r\n        certificates[certificateId] = Certificate({\r\n            student: student,\r\n            issuer: msg.sender,\r\n            ipfsHash: ipfsHash,\r\n            issuedAt: block.timestamp,\r\n            exists: true\r\n        });\r\n\r\n        emit CertificateIssued(certificateId, student);\r\n    }\r\n\r\n    // View Functions\r\n    function getInstitution(address institution) external view returns (\r\n        string memory name,\r\n        string memory description,\r\n        string memory physicalAddress,\r\n        string memory email,\r\n        string memory phone,\r\n        string memory website,\r\n        string memory logo,\r\n        string memory ministry,\r\n        string memory university,\r\n        string memory college,\r\n        bool isVerified\r\n    ) {\r\n        Institution memory inst = institutions[institution];\r\n        return (\r\n            inst.name,\r\n            inst.description,\r\n            inst.physicalAddress,\r\n            inst.email,\r\n            inst.phone,\r\n            inst.website,\r\n            inst.logo,\r\n            inst.ministry,\r\n            inst.university,\r\n            inst.college,\r\n            inst.isVerified\r\n        );\r\n    }\r\n\r\n    function getStudent(address student) external view returns (\r\n        string memory name,\r\n        string memory email,\r\n        uint256 enrollmentDate,\r\n        string memory status\r\n    ) {\r\n        Student memory stud = students[student];\r\n        return (\r\n            stud.name,\r\n            stud.email,\r\n            stud.enrollmentDate,\r\n            stud.status\r\n        );\r\n    }\r\n\r\n    function getExamResult(bytes32 examId, address student) external view returns (\r\n        uint256 score,\r\n        string memory grade,\r\n        string memory notes\r\n    ) {\r\n        ExamResult memory result = examResults[examId][student];\r\n        return (\r\n            result.score,\r\n            result.grade,\r\n            result.notes\r\n        );\r\n    }\r\n\r\n    function getExamStatistics(bytes32 examId) external view returns (\r\n        uint256 totalStudents,\r\n        uint256 passRate,\r\n        uint256 averageScore\r\n    ) {\r\n        Exam memory exam = exams[examId];\r\n        uint256 total = 0;\r\n        uint256 passed = 0;\r\n        uint256 scoreSum = 0;\r\n        \r\n        for (uint i = 0; i < exam.students.length; i++) {\r\n            ExamResult memory result = examResults[examId][exam.students[i]];\r\n            if (result.exists) {\r\n                total++;\r\n                scoreSum += result.score;\r\n                if (result.score >= 60) {\r\n                    passed++;\r\n                }\r\n            }\r\n        }\r\n        \r\n        return (\r\n            total,\r\n            total > 0 ? (passed * 100) / total : 0,\r\n            total > 0 ? scoreSum / total : 0\r\n        );\r\n    }\r\n\r\n    function getInstitutionExamList(address institution) external view returns (bytes32[] memory) {\r\n        require(institutions[institution].exists, \"Institution does not exist\");\r\n        return institutionExams[institution];\r\n    }\r\n\r\n    function getExam(bytes32 examId) external view returns (Exam memory) {\r\n        require(exams[examId].exists, \"Exam does not exist\");\r\n        return exams[examId];\r\n    }\r\n}",
  "sourcePath": "C:\\Users\\osama\\OneDrive\\Desktop\\Graduation\\education-blockchain\\contracts\\ExamManagement.sol",
  "compiler": {
    "name": "solc",
    "version": "0.8.19+commit.7dd6d404.Emscripten.clang"
  },
  "schemaVersion": "3.4.16",
  "updatedAt": "2025-05-02T18:18:34.080Z",
  "networkType": "ethereum",
  "devdoc": {
    "events": {
      "Paused(address)": {
        "details": "Emitted when the pause is triggered by `account`."
      },
      "Unpaused(address)": {
        "details": "Emitted when the pause is lifted by `account`."
      }
    },
    "kind": "dev",
    "methods": {
      "owner()": {
        "details": "Returns the address of the current owner."
      },
      "paused()": {
        "details": "Returns true if the contract is paused, and false otherwise."
      },
      "renounceOwnership()": {
        "details": "Leaves the contract without owner. It will not be possible to call `onlyOwner` functions anymore. Can only be called by the current owner. NOTE: Renouncing ownership will leave the contract without an owner, thereby removing any functionality that is only available to the owner."
      },
      "transferOwnership(address)": {
        "details": "Transfers ownership of the contract to a new account (`newOwner`). Can only be called by the current owner."
      }
    },
    "version": 1
  },
  "userdoc": {
    "kind": "user",
    "methods": {},
    "version": 1
  }
}