{
  "contractName": "ExamManagement",
  "abi": [
    {
      "anonymous": false,
      "inputs": [
        {
          "indexed": true,
          "internalType": "bytes32",
          "name": "certificateId",
          "type": "bytes32"
        },
        {
          "indexed": true,
          "internalType": "address",
          "name": "student",
          "type": "address"
        }
      ],
      "name": "CertificateIssued",
      "type": "event"
    },
    {
      "anonymous": false,
      "inputs": [
        {
          "indexed": true,
          "internalType": "bytes32",
          "name": "examId",
          "type": "bytes32"
        },
        {
          "indexed": false,
          "internalType": "string",
          "name": "title",
          "type": "string"
        }
      ],
      "name": "ExamCreated",
      "type": "event"
    },
    {
      "anonymous": false,
      "inputs": [
        {
          "indexed": true,
          "internalType": "bytes32",
          "name": "examId",
          "type": "bytes32"
        },
        {
          "indexed": false,
          "internalType": "string",
          "name": "status",
          "type": "string"
        }
      ],
      "name": "ExamStatusUpdated",
      "type": "event"
    },
    {
      "anonymous": false,
      "inputs": [
        {
          "indexed": true,
          "internalType": "address",
          "name": "institution",
          "type": "address"
        },
        {
          "indexed": false,
          "internalType": "string",
          "name": "name",
          "type": "string"
        }
      ],
      "name": "InstitutionProfileUpdated",
      "type": "event"
    },
    {
      "anonymous": false,
      "inputs": [
        {
          "indexed": true,
          "internalType": "address",
          "name": "institution",
          "type": "address"
        },
        {
          "indexed": false,
          "internalType": "string",
          "name": "name",
          "type": "string"
        }
      ],
      "name": "InstitutionRegistered",
      "type": "event"
    },
    {
      "anonymous": false,
      "inputs": [
        {
          "indexed": true,
          "internalType": "address",
          "name": "institution",
          "type": "address"
        }
      ],
      "name": "InstitutionVerified",
      "type": "event"
    },
    {
      "anonymous": false,
      "inputs": [
        {
          "indexed": true,
          "internalType": "address",
          "name": "previousOwner",
          "type": "address"
        },
        {
          "indexed": true,
          "internalType": "address",
          "name": "newOwner",
          "type": "address"
        }
      ],
      "name": "OwnershipTransferred",
      "type": "event"
    },
    {
      "anonymous": false,
      "inputs": [
        {
          "indexed": false,
          "internalType": "address",
          "name": "account",
          "type": "address"
        }
      ],
      "name": "Paused",
      "type": "event"
    },
    {
      "anonymous": false,
      "inputs": [
        {
          "indexed": true,
          "internalType": "bytes32",
          "name": "examId",
          "type": "bytes32"
        },
        {
          "indexed": true,
          "internalType": "address",
          "name": "student",
          "type": "address"
        }
      ],
      "name": "ResultSubmitted",
      "type": "event"
    },
    {
      "anonymous": false,
      "inputs": [
        {
          "indexed": true,
          "internalType": "address",
          "name": "institution",
          "type": "address"
        },
        {
          "indexed": true,
          "internalType": "address",
          "name": "student",
          "type": "address"
        }
      ],
      "name": "StudentAdded",
      "type": "event"
    },
    {
      "anonymous": false,
      "inputs": [
        {
          "indexed": true,
          "internalType": "address",
          "name": "student",
          "type": "address"
        },
        {
          "indexed": false,
          "internalType": "string",
          "name": "status",
          "type": "string"
        }
      ],
      "name": "StudentStatusUpdated",
      "type": "event"
    },
    {
      "anonymous": false,
      "inputs": [
        {
          "indexed": true,
          "internalType": "bytes32",
          "name": "examId",
          "type": "bytes32"
        },
        {
          "indexed": false,
          "internalType": "address[]",
          "name": "students",
          "type": "address[]"
        }
      ],
      "name": "StudentsRegistered",
      "type": "event"
    },
    {
      "anonymous": false,
      "inputs": [
        {
          "indexed": false,
          "internalType": "address",
          "name": "account",
          "type": "address"
        }
      ],
      "name": "Unpaused",
      "type": "event"
    },
    {
      "inputs": [
        {
          "internalType": "bytes32",
          "name": "",
          "type": "bytes32"
        }
      ],
      "name": "certificates",
      "outputs": [
        {
          "internalType": "address",
          "name": "student",
          "type": "address"
        },
        {
          "internalType": "address",
          "name": "issuer",
          "type": "address"
        },
        {
          "internalType": "string",
          "name": "ipfsHash",
          "type": "string"
        },
        {
          "internalType": "uint256",
          "name": "issuedAt",
          "type": "uint256"
        },
        {
          "internalType": "bool",
          "name": "exists",
          "type": "bool"
        }
      ],
      "stateMutability": "view",
      "type": "function",
      "constant": true
    },
    {
      "inputs": [
        {
          "internalType": "bytes32",
          "name": "",
          "type": "bytes32"
        },
        {
          "internalType": "address",
          "name": "",
          "type": "address"
        }
      ],
      "name": "examResults",
      "outputs": [
        {
          "internalType": "uint256",
          "name": "score",
          "type": "uint256"
        },
        {
          "internalType": "string",
          "name": "grade",
          "type": "string"
        },
        {
          "internalType": "string",
          "name": "notes",
          "type": "string"
        },
        {
          "internalType": "bool",
          "name": "exists",
          "type": "bool"
        }
      ],
      "stateMutability": "view",
      "type": "function",
      "constant": true
    },
    {
      "inputs": [
        {
          "internalType": "bytes32",
          "name": "",
          "type": "bytes32"
        }
      ],
      "name": "exams",
      "outputs": [
        {
          "internalType": "string",
          "name": "title",
          "type": "string"
        },
        {
          "internalType": "string",
          "name": "description",
          "type": "string"
        },
        {
          "internalType": "uint256",
          "name": "date",
          "type": "uint256"
        },
        {
          "internalType": "uint256",
          "name": "duration",
          "type": "uint256"
        },
        {
          "internalType": "string",
          "name": "status",
          "type": "string"
        },
        {
          "internalType": "string",
          "name": "ipfsHash",
          "type": "string"
        },
        {
          "internalType": "bool",
          "name": "exists",
          "type": "bool"
        }
      ],
      "stateMutability": "view",
      "type": "function",
      "constant": true
    },
    {
      "inputs": [
        {
          "internalType": "address",
          "name": "",
          "type": "address"
        },
        {
          "internalType": "address",
          "name": "",
          "type": "address"
        }
      ],
      "name": "institutionStudents",
      "outputs": [
        {
          "internalType": "bool",
          "name": "",
          "type": "bool"
        }
      ],
      "stateMutability": "view",
      "type": "function",
      "constant": true
    },
    {
      "inputs": [
        {
          "internalType": "address",
          "name": "",
          "type": "address"
        }
      ],
      "name": "institutions",
      "outputs": [
        {
          "internalType": "string",
          "name": "name",
          "type": "string"
        },
        {
          "internalType": "string",
          "name": "description",
          "type": "string"
        },
        {
          "internalType": "string",
          "name": "physicalAddress",
          "type": "string"
        },
        {
          "internalType": "string",
          "name": "email",
          "type": "string"
        },
        {
          "internalType": "string",
          "name": "phone",
          "type": "string"
        },
        {
          "internalType": "string",
          "name": "website",
          "type": "string"
        },
        {
          "internalType": "string",
          "name": "logo",
          "type": "string"
        },
        {
          "internalType": "string",
          "name": "ministry",
          "type": "string"
        },
        {
          "internalType": "string",
          "name": "university",
          "type": "string"
        },
        {
          "internalType": "string",
          "name": "college",
          "type": "string"
        },
        {
          "internalType": "bool",
          "name": "isVerified",
          "type": "bool"
        },
        {
          "internalType": "bool",
          "name": "exists",
          "type": "bool"
        }
      ],
      "stateMutability": "view",
      "type": "function",
      "constant": true
    },
    {
      "inputs": [],
      "name": "owner",
      "outputs": [
        {
          "internalType": "address",
          "name": "",
          "type": "address"
        }
      ],
      "stateMutability": "view",
      "type": "function",
      "constant": true
    },
    {
      "inputs": [],
      "name": "paused",
      "outputs": [
        {
          "internalType": "bool",
          "name": "",
          "type": "bool"
        }
      ],
      "stateMutability": "view",
      "type": "function",
      "constant": true
    },
    {
      "inputs": [],
      "name": "renounceOwnership",
      "outputs": [],
      "stateMutability": "nonpayable",
      "type": "function"
    },
    {
      "inputs": [
        {
          "internalType": "address",
          "name": "",
          "type": "address"
        }
      ],
      "name": "students",
      "outputs": [
        {
          "internalType": "string",
          "name": "name",
          "type": "string"
        },
        {
          "internalType": "string",
          "name": "email",
          "type": "string"
        },
        {
          "internalType": "uint256",
          "name": "enrollmentDate",
          "type": "uint256"
        },
        {
          "internalType": "string",
          "name": "status",
          "type": "string"
        },
        {
          "internalType": "bool",
          "name": "exists",
          "type": "bool"
        }
      ],
      "stateMutability": "view",
      "type": "function",
      "constant": true
    },
    {
      "inputs": [
        {
          "internalType": "address",
          "name": "newOwner",
          "type": "address"
        }
      ],
      "name": "transferOwnership",
      "outputs": [],
      "stateMutability": "nonpayable",
      "type": "function"
    },
    {
      "inputs": [
        {
          "internalType": "string",
          "name": "name",
          "type": "string"
        },
        {
          "internalType": "string",
          "name": "description",
          "type": "string"
        },
        {
          "internalType": "string",
          "name": "physicalAddress",
          "type": "string"
        },
        {
          "internalType": "string",
          "name": "email",
          "type": "string"
        },
        {
          "internalType": "string",
          "name": "phone",
          "type": "string"
        },
        {
          "internalType": "string",
          "name": "website",
          "type": "string"
        },
        {
          "internalType": "string",
          "name": "logo",
          "type": "string"
        },
        {
          "internalType": "string",
          "name": "ministry",
          "type": "string"
        },
        {
          "internalType": "string",
          "name": "university",
          "type": "string"
        },
        {
          "internalType": "string",
          "name": "college",
          "type": "string"
        }
      ],
      "name": "registerInstitution",
      "outputs": [],
      "stateMutability": "nonpayable",
      "type": "function"
    },
    {
      "inputs": [
        {
          "internalType": "address",
          "name": "institution",
          "type": "address"
        }
      ],
      "name": "verifyInstitution",
      "outputs": [],
      "stateMutability": "nonpayable",
      "type": "function"
    },
    {
      "inputs": [
        {
          "internalType": "string",
          "name": "name",
          "type": "string"
        },
        {
          "internalType": "string",
          "name": "ministry",
          "type": "string"
        },
        {
          "internalType": "string",
          "name": "university",
          "type": "string"
        },
        {
          "internalType": "string",
          "name": "college",
          "type": "string"
        },
        {
          "internalType": "string",
          "name": "description",
          "type": "string"
        },
        {
          "internalType": "string",
          "name": "logo",
          "type": "string"
        },
        {
          "internalType": "string",
          "name": "website",
          "type": "string"
        },
        {
          "internalType": "string",
          "name": "email",
          "type": "string"
        },
        {
          "internalType": "string",
          "name": "phone",
          "type": "string"
        }
      ],
      "name": "updateInstitutionProfile",
      "outputs": [],
      "stateMutability": "nonpayable",
      "type": "function"
    },
    {
      "inputs": [
        {
          "internalType": "address",
          "name": "studentAddress",
          "type": "address"
        },
        {
          "internalType": "string",
          "name": "name",
          "type": "string"
        },
        {
          "internalType": "string",
          "name": "email",
          "type": "string"
        }
      ],
      "name": "addStudent",
      "outputs": [],
      "stateMutability": "nonpayable",
      "type": "function"
    },
    {
      "inputs": [
        {
          "internalType": "address",
          "name": "studentAddress",
          "type": "address"
        },
        {
          "internalType": "string",
          "name": "newStatus",
          "type": "string"
        }
      ],
      "name": "updateStudentStatus",
      "outputs": [],
      "stateMutability": "nonpayable",
      "type": "function"
    },
    {
      "inputs": [
        {
          "internalType": "string",
          "name": "title",
          "type": "string"
        },
        {
          "internalType": "string",
          "name": "description",
          "type": "string"
        },
        {
          "internalType": "uint256",
          "name": "date",
          "type": "uint256"
        },
        {
          "internalType": "uint256",
          "name": "duration",
          "type": "uint256"
        },
        {
          "internalType": "string",
          "name": "ipfsHash",
          "type": "string"
        }
      ],
      "name": "createExam",
      "outputs": [
        {
          "internalType": "bytes32",
          "name": "",
          "type": "bytes32"
        }
      ],
      "stateMutability": "nonpayable",
      "type": "function"
    },
    {
      "inputs": [
        {
          "internalType": "bytes32",
          "name": "examId",
          "type": "bytes32"
        },
        {
          "internalType": "string",
          "name": "newStatus",
          "type": "string"
        }
      ],
      "name": "updateExamStatus",
      "outputs": [],
      "stateMutability": "nonpayable",
      "type": "function"
    },
    {
      "inputs": [
        {
          "internalType": "bytes32",
          "name": "examId",
          "type": "bytes32"
        },
        {
          "internalType": "address[]",
          "name": "studentAddresses",
          "type": "address[]"
        }
      ],
      "name": "registerStudentsForExam",
      "outputs": [],
      "stateMutability": "nonpayable",
      "type": "function"
    },
    {
      "inputs": [
        {
          "internalType": "bytes32",
          "name": "examId",
          "type": "bytes32"
        },
        {
          "internalType": "address",
          "name": "student",
          "type": "address"
        },
        {
          "internalType": "uint256",
          "name": "score",
          "type": "uint256"
        },
        {
          "internalType": "string",
          "name": "grade",
          "type": "string"
        },
        {
          "internalType": "string",
          "name": "notes",
          "type": "string"
        }
      ],
      "name": "submitResult",
      "outputs": [],
      "stateMutability": "nonpayable",
      "type": "function"
    },
    {
      "inputs": [
        {
          "internalType": "address",
          "name": "student",
          "type": "address"
        },
        {
          "internalType": "string",
          "name": "ipfsHash",
          "type": "string"
        }
      ],
      "name": "issueCertificate",
      "outputs": [],
      "stateMutability": "nonpayable",
      "type": "function"
    },
    {
      "inputs": [
        {
          "internalType": "address",
          "name": "institution",
          "type": "address"
        }
      ],
      "name": "getInstitution",
      "outputs": [
        {
          "internalType": "string",
          "name": "name",
          "type": "string"
        },
        {
          "internalType": "string",
          "name": "description",
          "type": "string"
        },
        {
          "internalType": "string",
          "name": "physicalAddress",
          "type": "string"
        },
        {
          "internalType": "string",
          "name": "email",
          "type": "string"
        },
        {
          "internalType": "string",
          "name": "phone",
          "type": "string"
        },
        {
          "internalType": "string",
          "name": "website",
          "type": "string"
        },
        {
          "internalType": "string",
          "name": "logo",
          "type": "string"
        },
        {
          "internalType": "string",
          "name": "ministry",
          "type": "string"
        },
        {
          "internalType": "string",
          "name": "university",
          "type": "string"
        },
        {
          "internalType": "string",
          "name": "college",
          "type": "string"
        },
        {
          "internalType": "bool",
          "name": "isVerified",
          "type": "bool"
        }
      ],
      "stateMutability": "view",
      "type": "function",
      "constant": true
    },
    {
      "inputs": [
        {
          "internalType": "address",
          "name": "student",
          "type": "address"
        }
      ],
      "name": "getStudent",
      "outputs": [
        {
          "internalType": "string",
          "name": "name",
          "type": "string"
        },
        {
          "internalType": "string",
          "name": "email",
          "type": "string"
        },
        {
          "internalType": "uint256",
          "name": "enrollmentDate",
          "type": "uint256"
        },
        {
          "internalType": "string",
          "name": "status",
          "type": "string"
        }
      ],
      "stateMutability": "view",
      "type": "function",
      "constant": true
    },
    {
      "inputs": [
        {
          "internalType": "bytes32",
          "name": "examId",
          "type": "bytes32"
        },
        {
          "internalType": "address",
          "name": "student",
          "type": "address"
        }
      ],
      "name": "getExamResult",
      "outputs": [
        {
          "internalType": "uint256",
          "name": "score",
          "type": "uint256"
        },
        {
          "internalType": "string",
          "name": "grade",
          "type": "string"
        },
        {
          "internalType": "string",
          "name": "notes",
          "type": "string"
        }
      ],
      "stateMutability": "view",
      "type": "function",
      "constant": true
    },
    {
      "inputs": [
        {
          "internalType": "bytes32",
          "name": "examId",
          "type": "bytes32"
        }
      ],
      "name": "getExamStatistics",
      "outputs": [
        {
          "internalType": "uint256",
          "name": "totalStudents",
          "type": "uint256"
        },
        {
          "internalType": "uint256",
          "name": "passRate",
          "type": "uint256"
        },
        {
          "internalType": "uint256",
          "name": "averageScore",
          "type": "uint256"
        }
      ],
      "stateMutability": "view",
      "type": "function",
      "constant": true
    }
  ],
  "bytecode": "0x60806040523480156200001157600080fd5b5062000032620000266200005260201b60201c565b6200005a60201b60201c565b60008060146101000a81548160ff0219169083151502179055506200011e565b600033905090565b60008060009054906101000a900473ffffffffffffffffffffffffffffffffffffffff169050816000806101000a81548173ffffffffffffffffffffffffffffffffffffffff021916908373ffffffffffffffffffffffffffffffffffffffff1602179055508173ffffffffffffffffffffffffffffffffffffffff168173ffffffffffffffffffffffffffffffffffffffff167f8be0079c531659141344cd1fd0a4f28419497f9722a3daafe3b4186f6b6457e060405160405180910390a35050565b615c3c806200012e6000396000f3fe608060405234801561001057600080fd5b50600436106101585760003560e01c8063b2d9767f116100c3578063db1830221161007c578063db183022146103fc578063dd6aa93c14610418578063f2fde38b14610448578063f87b8b0c14610464578063fb3548d014610496578063fec4b036146104c857610158565b8063b2d9767f1461031e578063b532363b14610359578063b6c11da814610375578063bb721aab14610391578063c0a9062a146103ad578063cb28b17d146103c957610158565b80637119923611610115578063711992361461021e578063715018a614610258578063742f0688146102625780638da5cb5b1461029657806399341a8a146102b4578063a6c807a9146102ea57610158565b8063181862a01461015d57806321a829c6146101795780633e168516146101955780635c975abb146101b15780636155cce8146101cf5780636b7b44d7146101eb575b600080fd5b61017760048036038101906101729190614265565b6104f8565b005b610193600480360381019061018e9190614489565b6106c6565b005b6101af60048036038101906101aa9190614514565b610a75565b005b6101b9610bac565b6040516101c6919061455c565b60405180910390f35b6101e960048036038101906101e49190614577565b610bc2565b005b61020560048036038101906102009190614514565b610edc565b604051610215949392919061466b565b60405180910390f35b61023860048036038101906102339190614514565b611130565b60405161024f9b9a999897969594939291906146c5565b60405180910390f35b6102606117d9565b005b61027c600480360381019061027791906147ec565b6117ed565b60405161028d959493929190614828565b60405180910390f35b61029e6118f8565b6040516102ab9190614882565b60405180910390f35b6102ce60048036038101906102c991906147ec565b611921565b6040516102e1979695949392919061489d565b60405180910390f35b61030460048036038101906102ff9190614514565b611b90565b604051610315959493929190614928565b60405180910390f35b61033860048036038101906103339190614514565b611d6b565b6040516103509c9b9a99989796959493929190614990565b60405180910390f35b610373600480360381019061036e9190614a90565b612335565b005b61038f600480360381019061038a9190614cb3565b6125d9565b005b6103ab60048036038101906103a69190614577565b61293d565b005b6103c760048036038101906103c29190614d66565b612d7a565b005b6103e360048036038101906103de9190614dc2565b612f5d565b6040516103f39493929190614e02565b60405180910390f35b61041660048036038101906104119190614f1d565b6130b7565b005b610432600480360381019061042d9190614f79565b6133a4565b60405161043f919061455c565b60405180910390f35b610462600480360381019061045d9190614514565b6133d3565b005b61047e600480360381019061047991906147ec565b613456565b60405161048d93929190614fb9565b60405180910390f35b6104b060048036038101906104ab9190614dc2565b613a0d565b6040516104bf93929190614ff0565b60405180910390f35b6104e260048036038101906104dd9190615035565b613bd7565b6040516104ef9190615113565b60405180910390f35b600160003373ffffffffffffffffffffffffffffffffffffffff1673ffffffffffffffffffffffffffffffffffffffff168152602001908152602001600020600a0160019054906101000a900460ff16610587576040517f08c379a000000000000000000000000000000000000000000000000000000000815260040161057e9061517a565b60405180910390fd5b6000600160003373ffffffffffffffffffffffffffffffffffffffff1673ffffffffffffffffffffffffffffffffffffffff1681526020019081526020016000209050898160000190816105db91906153a6565b50888160070190816105ed91906153a6565b50878160080190816105ff91906153a6565b508681600901908161061191906153a6565b508581600101908161062391906153a6565b508481600601908161063591906153a6565b508381600501908161064791906153a6565b508281600301908161065991906153a6565b508181600401908161066b91906153a6565b503373ffffffffffffffffffffffffffffffffffffffff167f655d9a02ca12cc7569076641886b1626a4dda688c79db17d717c86aad58e60748b6040516106b29190615478565b60405180910390a250505050505050505050565b600160003373ffffffffffffffffffffffffffffffffffffffff1673ffffffffffffffffffffffffffffffffffffffff168152602001908152602001600020600a0160019054906101000a900460ff16610755576040517f08c379a000000000000000000000000000000000000000000000000000000000815260040161074c9061517a565b60405180910390fd5b600160003373ffffffffffffffffffffffffffffffffffffffff1673ffffffffffffffffffffffffffffffffffffffff168152602001908152602001600020600a0160009054906101000a900460ff166107e4576040517f08c379a00000000000000000000000000000000000000000000000000000000081526004016107db906154e6565b60405180910390fd5b600260008473ffffffffffffffffffffffffffffffffffffffff1673ffffffffffffffffffffffffffffffffffffffff16815260200190815260200160002060040160009054906101000a900460ff1615610874576040517f08c379a000000000000000000000000000000000000000000000000000000000815260040161086b90615552565b60405180910390fd5b6040518060a001604052808381526020018281526020014281526020016040518060400160405280600681526020017f6163746976650000000000000000000000000000000000000000000000000000815250815260200160011515815250600260008573ffffffffffffffffffffffffffffffffffffffff1673ffffffffffffffffffffffffffffffffffffffff168152602001908152602001600020600082015181600001908161092791906153a6565b50602082015181600101908161093d91906153a6565b5060408201518160020155606082015181600301908161095d91906153a6565b5060808201518160040160006101000a81548160ff0219169083151502179055509050506001600360003373ffffffffffffffffffffffffffffffffffffffff1673ffffffffffffffffffffffffffffffffffffffff16815260200190815260200160002060008573ffffffffffffffffffffffffffffffffffffffff1673ffffffffffffffffffffffffffffffffffffffff16815260200190815260200160002060006101000a81548160ff0219169083151502179055508273ffffffffffffffffffffffffffffffffffffffff163373ffffffffffffffffffffffffffffffffffffffff167fc93a03c6c4e1438e4120d83d473f9028b8bb1947b3d183cafd9519473754e34c60405160405180910390a3505050565b610a7d613ef6565b600160008273ffffffffffffffffffffffffffffffffffffffff1673ffffffffffffffffffffffffffffffffffffffff168152602001908152602001600020600a0160019054906101000a900460ff16610b0c576040517f08c379a0000000000000000000000000000000000000000000000000000000008152600401610b039061517a565b60405180910390fd5b60018060008373ffffffffffffffffffffffffffffffffffffffff1673ffffffffffffffffffffffffffffffffffffffff168152602001908152602001600020600a0160006101000a81548160ff0219169083151502179055508073ffffffffffffffffffffffffffffffffffffffff167f59eb63526c88dac6c2e738ca3b5d5511d9955629a0f9d61ff80c1abc63d1cfb160405160405180910390a250565b60008060149054906101000a900460ff16905090565b600160003373ffffffffffffffffffffffffffffffffffffffff1673ffffffffffffffffffffffffffffffffffffffff168152602001908152602001600020600a0160019054906101000a900460ff16610c51576040517f08c379a0000000000000000000000000000000000000000000000000000000008152600401610c489061517a565b60405180910390fd5b600160003373ffffffffffffffffffffffffffffffffffffffff1673ffffffffffffffffffffffffffffffffffffffff168152602001908152602001600020600a0160009054906101000a900460ff16610ce0576040517f08c379a0000000000000000000000000000000000000000000000000000000008152600401610cd7906154e6565b60405180910390fd5b81600260008273ffffffffffffffffffffffffffffffffffffffff1673ffffffffffffffffffffffffffffffffffffffff16815260200190815260200160002060040160009054906101000a900460ff16610d70576040517f08c379a0000000000000000000000000000000000000000000000000000000008152600401610d67906155be565b60405180910390fd5b600360003373ffffffffffffffffffffffffffffffffffffffff1673ffffffffffffffffffffffffffffffffffffffff16815260200190815260200160002060008473ffffffffffffffffffffffffffffffffffffffff1673ffffffffffffffffffffffffffffffffffffffff16815260200190815260200160002060009054906101000a900460ff16610e39576040517f08c379a0000000000000000000000000000000000000000000000000000000008152600401610e3090615650565b60405180910390fd5b81600260008573ffffffffffffffffffffffffffffffffffffffff1673ffffffffffffffffffffffffffffffffffffffff1681526020019081526020016000206003019081610e8891906153a6565b508273ffffffffffffffffffffffffffffffffffffffff167f08c864cdb2074c7e172f9f881a919f5b24830abcfd1290e79d656504627177b483604051610ecf9190615478565b60405180910390a2505050565b606080600060606000600260008773ffffffffffffffffffffffffffffffffffffffff1673ffffffffffffffffffffffffffffffffffffffff1681526020019081526020016000206040518060a0016040529081600082018054610f3f906151c9565b80601f0160208091040260200160405190810160405280929190818152602001828054610f6b906151c9565b8015610fb85780601f10610f8d57610100808354040283529160200191610fb8565b820191906000526020600020905b815481529060010190602001808311610f9b57829003601f168201915b50505050508152602001600182018054610fd1906151c9565b80601f0160208091040260200160405190810160405280929190818152602001828054610ffd906151c9565b801561104a5780601f1061101f5761010080835404028352916020019161104a565b820191906000526020600020905b81548152906001019060200180831161102d57829003601f168201915b505050505081526020016002820154815260200160038201805461106d906151c9565b80601f0160208091040260200160405190810160405280929190818152602001828054611099906151c9565b80156110e65780601f106110bb576101008083540402835291602001916110e6565b820191906000526020600020905b8154815290600101906020018083116110c957829003601f168201915b505050505081526020016004820160009054906101000a900460ff161515151581525050905080600001518160200151826040015183606001519450945094509450509193509193565b606080606080606080606080606080600080600160008e73ffffffffffffffffffffffffffffffffffffffff1673ffffffffffffffffffffffffffffffffffffffff1681526020019081526020016000206040518061018001604052908160008201805461119d906151c9565b80601f01602080910402602001604051908101604052809291908181526020018280546111c9906151c9565b80156112165780601f106111eb57610100808354040283529160200191611216565b820191906000526020600020905b8154815290600101906020018083116111f957829003601f168201915b5050505050815260200160018201805461122f906151c9565b80601f016020809104026020016040519081016040528092919081815260200182805461125b906151c9565b80156112a85780601f1061127d576101008083540402835291602001916112a8565b820191906000526020600020905b81548152906001019060200180831161128b57829003601f168201915b505050505081526020016002820180546112c1906151c9565b80601f01602080910402602001604051908101604052809291908181526020018280546112ed906151c9565b801561133a5780601f1061130f5761010080835404028352916020019161133a565b820191906000526020600020905b81548152906001019060200180831161131d57829003601f168201915b50505050508152602001600382018054611353906151c9565b80601f016020809104026020016040519081016040528092919081815260200182805461137f906151c9565b80156113cc5780601f106113a1576101008083540402835291602001916113cc565b820191906000526020600020905b8154815290600101906020018083116113af57829003601f168201915b505050505081526020016004820180546113e5906151c9565b80601f0160208091040260200160405190810160405280929190818152602001828054611411906151c9565b801561145e5780601f106114335761010080835404028352916020019161145e565b820191906000526020600020905b81548152906001019060200180831161144157829003601f168201915b50505050508152602001600582018054611477906151c9565b80601f01602080910402602001604051908101604052809291908181526020018280546114a3906151c9565b80156114f05780601f106114c5576101008083540402835291602001916114f0565b820191906000526020600020905b8154815290600101906020018083116114d357829003601f168201915b50505050508152602001600682018054611509906151c9565b80601f0160208091040260200160405190810160405280929190818152602001828054611535906151c9565b80156115825780601f1061155757610100808354040283529160200191611582565b820191906000526020600020905b81548152906001019060200180831161156557829003601f168201915b5050505050815260200160078201805461159b906151c9565b80601f01602080910402602001604051908101604052809291908181526020018280546115c7906151c9565b80156116145780601f106115e957610100808354040283529160200191611614565b820191906000526020600020905b8154815290600101906020018083116115f757829003601f168201915b5050505050815260200160088201805461162d906151c9565b80601f0160208091040260200160405190810160405280929190818152602001828054611659906151c9565b80156116a65780601f1061167b576101008083540402835291602001916116a6565b820191906000526020600020905b81548152906001019060200180831161168957829003601f168201915b505050505081526020016009820180546116bf906151c9565b80601f01602080910402602001604051908101604052809291908181526020018280546116eb906151c9565b80156117385780601f1061170d57610100808354040283529160200191611738565b820191906000526020600020905b81548152906001019060200180831161171b57829003601f168201915b50505050508152602001600a820160009054906101000a900460ff16151515158152602001600a820160019054906101000a900460ff1615151515815250509050806000015181602001518260400151836060015184608001518560a001518660c001518760e001518861010001518961012001518a61014001519b509b509b509b509b509b509b509b509b509b509b505091939597999b90929496989a50565b6117e1613ef6565b6117eb6000613f74565b565b60066020528060005260406000206000915090508060000160009054906101000a900473ffffffffffffffffffffffffffffffffffffffff16908060010160009054906101000a900473ffffffffffffffffffffffffffffffffffffffff169080600201805461185c906151c9565b80601f0160208091040260200160405190810160405280929190818152602001828054611888906151c9565b80156118d55780601f106118aa576101008083540402835291602001916118d5565b820191906000526020600020905b8154815290600101906020018083116118b857829003601f168201915b5050505050908060030154908060040160009054906101000a900460ff16905085565b60008060009054906101000a900473ffffffffffffffffffffffffffffffffffffffff16905090565b6004602052806000526040600020600091509050806000018054611944906151c9565b80601f0160208091040260200160405190810160405280929190818152602001828054611970906151c9565b80156119bd5780601f10611992576101008083540402835291602001916119bd565b820191906000526020600020905b8154815290600101906020018083116119a057829003601f168201915b5050505050908060010180546119d2906151c9565b80601f01602080910402602001604051908101604052809291908181526020018280546119fe906151c9565b8015611a4b5780601f10611a2057610100808354040283529160200191611a4b565b820191906000526020600020905b815481529060010190602001808311611a2e57829003601f168201915b505050505090806002015490806003015490806004018054611a6c906151c9565b80601f0160208091040260200160405190810160405280929190818152602001828054611a98906151c9565b8015611ae55780601f10611aba57610100808354040283529160200191611ae5565b820191906000526020600020905b815481529060010190602001808311611ac857829003601f168201915b505050505090806005018054611afa906151c9565b80601f0160208091040260200160405190810160405280929190818152602001828054611b26906151c9565b8015611b735780601f10611b4857610100808354040283529160200191611b73565b820191906000526020600020905b815481529060010190602001808311611b5657829003601f168201915b5050505050908060070160009054906101000a900460ff16905087565b6002602052806000526040600020600091509050806000018054611bb3906151c9565b80601f0160208091040260200160405190810160405280929190818152602001828054611bdf906151c9565b8015611c2c5780601f10611c0157610100808354040283529160200191611c2c565b820191906000526020600020905b815481529060010190602001808311611c0f57829003601f168201915b505050505090806001018054611c41906151c9565b80601f0160208091040260200160405190810160405280929190818152602001828054611c6d906151c9565b8015611cba5780601f10611c8f57610100808354040283529160200191611cba565b820191906000526020600020905b815481529060010190602001808311611c9d57829003601f168201915b505050505090806002015490806003018054611cd5906151c9565b80601f0160208091040260200160405190810160405280929190818152602001828054611d01906151c9565b8015611d4e5780601f10611d2357610100808354040283529160200191611d4e565b820191906000526020600020905b815481529060010190602001808311611d3157829003601f168201915b5050505050908060040160009054906101000a900460ff16905085565b6001602052806000526040600020600091509050806000018054611d8e906151c9565b80601f0160208091040260200160405190810160405280929190818152602001828054611dba906151c9565b8015611e075780601f10611ddc57610100808354040283529160200191611e07565b820191906000526020600020905b815481529060010190602001808311611dea57829003601f168201915b505050505090806001018054611e1c906151c9565b80601f0160208091040260200160405190810160405280929190818152602001828054611e48906151c9565b8015611e955780601f10611e6a57610100808354040283529160200191611e95565b820191906000526020600020905b815481529060010190602001808311611e7857829003601f168201915b505050505090806002018054611eaa906151c9565b80601f0160208091040260200160405190810160405280929190818152602001828054611ed6906151c9565b8015611f235780601f10611ef857610100808354040283529160200191611f23565b820191906000526020600020905b815481529060010190602001808311611f0657829003601f168201915b505050505090806003018054611f38906151c9565b80601f0160208091040260200160405190810160405280929190818152602001828054611f64906151c9565b8015611fb15780601f10611f8657610100808354040283529160200191611fb1565b820191906000526020600020905b815481529060010190602001808311611f9457829003601f168201915b505050505090806004018054611fc6906151c9565b80601f0160208091040260200160405190810160405280929190818152602001828054611ff2906151c9565b801561203f5780601f106120145761010080835404028352916020019161203f565b820191906000526020600020905b81548152906001019060200180831161202257829003601f168201915b505050505090806005018054612054906151c9565b80601f0160208091040260200160405190810160405280929190818152602001828054612080906151c9565b80156120cd5780601f106120a2576101008083540402835291602001916120cd565b820191906000526020600020905b8154815290600101906020018083116120b057829003601f168201915b5050505050908060060180546120e2906151c9565b80601f016020809104026020016040519081016040528092919081815260200182805461210e906151c9565b801561215b5780601f106121305761010080835404028352916020019161215b565b820191906000526020600020905b81548152906001019060200180831161213e57829003601f168201915b505050505090806007018054612170906151c9565b80601f016020809104026020016040519081016040528092919081815260200182805461219c906151c9565b80156121e95780601f106121be576101008083540402835291602001916121e9565b820191906000526020600020905b8154815290600101906020018083116121cc57829003601f168201915b5050505050908060080180546121fe906151c9565b80601f016020809104026020016040519081016040528092919081815260200182805461222a906151c9565b80156122775780601f1061224c57610100808354040283529160200191612277565b820191906000526020600020905b81548152906001019060200180831161225a57829003601f168201915b50505050509080600901805461228c906151c9565b80601f01602080910402602001604051908101604052809291908181526020018280546122b8906151c9565b80156123055780601f106122da57610100808354040283529160200191612305565b820191906000526020600020905b8154815290600101906020018083116122e857829003601f168201915b50505050509080600a0160009054906101000a900460ff169080600a0160019054906101000a900460ff1690508c565b600160003373ffffffffffffffffffffffffffffffffffffffff1673ffffffffffffffffffffffffffffffffffffffff168152602001908152602001600020600a0160019054906101000a900460ff16156123c5576040517f08c379a00000000000000000000000000000000000000000000000000000000081526004016123bc906156bc565b60405180910390fd5b6040518061018001604052808b81526020018a815260200189815260200188815260200187815260200186815260200185815260200184815260200183815260200182815260200160001515815260200160011515815250600160003373ffffffffffffffffffffffffffffffffffffffff1673ffffffffffffffffffffffffffffffffffffffff168152602001908152602001600020600082015181600001908161247191906153a6565b50602082015181600101908161248791906153a6565b50604082015181600201908161249d91906153a6565b5060608201518160030190816124b391906153a6565b5060808201518160040190816124c991906153a6565b5060a08201518160050190816124df91906153a6565b5060c08201518160060190816124f591906153a6565b5060e082015181600701908161250b91906153a6565b5061010082015181600801908161252291906153a6565b5061012082015181600901908161253991906153a6565b5061014082015181600a0160006101000a81548160ff02191690831515021790555061016082015181600a0160016101000a81548160ff0219169083151502179055509050503373ffffffffffffffffffffffffffffffffffffffff167f73a52c071d4a02996481449bf1ad04d8f24559a7ec51210c4ec5e43d3baee8818b6040516125c59190615478565b60405180910390a250505050505050505050565b600160003373ffffffffffffffffffffffffffffffffffffffff1673ffffffffffffffffffffffffffffffffffffffff168152602001908152602001600020600a0160019054906101000a900460ff16612668576040517f08c379a000000000000000000000000000000000000000000000000000000000815260040161265f9061517a565b60405180910390fd5b600160003373ffffffffffffffffffffffffffffffffffffffff1673ffffffffffffffffffffffffffffffffffffffff168152602001908152602001600020600a0160009054906101000a900460ff166126f7576040517f08c379a00000000000000000000000000000000000000000000000000000000081526004016126ee906154e6565b60405180910390fd5b846004600082815260200190815260200160002060070160009054906101000a900460ff1661275b576040517f08c379a000000000000000000000000000000000000000000000000000000000815260040161275290615728565b60405180910390fd5b600360003373ffffffffffffffffffffffffffffffffffffffff1673ffffffffffffffffffffffffffffffffffffffff16815260200190815260200160002060008673ffffffffffffffffffffffffffffffffffffffff1673ffffffffffffffffffffffffffffffffffffffff16815260200190815260200160002060009054906101000a900460ff16612824576040517f08c379a000000000000000000000000000000000000000000000000000000000815260040161281b90615650565b60405180910390fd5b6040518060800160405280858152602001848152602001838152602001600115158152506005600088815260200190815260200160002060008773ffffffffffffffffffffffffffffffffffffffff1673ffffffffffffffffffffffffffffffffffffffff1681526020019081526020016000206000820151816000015560208201518160010190816128b791906153a6565b5060408201518160020190816128cd91906153a6565b5060608201518160030160006101000a81548160ff0219169083151502179055509050508473ffffffffffffffffffffffffffffffffffffffff16867ff97d37817a3016d675a5cf7d2f08c621bf2ace42e26029a856fefb5b538ef2f860405160405180910390a3505050505050565b600160003373ffffffffffffffffffffffffffffffffffffffff1673ffffffffffffffffffffffffffffffffffffffff168152602001908152602001600020600a0160019054906101000a900460ff166129cc576040517f08c379a00000000000000000000000000000000000000000000000000000000081526004016129c39061517a565b60405180910390fd5b600160003373ffffffffffffffffffffffffffffffffffffffff1673ffffffffffffffffffffffffffffffffffffffff168152602001908152602001600020600a0160009054906101000a900460ff16612a5b576040517f08c379a0000000000000000000000000000000000000000000000000000000008152600401612a52906154e6565b60405180910390fd5b81600260008273ffffffffffffffffffffffffffffffffffffffff1673ffffffffffffffffffffffffffffffffffffffff16815260200190815260200160002060040160009054906101000a900460ff16612aeb576040517f08c379a0000000000000000000000000000000000000000000000000000000008152600401612ae2906155be565b60405180910390fd5b600360003373ffffffffffffffffffffffffffffffffffffffff1673ffffffffffffffffffffffffffffffffffffffff16815260200190815260200160002060008473ffffffffffffffffffffffffffffffffffffffff1673ffffffffffffffffffffffffffffffffffffffff16815260200190815260200160002060009054906101000a900460ff16612bb4576040517f08c379a0000000000000000000000000000000000000000000000000000000008152600401612bab90615650565b60405180910390fd5b612bbe6008614038565b6000612bca600861404e565b3385604051602001612bde939291906157b1565b6040516020818303038152906040528051906020012090506040518060a001604052808573ffffffffffffffffffffffffffffffffffffffff1681526020013373ffffffffffffffffffffffffffffffffffffffff168152602001848152602001428152602001600115158152506006600083815260200190815260200160002060008201518160000160006101000a81548173ffffffffffffffffffffffffffffffffffffffff021916908373ffffffffffffffffffffffffffffffffffffffff16021790555060208201518160010160006101000a81548173ffffffffffffffffffffffffffffffffffffffff021916908373ffffffffffffffffffffffffffffffffffffffff1602179055506040820151816002019081612d0291906153a6565b506060820151816003015560808201518160040160006101000a81548160ff0219169083151502179055509050508373ffffffffffffffffffffffffffffffffffffffff16817f11fb9f283c08b0122fe14bf3b5692d38f07282003f545f4bbc8b766ddcbda83260405160405180910390a350505050565b600160003373ffffffffffffffffffffffffffffffffffffffff1673ffffffffffffffffffffffffffffffffffffffff168152602001908152602001600020600a0160019054906101000a900460ff16612e09576040517f08c379a0000000000000000000000000000000000000000000000000000000008152600401612e009061517a565b60405180910390fd5b600160003373ffffffffffffffffffffffffffffffffffffffff1673ffffffffffffffffffffffffffffffffffffffff168152602001908152602001600020600a0160009054906101000a900460ff16612e98576040517f08c379a0000000000000000000000000000000000000000000000000000000008152600401612e8f906154e6565b60405180910390fd5b816004600082815260200190815260200160002060070160009054906101000a900460ff16612efc576040517f08c379a0000000000000000000000000000000000000000000000000000000008152600401612ef390615728565b60405180910390fd5b81600460008581526020019081526020016000206004019081612f1f91906153a6565b50827ff992fe1bd266a3995a256e5cc687b256f18fc830ade96b248360ef2fe29a4c4c83604051612f509190615478565b60405180910390a2505050565b600560205281600052604060002060205280600052604060002060009150915050806000015490806001018054612f93906151c9565b80601f0160208091040260200160405190810160405280929190818152602001828054612fbf906151c9565b801561300c5780601f10612fe15761010080835404028352916020019161300c565b820191906000526020600020905b815481529060010190602001808311612fef57829003601f168201915b505050505090806002018054613021906151c9565b80601f016020809104026020016040519081016040528092919081815260200182805461304d906151c9565b801561309a5780601f1061306f5761010080835404028352916020019161309a565b820191906000526020600020905b81548152906001019060200180831161307d57829003601f168201915b5050505050908060030160009054906101000a900460ff16905084565b600160003373ffffffffffffffffffffffffffffffffffffffff1673ffffffffffffffffffffffffffffffffffffffff168152602001908152602001600020600a0160019054906101000a900460ff16613146576040517f08c379a000000000000000000000000000000000000000000000000000000000815260040161313d9061517a565b60405180910390fd5b600160003373ffffffffffffffffffffffffffffffffffffffff1673ffffffffffffffffffffffffffffffffffffffff168152602001908152602001600020600a0160009054906101000a900460ff166131d5576040517f08c379a00000000000000000000000000000000000000000000000000000000081526004016131cc906154e6565b60405180910390fd5b816004600082815260200190815260200160002060070160009054906101000a900460ff16613239576040517f08c379a000000000000000000000000000000000000000000000000000000000815260040161323090615728565b60405180910390fd5b60005b825181101561333b57600360003373ffffffffffffffffffffffffffffffffffffffff1673ffffffffffffffffffffffffffffffffffffffff1681526020019081526020016000206000848381518110613299576132986157ee565b5b602002602001015173ffffffffffffffffffffffffffffffffffffffff1673ffffffffffffffffffffffffffffffffffffffff16815260200190815260200160002060009054906101000a900460ff16613328576040517f08c379a000000000000000000000000000000000000000000000000000000000815260040161331f9061588f565b60405180910390fd5b8080613333906158de565b91505061323c565b5081600460008581526020019081526020016000206006019080519060200190613366929190614064565b50827f70b162532c2b8935bbf6a4aa9c3d8f91fe22c1aa0c8e5d3d34264e9b7570e0c58360405161339791906159e4565b60405180910390a2505050565b60036020528160005260406000206020528060005260406000206000915091509054906101000a900460ff1681565b6133db613ef6565b600073ffffffffffffffffffffffffffffffffffffffff168173ffffffffffffffffffffffffffffffffffffffff160361344a576040517f08c379a000000000000000000000000000000000000000000000000000000000815260040161344190615a78565b60405180910390fd5b61345381613f74565b50565b600080600080600460008681526020019081526020016000206040518061010001604052908160008201805461348b906151c9565b80601f01602080910402602001604051908101604052809291908181526020018280546134b7906151c9565b80156135045780601f106134d957610100808354040283529160200191613504565b820191906000526020600020905b8154815290600101906020018083116134e757829003601f168201915b5050505050815260200160018201805461351d906151c9565b80601f0160208091040260200160405190810160405280929190818152602001828054613549906151c9565b80156135965780601f1061356b57610100808354040283529160200191613596565b820191906000526020600020905b81548152906001019060200180831161357957829003601f168201915b5050505050815260200160028201548152602001600382015481526020016004820180546135c3906151c9565b80601f01602080910402602001604051908101604052809291908181526020018280546135ef906151c9565b801561363c5780601f106136115761010080835404028352916020019161363c565b820191906000526020600020905b81548152906001019060200180831161361f57829003601f168201915b50505050508152602001600582018054613655906151c9565b80601f0160208091040260200160405190810160405280929190818152602001828054613681906151c9565b80156136ce5780601f106136a3576101008083540402835291602001916136ce565b820191906000526020600020905b8154815290600101906020018083116136b157829003601f168201915b505050505081526020016006820180548060200260200160405190810160405280929190818152602001828054801561375c57602002820191906000526020600020905b8160009054906101000a900473ffffffffffffffffffffffffffffffffffffffff1673ffffffffffffffffffffffffffffffffffffffff1681526020019060010190808311613712575b505050505081526020016007820160009054906101000a900460ff16151515158152505090506000806000805b8460c00151518110156139b6576000600560008b815260200190815260200160002060008760c0015184815181106137c4576137c36157ee565b5b602002602001015173ffffffffffffffffffffffffffffffffffffffff1673ffffffffffffffffffffffffffffffffffffffff1681526020019081526020016000206040518060800160405290816000820154815260200160018201805461382b906151c9565b80601f0160208091040260200160405190810160405280929190818152602001828054613857906151c9565b80156138a45780601f10613879576101008083540402835291602001916138a4565b820191906000526020600020905b81548152906001019060200180831161388757829003601f168201915b505050505081526020016002820180546138bd906151c9565b80601f01602080910402602001604051908101604052809291908181526020018280546138e9906151c9565b80156139365780601f1061390b57610100808354040283529160200191613936565b820191906000526020600020905b81548152906001019060200180831161391957829003601f168201915b505050505081526020016003820160009054906101000a900460ff16151515158152505090508060600151156139a2578480613971906158de565b9550508060000151836139849190615a98565b9250603c8160000151106139a157838061399d906158de565b9450505b5b5080806139ae906158de565b915050613789565b5082600084116139c75760006139e0565b836064846139d59190615acc565b6139df9190615b3d565b5b600085116139ef5760006139fc565b84836139fb9190615b3d565b5b965096509650505050509193909250565b600060608060006005600087815260200190815260200160002060008673ffffffffffffffffffffffffffffffffffffffff1673ffffffffffffffffffffffffffffffffffffffff16815260200190815260200160002060405180608001604052908160008201548152602001600182018054613a89906151c9565b80601f0160208091040260200160405190810160405280929190818152602001828054613ab5906151c9565b8015613b025780601f10613ad757610100808354040283529160200191613b02565b820191906000526020600020905b815481529060010190602001808311613ae557829003601f168201915b50505050508152602001600282018054613b1b906151c9565b80601f0160208091040260200160405190810160405280929190818152602001828054613b47906151c9565b8015613b945780601f10613b6957610100808354040283529160200191613b94565b820191906000526020600020905b815481529060010190602001808311613b7757829003601f168201915b505050505081526020016003820160009054906101000a900460ff1615151515815250509050806000015181602001518260400151935093509350509250925092565b6000600160003373ffffffffffffffffffffffffffffffffffffffff1673ffffffffffffffffffffffffffffffffffffffff168152602001908152602001600020600a0160019054906101000a900460ff16613c68576040517f08c379a0000000000000000000000000000000000000000000000000000000008152600401613c5f9061517a565b60405180910390fd5b600160003373ffffffffffffffffffffffffffffffffffffffff1673ffffffffffffffffffffffffffffffffffffffff168152602001908152602001600020600a0160009054906101000a900460ff16613cf7576040517f08c379a0000000000000000000000000000000000000000000000000000000008152600401613cee906154e6565b60405180910390fd5b613d016007614038565b6000613d0d600761404e565b33604051602001613d1f929190615b6e565b6040516020818303038152906040528051906020012090506040518061010001604052808881526020018781526020018681526020018581526020016040518060400160405280600781526020017f70656e64696e67000000000000000000000000000000000000000000000000008152508152602001848152602001600067ffffffffffffffff811115613db757613db661413a565b5b604051908082528060200260200182016040528015613de55781602001602082028036833780820191505090505b50815260200160011515815250600460008381526020019081526020016000206000820151816000019081613e1a91906153a6565b506020820151816001019081613e3091906153a6565b5060408201518160020155606082015181600301556080820151816004019081613e5a91906153a6565b5060a0820151816005019081613e7091906153a6565b5060c0820151816006019080519060200190613e8d929190614064565b5060e08201518160070160006101000a81548160ff021916908315150217905550905050807f01cc58dcd5983c834936e93747192e03a1d4179dc2bf868e41eb1021e237368988604051613ee19190615478565b60405180910390a28091505095945050505050565b613efe61405c565b73ffffffffffffffffffffffffffffffffffffffff16613f1c6118f8565b73ffffffffffffffffffffffffffffffffffffffff1614613f72576040517f08c379a0000000000000000000000000000000000000000000000000000000008152600401613f6990615be6565b60405180910390fd5b565b60008060009054906101000a900473ffffffffffffffffffffffffffffffffffffffff169050816000806101000a81548173ffffffffffffffffffffffffffffffffffffffff021916908373ffffffffffffffffffffffffffffffffffffffff1602179055508173ffffffffffffffffffffffffffffffffffffffff168173ffffffffffffffffffffffffffffffffffffffff167f8be0079c531659141344cd1fd0a4f28419497f9722a3daafe3b4186f6b6457e060405160405180910390a35050565b6001816000016000828254019250508190555050565b600081600001549050919050565b600033905090565b8280548282559060005260206000209081019282156140dd579160200282015b828111156140dc5782518260006101000a81548173ffffffffffffffffffffffffffffffffffffffff021916908373ffffffffffffffffffffffffffffffffffffffff16021790555091602001919060010190614084565b5b5090506140ea91906140ee565b5090565b5b808211156141075760008160009055506001016140ef565b5090565b6000604051905090565b600080fd5b600080fd5b600080fd5b600080fd5b6000601f19601f8301169050919050565b7f4e487b7100000000000000000000000000000000000000000000000000000000600052604160045260246000fd5b61417282614129565b810181811067ffffffffffffffff821117156141915761419061413a565b5b80604052505050565b60006141a461410b565b90506141b08282614169565b919050565b600067ffffffffffffffff8211156141d0576141cf61413a565b5b6141d982614129565b9050602081019050919050565b82818337600083830152505050565b6000614208614203846141b5565b61419a565b90508281526020810184848401111561422457614223614124565b5b61422f8482856141e6565b509392505050565b600082601f83011261424c5761424b61411f565b5b813561425c8482602086016141f5565b91505092915050565b60008060008060008060008060006101208a8c03121561428857614287614115565b5b60008a013567ffffffffffffffff8111156142a6576142a561411a565b5b6142b28c828d01614237565b99505060208a013567ffffffffffffffff8111156142d3576142d261411a565b5b6142df8c828d01614237565b98505060408a013567ffffffffffffffff811115614300576142ff61411a565b5b61430c8c828d01614237565b97505060608a013567ffffffffffffffff81111561432d5761432c61411a565b5b6143398c828d01614237565b96505060808a013567ffffffffffffffff81111561435a5761435961411a565b5b6143668c828d01614237565b95505060a08a013567ffffffffffffffff8111156143875761438661411a565b5b6143938c828d01614237565b94505060c08a013567ffffffffffffffff8111156143b4576143b361411a565b5b6143c08c828d01614237565b93505060e08a013567ffffffffffffffff8111156143e1576143e061411a565b5b6143ed8c828d01614237565b9250506101008a013567ffffffffffffffff81111561440f5761440e61411a565b5b61441b8c828d01614237565b9150509295985092959850929598565b600073ffffffffffffffffffffffffffffffffffffffff82169050919050565b60006144568261442b565b9050919050565b6144668161444b565b811461447157600080fd5b50565b6000813590506144838161445d565b92915050565b6000806000606084860312156144a2576144a1614115565b5b60006144b086828701614474565b935050602084013567ffffffffffffffff8111156144d1576144d061411a565b5b6144dd86828701614237565b925050604084013567ffffffffffffffff8111156144fe576144fd61411a565b5b61450a86828701614237565b9150509250925092565b60006020828403121561452a57614529614115565b5b600061453884828501614474565b91505092915050565b60008115159050919050565b61455681614541565b82525050565b6000602082019050614571600083018461454d565b92915050565b6000806040838503121561458e5761458d614115565b5b600061459c85828601614474565b925050602083013567ffffffffffffffff8111156145bd576145bc61411a565b5b6145c985828601614237565b9150509250929050565b600081519050919050565b600082825260208201905092915050565b60005b8381101561460d5780820151818401526020810190506145f2565b60008484015250505050565b6000614624826145d3565b61462e81856145de565b935061463e8185602086016145ef565b61464781614129565b840191505092915050565b6000819050919050565b61466581614652565b82525050565b600060808201905081810360008301526146858187614619565b905081810360208301526146998186614619565b90506146a8604083018561465c565b81810360608301526146ba8184614619565b905095945050505050565b60006101608201905081810360008301526146e0818e614619565b905081810360208301526146f4818d614619565b90508181036040830152614708818c614619565b9050818103606083015261471c818b614619565b90508181036080830152614730818a614619565b905081810360a08301526147448189614619565b905081810360c08301526147588188614619565b905081810360e083015261476c8187614619565b90508181036101008301526147818186614619565b90508181036101208301526147968185614619565b90506147a661014083018461454d565b9c9b505050505050505050505050565b6000819050919050565b6147c9816147b6565b81146147d457600080fd5b50565b6000813590506147e6816147c0565b92915050565b60006020828403121561480257614801614115565b5b6000614810848285016147d7565b91505092915050565b6148228161444b565b82525050565b600060a08201905061483d6000830188614819565b61484a6020830187614819565b818103604083015261485c8186614619565b905061486b606083018561465c565b614878608083018461454d565b9695505050505050565b60006020820190506148976000830184614819565b92915050565b600060e08201905081810360008301526148b7818a614619565b905081810360208301526148cb8189614619565b90506148da604083018861465c565b6148e7606083018761465c565b81810360808301526148f98186614619565b905081810360a083015261490d8185614619565b905061491c60c083018461454d565b98975050505050505050565b600060a08201905081810360008301526149428188614619565b905081810360208301526149568187614619565b9050614965604083018661465c565b81810360608301526149778185614619565b9050614986608083018461454d565b9695505050505050565b60006101808201905081810360008301526149ab818f614619565b905081810360208301526149bf818e614619565b905081810360408301526149d3818d614619565b905081810360608301526149e7818c614619565b905081810360808301526149fb818b614619565b905081810360a0830152614a0f818a614619565b905081810360c0830152614a238189614619565b905081810360e0830152614a378188614619565b9050818103610100830152614a4c8187614619565b9050818103610120830152614a618186614619565b9050614a7161014083018561454d565b614a7f61016083018461454d565b9d9c50505050505050505050505050565b6000806000806000806000806000806101408b8d031215614ab457614ab3614115565b5b60008b013567ffffffffffffffff811115614ad257614ad161411a565b5b614ade8d828e01614237565b9a505060208b013567ffffffffffffffff811115614aff57614afe61411a565b5b614b0b8d828e01614237565b99505060408b013567ffffffffffffffff811115614b2c57614b2b61411a565b5b614b388d828e01614237565b98505060608b013567ffffffffffffffff811115614b5957614b5861411a565b5b614b658d828e01614237565b97505060808b013567ffffffffffffffff811115614b8657614b8561411a565b5b614b928d828e01614237565b96505060a08b013567ffffffffffffffff811115614bb357614bb261411a565b5b614bbf8d828e01614237565b95505060c08b013567ffffffffffffffff811115614be057614bdf61411a565b5b614bec8d828e01614237565b94505060e08b013567ffffffffffffffff811115614c0d57614c0c61411a565b5b614c198d828e01614237565b9350506101008b013567ffffffffffffffff811115614c3b57614c3a61411a565b5b614c478d828e01614237565b9250506101208b013567ffffffffffffffff811115614c6957614c6861411a565b5b614c758d828e01614237565b9150509295989b9194979a5092959850565b614c9081614652565b8114614c9b57600080fd5b50565b600081359050614cad81614c87565b92915050565b600080600080600060a08688031215614ccf57614cce614115565b5b6000614cdd888289016147d7565b9550506020614cee88828901614474565b9450506040614cff88828901614c9e565b935050606086013567ffffffffffffffff811115614d2057614d1f61411a565b5b614d2c88828901614237565b925050608086013567ffffffffffffffff811115614d4d57614d4c61411a565b5b614d5988828901614237565b9150509295509295909350565b60008060408385031215614d7d57614d7c614115565b5b6000614d8b858286016147d7565b925050602083013567ffffffffffffffff811115614dac57614dab61411a565b5b614db885828601614237565b9150509250929050565b60008060408385031215614dd957614dd8614115565b5b6000614de7858286016147d7565b9250506020614df885828601614474565b9150509250929050565b6000608082019050614e17600083018761465c565b8181036020830152614e298186614619565b90508181036040830152614e3d8185614619565b9050614e4c606083018461454d565b95945050505050565b600067ffffffffffffffff821115614e7057614e6f61413a565b5b602082029050602081019050919050565b600080fd5b6000614e99614e9484614e55565b61419a565b90508083825260208201905060208402830185811115614ebc57614ebb614e81565b5b835b81811015614ee55780614ed18882614474565b845260208401935050602081019050614ebe565b5050509392505050565b600082601f830112614f0457614f0361411f565b5b8135614f14848260208601614e86565b91505092915050565b60008060408385031215614f3457614f33614115565b5b6000614f42858286016147d7565b925050602083013567ffffffffffffffff811115614f6357614f6261411a565b5b614f6f85828601614eef565b9150509250929050565b60008060408385031215614f9057614f8f614115565b5b6000614f9e85828601614474565b9250506020614faf85828601614474565b9150509250929050565b6000606082019050614fce600083018661465c565b614fdb602083018561465c565b614fe8604083018461465c565b949350505050565b6000606082019050615005600083018661465c565b81810360208301526150178185614619565b9050818103604083015261502b8184614619565b9050949350505050565b600080600080600060a0868803121561505157615050614115565b5b600086013567ffffffffffffffff81111561506f5761506e61411a565b5b61507b88828901614237565b955050602086013567ffffffffffffffff81111561509c5761509b61411a565b5b6150a888828901614237565b94505060406150b988828901614c9e565b93505060606150ca88828901614c9e565b925050608086013567ffffffffffffffff8111156150eb576150ea61411a565b5b6150f788828901614237565b9150509295509295909350565b61510d816147b6565b82525050565b60006020820190506151286000830184615104565b92915050565b7f496e737469747574696f6e20646f6573206e6f74206578697374000000000000600082015250565b6000615164601a836145de565b915061516f8261512e565b602082019050919050565b6000602082019050818103600083015261519381615157565b9050919050565b7f4e487b7100000000000000000000000000000000000000000000000000000000600052602260045260246000fd5b600060028204905060018216806151e157607f821691505b6020821081036151f4576151f361519a565b5b50919050565b60008190508160005260206000209050919050565b60006020601f8301049050919050565b600082821b905092915050565b60006008830261525c7fffffffffffffffffffffffffffffffffffffffffffffffffffffffffffffffff8261521f565b615266868361521f565b95508019841693508086168417925050509392505050565b6000819050919050565b60006152a361529e61529984614652565b61527e565b614652565b9050919050565b6000819050919050565b6152bd83615288565b6152d16152c9826152aa565b84845461522c565b825550505050565b600090565b6152e66152d9565b6152f18184846152b4565b505050565b5b818110156153155761530a6000826152de565b6001810190506152f7565b5050565b601f82111561535a5761532b816151fa565b6153348461520f565b81016020851015615343578190505b61535761534f8561520f565b8301826152f6565b50505b505050565b600082821c905092915050565b600061537d6000198460080261535f565b1980831691505092915050565b6000615396838361536c565b9150826002028217905092915050565b6153af826145d3565b67ffffffffffffffff8111156153c8576153c761413a565b5b6153d282546151c9565b6153dd828285615319565b600060209050601f83116001811461541057600084156153fe578287015190505b615408858261538a565b865550615470565b601f19841661541e866151fa565b60005b8281101561544657848901518255600182019150602085019450602081019050615421565b86831015615463578489015161545f601f89168261536c565b8355505b6001600288020188555050505b505050505050565b600060208201905081810360008301526154928184614619565b905092915050565b7f496e737469747574696f6e206973206e6f742076657269666965640000000000600082015250565b60006154d0601b836145de565b91506154db8261549a565b602082019050919050565b600060208201905081810360008301526154ff816154c3565b9050919050565b7f53747564656e7420616c72656164792065786973747300000000000000000000600082015250565b600061553c6016836145de565b915061554782615506565b602082019050919050565b6000602082019050818103600083015261556b8161552f565b9050919050565b7f53747564656e7420646f6573206e6f7420657869737400000000000000000000600082015250565b60006155a86016836145de565b91506155b382615572565b602082019050919050565b600060208201905081810360008301526155d78161559b565b9050919050565b7f53747564656e74206e6f7420656e726f6c6c656420696e207468697320696e7360008201527f7469747574696f6e000000000000000000000000000000000000000000000000602082015250565b600061563a6028836145de565b9150615645826155de565b604082019050919050565b600060208201905081810360008301526156698161562d565b9050919050565b7f496e737469747574696f6e20616c726561647920726567697374657265640000600082015250565b60006156a6601e836145de565b91506156b182615670565b602082019050919050565b600060208201905081810360008301526156d581615699565b9050919050565b7f4578616d20646f6573206e6f7420657869737400000000000000000000000000600082015250565b60006157126013836145de565b915061571d826156dc565b602082019050919050565b6000602082019050818103600083015261574181615705565b9050919050565b6000819050919050565b61576361575e82614652565b615748565b82525050565b60008160601b9050919050565b600061578182615769565b9050919050565b600061579382615776565b9050919050565b6157ab6157a68261444b565b615788565b82525050565b60006157bd8286615752565b6020820191506157cd828561579a565b6014820191506157dd828461579a565b601482019150819050949350505050565b7f4e487b7100000000000000000000000000000000000000000000000000000000600052603260045260246000fd5b7f4f6e65206f72206d6f72652073747564656e7473206e6f7420656e726f6c6c6560008201527f6420696e207468697320696e737469747574696f6e0000000000000000000000602082015250565b60006158796035836145de565b91506158848261581d565b604082019050919050565b600060208201905081810360008301526158a88161586c565b9050919050565b7f4e487b7100000000000000000000000000000000000000000000000000000000600052601160045260246000fd5b60006158e982614652565b91507fffffffffffffffffffffffffffffffffffffffffffffffffffffffffffffffff820361591b5761591a6158af565b5b600182019050919050565b600081519050919050565b600082825260208201905092915050565b6000819050602082019050919050565b61595b8161444b565b82525050565b600061596d8383615952565b60208301905092915050565b6000602082019050919050565b600061599182615926565b61599b8185615931565b93506159a683615942565b8060005b838110156159d75781516159be8882615961565b97506159c983615979565b9250506001810190506159aa565b5085935050505092915050565b600060208201905081810360008301526159fe8184615986565b905092915050565b7f4f776e61626c653a206e6577206f776e657220697320746865207a65726f206160008201527f6464726573730000000000000000000000000000000000000000000000000000602082015250565b6000615a626026836145de565b9150615a6d82615a06565b604082019050919050565b60006020820190508181036000830152615a9181615a55565b9050919050565b6000615aa382614652565b9150615aae83614652565b9250828201905080821115615ac657615ac56158af565b5b92915050565b6000615ad782614652565b9150615ae283614652565b9250828202615af081614652565b91508282048414831517615b0757615b066158af565b5b5092915050565b7f4e487b7100000000000000000000000000000000000000000000000000000000600052601260045260246000fd5b6000615b4882614652565b9150615b5383614652565b925082615b6357615b62615b0e565b5b828204905092915050565b6000615b7a8285615752565b602082019150615b8a828461579a565b6014820191508190509392505050565b7f4f776e61626c653a2063616c6c6572206973206e6f7420746865206f776e6572600082015250565b6000615bd06020836145de565b9150615bdb82615b9a565b602082019050919050565b60006020820190508181036000830152615bff81615bc3565b905091905056fea264697066735822122091ce7f59e18fd27c09e2115e3930dd019006353b851e5b0f2764bc43d4be4d7e64736f6c63430008130033",
  "immutableReferences": {},
  "source": "// SPDX-License-Identifier: MIT\npragma solidity ^0.8.0;\n\nimport \"@openzeppelin/contracts/access/Ownable.sol\";\nimport \"@openzeppelin/contracts/security/Pausable.sol\";\nimport \"@openzeppelin/contracts/utils/Counters.sol\";\n\ncontract ExamManagement is Ownable, Pausable {\n    using Counters for Counters.Counter;\n\n    struct Institution {\n        string name;\n        string description;\n        string physicalAddress;\n        string email;\n        string phone;\n        string website;\n        string logo;\n        string ministry;\n        string university;\n        string college;\n        bool isVerified;\n        bool exists;\n    }\n\n    struct Student {\n        string name;\n        string email;\n        uint256 enrollmentDate;\n        string status; // \"active\", \"inactive\", \"graduated\"\n        bool exists;\n    }\n\n    struct Exam {\n        string title;\n        string description;\n        uint256 date;\n        uint256 duration;\n        string status; // \"pending\", \"active\", \"completed\"\n        string ipfsHash;\n        address[] students;\n        bool exists;\n    }\n\n    struct Certificate {\n        address student;\n        address issuer;\n        string ipfsHash;\n        uint256 issuedAt;\n        bool exists;\n    }\n\n    struct ExamResult {\n        uint256 score;\n        string grade;\n        string notes;\n        bool exists;\n    }\n\n    // Mappings\n    mapping(address => Institution) public institutions;\n    mapping(address => Student) public students;\n    mapping(address => mapping(address => bool)) public institutionStudents;\n    mapping(bytes32 => Exam) public exams;\n    mapping(bytes32 => mapping(address => ExamResult)) public examResults;\n    mapping(bytes32 => Certificate) public certificates;\n    \n    // Counters\n    Counters.Counter private _examIds;\n    Counters.Counter private _certificateIds;\n\n    // Events\n    event InstitutionRegistered(address indexed institution, string name);\n    event InstitutionVerified(address indexed institution);\n    event StudentAdded(address indexed institution, address indexed student);\n    event StudentStatusUpdated(address indexed student, string status);\n    event ExamCreated(bytes32 indexed examId, string title);\n    event ExamStatusUpdated(bytes32 indexed examId, string status);\n    event StudentsRegistered(bytes32 indexed examId, address[] students);\n    event ResultSubmitted(bytes32 indexed examId, address indexed student);\n    event CertificateIssued(bytes32 indexed certificateId, address indexed student);\n    event InstitutionProfileUpdated(address indexed institution, string name);\n\n    // Modifiers\n    modifier onlyVerifiedInstitution() {\n        require(institutions[msg.sender].exists, \"Institution does not exist\");\n        require(institutions[msg.sender].isVerified, \"Institution is not verified\");\n        _;\n    }\n\n    modifier onlyExistingExam(bytes32 examId) {\n        require(exams[examId].exists, \"Exam does not exist\");\n        _;\n    }\n\n    modifier onlyExistingStudent(address student) {\n        require(students[student].exists, \"Student does not exist\");\n        _;\n    }\n\n    // Institution Management\n    function registerInstitution(\n        string memory name,\n        string memory description,\n        string memory physicalAddress,\n        string memory email,\n        string memory phone,\n        string memory website,\n        string memory logo,\n        string memory ministry,\n        string memory university,\n        string memory college\n    ) external {\n        require(!institutions[msg.sender].exists, \"Institution already registered\");\n        \n        institutions[msg.sender] = Institution({\n            name: name,\n            description: description,\n            physicalAddress: physicalAddress,\n            email: email,\n            phone: phone,\n            website: website,\n            logo: logo,\n            ministry: ministry,\n            university: university,\n            college: college,\n            isVerified: false,\n            exists: true\n        });\n\n        emit InstitutionRegistered(msg.sender, name);\n    }\n\n    function verifyInstitution(address institution) external onlyOwner {\n        require(institutions[institution].exists, \"Institution does not exist\");\n        institutions[institution].isVerified = true;\n        emit InstitutionVerified(institution);\n    }\n\n    function updateInstitutionProfile(\n        string memory name,\n        string memory ministry,\n        string memory university,\n        string memory college,\n        string memory description,\n        string memory logo,\n        string memory website,\n        string memory email,\n        string memory phone\n    ) external {\n        require(institutions[msg.sender].exists, \"Institution does not exist\");\n        \n        Institution storage institution = institutions[msg.sender];\n        institution.name = name;\n        institution.ministry = ministry;\n        institution.university = university;\n        institution.college = college;\n        institution.description = description;\n        institution.logo = logo;\n        institution.website = website;\n        institution.email = email;\n        institution.phone = phone;\n\n        emit InstitutionProfileUpdated(msg.sender, name);\n    }\n\n    // Student Management\n    function addStudent(\n        address studentAddress,\n        string memory name,\n        string memory email\n    ) external onlyVerifiedInstitution {\n        require(!students[studentAddress].exists, \"Student already exists\");\n        \n        students[studentAddress] = Student({\n            name: name,\n            email: email,\n            enrollmentDate: block.timestamp,\n            status: \"active\",\n            exists: true\n        });\n\n        institutionStudents[msg.sender][studentAddress] = true;\n        emit StudentAdded(msg.sender, studentAddress);\n    }\n\n    function updateStudentStatus(\n        address studentAddress,\n        string memory newStatus\n    ) external onlyVerifiedInstitution onlyExistingStudent(studentAddress) {\n        require(institutionStudents[msg.sender][studentAddress], \"Student not enrolled in this institution\");\n        students[studentAddress].status = newStatus;\n        emit StudentStatusUpdated(studentAddress, newStatus);\n    }\n\n    // Exam Management\n    function createExam(\n        string memory title,\n        string memory description,\n        uint256 date,\n        uint256 duration,\n        string memory ipfsHash\n    ) external onlyVerifiedInstitution returns (bytes32) {\n        _examIds.increment();\n        bytes32 examId = keccak256(abi.encodePacked(_examIds.current(), msg.sender));\n        \n        exams[examId] = Exam({\n            title: title,\n            description: description,\n            date: date,\n            duration: duration,\n            status: \"pending\",\n            ipfsHash: ipfsHash,\n            students: new address[](0),\n            exists: true\n        });\n\n        emit ExamCreated(examId, title);\n        return examId;\n    }\n\n    function updateExamStatus(\n        bytes32 examId,\n        string memory newStatus\n    ) external onlyVerifiedInstitution onlyExistingExam(examId) {\n        exams[examId].status = newStatus;\n        emit ExamStatusUpdated(examId, newStatus);\n    }\n\n    function registerStudentsForExam(\n        bytes32 examId,\n        address[] memory studentAddresses\n    ) external onlyVerifiedInstitution onlyExistingExam(examId) {\n        for (uint i = 0; i < studentAddresses.length; i++) {\n            require(\n                institutionStudents[msg.sender][studentAddresses[i]],\n                \"One or more students not enrolled in this institution\"\n            );\n        }\n        exams[examId].students = studentAddresses;\n        emit StudentsRegistered(examId, studentAddresses);\n    }\n\n    // Result Management\n    function submitResult(\n        bytes32 examId,\n        address student,\n        uint256 score,\n        string memory grade,\n        string memory notes\n    ) external onlyVerifiedInstitution onlyExistingExam(examId) {\n        require(\n            institutionStudents[msg.sender][student],\n            \"Student not enrolled in this institution\"\n        );\n        \n        examResults[examId][student] = ExamResult({\n            score: score,\n            grade: grade,\n            notes: notes,\n            exists: true\n        });\n\n        emit ResultSubmitted(examId, student);\n    }\n\n    // Certificate Management\n    function issueCertificate(\n        address student,\n        string memory ipfsHash\n    ) external onlyVerifiedInstitution onlyExistingStudent(student) {\n        require(\n            institutionStudents[msg.sender][student],\n            \"Student not enrolled in this institution\"\n        );\n\n        _certificateIds.increment();\n        bytes32 certificateId = keccak256(abi.encodePacked(_certificateIds.current(), msg.sender, student));\n        \n        certificates[certificateId] = Certificate({\n            student: student,\n            issuer: msg.sender,\n            ipfsHash: ipfsHash,\n            issuedAt: block.timestamp,\n            exists: true\n        });\n\n        emit CertificateIssued(certificateId, student);\n    }\n\n    // View Functions\n    function getInstitution(address institution) external view returns (\n        string memory name,\n        string memory description,\n        string memory physicalAddress,\n        string memory email,\n        string memory phone,\n        string memory website,\n        string memory logo,\n        string memory ministry,\n        string memory university,\n        string memory college,\n        bool isVerified\n    ) {\n        Institution memory inst = institutions[institution];\n        return (\n            inst.name,\n            inst.description,\n            inst.physicalAddress,\n            inst.email,\n            inst.phone,\n            inst.website,\n            inst.logo,\n            inst.ministry,\n            inst.university,\n            inst.college,\n            inst.isVerified\n        );\n    }\n\n    function getStudent(address student) external view returns (\n        string memory name,\n        string memory email,\n        uint256 enrollmentDate,\n        string memory status\n    ) {\n        Student memory stud = students[student];\n        return (\n            stud.name,\n            stud.email,\n            stud.enrollmentDate,\n            stud.status\n        );\n    }\n\n    function getExamResult(bytes32 examId, address student) external view returns (\n        uint256 score,\n        string memory grade,\n        string memory notes\n    ) {\n        ExamResult memory result = examResults[examId][student];\n        return (\n            result.score,\n            result.grade,\n            result.notes\n        );\n    }\n\n    function getExamStatistics(bytes32 examId) external view returns (\n        uint256 totalStudents,\n        uint256 passRate,\n        uint256 averageScore\n    ) {\n        Exam memory exam = exams[examId];\n        uint256 total = 0;\n        uint256 passed = 0;\n        uint256 scoreSum = 0;\n        \n        for (uint i = 0; i < exam.students.length; i++) {\n            ExamResult memory result = examResults[examId][exam.students[i]];\n            if (result.exists) {\n                total++;\n                scoreSum += result.score;\n                if (result.score >= 60) {\n                    passed++;\n                }\n            }\n        }\n        \n        return (\n            total,\n            total > 0 ? (passed * 100) / total : 0,\n            total > 0 ? scoreSum / total : 0\n        );\n    }\n} ",
  "sourcePath": "C:\\Users\\osama\\OneDrive\\Desktop\\Graduation\\grad-main-0.1\\contracts\\ExamManagement.sol",
  "compiler": {
    "name": "solc",
    "version": "0.8.19+commit.7dd6d404.Emscripten.clang"
  },
  "schemaVersion": "3.4.16",
  "updatedAt": "2025-04-17T00:42:23.864Z",
  "networkType": "ethereum",
  "devdoc": {
    "events": {
      "Paused(address)": {
        "details": "Emitted when the pause is triggered by `account`."
      },
      "Unpaused(address)": {
        "details": "Emitted when the pause is lifted by `account`."
      }
    },
    "kind": "dev",
    "methods": {
      "owner()": {
        "details": "Returns the address of the current owner."
      },
      "paused()": {
        "details": "Returns true if the contract is paused, and false otherwise."
      },
      "renounceOwnership()": {
        "details": "Leaves the contract without owner. It will not be possible to call `onlyOwner` functions. Can only be called by the current owner. NOTE: Renouncing ownership will leave the contract without an owner, thereby disabling any functionality that is only available to the owner."
      },
      "transferOwnership(address)": {
        "details": "Transfers ownership of the contract to a new account (`newOwner`). Can only be called by the current owner."
      }
    },
    "version": 1
  },
  "userdoc": {
    "kind": "user",
    "methods": {},
    "version": 1
  }
}