{
  "contractName": "Examinations",
  "abi": [
    {
      "inputs": [
        {
          "internalType": "address",
          "name": "_identityContract",
          "type": "address"
        }
      ],
      "stateMutability": "nonpayable",
      "type": "constructor"
    },
    {
      "anonymous": false,
      "inputs": [
        {
          "indexed": true,
          "internalType": "bytes32",
          "name": "examId",
          "type": "bytes32"
        },
        {
          "indexed": true,
          "internalType": "address",
          "name": "student",
          "type": "address"
        }
      ],
      "name": "AnswersSubmitted",
      "type": "event"
    },
    {
      "anonymous": false,
      "inputs": [
        {
          "indexed": true,
          "internalType": "bytes32",
          "name": "examId",
          "type": "bytes32"
        },
        {
          "indexed": true,
          "internalType": "address",
          "name": "institution",
          "type": "address"
        }
      ],
      "name": "ExaminationCreated",
      "type": "event"
    },
    {
      "anonymous": false,
      "inputs": [
        {
          "indexed": true,
          "internalType": "bytes32",
          "name": "examId",
          "type": "bytes32"
        },
        {
          "indexed": true,
          "internalType": "address",
          "name": "student",
          "type": "address"
        },
        {
          "indexed": false,
          "internalType": "uint256",
          "name": "grade",
          "type": "uint256"
        }
      ],
      "name": "GradeAssigned",
      "type": "event"
    },
    {
      "anonymous": false,
      "inputs": [
        {
          "indexed": true,
          "internalType": "bytes32",
          "name": "examId",
          "type": "bytes32"
        },
        {
          "indexed": true,
          "internalType": "address",
          "name": "student",
          "type": "address"
        }
      ],
      "name": "StudentRegistered",
      "type": "event"
    },
    {
      "inputs": [
        {
          "internalType": "bytes32",
          "name": "",
          "type": "bytes32"
        }
      ],
      "name": "examinations",
      "outputs": [
        {
          "internalType": "address",
          "name": "institution",
          "type": "address"
        },
        {
          "internalType": "string",
          "name": "ipfsHash",
          "type": "string"
        },
        {
          "internalType": "uint256",
          "name": "startTime",
          "type": "uint256"
        },
        {
          "internalType": "uint256",
          "name": "endTime",
          "type": "uint256"
        },
        {
          "internalType": "bool",
          "name": "isActive",
          "type": "bool"
        }
      ],
      "stateMutability": "view",
      "type": "function",
      "constant": true
    },
    {
      "inputs": [],
      "name": "identityContract",
      "outputs": [
        {
          "internalType": "contract Identity",
          "name": "",
          "type": "address"
        }
      ],
      "stateMutability": "view",
      "type": "function",
      "constant": true
    },
    {
      "inputs": [
        {
          "internalType": "address",
          "name": "",
          "type": "address"
        },
        {
          "internalType": "uint256",
          "name": "",
          "type": "uint256"
        }
      ],
      "name": "institutionExams",
      "outputs": [
        {
          "internalType": "bytes32",
          "name": "",
          "type": "bytes32"
        }
      ],
      "stateMutability": "view",
      "type": "function",
      "constant": true
    },
    {
      "inputs": [
        {
          "internalType": "address",
          "name": "",
          "type": "address"
        },
        {
          "internalType": "uint256",
          "name": "",
          "type": "uint256"
        }
      ],
      "name": "studentExams",
      "outputs": [
        {
          "internalType": "bytes32",
          "name": "",
          "type": "bytes32"
        }
      ],
      "stateMutability": "view",
      "type": "function",
      "constant": true
    },
    {
      "inputs": [
        {
          "internalType": "string",
          "name": "_ipfsHash",
          "type": "string"
        },
        {
          "internalType": "uint256",
          "name": "_startTime",
          "type": "uint256"
        },
        {
          "internalType": "uint256",
          "name": "_endTime",
          "type": "uint256"
        }
      ],
      "name": "createExamination",
      "outputs": [
        {
          "internalType": "bytes32",
          "name": "",
          "type": "bytes32"
        }
      ],
      "stateMutability": "nonpayable",
      "type": "function"
    },
    {
      "inputs": [
        {
          "internalType": "bytes32",
          "name": "_examId",
          "type": "bytes32"
        }
      ],
      "name": "registerForExam",
      "outputs": [],
      "stateMutability": "nonpayable",
      "type": "function"
    },
    {
      "inputs": [
        {
          "internalType": "bytes32",
          "name": "_examId",
          "type": "bytes32"
        },
        {
          "internalType": "string",
          "name": "_answersIpfsHash",
          "type": "string"
        }
      ],
      "name": "submitAnswers",
      "outputs": [],
      "stateMutability": "nonpayable",
      "type": "function"
    },
    {
      "inputs": [
        {
          "internalType": "bytes32",
          "name": "_examId",
          "type": "bytes32"
        },
        {
          "internalType": "address",
          "name": "_student",
          "type": "address"
        },
        {
          "internalType": "uint256",
          "name": "_grade",
          "type": "uint256"
        }
      ],
      "name": "assignGrade",
      "outputs": [],
      "stateMutability": "nonpayable",
      "type": "function"
    },
    {
      "inputs": [
        {
          "internalType": "bytes32",
          "name": "_examId",
          "type": "bytes32"
        }
      ],
      "name": "getExamDetails",
      "outputs": [
        {
          "internalType": "address",
          "name": "institution",
          "type": "address"
        },
        {
          "internalType": "string",
          "name": "ipfsHash",
          "type": "string"
        },
        {
          "internalType": "uint256",
          "name": "startTime",
          "type": "uint256"
        },
        {
          "internalType": "uint256",
          "name": "endTime",
          "type": "uint256"
        },
        {
          "internalType": "bool",
          "name": "isActive",
          "type": "bool"
        }
      ],
      "stateMutability": "view",
      "type": "function",
      "constant": true
    },
    {
      "inputs": [
        {
          "internalType": "bytes32",
          "name": "_examId",
          "type": "bytes32"
        },
        {
          "internalType": "address",
          "name": "_student",
          "type": "address"
        }
      ],
      "name": "getStudentGrade",
      "outputs": [
        {
          "internalType": "uint256",
          "name": "grade",
          "type": "uint256"
        },
        {
          "internalType": "bool",
          "name": "isGraded",
          "type": "bool"
        }
      ],
      "stateMutability": "view",
      "type": "function",
      "constant": true
    }
  ],
  "bytecode": "0x608060405234801561001057600080fd5b5060405161144338038061144383398101604081905261002f91610059565b6001600081905580546001600160a01b0319166001600160a01b0392909216919091179055610089565b60006020828403121561006b57600080fd5b81516001600160a01b038116811461008257600080fd5b9392505050565b6113ab806100986000396000f3fe608060405234801561001057600080fd5b506004361061008e5760003560e01c80630ea6a25c146100935780633702ec52146100c05780633aa9bc6a146100e15780633c7de896146100f45780635d590dde1461010957806367031bae1461011c578063675191d71461013c5780636e6dbb3f1461019c578063ac99defa146101af578063add21f73146101c2575b600080fd5b6100a66100a1366004610e7b565b6101d5565b6040516100b7959493929190610eb8565b60405180910390f35b6100d36100ce366004610fb2565b61029b565b6040519081526020016100b7565b6100a66100ef366004610e7b565b61052a565b610107610102366004610fff565b61060d565b005b6100d3610117366004611061565b610876565b60015461012f906001600160a01b031681565b6040516100b7919061108b565b61018761014a36600461109f565b60008281526002602090815260408083206001600160a01b03851684526007810183528184205460089091019092529091205460ff169250929050565b604080519283529015156020830152016100b7565b6100d36101aa366004611061565b6108a7565b6101076101bd3660046110cb565b6108c3565b6101076101d0366004610e7b565b610bbb565b600260205260009081526040902080546001820180546001600160a01b03909216929161020190611100565b80601f016020809104026020016040519081016040528092919081815260200182805461022d90611100565b801561027a5780601f1061024f5761010080835404028352916020019161027a565b820191906000526020600020905b81548152906001019060200180831161025d57829003601f168201915b50505050600283015460038401546004909401549293909290915060ff1685565b60006002600154604051632782085160e01b81526001600160a01b03909116906327820851906102cf90339060040161108b565b602060405180830381865afa1580156102ec573d6000803e3d6000fd5b505050506040513d601f19601f820116820180604052508101906103109190611150565b60048111156103215761032161113a565b14801561039a5750600154604051633da1c0c360e01b81526001600160a01b0390911690633da1c0c39061035990339060040161108b565b602060405180830381865afa158015610376573d6000803e3d6000fd5b505050506040513d601f19601f8201168201806040525081019061039a9190611171565b6103bf5760405162461bcd60e51b81526004016103b690611193565b60405180910390fd5b6103c7610e22565b42831161040b5760405162461bcd60e51b8152602060048201526012602482015271496e76616c69642073746172742074696d6560701b60448201526064016103b6565b82821161044d5760405162461bcd60e51b815260206004820152601060248201526f496e76616c696420656e642074696d6560801b60448201526064016103b6565b60003385858560405160200161046694939291906111c7565b60408051601f19818403018152918152815160209283012060008181526002909352912080546001600160a01b03191633178155909150600181016104ab8782611256565b5060028101859055600380820185905560048201805460ff1916600190811790915533600081815260209384526040808220805494850181558252938120909201859055915184917f8de4ccace2312e077369c7b809b4c3ca0c5915513249b127e1502af996ee590291a35090506105236001600055565b9392505050565b600081815260026020819052604082208054918101546003820154600483015460018401805460609688968796879691956001600160a01b039093169493909260ff1690849061057990611100565b80601f01602080910402602001604051908101604052809291908181526020018280546105a590611100565b80156105f25780601f106105c7576101008083540402835291602001916105f2565b820191906000526020600020905b8154815290600101906020018083116105d557829003601f168201915b50505050509350955095509550955095505091939590929450565b60018054604051632782085160e01b81526001600160a01b039091169063278208519061063e90339060040161108b565b602060405180830381865afa15801561065b573d6000803e3d6000fd5b505050506040513d601f19601f8201168201806040525081019061067f9190611150565b60048111156106905761069061113a565b1480156107095750600154604051633da1c0c360e01b81526001600160a01b0390911690633da1c0c3906106c890339060040161108b565b602060405180830381865afa1580156106e5573d6000803e3d6000fd5b505050506040513d601f19601f820116820180604052508101906107099190611171565b6107255760405162461bcd60e51b81526004016103b690611315565b61072d610e22565b6000828152600260205260409020600481015460ff1661075f5760405162461bcd60e51b81526004016103b690611345565b33600090815260058201602052604090205460ff166107ba5760405162461bcd60e51b81526020600482015260176024820152764e6f74207265676973746572656420666f72206578616d60481b60448201526064016103b6565b806002015442101580156107d2575080600301544211155b61081e5760405162461bcd60e51b815260206004820152601d60248201527f4e6f742077697468696e206578616d696e6174696f6e20706572696f6400000060448201526064016103b6565b33600090815260068201602052604090206108398382611256565b50604051339084907f13faec3eaa48a862c34c26e12c1f14835de3d1392dd9bde324258d2ce315b85290600090a3506108726001600055565b5050565b6004602052816000526040600020818154811061089257600080fd5b90600052602060002001600091509150505481565b6003602052816000526040600020818154811061089257600080fd5b600154604051632782085160e01b81526002916001600160a01b0316906327820851906108f490339060040161108b565b602060405180830381865afa158015610911573d6000803e3d6000fd5b505050506040513d601f19601f820116820180604052508101906109359190611150565b60048111156109465761094661113a565b1480156109bf5750600154604051633da1c0c360e01b81526001600160a01b0390911690633da1c0c39061097e90339060040161108b565b602060405180830381865afa15801561099b573d6000803e3d6000fd5b505050506040513d601f19601f820116820180604052508101906109bf9190611171565b6109db5760405162461bcd60e51b81526004016103b690611193565b6109e3610e22565b600083815260026020526040902080546001600160a01b03163314610a445760405162461bcd60e51b81526020600482015260176024820152762737ba1032bc30b6b4b730ba34b7b71031b932b0ba37b960491b60448201526064016103b6565b6001600160a01b038316600090815260058201602052604090205460ff16610aa75760405162461bcd60e51b815260206004820152601660248201527514dd1d59195b9d081b9bdd081c9959da5cdd195c995960521b60448201526064016103b6565b6001600160a01b038316600090815260088201602052604090205460ff1615610b035760405162461bcd60e51b815260206004820152600e60248201526d105b1c9958591e4819dc9859195960921b60448201526064016103b6565b6064821115610b445760405162461bcd60e51b815260206004820152600d60248201526c496e76616c696420677261646560981b60448201526064016103b6565b6001600160a01b0383166000818152600783016020908152604080832086905560088501825291829020805460ff19166001179055905184815286917f019f8d0e86909df9ca28ba9f762269838b7d277a26f66c906072b1af14a5cc84910160405180910390a350610bb66001600055565b505050565b60018054604051632782085160e01b81526001600160a01b0390911690632782085190610bec90339060040161108b565b602060405180830381865afa158015610c09573d6000803e3d6000fd5b505050506040513d601f19601f82011682018060405250810190610c2d9190611150565b6004811115610c3e57610c3e61113a565b148015610cb75750600154604051633da1c0c360e01b81526001600160a01b0390911690633da1c0c390610c7690339060040161108b565b602060405180830381865afa158015610c93573d6000803e3d6000fd5b505050506040513d601f19601f82011682018060405250810190610cb79190611171565b610cd35760405162461bcd60e51b81526004016103b690611315565b610cdb610e22565b6000818152600260205260409020600481015460ff16610d0d5760405162461bcd60e51b81526004016103b690611345565b80600201544210610d5c5760405162461bcd60e51b8152602060048201526019602482015278149959da5cdd1c985d1a5bdb881c195c9a5bd908195b991959603a1b60448201526064016103b6565b33600090815260058201602052604090205460ff1615610db35760405162461bcd60e51b8152602060048201526012602482015271105b1c9958591e481c9959da5cdd195c995960721b60448201526064016103b6565b3360008181526005830160209081526040808320805460ff19166001908117909155600483528184208054918201815584529183209091018590555184917f2796cdd476632fa2516bccbeb4e27b8416b98c227dec8db5247870143ee384ca91a350610e1f6001600055565b50565b600260005403610e745760405162461bcd60e51b815260206004820152601f60248201527f5265656e7472616e637947756172643a207265656e7472616e742063616c6c0060448201526064016103b6565b6002600055565b600060208284031215610e8d57600080fd5b5035919050565b60005b83811015610eaf578181015183820152602001610e97565b50506000910152565b60018060a01b038616815260a06020820152600085518060a0840152610ee58160c0850160208a01610e94565b60408301959095525060608101929092521515608082015260c0601f909201601f1916010192915050565b634e487b7160e01b600052604160045260246000fd5b600082601f830112610f3757600080fd5b81356001600160401b0380821115610f5157610f51610f10565b604051601f8301601f19908116603f01168101908282118183101715610f7957610f79610f10565b81604052838152866020858801011115610f9257600080fd5b836020870160208301376000602085830101528094505050505092915050565b600080600060608486031215610fc757600080fd5b83356001600160401b03811115610fdd57600080fd5b610fe986828701610f26565b9660208601359650604090950135949350505050565b6000806040838503121561101257600080fd5b8235915060208301356001600160401b0381111561102f57600080fd5b61103b85828601610f26565b9150509250929050565b80356001600160a01b038116811461105c57600080fd5b919050565b6000806040838503121561107457600080fd5b61107d83611045565b946020939093013593505050565b6001600160a01b0391909116815260200190565b600080604083850312156110b257600080fd5b823591506110c260208401611045565b90509250929050565b6000806000606084860312156110e057600080fd5b833592506110f060208501611045565b9150604084013590509250925092565b600181811c9082168061111457607f821691505b60208210810361113457634e487b7160e01b600052602260045260246000fd5b50919050565b634e487b7160e01b600052602160045260246000fd5b60006020828403121561116257600080fd5b81516005811061052357600080fd5b60006020828403121561118357600080fd5b8151801515811461052357600080fd5b6020808252601a90820152792737ba1030903b32b934b334b2b21034b739ba34ba3aba34b7b760311b604082015260600190565b606085901b6001600160601b031916815283516000906111ee816014850160208901610e94565b909101601481019390935250603482015260540192915050565b601f821115610bb657600081815260208120601f850160051c8101602086101561122f5750805b601f850160051c820191505b8181101561124e5782815560010161123b565b505050505050565b81516001600160401b0381111561126f5761126f610f10565b6112838161127d8454611100565b84611208565b602080601f8311600181146112b857600084156112a05750858301515b600019600386901b1c1916600185901b17855561124e565b600085815260208120601f198616915b828110156112e7578886015182559484019460019091019084016112c8565b50858210156113055787850151600019600388901b60f8161c191681555b5050505050600190811b01905550565b602080825260169082015275139bdd0818481d995c9a599a5959081cdd1d59195b9d60521b604082015260600190565b6020808252601690820152754578616d696e6174696f6e206e6f742061637469766560501b60408201526060019056fea264697066735822122096c822181f4be763a57aec34fe58c40d33cb31bc642c6538d66f05aaff99eae064736f6c63430008130033",
  "immutableReferences": {},
  "source": "// SPDX-License-Identifier: MIT\r\npragma solidity ^0.8.19;\r\n\r\nimport \"@openzeppelin/contracts/security/ReentrancyGuard.sol\";\r\nimport \"./Identity.sol\";\r\n\r\ncontract Examinations is ReentrancyGuard {\r\n    Identity public identityContract;\r\n    \r\n    struct Examination {\r\n        address institution;\r\n        string ipfsHash;  // Contains exam details and questions\r\n        uint256 startTime;\r\n        uint256 endTime;\r\n        bool isActive;\r\n        mapping(address => bool) registeredStudents;\r\n        mapping(address => string) studentAnswers;  // IPFS hash of student answers\r\n        mapping(address => uint256) grades;\r\n        mapping(address => bool) graded;\r\n    }\r\n    \r\n    mapping(bytes32 => Examination) public examinations;\r\n    mapping(address => bytes32[]) public institutionExams;\r\n    mapping(address => bytes32[]) public studentExams;\r\n    \r\n    event ExaminationCreated(bytes32 indexed examId, address indexed institution);\r\n    event StudentRegistered(bytes32 indexed examId, address indexed student);\r\n    event AnswersSubmitted(bytes32 indexed examId, address indexed student);\r\n    event GradeAssigned(bytes32 indexed examId, address indexed student, uint256 grade);\r\n    \r\n    constructor(address _identityContract) {\r\n        identityContract = Identity(_identityContract);\r\n    }\r\n    \r\n    modifier onlyVerifiedInstitution() {\r\n        require(\r\n            identityContract.getUserRole(msg.sender) == Identity.UserRole.INSTITUTION &&\r\n            identityContract.isVerifiedUser(msg.sender),\r\n            \"Not a verified institution\"\r\n        );\r\n        _;\r\n    }\r\n    \r\n    modifier onlyVerifiedStudent() {\r\n        require(\r\n            identityContract.getUserRole(msg.sender) == Identity.UserRole.STUDENT &&\r\n            identityContract.isVerifiedUser(msg.sender),\r\n            \"Not a verified student\"\r\n        );\r\n        _;\r\n    }\r\n    \r\n    function createExamination(\r\n        string memory _ipfsHash,\r\n        uint256 _startTime,\r\n        uint256 _endTime\r\n    ) external onlyVerifiedInstitution nonReentrant returns (bytes32) {\r\n        require(_startTime > block.timestamp, \"Invalid start time\");\r\n        require(_endTime > _startTime, \"Invalid end time\");\r\n        \r\n        bytes32 examId = keccak256(\r\n            abi.encodePacked(msg.sender, _ipfsHash, _startTime, _endTime)\r\n        );\r\n        \r\n        Examination storage exam = examinations[examId];\r\n        exam.institution = msg.sender;\r\n        exam.ipfsHash = _ipfsHash;\r\n        exam.startTime = _startTime;\r\n        exam.endTime = _endTime;\r\n        exam.isActive = true;\r\n        \r\n        institutionExams[msg.sender].push(examId);\r\n        \r\n        emit ExaminationCreated(examId, msg.sender);\r\n        \r\n        return examId;\r\n    }\r\n    \r\n    function registerForExam(bytes32 _examId) external onlyVerifiedStudent nonReentrant {\r\n        Examination storage exam = examinations[_examId];\r\n        require(exam.isActive, \"Examination not active\");\r\n        require(block.timestamp < exam.startTime, \"Registration period ended\");\r\n        require(!exam.registeredStudents[msg.sender], \"Already registered\");\r\n        \r\n        exam.registeredStudents[msg.sender] = true;\r\n        studentExams[msg.sender].push(_examId);\r\n        \r\n        emit StudentRegistered(_examId, msg.sender);\r\n    }\r\n    \r\n    function submitAnswers(\r\n        bytes32 _examId,\r\n        string memory _answersIpfsHash\r\n    ) external onlyVerifiedStudent nonReentrant {\r\n        Examination storage exam = examinations[_examId];\r\n        require(exam.isActive, \"Examination not active\");\r\n        require(exam.registeredStudents[msg.sender], \"Not registered for exam\");\r\n        require(\r\n            block.timestamp >= exam.startTime && block.timestamp <= exam.endTime,\r\n            \"Not within examination period\"\r\n        );\r\n        \r\n        exam.studentAnswers[msg.sender] = _answersIpfsHash;\r\n        \r\n        emit AnswersSubmitted(_examId, msg.sender);\r\n    }\r\n    \r\n    function assignGrade(\r\n        bytes32 _examId,\r\n        address _student,\r\n        uint256 _grade\r\n    ) external onlyVerifiedInstitution nonReentrant {\r\n        Examination storage exam = examinations[_examId];\r\n        require(exam.institution == msg.sender, \"Not examination creator\");\r\n        require(exam.registeredStudents[_student], \"Student not registered\");\r\n        require(!exam.graded[_student], \"Already graded\");\r\n        require(_grade <= 100, \"Invalid grade\");\r\n        \r\n        exam.grades[_student] = _grade;\r\n        exam.graded[_student] = true;\r\n        \r\n        emit GradeAssigned(_examId, _student, _grade);\r\n    }\r\n    \r\n    function getExamDetails(bytes32 _examId) external view returns (\r\n        address institution,\r\n        string memory ipfsHash,\r\n        uint256 startTime,\r\n        uint256 endTime,\r\n        bool isActive\r\n    ) {\r\n        Examination storage exam = examinations[_examId];\r\n        return (\r\n            exam.institution,\r\n            exam.ipfsHash,\r\n            exam.startTime,\r\n            exam.endTime,\r\n            exam.isActive\r\n        );\r\n    }\r\n    \r\n    function getStudentGrade(bytes32 _examId, address _student) external view returns (\r\n        uint256 grade,\r\n        bool isGraded\r\n    ) {\r\n        Examination storage exam = examinations[_examId];\r\n        return (exam.grades[_student], exam.graded[_student]);\r\n    }\r\n} ",
  "sourcePath": "C:\\Users\\osama\\OneDrive\\Desktop\\Graduation\\education-blockchain\\contracts\\Examinations.sol",
  "compiler": {
    "name": "solc",
    "version": "0.8.19+commit.7dd6d404.Emscripten.clang"
  },
  "schemaVersion": "3.4.16",
  "updatedAt": "2025-05-02T18:18:34.060Z",
  "networkType": "ethereum",
  "devdoc": {
    "kind": "dev",
    "methods": {},
    "version": 1
  },
  "userdoc": {
    "kind": "user",
    "methods": {},
    "version": 1
  }
}