{
  "contractName": "ExamManagement",
  "abi": [
    {
      "anonymous": false,
      "inputs": [
        {
          "indexed": true,
          "internalType": "bytes32",
          "name": "certificateId",
          "type": "bytes32"
        },
        {
          "indexed": true,
          "internalType": "address",
          "name": "student",
          "type": "address"
        }
      ],
      "name": "CertificateIssued",
      "type": "event"
    },
    {
      "anonymous": false,
      "inputs": [
        {
          "indexed": true,
          "internalType": "bytes32",
          "name": "examId",
          "type": "bytes32"
        },
        {
          "indexed": false,
          "internalType": "string",
          "name": "title",
          "type": "string"
        }
      ],
      "name": "ExamCreated",
      "type": "event"
    },
    {
      "anonymous": false,
      "inputs": [
        {
          "indexed": true,
          "internalType": "bytes32",
          "name": "examId",
          "type": "bytes32"
        },
        {
          "indexed": false,
          "internalType": "string",
          "name": "status",
          "type": "string"
        }
      ],
      "name": "ExamStatusUpdated",
      "type": "event"
    },
    {
      "anonymous": false,
      "inputs": [
        {
          "indexed": true,
          "internalType": "address",
          "name": "institution",
          "type": "address"
        },
        {
          "indexed": false,
          "internalType": "string",
          "name": "name",
          "type": "string"
        }
      ],
      "name": "InstitutionProfileUpdated",
      "type": "event"
    },
    {
      "anonymous": false,
      "inputs": [
        {
          "indexed": true,
          "internalType": "address",
          "name": "institution",
          "type": "address"
        },
        {
          "indexed": false,
          "internalType": "string",
          "name": "name",
          "type": "string"
        }
      ],
      "name": "InstitutionRegistered",
      "type": "event"
    },
    {
      "anonymous": false,
      "inputs": [
        {
          "indexed": true,
          "internalType": "address",
          "name": "institution",
          "type": "address"
        }
      ],
      "name": "InstitutionVerified",
      "type": "event"
    },
    {
      "anonymous": false,
      "inputs": [
        {
          "indexed": true,
          "internalType": "address",
          "name": "previousOwner",
          "type": "address"
        },
        {
          "indexed": true,
          "internalType": "address",
          "name": "newOwner",
          "type": "address"
        }
      ],
      "name": "OwnershipTransferred",
      "type": "event"
    },
    {
      "anonymous": false,
      "inputs": [
        {
          "indexed": false,
          "internalType": "address",
          "name": "account",
          "type": "address"
        }
      ],
      "name": "Paused",
      "type": "event"
    },
    {
      "anonymous": false,
      "inputs": [
        {
          "indexed": true,
          "internalType": "bytes32",
          "name": "examId",
          "type": "bytes32"
        },
        {
          "indexed": true,
          "internalType": "address",
          "name": "student",
          "type": "address"
        }
      ],
      "name": "ResultSubmitted",
      "type": "event"
    },
    {
      "anonymous": false,
      "inputs": [
        {
          "indexed": true,
          "internalType": "address",
          "name": "institution",
          "type": "address"
        },
        {
          "indexed": true,
          "internalType": "address",
          "name": "student",
          "type": "address"
        }
      ],
      "name": "StudentAdded",
      "type": "event"
    },
    {
      "anonymous": false,
      "inputs": [
        {
          "indexed": true,
          "internalType": "address",
          "name": "student",
          "type": "address"
        },
        {
          "indexed": false,
          "internalType": "string",
          "name": "status",
          "type": "string"
        }
      ],
      "name": "StudentStatusUpdated",
      "type": "event"
    },
    {
      "anonymous": false,
      "inputs": [
        {
          "indexed": true,
          "internalType": "bytes32",
          "name": "examId",
          "type": "bytes32"
        },
        {
          "indexed": false,
          "internalType": "address[]",
          "name": "students",
          "type": "address[]"
        }
      ],
      "name": "StudentsRegistered",
      "type": "event"
    },
    {
      "anonymous": false,
      "inputs": [
        {
          "indexed": false,
          "internalType": "address",
          "name": "account",
          "type": "address"
        }
      ],
      "name": "Unpaused",
      "type": "event"
    },
    {
      "inputs": [
        {
          "internalType": "bytes32",
          "name": "",
          "type": "bytes32"
        }
      ],
      "name": "certificates",
      "outputs": [
        {
          "internalType": "address",
          "name": "student",
          "type": "address"
        },
        {
          "internalType": "address",
          "name": "issuer",
          "type": "address"
        },
        {
          "internalType": "string",
          "name": "ipfsHash",
          "type": "string"
        },
        {
          "internalType": "uint256",
          "name": "issuedAt",
          "type": "uint256"
        },
        {
          "internalType": "bool",
          "name": "exists",
          "type": "bool"
        }
      ],
      "stateMutability": "view",
      "type": "function"
    },
    {
      "inputs": [
        {
          "internalType": "bytes32",
          "name": "",
          "type": "bytes32"
        },
        {
          "internalType": "address",
          "name": "",
          "type": "address"
        }
      ],
      "name": "examResults",
      "outputs": [
        {
          "internalType": "uint256",
          "name": "score",
          "type": "uint256"
        },
        {
          "internalType": "string",
          "name": "grade",
          "type": "string"
        },
        {
          "internalType": "string",
          "name": "notes",
          "type": "string"
        },
        {
          "internalType": "bool",
          "name": "exists",
          "type": "bool"
        }
      ],
      "stateMutability": "view",
      "type": "function"
    },
    {
      "inputs": [
        {
          "internalType": "bytes32",
          "name": "",
          "type": "bytes32"
        }
      ],
      "name": "exams",
      "outputs": [
        {
          "internalType": "string",
          "name": "title",
          "type": "string"
        },
        {
          "internalType": "string",
          "name": "description",
          "type": "string"
        },
        {
          "internalType": "uint256",
          "name": "date",
          "type": "uint256"
        },
        {
          "internalType": "uint256",
          "name": "duration",
          "type": "uint256"
        },
        {
          "internalType": "string",
          "name": "status",
          "type": "string"
        },
        {
          "internalType": "string",
          "name": "ipfsHash",
          "type": "string"
        },
        {
          "internalType": "bool",
          "name": "exists",
          "type": "bool"
        }
      ],
      "stateMutability": "view",
      "type": "function"
    },
    {
      "inputs": [
        {
          "internalType": "address",
          "name": "",
          "type": "address"
        },
        {
          "internalType": "address",
          "name": "",
          "type": "address"
        }
      ],
      "name": "institutionStudents",
      "outputs": [
        {
          "internalType": "bool",
          "name": "",
          "type": "bool"
        }
      ],
      "stateMutability": "view",
      "type": "function"
    },
    {
      "inputs": [
        {
          "internalType": "address",
          "name": "",
          "type": "address"
        }
      ],
      "name": "institutions",
      "outputs": [
        {
          "internalType": "string",
          "name": "name",
          "type": "string"
        },
        {
          "internalType": "string",
          "name": "description",
          "type": "string"
        },
        {
          "internalType": "string",
          "name": "physicalAddress",
          "type": "string"
        },
        {
          "internalType": "string",
          "name": "email",
          "type": "string"
        },
        {
          "internalType": "string",
          "name": "phone",
          "type": "string"
        },
        {
          "internalType": "string",
          "name": "website",
          "type": "string"
        },
        {
          "internalType": "string",
          "name": "logo",
          "type": "string"
        },
        {
          "internalType": "string",
          "name": "ministry",
          "type": "string"
        },
        {
          "internalType": "string",
          "name": "university",
          "type": "string"
        },
        {
          "internalType": "string",
          "name": "college",
          "type": "string"
        },
        {
          "internalType": "bool",
          "name": "isVerified",
          "type": "bool"
        },
        {
          "internalType": "bool",
          "name": "exists",
          "type": "bool"
        }
      ],
      "stateMutability": "view",
      "type": "function"
    },
    {
      "inputs": [],
      "name": "owner",
      "outputs": [
        {
          "internalType": "address",
          "name": "",
          "type": "address"
        }
      ],
      "stateMutability": "view",
      "type": "function"
    },
    {
      "inputs": [],
      "name": "paused",
      "outputs": [
        {
          "internalType": "bool",
          "name": "",
          "type": "bool"
        }
      ],
      "stateMutability": "view",
      "type": "function"
    },
    {
      "inputs": [],
      "name": "renounceOwnership",
      "outputs": [],
      "stateMutability": "nonpayable",
      "type": "function"
    },
    {
      "inputs": [
        {
          "internalType": "address",
          "name": "",
          "type": "address"
        }
      ],
      "name": "students",
      "outputs": [
        {
          "internalType": "string",
          "name": "name",
          "type": "string"
        },
        {
          "internalType": "string",
          "name": "email",
          "type": "string"
        },
        {
          "internalType": "uint256",
          "name": "enrollmentDate",
          "type": "uint256"
        },
        {
          "internalType": "string",
          "name": "status",
          "type": "string"
        },
        {
          "internalType": "bool",
          "name": "exists",
          "type": "bool"
        }
      ],
      "stateMutability": "view",
      "type": "function"
    },
    {
      "inputs": [
        {
          "internalType": "address",
          "name": "newOwner",
          "type": "address"
        }
      ],
      "name": "transferOwnership",
      "outputs": [],
      "stateMutability": "nonpayable",
      "type": "function"
    },
    {
      "inputs": [
        {
          "internalType": "string",
          "name": "name",
          "type": "string"
        },
        {
          "internalType": "string",
          "name": "description",
          "type": "string"
        },
        {
          "internalType": "string",
          "name": "physicalAddress",
          "type": "string"
        },
        {
          "internalType": "string",
          "name": "email",
          "type": "string"
        },
        {
          "internalType": "string",
          "name": "phone",
          "type": "string"
        },
        {
          "internalType": "string",
          "name": "website",
          "type": "string"
        },
        {
          "internalType": "string",
          "name": "logo",
          "type": "string"
        },
        {
          "internalType": "string",
          "name": "ministry",
          "type": "string"
        },
        {
          "internalType": "string",
          "name": "university",
          "type": "string"
        },
        {
          "internalType": "string",
          "name": "college",
          "type": "string"
        }
      ],
      "name": "registerInstitution",
      "outputs": [],
      "stateMutability": "nonpayable",
      "type": "function"
    },
    {
      "inputs": [
        {
          "internalType": "address",
          "name": "institution",
          "type": "address"
        }
      ],
      "name": "verifyInstitution",
      "outputs": [],
      "stateMutability": "nonpayable",
      "type": "function"
    },
    {
      "inputs": [
        {
          "internalType": "string",
          "name": "name",
          "type": "string"
        },
        {
          "internalType": "string",
          "name": "ministry",
          "type": "string"
        },
        {
          "internalType": "string",
          "name": "university",
          "type": "string"
        },
        {
          "internalType": "string",
          "name": "college",
          "type": "string"
        },
        {
          "internalType": "string",
          "name": "description",
          "type": "string"
        },
        {
          "internalType": "string",
          "name": "logo",
          "type": "string"
        },
        {
          "internalType": "string",
          "name": "website",
          "type": "string"
        },
        {
          "internalType": "string",
          "name": "email",
          "type": "string"
        },
        {
          "internalType": "string",
          "name": "phone",
          "type": "string"
        }
      ],
      "name": "updateInstitutionProfile",
      "outputs": [],
      "stateMutability": "nonpayable",
      "type": "function"
    },
    {
      "inputs": [
        {
          "internalType": "address",
          "name": "studentAddress",
          "type": "address"
        },
        {
          "internalType": "string",
          "name": "name",
          "type": "string"
        },
        {
          "internalType": "string",
          "name": "email",
          "type": "string"
        }
      ],
      "name": "addStudent",
      "outputs": [],
      "stateMutability": "nonpayable",
      "type": "function"
    },
    {
      "inputs": [
        {
          "internalType": "address",
          "name": "studentAddress",
          "type": "address"
        },
        {
          "internalType": "string",
          "name": "newStatus",
          "type": "string"
        }
      ],
      "name": "updateStudentStatus",
      "outputs": [],
      "stateMutability": "nonpayable",
      "type": "function"
    },
    {
      "inputs": [
        {
          "internalType": "string",
          "name": "title",
          "type": "string"
        },
        {
          "internalType": "string",
          "name": "description",
          "type": "string"
        },
        {
          "internalType": "uint256",
          "name": "date",
          "type": "uint256"
        },
        {
          "internalType": "uint256",
          "name": "duration",
          "type": "uint256"
        },
        {
          "internalType": "string",
          "name": "ipfsHash",
          "type": "string"
        }
      ],
      "name": "createExam",
      "outputs": [
        {
          "internalType": "bytes32",
          "name": "",
          "type": "bytes32"
        }
      ],
      "stateMutability": "nonpayable",
      "type": "function"
    },
    {
      "inputs": [
        {
          "internalType": "bytes32",
          "name": "examId",
          "type": "bytes32"
        },
        {
          "internalType": "string",
          "name": "newStatus",
          "type": "string"
        }
      ],
      "name": "updateExamStatus",
      "outputs": [],
      "stateMutability": "nonpayable",
      "type": "function"
    },
    {
      "inputs": [
        {
          "internalType": "bytes32",
          "name": "examId",
          "type": "bytes32"
        },
        {
          "internalType": "address[]",
          "name": "studentAddresses",
          "type": "address[]"
        }
      ],
      "name": "registerStudentsForExam",
      "outputs": [],
      "stateMutability": "nonpayable",
      "type": "function"
    },
    {
      "inputs": [
        {
          "internalType": "bytes32",
          "name": "examId",
          "type": "bytes32"
        },
        {
          "internalType": "address",
          "name": "student",
          "type": "address"
        },
        {
          "internalType": "uint256",
          "name": "score",
          "type": "uint256"
        },
        {
          "internalType": "string",
          "name": "grade",
          "type": "string"
        },
        {
          "internalType": "string",
          "name": "notes",
          "type": "string"
        }
      ],
      "name": "submitResult",
      "outputs": [],
      "stateMutability": "nonpayable",
      "type": "function"
    },
    {
      "inputs": [
        {
          "internalType": "address",
          "name": "student",
          "type": "address"
        },
        {
          "internalType": "string",
          "name": "ipfsHash",
          "type": "string"
        }
      ],
      "name": "issueCertificate",
      "outputs": [],
      "stateMutability": "nonpayable",
      "type": "function"
    },
    {
      "inputs": [
        {
          "internalType": "address",
          "name": "institution",
          "type": "address"
        }
      ],
      "name": "getInstitution",
      "outputs": [
        {
          "internalType": "string",
          "name": "name",
          "type": "string"
        },
        {
          "internalType": "string",
          "name": "description",
          "type": "string"
        },
        {
          "internalType": "string",
          "name": "physicalAddress",
          "type": "string"
        },
        {
          "internalType": "string",
          "name": "email",
          "type": "string"
        },
        {
          "internalType": "string",
          "name": "phone",
          "type": "string"
        },
        {
          "internalType": "string",
          "name": "website",
          "type": "string"
        },
        {
          "internalType": "string",
          "name": "logo",
          "type": "string"
        },
        {
          "internalType": "string",
          "name": "ministry",
          "type": "string"
        },
        {
          "internalType": "string",
          "name": "university",
          "type": "string"
        },
        {
          "internalType": "string",
          "name": "college",
          "type": "string"
        },
        {
          "internalType": "bool",
          "name": "isVerified",
          "type": "bool"
        }
      ],
      "stateMutability": "view",
      "type": "function"
    },
    {
      "inputs": [
        {
          "internalType": "address",
          "name": "student",
          "type": "address"
        }
      ],
      "name": "getStudent",
      "outputs": [
        {
          "internalType": "string",
          "name": "name",
          "type": "string"
        },
        {
          "internalType": "string",
          "name": "email",
          "type": "string"
        },
        {
          "internalType": "uint256",
          "name": "enrollmentDate",
          "type": "uint256"
        },
        {
          "internalType": "string",
          "name": "status",
          "type": "string"
        }
      ],
      "stateMutability": "view",
      "type": "function"
    },
    {
      "inputs": [
        {
          "internalType": "bytes32",
          "name": "examId",
          "type": "bytes32"
        },
        {
          "internalType": "address",
          "name": "student",
          "type": "address"
        }
      ],
      "name": "getExamResult",
      "outputs": [
        {
          "internalType": "uint256",
          "name": "score",
          "type": "uint256"
        },
        {
          "internalType": "string",
          "name": "grade",
          "type": "string"
        },
        {
          "internalType": "string",
          "name": "notes",
          "type": "string"
        }
      ],
      "stateMutability": "view",
      "type": "function"
    },
    {
      "inputs": [
        {
          "internalType": "bytes32",
          "name": "examId",
          "type": "bytes32"
        }
      ],
      "name": "getExamStatistics",
      "outputs": [
        {
          "internalType": "uint256",
          "name": "totalStudents",
          "type": "uint256"
        },
        {
          "internalType": "uint256",
          "name": "passRate",
          "type": "uint256"
        },
        {
          "internalType": "uint256",
          "name": "averageScore",
          "type": "uint256"
        }
      ],
      "stateMutability": "view",
      "type": "function"
    }
  ],
  "bytecode": "0x608060405234801562000010575f80fd5b5062000031620000256200005060201b60201c565b6200005760201b60201c565b5f8060146101000a81548160ff02191690831515021790555062000118565b5f33905090565b5f805f9054906101000a900473ffffffffffffffffffffffffffffffffffffffff169050815f806101000a81548173ffffffffffffffffffffffffffffffffffffffff021916908373ffffffffffffffffffffffffffffffffffffffff1602179055508173ffffffffffffffffffffffffffffffffffffffff168173ffffffffffffffffffffffffffffffffffffffff167f8be0079c531659141344cd1fd0a4f28419497f9722a3daafe3b4186f6b6457e060405160405180910390a35050565b615a4b80620001265f395ff3fe608060405234801561000f575f80fd5b5060043610610156575f3560e01c8063b2d9767f116100c1578063db1830221161007a578063db183022146103f9578063dd6aa93c14610415578063f2fde38b14610445578063f87b8b0c14610461578063fb3548d014610493578063fec4b036146104c557610156565b8063b2d9767f1461031b578063b532363b14610356578063b6c11da814610372578063bb721aab1461038e578063c0a9062a146103aa578063cb28b17d146103c657610156565b80637119923611610113578063711992361461021b578063715018a614610255578063742f06881461025f5780638da5cb5b1461029357806399341a8a146102b1578063a6c807a9146102e757610156565b8063181862a01461015a57806321a829c6146101765780633e168516146101925780635c975abb146101ae5780636155cce8146101cc5780636b7b44d7146101e8575b5f80fd5b610174600480360381019061016f919061411d565b6104f5565b005b610190600480360381019061018b9190614337565b6106bd565b005b6101ac60048036038101906101a791906143bf565b610a5a565b005b6101b6610b8c565b6040516101c39190614404565b60405180910390f35b6101e660048036038101906101e1919061441d565b610ba1565b005b61020260048036038101906101fd91906143bf565b610eac565b6040516102129493929190614509565b60405180910390f35b610235600480360381019061023091906143bf565b6110f3565b60405161024c9b9a99989796959493929190614561565b60405180910390f35b61025d611782565b005b61027960048036038101906102749190614683565b611795565b60405161028a9594939291906146bd565b60405180910390f35b61029b611897565b6040516102a89190614715565b60405180910390f35b6102cb60048036038101906102c69190614683565b6118be565b6040516102de979695949392919061472e565b60405180910390f35b61030160048036038101906102fc91906143bf565b611b20565b6040516103129594939291906147b7565b60405180910390f35b610335600480360381019061033091906143bf565b611cf0565b60405161034d9c9b9a9998979695949392919061481d565b60405180910390f35b610370600480360381019061036b919061491b565b6122a1565b005b61038c60048036038101906103879190614b36565b61253d565b005b6103a860048036038101906103a3919061441d565b61288d565b005b6103c460048036038101906103bf9190614be5565b612cb5565b005b6103e060048036038101906103db9190614c3f565b612e8e565b6040516103f09493929190614c7d565b60405180910390f35b610413600480360381019061040e9190614d92565b612fdd565b005b61042f600480360381019061042a9190614dec565b6132ba565b60405161043c9190614404565b60405180910390f35b61045f600480360381019061045a91906143bf565b6132e4565b005b61047b60048036038101906104769190614683565b613366565b60405161048a93929190614e2a565b60405180910390f35b6104ad60048036038101906104a89190614c3f565b6138f9565b6040516104bc93929190614e5f565b60405180910390f35b6104df60048036038101906104da9190614ea2565b613ab6565b6040516104ec9190614f7c565b60405180910390f35b60015f3373ffffffffffffffffffffffffffffffffffffffff1673ffffffffffffffffffffffffffffffffffffffff1681526020019081526020015f20600a0160019054906101000a900460ff16610582576040517f08c379a000000000000000000000000000000000000000000000000000000000815260040161057990614fdf565b60405180910390fd5b5f60015f3373ffffffffffffffffffffffffffffffffffffffff1673ffffffffffffffffffffffffffffffffffffffff1681526020019081526020015f20905089815f0190816105d291906151f7565b50888160070190816105e491906151f7565b50878160080190816105f691906151f7565b508681600901908161060891906151f7565b508581600101908161061a91906151f7565b508481600601908161062c91906151f7565b508381600501908161063e91906151f7565b508281600301908161065091906151f7565b508181600401908161066291906151f7565b503373ffffffffffffffffffffffffffffffffffffffff167f655d9a02ca12cc7569076641886b1626a4dda688c79db17d717c86aad58e60748b6040516106a991906152c6565b60405180910390a250505050505050505050565b60015f3373ffffffffffffffffffffffffffffffffffffffff1673ffffffffffffffffffffffffffffffffffffffff1681526020019081526020015f20600a0160019054906101000a900460ff1661074a576040517f08c379a000000000000000000000000000000000000000000000000000000000815260040161074190614fdf565b60405180910390fd5b60015f3373ffffffffffffffffffffffffffffffffffffffff1673ffffffffffffffffffffffffffffffffffffffff1681526020019081526020015f20600a015f9054906101000a900460ff166107d6576040517f08c379a00000000000000000000000000000000000000000000000000000000081526004016107cd90615330565b60405180910390fd5b60025f8473ffffffffffffffffffffffffffffffffffffffff1673ffffffffffffffffffffffffffffffffffffffff1681526020019081526020015f206004015f9054906101000a900460ff1615610863576040517f08c379a000000000000000000000000000000000000000000000000000000000815260040161085a90615398565b60405180910390fd5b6040518060a001604052808381526020018281526020014281526020016040518060400160405280600681526020017f616374697665000000000000000000000000000000000000000000000000000081525081526020016001151581525060025f8573ffffffffffffffffffffffffffffffffffffffff1673ffffffffffffffffffffffffffffffffffffffff1681526020019081526020015f205f820151815f01908161091291906151f7565b50602082015181600101908161092891906151f7565b5060408201518160020155606082015181600301908161094891906151f7565b506080820151816004015f6101000a81548160ff021916908315150217905550905050600160035f3373ffffffffffffffffffffffffffffffffffffffff1673ffffffffffffffffffffffffffffffffffffffff1681526020019081526020015f205f8573ffffffffffffffffffffffffffffffffffffffff1673ffffffffffffffffffffffffffffffffffffffff1681526020019081526020015f205f6101000a81548160ff0219169083151502179055508273ffffffffffffffffffffffffffffffffffffffff163373ffffffffffffffffffffffffffffffffffffffff167fc93a03c6c4e1438e4120d83d473f9028b8bb1947b3d183cafd9519473754e34c60405160405180910390a3505050565b610a62613dc8565b60015f8273ffffffffffffffffffffffffffffffffffffffff1673ffffffffffffffffffffffffffffffffffffffff1681526020019081526020015f20600a0160019054906101000a900460ff16610aef576040517f08c379a0000000000000000000000000000000000000000000000000000000008152600401610ae690614fdf565b60405180910390fd5b6001805f8373ffffffffffffffffffffffffffffffffffffffff1673ffffffffffffffffffffffffffffffffffffffff1681526020019081526020015f20600a015f6101000a81548160ff0219169083151502179055508073ffffffffffffffffffffffffffffffffffffffff167f59eb63526c88dac6c2e738ca3b5d5511d9955629a0f9d61ff80c1abc63d1cfb160405160405180910390a250565b5f8060149054906101000a900460ff16905090565b60015f3373ffffffffffffffffffffffffffffffffffffffff1673ffffffffffffffffffffffffffffffffffffffff1681526020019081526020015f20600a0160019054906101000a900460ff16610c2e576040517f08c379a0000000000000000000000000000000000000000000000000000000008152600401610c2590614fdf565b60405180910390fd5b60015f3373ffffffffffffffffffffffffffffffffffffffff1673ffffffffffffffffffffffffffffffffffffffff1681526020019081526020015f20600a015f9054906101000a900460ff16610cba576040517f08c379a0000000000000000000000000000000000000000000000000000000008152600401610cb190615330565b60405180910390fd5b8160025f8273ffffffffffffffffffffffffffffffffffffffff1673ffffffffffffffffffffffffffffffffffffffff1681526020019081526020015f206004015f9054906101000a900460ff16610d47576040517f08c379a0000000000000000000000000000000000000000000000000000000008152600401610d3e90615400565b60405180910390fd5b60035f3373ffffffffffffffffffffffffffffffffffffffff1673ffffffffffffffffffffffffffffffffffffffff1681526020019081526020015f205f8473ffffffffffffffffffffffffffffffffffffffff1673ffffffffffffffffffffffffffffffffffffffff1681526020019081526020015f205f9054906101000a900460ff16610e0b576040517f08c379a0000000000000000000000000000000000000000000000000000000008152600401610e029061548e565b60405180910390fd5b8160025f8573ffffffffffffffffffffffffffffffffffffffff1673ffffffffffffffffffffffffffffffffffffffff1681526020019081526020015f206003019081610e5891906151f7565b508273ffffffffffffffffffffffffffffffffffffffff167f08c864cdb2074c7e172f9f881a919f5b24830abcfd1290e79d656504627177b483604051610e9f91906152c6565b60405180910390a2505050565b6060805f60605f60025f8773ffffffffffffffffffffffffffffffffffffffff1673ffffffffffffffffffffffffffffffffffffffff1681526020019081526020015f206040518060a00160405290815f82018054610f0a9061502a565b80601f0160208091040260200160405190810160405280929190818152602001828054610f369061502a565b8015610f815780601f10610f5857610100808354040283529160200191610f81565b820191905f5260205f20905b815481529060010190602001808311610f6457829003601f168201915b50505050508152602001600182018054610f9a9061502a565b80601f0160208091040260200160405190810160405280929190818152602001828054610fc69061502a565b80156110115780601f10610fe857610100808354040283529160200191611011565b820191905f5260205f20905b815481529060010190602001808311610ff457829003601f168201915b50505050508152602001600282015481526020016003820180546110349061502a565b80601f01602080910402602001604051908101604052809291908181526020018280546110609061502a565b80156110ab5780601f10611082576101008083540402835291602001916110ab565b820191905f5260205f20905b81548152906001019060200180831161108e57829003601f168201915b50505050508152602001600482015f9054906101000a900460ff1615151515815250509050805f01518160200151826040015183606001519450945094509450509193509193565b6060806060806060806060806060805f8060015f8e73ffffffffffffffffffffffffffffffffffffffff1673ffffffffffffffffffffffffffffffffffffffff1681526020019081526020015f20604051806101800160405290815f8201805461115c9061502a565b80601f01602080910402602001604051908101604052809291908181526020018280546111889061502a565b80156111d35780601f106111aa576101008083540402835291602001916111d3565b820191905f5260205f20905b8154815290600101906020018083116111b657829003601f168201915b505050505081526020016001820180546111ec9061502a565b80601f01602080910402602001604051908101604052809291908181526020018280546112189061502a565b80156112635780601f1061123a57610100808354040283529160200191611263565b820191905f5260205f20905b81548152906001019060200180831161124657829003601f168201915b5050505050815260200160028201805461127c9061502a565b80601f01602080910402602001604051908101604052809291908181526020018280546112a89061502a565b80156112f35780601f106112ca576101008083540402835291602001916112f3565b820191905f5260205f20905b8154815290600101906020018083116112d657829003601f168201915b5050505050815260200160038201805461130c9061502a565b80601f01602080910402602001604051908101604052809291908181526020018280546113389061502a565b80156113835780601f1061135a57610100808354040283529160200191611383565b820191905f5260205f20905b81548152906001019060200180831161136657829003601f168201915b5050505050815260200160048201805461139c9061502a565b80601f01602080910402602001604051908101604052809291908181526020018280546113c89061502a565b80156114135780601f106113ea57610100808354040283529160200191611413565b820191905f5260205f20905b8154815290600101906020018083116113f657829003601f168201915b5050505050815260200160058201805461142c9061502a565b80601f01602080910402602001604051908101604052809291908181526020018280546114589061502a565b80156114a35780601f1061147a576101008083540402835291602001916114a3565b820191905f5260205f20905b81548152906001019060200180831161148657829003601f168201915b505050505081526020016006820180546114bc9061502a565b80601f01602080910402602001604051908101604052809291908181526020018280546114e89061502a565b80156115335780601f1061150a57610100808354040283529160200191611533565b820191905f5260205f20905b81548152906001019060200180831161151657829003601f168201915b5050505050815260200160078201805461154c9061502a565b80601f01602080910402602001604051908101604052809291908181526020018280546115789061502a565b80156115c35780601f1061159a576101008083540402835291602001916115c3565b820191905f5260205f20905b8154815290600101906020018083116115a657829003601f168201915b505050505081526020016008820180546115dc9061502a565b80601f01602080910402602001604051908101604052809291908181526020018280546116089061502a565b80156116535780601f1061162a57610100808354040283529160200191611653565b820191905f5260205f20905b81548152906001019060200180831161163657829003601f168201915b5050505050815260200160098201805461166c9061502a565b80601f01602080910402602001604051908101604052809291908181526020018280546116989061502a565b80156116e35780601f106116ba576101008083540402835291602001916116e3565b820191905f5260205f20905b8154815290600101906020018083116116c657829003601f168201915b50505050508152602001600a82015f9054906101000a900460ff16151515158152602001600a820160019054906101000a900460ff1615151515815250509050805f015181602001518260400151836060015184608001518560a001518660c001518760e001518861010001518961012001518a61014001519b509b509b509b509b509b509b509b509b509b509b505091939597999b90929496989a50565b61178a613dc8565b6117935f613e46565b565b6006602052805f5260405f205f91509050805f015f9054906101000a900473ffffffffffffffffffffffffffffffffffffffff1690806001015f9054906101000a900473ffffffffffffffffffffffffffffffffffffffff16908060020180546117fe9061502a565b80601f016020809104026020016040519081016040528092919081815260200182805461182a9061502a565b80156118755780601f1061184c57610100808354040283529160200191611875565b820191905f5260205f20905b81548152906001019060200180831161185857829003601f168201915b505050505090806003015490806004015f9054906101000a900460ff16905085565b5f805f9054906101000a900473ffffffffffffffffffffffffffffffffffffffff16905090565b6004602052805f5260405f205f91509050805f0180546118dd9061502a565b80601f01602080910402602001604051908101604052809291908181526020018280546119099061502a565b80156119545780601f1061192b57610100808354040283529160200191611954565b820191905f5260205f20905b81548152906001019060200180831161193757829003601f168201915b5050505050908060010180546119699061502a565b80601f01602080910402602001604051908101604052809291908181526020018280546119959061502a565b80156119e05780601f106119b7576101008083540402835291602001916119e0565b820191905f5260205f20905b8154815290600101906020018083116119c357829003601f168201915b505050505090806002015490806003015490806004018054611a019061502a565b80601f0160208091040260200160405190810160405280929190818152602001828054611a2d9061502a565b8015611a785780601f10611a4f57610100808354040283529160200191611a78565b820191905f5260205f20905b815481529060010190602001808311611a5b57829003601f168201915b505050505090806005018054611a8d9061502a565b80601f0160208091040260200160405190810160405280929190818152602001828054611ab99061502a565b8015611b045780601f10611adb57610100808354040283529160200191611b04565b820191905f5260205f20905b815481529060010190602001808311611ae757829003601f168201915b505050505090806007015f9054906101000a900460ff16905087565b6002602052805f5260405f205f91509050805f018054611b3f9061502a565b80601f0160208091040260200160405190810160405280929190818152602001828054611b6b9061502a565b8015611bb65780601f10611b8d57610100808354040283529160200191611bb6565b820191905f5260205f20905b815481529060010190602001808311611b9957829003601f168201915b505050505090806001018054611bcb9061502a565b80601f0160208091040260200160405190810160405280929190818152602001828054611bf79061502a565b8015611c425780601f10611c1957610100808354040283529160200191611c42565b820191905f5260205f20905b815481529060010190602001808311611c2557829003601f168201915b505050505090806002015490806003018054611c5d9061502a565b80601f0160208091040260200160405190810160405280929190818152602001828054611c899061502a565b8015611cd45780601f10611cab57610100808354040283529160200191611cd4565b820191905f5260205f20905b815481529060010190602001808311611cb757829003601f168201915b505050505090806004015f9054906101000a900460ff16905085565b6001602052805f5260405f205f91509050805f018054611d0f9061502a565b80601f0160208091040260200160405190810160405280929190818152602001828054611d3b9061502a565b8015611d865780601f10611d5d57610100808354040283529160200191611d86565b820191905f5260205f20905b815481529060010190602001808311611d6957829003601f168201915b505050505090806001018054611d9b9061502a565b80601f0160208091040260200160405190810160405280929190818152602001828054611dc79061502a565b8015611e125780601f10611de957610100808354040283529160200191611e12565b820191905f5260205f20905b815481529060010190602001808311611df557829003601f168201915b505050505090806002018054611e279061502a565b80601f0160208091040260200160405190810160405280929190818152602001828054611e539061502a565b8015611e9e5780601f10611e7557610100808354040283529160200191611e9e565b820191905f5260205f20905b815481529060010190602001808311611e8157829003601f168201915b505050505090806003018054611eb39061502a565b80601f0160208091040260200160405190810160405280929190818152602001828054611edf9061502a565b8015611f2a5780601f10611f0157610100808354040283529160200191611f2a565b820191905f5260205f20905b815481529060010190602001808311611f0d57829003601f168201915b505050505090806004018054611f3f9061502a565b80601f0160208091040260200160405190810160405280929190818152602001828054611f6b9061502a565b8015611fb65780601f10611f8d57610100808354040283529160200191611fb6565b820191905f5260205f20905b815481529060010190602001808311611f9957829003601f168201915b505050505090806005018054611fcb9061502a565b80601f0160208091040260200160405190810160405280929190818152602001828054611ff79061502a565b80156120425780601f1061201957610100808354040283529160200191612042565b820191905f5260205f20905b81548152906001019060200180831161202557829003601f168201915b5050505050908060060180546120579061502a565b80601f01602080910402602001604051908101604052809291908181526020018280546120839061502a565b80156120ce5780601f106120a5576101008083540402835291602001916120ce565b820191905f5260205f20905b8154815290600101906020018083116120b157829003601f168201915b5050505050908060070180546120e39061502a565b80601f016020809104026020016040519081016040528092919081815260200182805461210f9061502a565b801561215a5780601f106121315761010080835404028352916020019161215a565b820191905f5260205f20905b81548152906001019060200180831161213d57829003601f168201915b50505050509080600801805461216f9061502a565b80601f016020809104026020016040519081016040528092919081815260200182805461219b9061502a565b80156121e65780601f106121bd576101008083540402835291602001916121e6565b820191905f5260205f20905b8154815290600101906020018083116121c957829003601f168201915b5050505050908060090180546121fb9061502a565b80601f01602080910402602001604051908101604052809291908181526020018280546122279061502a565b80156122725780601f1061224957610100808354040283529160200191612272565b820191905f5260205f20905b81548152906001019060200180831161225557829003601f168201915b50505050509080600a015f9054906101000a900460ff169080600a0160019054906101000a900460ff1690508c565b60015f3373ffffffffffffffffffffffffffffffffffffffff1673ffffffffffffffffffffffffffffffffffffffff1681526020019081526020015f20600a0160019054906101000a900460ff161561232f576040517f08c379a0000000000000000000000000000000000000000000000000000000008152600401612326906154f6565b60405180910390fd5b6040518061018001604052808b81526020018a81526020018981526020018881526020018781526020018681526020018581526020018481526020018381526020018281526020015f151581526020016001151581525060015f3373ffffffffffffffffffffffffffffffffffffffff1673ffffffffffffffffffffffffffffffffffffffff1681526020019081526020015f205f820151815f0190816123d691906151f7565b5060208201518160010190816123ec91906151f7565b50604082015181600201908161240291906151f7565b50606082015181600301908161241891906151f7565b50608082015181600401908161242e91906151f7565b5060a082015181600501908161244491906151f7565b5060c082015181600601908161245a91906151f7565b5060e082015181600701908161247091906151f7565b5061010082015181600801908161248791906151f7565b5061012082015181600901908161249e91906151f7565b5061014082015181600a015f6101000a81548160ff02191690831515021790555061016082015181600a0160016101000a81548160ff0219169083151502179055509050503373ffffffffffffffffffffffffffffffffffffffff167f73a52c071d4a02996481449bf1ad04d8f24559a7ec51210c4ec5e43d3baee8818b60405161252991906152c6565b60405180910390a250505050505050505050565b60015f3373ffffffffffffffffffffffffffffffffffffffff1673ffffffffffffffffffffffffffffffffffffffff1681526020019081526020015f20600a0160019054906101000a900460ff166125ca576040517f08c379a00000000000000000000000000000000000000000000000000000000081526004016125c190614fdf565b60405180910390fd5b60015f3373ffffffffffffffffffffffffffffffffffffffff1673ffffffffffffffffffffffffffffffffffffffff1681526020019081526020015f20600a015f9054906101000a900460ff16612656576040517f08c379a000000000000000000000000000000000000000000000000000000000815260040161264d90615330565b60405180910390fd5b8460045f8281526020019081526020015f206007015f9054906101000a900460ff166126b7576040517f08c379a00000000000000000000000000000000000000000000000000000000081526004016126ae9061555e565b60405180910390fd5b60035f3373ffffffffffffffffffffffffffffffffffffffff1673ffffffffffffffffffffffffffffffffffffffff1681526020019081526020015f205f8673ffffffffffffffffffffffffffffffffffffffff1673ffffffffffffffffffffffffffffffffffffffff1681526020019081526020015f205f9054906101000a900460ff1661277b576040517f08c379a00000000000000000000000000000000000000000000000000000000081526004016127729061548e565b60405180910390fd5b60405180608001604052808581526020018481526020018381526020016001151581525060055f8881526020019081526020015f205f8773ffffffffffffffffffffffffffffffffffffffff1673ffffffffffffffffffffffffffffffffffffffff1681526020019081526020015f205f820151815f0155602082015181600101908161280891906151f7565b50604082015181600201908161281e91906151f7565b506060820151816003015f6101000a81548160ff0219169083151502179055509050508473ffffffffffffffffffffffffffffffffffffffff16867ff97d37817a3016d675a5cf7d2f08c621bf2ace42e26029a856fefb5b538ef2f860405160405180910390a3505050505050565b60015f3373ffffffffffffffffffffffffffffffffffffffff1673ffffffffffffffffffffffffffffffffffffffff1681526020019081526020015f20600a0160019054906101000a900460ff1661291a576040517f08c379a000000000000000000000000000000000000000000000000000000000815260040161291190614fdf565b60405180910390fd5b60015f3373ffffffffffffffffffffffffffffffffffffffff1673ffffffffffffffffffffffffffffffffffffffff1681526020019081526020015f20600a015f9054906101000a900460ff166129a6576040517f08c379a000000000000000000000000000000000000000000000000000000000815260040161299d90615330565b60405180910390fd5b8160025f8273ffffffffffffffffffffffffffffffffffffffff1673ffffffffffffffffffffffffffffffffffffffff1681526020019081526020015f206004015f9054906101000a900460ff16612a33576040517f08c379a0000000000000000000000000000000000000000000000000000000008152600401612a2a90615400565b60405180910390fd5b60035f3373ffffffffffffffffffffffffffffffffffffffff1673ffffffffffffffffffffffffffffffffffffffff1681526020019081526020015f205f8473ffffffffffffffffffffffffffffffffffffffff1673ffffffffffffffffffffffffffffffffffffffff1681526020019081526020015f205f9054906101000a900460ff16612af7576040517f08c379a0000000000000000000000000000000000000000000000000000000008152600401612aee9061548e565b60405180910390fd5b612b016008613f07565b5f612b0c6008613f1b565b3385604051602001612b20939291906155e1565b6040516020818303038152906040528051906020012090506040518060a001604052808573ffffffffffffffffffffffffffffffffffffffff1681526020013373ffffffffffffffffffffffffffffffffffffffff1681526020018481526020014281526020016001151581525060065f8381526020019081526020015f205f820151815f015f6101000a81548173ffffffffffffffffffffffffffffffffffffffff021916908373ffffffffffffffffffffffffffffffffffffffff1602179055506020820151816001015f6101000a81548173ffffffffffffffffffffffffffffffffffffffff021916908373ffffffffffffffffffffffffffffffffffffffff1602179055506040820151816002019081612c3e91906151f7565b50606082015181600301556080820151816004015f6101000a81548160ff0219169083151502179055509050508373ffffffffffffffffffffffffffffffffffffffff16817f11fb9f283c08b0122fe14bf3b5692d38f07282003f545f4bbc8b766ddcbda83260405160405180910390a350505050565b60015f3373ffffffffffffffffffffffffffffffffffffffff1673ffffffffffffffffffffffffffffffffffffffff1681526020019081526020015f20600a0160019054906101000a900460ff16612d42576040517f08c379a0000000000000000000000000000000000000000000000000000000008152600401612d3990614fdf565b60405180910390fd5b60015f3373ffffffffffffffffffffffffffffffffffffffff1673ffffffffffffffffffffffffffffffffffffffff1681526020019081526020015f20600a015f9054906101000a900460ff16612dce576040517f08c379a0000000000000000000000000000000000000000000000000000000008152600401612dc590615330565b60405180910390fd5b8160045f8281526020019081526020015f206007015f9054906101000a900460ff16612e2f576040517f08c379a0000000000000000000000000000000000000000000000000000000008152600401612e269061555e565b60405180910390fd5b8160045f8581526020019081526020015f206004019081612e5091906151f7565b50827ff992fe1bd266a3995a256e5cc687b256f18fc830ade96b248360ef2fe29a4c4c83604051612e8191906152c6565b60405180910390a2505050565b6005602052815f5260405f20602052805f5260405f205f9150915050805f015490806001018054612ebe9061502a565b80601f0160208091040260200160405190810160405280929190818152602001828054612eea9061502a565b8015612f355780601f10612f0c57610100808354040283529160200191612f35565b820191905f5260205f20905b815481529060010190602001808311612f1857829003601f168201915b505050505090806002018054612f4a9061502a565b80601f0160208091040260200160405190810160405280929190818152602001828054612f769061502a565b8015612fc15780601f10612f9857610100808354040283529160200191612fc1565b820191905f5260205f20905b815481529060010190602001808311612fa457829003601f168201915b505050505090806003015f9054906101000a900460ff16905084565b60015f3373ffffffffffffffffffffffffffffffffffffffff1673ffffffffffffffffffffffffffffffffffffffff1681526020019081526020015f20600a0160019054906101000a900460ff1661306a576040517f08c379a000000000000000000000000000000000000000000000000000000000815260040161306190614fdf565b60405180910390fd5b60015f3373ffffffffffffffffffffffffffffffffffffffff1673ffffffffffffffffffffffffffffffffffffffff1681526020019081526020015f20600a015f9054906101000a900460ff166130f6576040517f08c379a00000000000000000000000000000000000000000000000000000000081526004016130ed90615330565b60405180910390fd5b8160045f8281526020019081526020015f206007015f9054906101000a900460ff16613157576040517f08c379a000000000000000000000000000000000000000000000000000000000815260040161314e9061555e565b60405180910390fd5b5f5b82518110156132535760035f3373ffffffffffffffffffffffffffffffffffffffff1673ffffffffffffffffffffffffffffffffffffffff1681526020019081526020015f205f8483815181106131b3576131b261561d565b5b602002602001015173ffffffffffffffffffffffffffffffffffffffff1673ffffffffffffffffffffffffffffffffffffffff1681526020019081526020015f205f9054906101000a900460ff16613240576040517f08c379a0000000000000000000000000000000000000000000000000000000008152600401613237906156ba565b60405180910390fd5b808061324b90615705565b915050613159565b508160045f8581526020019081526020015f20600601908051906020019061327c929190613f2e565b50827f70b162532c2b8935bbf6a4aa9c3d8f91fe22c1aa0c8e5d3d34264e9b7570e0c5836040516132ad9190615803565b60405180910390a2505050565b6003602052815f5260405f20602052805f5260405f205f915091509054906101000a900460ff1681565b6132ec613dc8565b5f73ffffffffffffffffffffffffffffffffffffffff168173ffffffffffffffffffffffffffffffffffffffff160361335a576040517f08c379a000000000000000000000000000000000000000000000000000000000815260040161335190615893565b60405180910390fd5b61336381613e46565b50565b5f805f8060045f8681526020019081526020015f20604051806101000160405290815f820180546133969061502a565b80601f01602080910402602001604051908101604052809291908181526020018280546133c29061502a565b801561340d5780601f106133e45761010080835404028352916020019161340d565b820191905f5260205f20905b8154815290600101906020018083116133f057829003601f168201915b505050505081526020016001820180546134269061502a565b80601f01602080910402602001604051908101604052809291908181526020018280546134529061502a565b801561349d5780601f106134745761010080835404028352916020019161349d565b820191905f5260205f20905b81548152906001019060200180831161348057829003601f168201915b5050505050815260200160028201548152602001600382015481526020016004820180546134ca9061502a565b80601f01602080910402602001604051908101604052809291908181526020018280546134f69061502a565b80156135415780601f1061351857610100808354040283529160200191613541565b820191905f5260205f20905b81548152906001019060200180831161352457829003601f168201915b5050505050815260200160058201805461355a9061502a565b80601f01602080910402602001604051908101604052809291908181526020018280546135869061502a565b80156135d15780601f106135a8576101008083540402835291602001916135d1565b820191905f5260205f20905b8154815290600101906020018083116135b457829003601f168201915b505050505081526020016006820180548060200260200160405190810160405280929190818152602001828054801561365c57602002820191905f5260205f20905b815f9054906101000a900473ffffffffffffffffffffffffffffffffffffffff1673ffffffffffffffffffffffffffffffffffffffff1681526020019060010190808311613613575b50505050508152602001600782015f9054906101000a900460ff16151515158152505090505f805f805b8460c00151518110156138a6575f60055f8b81526020019081526020015f205f8760c0015184815181106136bd576136bc61561d565b5b602002602001015173ffffffffffffffffffffffffffffffffffffffff1673ffffffffffffffffffffffffffffffffffffffff1681526020019081526020015f206040518060800160405290815f82015481526020016001820180546137229061502a565b80601f016020809104026020016040519081016040528092919081815260200182805461374e9061502a565b80156137995780601f1061377057610100808354040283529160200191613799565b820191905f5260205f20905b81548152906001019060200180831161377c57829003601f168201915b505050505081526020016002820180546137b29061502a565b80601f01602080910402602001604051908101604052809291908181526020018280546137de9061502a565b80156138295780601f1061380057610100808354040283529160200191613829565b820191905f5260205f20905b81548152906001019060200180831161380c57829003601f168201915b50505050508152602001600382015f9054906101000a900460ff161515151581525050905080606001511561389257848061386390615705565b955050805f01518361387591906158b1565b9250603c815f01511061389157838061388d90615705565b9450505b5b50808061389e90615705565b915050613686565b50825f84116138b5575f6138ce565b836064846138c391906158e4565b6138cd9190615952565b5b5f85116138db575f6138e8565b84836138e79190615952565b5b965096509650505050509193909250565b5f6060805f60055f8781526020019081526020015f205f8673ffffffffffffffffffffffffffffffffffffffff1673ffffffffffffffffffffffffffffffffffffffff1681526020019081526020015f206040518060800160405290815f820154815260200160018201805461396e9061502a565b80601f016020809104026020016040519081016040528092919081815260200182805461399a9061502a565b80156139e55780601f106139bc576101008083540402835291602001916139e5565b820191905f5260205f20905b8154815290600101906020018083116139c857829003601f168201915b505050505081526020016002820180546139fe9061502a565b80601f0160208091040260200160405190810160405280929190818152602001828054613a2a9061502a565b8015613a755780601f10613a4c57610100808354040283529160200191613a75565b820191905f5260205f20905b815481529060010190602001808311613a5857829003601f168201915b50505050508152602001600382015f9054906101000a900460ff1615151515815250509050805f015181602001518260400151935093509350509250925092565b5f60015f3373ffffffffffffffffffffffffffffffffffffffff1673ffffffffffffffffffffffffffffffffffffffff1681526020019081526020015f20600a0160019054906101000a900460ff16613b44576040517f08c379a0000000000000000000000000000000000000000000000000000000008152600401613b3b90614fdf565b60405180910390fd5b60015f3373ffffffffffffffffffffffffffffffffffffffff1673ffffffffffffffffffffffffffffffffffffffff1681526020019081526020015f20600a015f9054906101000a900460ff16613bd0576040517f08c379a0000000000000000000000000000000000000000000000000000000008152600401613bc790615330565b60405180910390fd5b613bda6007613f07565b5f613be56007613f1b565b33604051602001613bf7929190615982565b6040516020818303038152906040528051906020012090506040518061010001604052808881526020018781526020018681526020018581526020016040518060400160405280600781526020017f70656e64696e670000000000000000000000000000000000000000000000000081525081526020018481526020015f67ffffffffffffffff811115613c8e57613c8d613ff9565b5b604051908082528060200260200182016040528015613cbc5781602001602082028036833780820191505090505b5081526020016001151581525060045f8381526020019081526020015f205f820151815f019081613ced91906151f7565b506020820151816001019081613d0391906151f7565b5060408201518160020155606082015181600301556080820151816004019081613d2d91906151f7565b5060a0820151816005019081613d4391906151f7565b5060c0820151816006019080519060200190613d60929190613f2e565b5060e0820151816007015f6101000a81548160ff021916908315150217905550905050807f01cc58dcd5983c834936e93747192e03a1d4179dc2bf868e41eb1021e237368988604051613db391906152c6565b60405180910390a28091505095945050505050565b613dd0613f27565b73ffffffffffffffffffffffffffffffffffffffff16613dee611897565b73ffffffffffffffffffffffffffffffffffffffff1614613e44576040517f08c379a0000000000000000000000000000000000000000000000000000000008152600401613e3b906159f7565b60405180910390fd5b565b5f805f9054906101000a900473ffffffffffffffffffffffffffffffffffffffff169050815f806101000a81548173ffffffffffffffffffffffffffffffffffffffff021916908373ffffffffffffffffffffffffffffffffffffffff1602179055508173ffffffffffffffffffffffffffffffffffffffff168173ffffffffffffffffffffffffffffffffffffffff167f8be0079c531659141344cd1fd0a4f28419497f9722a3daafe3b4186f6b6457e060405160405180910390a35050565b6001815f015f828254019250508190555050565b5f815f01549050919050565b5f33905090565b828054828255905f5260205f20908101928215613fa4579160200282015b82811115613fa3578251825f6101000a81548173ffffffffffffffffffffffffffffffffffffffff021916908373ffffffffffffffffffffffffffffffffffffffff16021790555091602001919060010190613f4c565b5b509050613fb19190613fb5565b5090565b5b80821115613fcc575f815f905550600101613fb6565b5090565b5f604051905090565b5f80fd5b5f80fd5b5f80fd5b5f80fd5b5f601f19601f8301169050919050565b7f4e487b71000000000000000000000000000000000000000000000000000000005f52604160045260245ffd5b61402f82613fe9565b810181811067ffffffffffffffff8211171561404e5761404d613ff9565b5b80604052505050565b5f614060613fd0565b905061406c8282614026565b919050565b5f67ffffffffffffffff82111561408b5761408a613ff9565b5b61409482613fe9565b9050602081019050919050565b828183375f83830152505050565b5f6140c16140bc84614071565b614057565b9050828152602081018484840111156140dd576140dc613fe5565b5b6140e88482856140a1565b509392505050565b5f82601f83011261410457614103613fe1565b5b81356141148482602086016140af565b91505092915050565b5f805f805f805f805f6101208a8c03121561413b5761413a613fd9565b5b5f8a013567ffffffffffffffff81111561415857614157613fdd565b5b6141648c828d016140f0565b99505060208a013567ffffffffffffffff81111561418557614184613fdd565b5b6141918c828d016140f0565b98505060408a013567ffffffffffffffff8111156141b2576141b1613fdd565b5b6141be8c828d016140f0565b97505060608a013567ffffffffffffffff8111156141df576141de613fdd565b5b6141eb8c828d016140f0565b96505060808a013567ffffffffffffffff81111561420c5761420b613fdd565b5b6142188c828d016140f0565b95505060a08a013567ffffffffffffffff81111561423957614238613fdd565b5b6142458c828d016140f0565b94505060c08a013567ffffffffffffffff81111561426657614265613fdd565b5b6142728c828d016140f0565b93505060e08a013567ffffffffffffffff81111561429357614292613fdd565b5b61429f8c828d016140f0565b9250506101008a013567ffffffffffffffff8111156142c1576142c0613fdd565b5b6142cd8c828d016140f0565b9150509295985092959850929598565b5f73ffffffffffffffffffffffffffffffffffffffff82169050919050565b5f614306826142dd565b9050919050565b614316816142fc565b8114614320575f80fd5b50565b5f813590506143318161430d565b92915050565b5f805f6060848603121561434e5761434d613fd9565b5b5f61435b86828701614323565b935050602084013567ffffffffffffffff81111561437c5761437b613fdd565b5b614388868287016140f0565b925050604084013567ffffffffffffffff8111156143a9576143a8613fdd565b5b6143b5868287016140f0565b9150509250925092565b5f602082840312156143d4576143d3613fd9565b5b5f6143e184828501614323565b91505092915050565b5f8115159050919050565b6143fe816143ea565b82525050565b5f6020820190506144175f8301846143f5565b92915050565b5f806040838503121561443357614432613fd9565b5b5f61444085828601614323565b925050602083013567ffffffffffffffff81111561446157614460613fdd565b5b61446d858286016140f0565b9150509250929050565b5f81519050919050565b5f82825260208201905092915050565b5f5b838110156144ae578082015181840152602081019050614493565b5f8484015250505050565b5f6144c382614477565b6144cd8185614481565b93506144dd818560208601614491565b6144e681613fe9565b840191505092915050565b5f819050919050565b614503816144f1565b82525050565b5f6080820190508181035f83015261452181876144b9565b9050818103602083015261453581866144b9565b905061454460408301856144fa565b818103606083015261455681846144b9565b905095945050505050565b5f610160820190508181035f83015261457a818e6144b9565b9050818103602083015261458e818d6144b9565b905081810360408301526145a2818c6144b9565b905081810360608301526145b6818b6144b9565b905081810360808301526145ca818a6144b9565b905081810360a08301526145de81896144b9565b905081810360c08301526145f281886144b9565b905081810360e083015261460681876144b9565b905081810361010083015261461b81866144b9565b905081810361012083015261463081856144b9565b90506146406101408301846143f5565b9c9b505050505050505050505050565b5f819050919050565b61466281614650565b811461466c575f80fd5b50565b5f8135905061467d81614659565b92915050565b5f6020828403121561469857614697613fd9565b5b5f6146a58482850161466f565b91505092915050565b6146b7816142fc565b82525050565b5f60a0820190506146d05f8301886146ae565b6146dd60208301876146ae565b81810360408301526146ef81866144b9565b90506146fe60608301856144fa565b61470b60808301846143f5565b9695505050505050565b5f6020820190506147285f8301846146ae565b92915050565b5f60e0820190508181035f830152614746818a6144b9565b9050818103602083015261475a81896144b9565b905061476960408301886144fa565b61477660608301876144fa565b818103608083015261478881866144b9565b905081810360a083015261479c81856144b9565b90506147ab60c08301846143f5565b98975050505050505050565b5f60a0820190508181035f8301526147cf81886144b9565b905081810360208301526147e381876144b9565b90506147f260408301866144fa565b818103606083015261480481856144b9565b905061481360808301846143f5565b9695505050505050565b5f610180820190508181035f830152614836818f6144b9565b9050818103602083015261484a818e6144b9565b9050818103604083015261485e818d6144b9565b90508181036060830152614872818c6144b9565b90508181036080830152614886818b6144b9565b905081810360a083015261489a818a6144b9565b905081810360c08301526148ae81896144b9565b905081810360e08301526148c281886144b9565b90508181036101008301526148d781876144b9565b90508181036101208301526148ec81866144b9565b90506148fc6101408301856143f5565b61490a6101608301846143f5565b9d9c50505050505050505050505050565b5f805f805f805f805f806101408b8d03121561493a57614939613fd9565b5b5f8b013567ffffffffffffffff81111561495757614956613fdd565b5b6149638d828e016140f0565b9a505060208b013567ffffffffffffffff81111561498457614983613fdd565b5b6149908d828e016140f0565b99505060408b013567ffffffffffffffff8111156149b1576149b0613fdd565b5b6149bd8d828e016140f0565b98505060608b013567ffffffffffffffff8111156149de576149dd613fdd565b5b6149ea8d828e016140f0565b97505060808b013567ffffffffffffffff811115614a0b57614a0a613fdd565b5b614a178d828e016140f0565b96505060a08b013567ffffffffffffffff811115614a3857614a37613fdd565b5b614a448d828e016140f0565b95505060c08b013567ffffffffffffffff811115614a6557614a64613fdd565b5b614a718d828e016140f0565b94505060e08b013567ffffffffffffffff811115614a9257614a91613fdd565b5b614a9e8d828e016140f0565b9350506101008b013567ffffffffffffffff811115614ac057614abf613fdd565b5b614acc8d828e016140f0565b9250506101208b013567ffffffffffffffff811115614aee57614aed613fdd565b5b614afa8d828e016140f0565b9150509295989b9194979a5092959850565b614b15816144f1565b8114614b1f575f80fd5b50565b5f81359050614b3081614b0c565b92915050565b5f805f805f60a08688031215614b4f57614b4e613fd9565b5b5f614b5c8882890161466f565b9550506020614b6d88828901614323565b9450506040614b7e88828901614b22565b935050606086013567ffffffffffffffff811115614b9f57614b9e613fdd565b5b614bab888289016140f0565b925050608086013567ffffffffffffffff811115614bcc57614bcb613fdd565b5b614bd8888289016140f0565b9150509295509295909350565b5f8060408385031215614bfb57614bfa613fd9565b5b5f614c088582860161466f565b925050602083013567ffffffffffffffff811115614c2957614c28613fdd565b5b614c35858286016140f0565b9150509250929050565b5f8060408385031215614c5557614c54613fd9565b5b5f614c628582860161466f565b9250506020614c7385828601614323565b9150509250929050565b5f608082019050614c905f8301876144fa565b8181036020830152614ca281866144b9565b90508181036040830152614cb681856144b9565b9050614cc560608301846143f5565b95945050505050565b5f67ffffffffffffffff821115614ce857614ce7613ff9565b5b602082029050602081019050919050565b5f80fd5b5f614d0f614d0a84614cce565b614057565b90508083825260208201905060208402830185811115614d3257614d31614cf9565b5b835b81811015614d5b5780614d478882614323565b845260208401935050602081019050614d34565b5050509392505050565b5f82601f830112614d7957614d78613fe1565b5b8135614d89848260208601614cfd565b91505092915050565b5f8060408385031215614da857614da7613fd9565b5b5f614db58582860161466f565b925050602083013567ffffffffffffffff811115614dd657614dd5613fdd565b5b614de285828601614d65565b9150509250929050565b5f8060408385031215614e0257614e01613fd9565b5b5f614e0f85828601614323565b9250506020614e2085828601614323565b9150509250929050565b5f606082019050614e3d5f8301866144fa565b614e4a60208301856144fa565b614e5760408301846144fa565b949350505050565b5f606082019050614e725f8301866144fa565b8181036020830152614e8481856144b9565b90508181036040830152614e9881846144b9565b9050949350505050565b5f805f805f60a08688031215614ebb57614eba613fd9565b5b5f86013567ffffffffffffffff811115614ed857614ed7613fdd565b5b614ee4888289016140f0565b955050602086013567ffffffffffffffff811115614f0557614f04613fdd565b5b614f11888289016140f0565b9450506040614f2288828901614b22565b9350506060614f3388828901614b22565b925050608086013567ffffffffffffffff811115614f5457614f53613fdd565b5b614f60888289016140f0565b9150509295509295909350565b614f7681614650565b82525050565b5f602082019050614f8f5f830184614f6d565b92915050565b7f496e737469747574696f6e20646f6573206e6f742065786973740000000000005f82015250565b5f614fc9601a83614481565b9150614fd482614f95565b602082019050919050565b5f6020820190508181035f830152614ff681614fbd565b9050919050565b7f4e487b71000000000000000000000000000000000000000000000000000000005f52602260045260245ffd5b5f600282049050600182168061504157607f821691505b60208210810361505457615053614ffd565b5b50919050565b5f819050815f5260205f209050919050565b5f6020601f8301049050919050565b5f82821b905092915050565b5f600883026150b67fffffffffffffffffffffffffffffffffffffffffffffffffffffffffffffffff8261507b565b6150c0868361507b565b95508019841693508086168417925050509392505050565b5f819050919050565b5f6150fb6150f66150f1846144f1565b6150d8565b6144f1565b9050919050565b5f819050919050565b615114836150e1565b61512861512082615102565b848454615087565b825550505050565b5f90565b61513c615130565b61514781848461510b565b505050565b5b8181101561516a5761515f5f82615134565b60018101905061514d565b5050565b601f8211156151af576151808161505a565b6151898461506c565b81016020851015615198578190505b6151ac6151a48561506c565b83018261514c565b50505b505050565b5f82821c905092915050565b5f6151cf5f19846008026151b4565b1980831691505092915050565b5f6151e783836151c0565b9150826002028217905092915050565b61520082614477565b67ffffffffffffffff81111561521957615218613ff9565b5b615223825461502a565b61522e82828561516e565b5f60209050601f83116001811461525f575f841561524d578287015190505b61525785826151dc565b8655506152be565b601f19841661526d8661505a565b5f5b828110156152945784890151825560018201915060208501945060208101905061526f565b868310156152b157848901516152ad601f8916826151c0565b8355505b6001600288020188555050505b505050505050565b5f6020820190508181035f8301526152de81846144b9565b905092915050565b7f496e737469747574696f6e206973206e6f7420766572696669656400000000005f82015250565b5f61531a601b83614481565b9150615325826152e6565b602082019050919050565b5f6020820190508181035f8301526153478161530e565b9050919050565b7f53747564656e7420616c726561647920657869737473000000000000000000005f82015250565b5f615382601683614481565b915061538d8261534e565b602082019050919050565b5f6020820190508181035f8301526153af81615376565b9050919050565b7f53747564656e7420646f6573206e6f74206578697374000000000000000000005f82015250565b5f6153ea601683614481565b91506153f5826153b6565b602082019050919050565b5f6020820190508181035f830152615417816153de565b9050919050565b7f53747564656e74206e6f7420656e726f6c6c656420696e207468697320696e735f8201527f7469747574696f6e000000000000000000000000000000000000000000000000602082015250565b5f615478602883614481565b91506154838261541e565b604082019050919050565b5f6020820190508181035f8301526154a58161546c565b9050919050565b7f496e737469747574696f6e20616c7265616479207265676973746572656400005f82015250565b5f6154e0601e83614481565b91506154eb826154ac565b602082019050919050565b5f6020820190508181035f83015261550d816154d4565b9050919050565b7f4578616d20646f6573206e6f74206578697374000000000000000000000000005f82015250565b5f615548601383614481565b915061555382615514565b602082019050919050565b5f6020820190508181035f8301526155758161553c565b9050919050565b5f819050919050565b615596615591826144f1565b61557c565b82525050565b5f8160601b9050919050565b5f6155b28261559c565b9050919050565b5f6155c3826155a8565b9050919050565b6155db6155d6826142fc565b6155b9565b82525050565b5f6155ec8286615585565b6020820191506155fc82856155ca565b60148201915061560c82846155ca565b601482019150819050949350505050565b7f4e487b71000000000000000000000000000000000000000000000000000000005f52603260045260245ffd5b7f4f6e65206f72206d6f72652073747564656e7473206e6f7420656e726f6c6c655f8201527f6420696e207468697320696e737469747574696f6e0000000000000000000000602082015250565b5f6156a4603583614481565b91506156af8261564a565b604082019050919050565b5f6020820190508181035f8301526156d181615698565b9050919050565b7f4e487b71000000000000000000000000000000000000000000000000000000005f52601160045260245ffd5b5f61570f826144f1565b91507fffffffffffffffffffffffffffffffffffffffffffffffffffffffffffffffff8203615741576157406156d8565b5b600182019050919050565b5f81519050919050565b5f82825260208201905092915050565b5f819050602082019050919050565b61577e816142fc565b82525050565b5f61578f8383615775565b60208301905092915050565b5f602082019050919050565b5f6157b18261574c565b6157bb8185615756565b93506157c683615766565b805f5b838110156157f65781516157dd8882615784565b97506157e88361579b565b9250506001810190506157c9565b5085935050505092915050565b5f6020820190508181035f83015261581b81846157a7565b905092915050565b7f4f776e61626c653a206e6577206f776e657220697320746865207a65726f20615f8201527f6464726573730000000000000000000000000000000000000000000000000000602082015250565b5f61587d602683614481565b915061588882615823565b604082019050919050565b5f6020820190508181035f8301526158aa81615871565b9050919050565b5f6158bb826144f1565b91506158c6836144f1565b92508282019050808211156158de576158dd6156d8565b5b92915050565b5f6158ee826144f1565b91506158f9836144f1565b9250828202615907816144f1565b9150828204841483151761591e5761591d6156d8565b5b5092915050565b7f4e487b71000000000000000000000000000000000000000000000000000000005f52601260045260245ffd5b5f61595c826144f1565b9150615967836144f1565b92508261597757615976615925565b5b828204905092915050565b5f61598d8285615585565b60208201915061599d82846155ca565b6014820191508190509392505050565b7f4f776e61626c653a2063616c6c6572206973206e6f7420746865206f776e65725f82015250565b5f6159e1602083614481565b91506159ec826159ad565b602082019050919050565b5f6020820190508181035f830152615a0e816159d5565b905091905056fea26469706673582212200d3e1e19fecc136ebdfd6e860aae35fb4d41cbda00f96c2ed0cfd92298ec6ada64736f6c63430008140033",
  "immutableReferences": {},
  "source": "// SPDX-License-Identifier: MIT\r\npragma solidity ^0.8.0;\r\n\r\nimport \"@openzeppelin/contracts/access/Ownable.sol\";\r\nimport \"@openzeppelin/contracts/security/Pausable.sol\";\r\nimport \"@openzeppelin/contracts/utils/Counters.sol\";\r\n\r\ncontract ExamManagement is Ownable, Pausable {\r\n    using Counters for Counters.Counter;\r\n\r\n    struct Institution {\r\n        string name;\r\n        string description;\r\n        string physicalAddress;\r\n        string email;\r\n        string phone;\r\n        string website;\r\n        string logo;\r\n        string ministry;\r\n        string university;\r\n        string college;\r\n        bool isVerified;\r\n        bool exists;\r\n    }\r\n\r\n    struct Student {\r\n        string name;\r\n        string email;\r\n        uint256 enrollmentDate;\r\n        string status; // \"active\", \"inactive\", \"graduated\"\r\n        bool exists;\r\n    }\r\n\r\n    struct Exam {\r\n        string title;\r\n        string description;\r\n        uint256 date;\r\n        uint256 duration;\r\n        string status; // \"pending\", \"active\", \"completed\"\r\n        string ipfsHash;\r\n        address[] students;\r\n        bool exists;\r\n    }\r\n\r\n    struct Certificate {\r\n        address student;\r\n        address issuer;\r\n        string ipfsHash;\r\n        uint256 issuedAt;\r\n        bool exists;\r\n    }\r\n\r\n    struct ExamResult {\r\n        uint256 score;\r\n        string grade;\r\n        string notes;\r\n        bool exists;\r\n    }\r\n\r\n    // Mappings\r\n    mapping(address => Institution) public institutions;\r\n    mapping(address => Student) public students;\r\n    mapping(address => mapping(address => bool)) public institutionStudents;\r\n    mapping(bytes32 => Exam) public exams;\r\n    mapping(bytes32 => mapping(address => ExamResult)) public examResults;\r\n    mapping(bytes32 => Certificate) public certificates;\r\n    \r\n    // Counters\r\n    Counters.Counter private _examIds;\r\n    Counters.Counter private _certificateIds;\r\n\r\n    // Events\r\n    event InstitutionRegistered(address indexed institution, string name);\r\n    event InstitutionVerified(address indexed institution);\r\n    event StudentAdded(address indexed institution, address indexed student);\r\n    event StudentStatusUpdated(address indexed student, string status);\r\n    event ExamCreated(bytes32 indexed examId, string title);\r\n    event ExamStatusUpdated(bytes32 indexed examId, string status);\r\n    event StudentsRegistered(bytes32 indexed examId, address[] students);\r\n    event ResultSubmitted(bytes32 indexed examId, address indexed student);\r\n    event CertificateIssued(bytes32 indexed certificateId, address indexed student);\r\n    event InstitutionProfileUpdated(address indexed institution, string name);\r\n\r\n    // Modifiers\r\n    modifier onlyVerifiedInstitution() {\r\n        require(institutions[msg.sender].exists, \"Institution does not exist\");\r\n        require(institutions[msg.sender].isVerified, \"Institution is not verified\");\r\n        _;\r\n    }\r\n\r\n    modifier onlyExistingExam(bytes32 examId) {\r\n        require(exams[examId].exists, \"Exam does not exist\");\r\n        _;\r\n    }\r\n\r\n    modifier onlyExistingStudent(address student) {\r\n        require(students[student].exists, \"Student does not exist\");\r\n        _;\r\n    }\r\n\r\n    // Institution Management\r\n    function registerInstitution(\r\n        string memory name,\r\n        string memory description,\r\n        string memory physicalAddress,\r\n        string memory email,\r\n        string memory phone,\r\n        string memory website,\r\n        string memory logo,\r\n        string memory ministry,\r\n        string memory university,\r\n        string memory college\r\n    ) external {\r\n        require(!institutions[msg.sender].exists, \"Institution already registered\");\r\n        \r\n        institutions[msg.sender] = Institution({\r\n            name: name,\r\n            description: description,\r\n            physicalAddress: physicalAddress,\r\n            email: email,\r\n            phone: phone,\r\n            website: website,\r\n            logo: logo,\r\n            ministry: ministry,\r\n            university: university,\r\n            college: college,\r\n            isVerified: false,\r\n            exists: true\r\n        });\r\n\r\n        emit InstitutionRegistered(msg.sender, name);\r\n    }\r\n\r\n    function verifyInstitution(address institution) external onlyOwner {\r\n        require(institutions[institution].exists, \"Institution does not exist\");\r\n        institutions[institution].isVerified = true;\r\n        emit InstitutionVerified(institution);\r\n    }\r\n\r\n    function updateInstitutionProfile(\r\n        string memory name,\r\n        string memory ministry,\r\n        string memory university,\r\n        string memory college,\r\n        string memory description,\r\n        string memory logo,\r\n        string memory website,\r\n        string memory email,\r\n        string memory phone\r\n    ) external {\r\n        require(institutions[msg.sender].exists, \"Institution does not exist\");\r\n        \r\n        Institution storage institution = institutions[msg.sender];\r\n        institution.name = name;\r\n        institution.ministry = ministry;\r\n        institution.university = university;\r\n        institution.college = college;\r\n        institution.description = description;\r\n        institution.logo = logo;\r\n        institution.website = website;\r\n        institution.email = email;\r\n        institution.phone = phone;\r\n\r\n        emit InstitutionProfileUpdated(msg.sender, name);\r\n    }\r\n\r\n    // Student Management\r\n    function addStudent(\r\n        address studentAddress,\r\n        string memory name,\r\n        string memory email\r\n    ) external onlyVerifiedInstitution {\r\n        require(!students[studentAddress].exists, \"Student already exists\");\r\n        \r\n        students[studentAddress] = Student({\r\n            name: name,\r\n            email: email,\r\n            enrollmentDate: block.timestamp,\r\n            status: \"active\",\r\n            exists: true\r\n        });\r\n\r\n        institutionStudents[msg.sender][studentAddress] = true;\r\n        emit StudentAdded(msg.sender, studentAddress);\r\n    }\r\n\r\n    function updateStudentStatus(\r\n        address studentAddress,\r\n        string memory newStatus\r\n    ) external onlyVerifiedInstitution onlyExistingStudent(studentAddress) {\r\n        require(institutionStudents[msg.sender][studentAddress], \"Student not enrolled in this institution\");\r\n        students[studentAddress].status = newStatus;\r\n        emit StudentStatusUpdated(studentAddress, newStatus);\r\n    }\r\n\r\n    // Exam Management\r\n    function createExam(\r\n        string memory title,\r\n        string memory description,\r\n        uint256 date,\r\n        uint256 duration,\r\n        string memory ipfsHash\r\n    ) external onlyVerifiedInstitution returns (bytes32) {\r\n        _examIds.increment();\r\n        bytes32 examId = keccak256(abi.encodePacked(_examIds.current(), msg.sender));\r\n        \r\n        exams[examId] = Exam({\r\n            title: title,\r\n            description: description,\r\n            date: date,\r\n            duration: duration,\r\n            status: \"pending\",\r\n            ipfsHash: ipfsHash,\r\n            students: new address[](0),\r\n            exists: true\r\n        });\r\n\r\n        emit ExamCreated(examId, title);\r\n        return examId;\r\n    }\r\n\r\n    function updateExamStatus(\r\n        bytes32 examId,\r\n        string memory newStatus\r\n    ) external onlyVerifiedInstitution onlyExistingExam(examId) {\r\n        exams[examId].status = newStatus;\r\n        emit ExamStatusUpdated(examId, newStatus);\r\n    }\r\n\r\n    function registerStudentsForExam(\r\n        bytes32 examId,\r\n        address[] memory studentAddresses\r\n    ) external onlyVerifiedInstitution onlyExistingExam(examId) {\r\n        for (uint i = 0; i < studentAddresses.length; i++) {\r\n            require(\r\n                institutionStudents[msg.sender][studentAddresses[i]],\r\n                \"One or more students not enrolled in this institution\"\r\n            );\r\n        }\r\n        exams[examId].students = studentAddresses;\r\n        emit StudentsRegistered(examId, studentAddresses);\r\n    }\r\n\r\n    // Result Management\r\n    function submitResult(\r\n        bytes32 examId,\r\n        address student,\r\n        uint256 score,\r\n        string memory grade,\r\n        string memory notes\r\n    ) external onlyVerifiedInstitution onlyExistingExam(examId) {\r\n        require(\r\n            institutionStudents[msg.sender][student],\r\n            \"Student not enrolled in this institution\"\r\n        );\r\n        \r\n        examResults[examId][student] = ExamResult({\r\n            score: score,\r\n            grade: grade,\r\n            notes: notes,\r\n            exists: true\r\n        });\r\n\r\n        emit ResultSubmitted(examId, student);\r\n    }\r\n\r\n    // Certificate Management\r\n    function issueCertificate(\r\n        address student,\r\n        string memory ipfsHash\r\n    ) external onlyVerifiedInstitution onlyExistingStudent(student) {\r\n        require(\r\n            institutionStudents[msg.sender][student],\r\n            \"Student not enrolled in this institution\"\r\n        );\r\n\r\n        _certificateIds.increment();\r\n        bytes32 certificateId = keccak256(abi.encodePacked(_certificateIds.current(), msg.sender, student));\r\n        \r\n        certificates[certificateId] = Certificate({\r\n            student: student,\r\n            issuer: msg.sender,\r\n            ipfsHash: ipfsHash,\r\n            issuedAt: block.timestamp,\r\n            exists: true\r\n        });\r\n\r\n        emit CertificateIssued(certificateId, student);\r\n    }\r\n\r\n    // View Functions\r\n    function getInstitution(address institution) external view returns (\r\n        string memory name,\r\n        string memory description,\r\n        string memory physicalAddress,\r\n        string memory email,\r\n        string memory phone,\r\n        string memory website,\r\n        string memory logo,\r\n        string memory ministry,\r\n        string memory university,\r\n        string memory college,\r\n        bool isVerified\r\n    ) {\r\n        Institution memory inst = institutions[institution];\r\n        return (\r\n            inst.name,\r\n            inst.description,\r\n            inst.physicalAddress,\r\n            inst.email,\r\n            inst.phone,\r\n            inst.website,\r\n            inst.logo,\r\n            inst.ministry,\r\n            inst.university,\r\n            inst.college,\r\n            inst.isVerified\r\n        );\r\n    }\r\n\r\n    function getStudent(address student) external view returns (\r\n        string memory name,\r\n        string memory email,\r\n        uint256 enrollmentDate,\r\n        string memory status\r\n    ) {\r\n        Student memory stud = students[student];\r\n        return (\r\n            stud.name,\r\n            stud.email,\r\n            stud.enrollmentDate,\r\n            stud.status\r\n        );\r\n    }\r\n\r\n    function getExamResult(bytes32 examId, address student) external view returns (\r\n        uint256 score,\r\n        string memory grade,\r\n        string memory notes\r\n    ) {\r\n        ExamResult memory result = examResults[examId][student];\r\n        return (\r\n            result.score,\r\n            result.grade,\r\n            result.notes\r\n        );\r\n    }\r\n\r\n    function getExamStatistics(bytes32 examId) external view returns (\r\n        uint256 totalStudents,\r\n        uint256 passRate,\r\n        uint256 averageScore\r\n    ) {\r\n        Exam memory exam = exams[examId];\r\n        uint256 total = 0;\r\n        uint256 passed = 0;\r\n        uint256 scoreSum = 0;\r\n        \r\n        for (uint i = 0; i < exam.students.length; i++) {\r\n            ExamResult memory result = examResults[examId][exam.students[i]];\r\n            if (result.exists) {\r\n                total++;\r\n                scoreSum += result.score;\r\n                if (result.score >= 60) {\r\n                    passed++;\r\n                }\r\n            }\r\n        }\r\n        \r\n        return (\r\n            total,\r\n            total > 0 ? (passed * 100) / total : 0,\r\n            total > 0 ? scoreSum / total : 0\r\n        );\r\n    }\r\n} ",
  "sourcePath": "C:\\Users\\osama\\OneDrive\\Desktop\\Graduation\\grad-main-0.1\\contracts\\ExamManagement.sol",
  "compiler": {
    "name": "solc",
    "version": "0.8.20+commit.a1b79de6.Emscripten.clang"
  },
  "schemaVersion": "3.4.16",
  "updatedAt": "2025-04-17T20:24:07.772Z",
  "devdoc": {
    "events": {
      "Paused(address)": {
        "details": "Emitted when the pause is triggered by `account`."
      },
      "Unpaused(address)": {
        "details": "Emitted when the pause is lifted by `account`."
      }
    },
    "kind": "dev",
    "methods": {
      "owner()": {
        "details": "Returns the address of the current owner."
      },
      "paused()": {
        "details": "Returns true if the contract is paused, and false otherwise."
      },
      "renounceOwnership()": {
        "details": "Leaves the contract without owner. It will not be possible to call `onlyOwner` functions. Can only be called by the current owner. NOTE: Renouncing ownership will leave the contract without an owner, thereby disabling any functionality that is only available to the owner."
      },
      "transferOwnership(address)": {
        "details": "Transfers ownership of the contract to a new account (`newOwner`). Can only be called by the current owner."
      }
    },
    "version": 1
  },
  "userdoc": {
    "kind": "user",
    "methods": {},
    "version": 1
  }
}