{
  "contractName": "Examinations",
  "abi": [
    {
      "inputs": [
        {
          "internalType": "address",
          "name": "_identityContract",
          "type": "address"
        }
      ],
      "stateMutability": "nonpayable",
      "type": "constructor"
    },
    {
      "anonymous": false,
      "inputs": [
        {
          "indexed": true,
          "internalType": "bytes32",
          "name": "examId",
          "type": "bytes32"
        },
        {
          "indexed": true,
          "internalType": "address",
          "name": "student",
          "type": "address"
        }
      ],
      "name": "AnswersSubmitted",
      "type": "event"
    },
    {
      "anonymous": false,
      "inputs": [
        {
          "indexed": true,
          "internalType": "bytes32",
          "name": "examId",
          "type": "bytes32"
        },
        {
          "indexed": true,
          "internalType": "address",
          "name": "institution",
          "type": "address"
        }
      ],
      "name": "ExaminationCreated",
      "type": "event"
    },
    {
      "anonymous": false,
      "inputs": [
        {
          "indexed": true,
          "internalType": "bytes32",
          "name": "examId",
          "type": "bytes32"
        },
        {
          "indexed": true,
          "internalType": "address",
          "name": "student",
          "type": "address"
        },
        {
          "indexed": false,
          "internalType": "uint256",
          "name": "grade",
          "type": "uint256"
        }
      ],
      "name": "GradeAssigned",
      "type": "event"
    },
    {
      "anonymous": false,
      "inputs": [
        {
          "indexed": true,
          "internalType": "bytes32",
          "name": "examId",
          "type": "bytes32"
        },
        {
          "indexed": true,
          "internalType": "address",
          "name": "student",
          "type": "address"
        }
      ],
      "name": "StudentRegistered",
      "type": "event"
    },
    {
      "inputs": [
        {
          "internalType": "bytes32",
          "name": "",
          "type": "bytes32"
        }
      ],
      "name": "examinations",
      "outputs": [
        {
          "internalType": "address",
          "name": "institution",
          "type": "address"
        },
        {
          "internalType": "string",
          "name": "ipfsHash",
          "type": "string"
        },
        {
          "internalType": "uint256",
          "name": "startTime",
          "type": "uint256"
        },
        {
          "internalType": "uint256",
          "name": "endTime",
          "type": "uint256"
        },
        {
          "internalType": "bool",
          "name": "isActive",
          "type": "bool"
        }
      ],
      "stateMutability": "view",
      "type": "function",
      "constant": true
    },
    {
      "inputs": [],
      "name": "identityContract",
      "outputs": [
        {
          "internalType": "contract Identity",
          "name": "",
          "type": "address"
        }
      ],
      "stateMutability": "view",
      "type": "function",
      "constant": true
    },
    {
      "inputs": [
        {
          "internalType": "address",
          "name": "",
          "type": "address"
        },
        {
          "internalType": "uint256",
          "name": "",
          "type": "uint256"
        }
      ],
      "name": "institutionExams",
      "outputs": [
        {
          "internalType": "bytes32",
          "name": "",
          "type": "bytes32"
        }
      ],
      "stateMutability": "view",
      "type": "function",
      "constant": true
    },
    {
      "inputs": [
        {
          "internalType": "address",
          "name": "",
          "type": "address"
        },
        {
          "internalType": "uint256",
          "name": "",
          "type": "uint256"
        }
      ],
      "name": "studentExams",
      "outputs": [
        {
          "internalType": "bytes32",
          "name": "",
          "type": "bytes32"
        }
      ],
      "stateMutability": "view",
      "type": "function",
      "constant": true
    },
    {
      "inputs": [
        {
          "internalType": "string",
          "name": "_ipfsHash",
          "type": "string"
        },
        {
          "internalType": "uint256",
          "name": "_startTime",
          "type": "uint256"
        },
        {
          "internalType": "uint256",
          "name": "_endTime",
          "type": "uint256"
        }
      ],
      "name": "createExamination",
      "outputs": [
        {
          "internalType": "bytes32",
          "name": "",
          "type": "bytes32"
        }
      ],
      "stateMutability": "nonpayable",
      "type": "function"
    },
    {
      "inputs": [
        {
          "internalType": "bytes32",
          "name": "_examId",
          "type": "bytes32"
        }
      ],
      "name": "registerForExam",
      "outputs": [],
      "stateMutability": "nonpayable",
      "type": "function"
    },
    {
      "inputs": [
        {
          "internalType": "bytes32",
          "name": "_examId",
          "type": "bytes32"
        },
        {
          "internalType": "string",
          "name": "_answersIpfsHash",
          "type": "string"
        }
      ],
      "name": "submitAnswers",
      "outputs": [],
      "stateMutability": "nonpayable",
      "type": "function"
    },
    {
      "inputs": [
        {
          "internalType": "bytes32",
          "name": "_examId",
          "type": "bytes32"
        },
        {
          "internalType": "address",
          "name": "_student",
          "type": "address"
        },
        {
          "internalType": "uint256",
          "name": "_grade",
          "type": "uint256"
        }
      ],
      "name": "assignGrade",
      "outputs": [],
      "stateMutability": "nonpayable",
      "type": "function"
    },
    {
      "inputs": [
        {
          "internalType": "bytes32",
          "name": "_examId",
          "type": "bytes32"
        }
      ],
      "name": "getExamDetails",
      "outputs": [
        {
          "internalType": "address",
          "name": "institution",
          "type": "address"
        },
        {
          "internalType": "string",
          "name": "ipfsHash",
          "type": "string"
        },
        {
          "internalType": "uint256",
          "name": "startTime",
          "type": "uint256"
        },
        {
          "internalType": "uint256",
          "name": "endTime",
          "type": "uint256"
        },
        {
          "internalType": "bool",
          "name": "isActive",
          "type": "bool"
        }
      ],
      "stateMutability": "view",
      "type": "function",
      "constant": true
    },
    {
      "inputs": [
        {
          "internalType": "bytes32",
          "name": "_examId",
          "type": "bytes32"
        },
        {
          "internalType": "address",
          "name": "_student",
          "type": "address"
        }
      ],
      "name": "getStudentGrade",
      "outputs": [
        {
          "internalType": "uint256",
          "name": "grade",
          "type": "uint256"
        },
        {
          "internalType": "bool",
          "name": "isGraded",
          "type": "bool"
        }
      ],
      "stateMutability": "view",
      "type": "function",
      "constant": true
    }
  ],
  "bytecode": "0x60806040523480156200001157600080fd5b50604051620027c0380380620027c08339818101604052810190620000379190620000f1565b600160008190555080600160006101000a81548173ffffffffffffffffffffffffffffffffffffffff021916908373ffffffffffffffffffffffffffffffffffffffff1602179055505062000123565b600080fd5b600073ffffffffffffffffffffffffffffffffffffffff82169050919050565b6000620000b9826200008c565b9050919050565b620000cb81620000ac565b8114620000d757600080fd5b50565b600081519050620000eb81620000c0565b92915050565b6000602082840312156200010a576200010962000087565b5b60006200011a84828501620000da565b91505092915050565b61268d80620001336000396000f3fe608060405234801561001057600080fd5b506004361061009e5760003560e01c806367031bae1161006657806367031bae14610187578063675191d7146101a55780636e6dbb3f146101d6578063ac99defa14610206578063add21f73146102225761009e565b80630ea6a25c146100a35780633702ec52146100d75780633aa9bc6a146101075780633c7de8961461013b5780635d590dde14610157575b600080fd5b6100bd60048036038101906100b89190611618565b61023e565b6040516100ce95949392919061174a565b60405180910390f35b6100f160048036038101906100ec9190611905565b610329565b6040516100fe9190611983565b60405180910390f35b610121600480360381019061011c9190611618565b6106e7565b60405161013295949392919061174a565b60405180910390f35b6101556004803603810190610150919061199e565b6107eb565b005b610171600480360381019061016c9190611a26565b610b86565b60405161017e9190611983565b60405180910390f35b61018f610bb7565b60405161019c9190611ac5565b60405180910390f35b6101bf60048036038101906101ba9190611ae0565b610bdd565b6040516101cd929190611b20565b60405180910390f35b6101f060048036038101906101eb9190611a26565b610c94565b6040516101fd9190611983565b60405180910390f35b610220600480360381019061021b9190611b49565b610cc5565b005b61023c60048036038101906102379190611618565b61117a565b005b60026020528060005260406000206000915090508060000160009054906101000a900473ffffffffffffffffffffffffffffffffffffffff169080600101805461028790611bcb565b80601f01602080910402602001604051908101604052809291908181526020018280546102b390611bcb565b80156103005780601f106102d557610100808354040283529160200191610300565b820191906000526020600020905b8154815290600101906020018083116102e357829003601f168201915b5050505050908060020154908060030154908060040160009054906101000a900460ff16905085565b60006002600481111561033f5761033e611bfc565b5b600160009054906101000a900473ffffffffffffffffffffffffffffffffffffffff1673ffffffffffffffffffffffffffffffffffffffff166327820851336040518263ffffffff1660e01b815260040161039a9190611c2b565b602060405180830381865afa1580156103b7573d6000803e3d6000fd5b505050506040513d601f19601f820116820180604052508101906103db9190611c6b565b60048111156103ed576103ec611bfc565b5b1480156104925750600160009054906101000a900473ffffffffffffffffffffffffffffffffffffffff1673ffffffffffffffffffffffffffffffffffffffff16633da1c0c3336040518263ffffffff1660e01b81526004016104509190611c2b565b602060405180830381865afa15801561046d573d6000803e3d6000fd5b505050506040513d601f19601f820116820180604052508101906104919190611cc4565b5b6104d1576040517f08c379a00000000000000000000000000000000000000000000000000000000081526004016104c890611d3d565b60405180910390fd5b6104d9611575565b42831161051b576040517f08c379a000000000000000000000000000000000000000000000000000000000815260040161051290611da9565b60405180910390fd5b82821161055d576040517f08c379a000000000000000000000000000000000000000000000000000000000815260040161055490611e15565b60405180910390fd5b6000338585856040516020016105769493929190611eda565b6040516020818303038152906040528051906020012090506000600260008381526020019081526020016000209050338160000160006101000a81548173ffffffffffffffffffffffffffffffffffffffff021916908373ffffffffffffffffffffffffffffffffffffffff160217905550858160010190816105f991906120c6565b5084816002018190555083816003018190555060018160040160006101000a81548160ff021916908315150217905550600360003373ffffffffffffffffffffffffffffffffffffffff1673ffffffffffffffffffffffffffffffffffffffff1681526020019081526020016000208290806001815401808255809150506001900390600052602060002001600090919091909150553373ffffffffffffffffffffffffffffffffffffffff16827f8de4ccace2312e077369c7b809b4c3ca0c5915513249b127e1502af996ee590260405160405180910390a381925050506106e06115c4565b9392505050565b600060606000806000806002600088815260200190815260200160002090508060000160009054906101000a900473ffffffffffffffffffffffffffffffffffffffff1681600101826002015483600301548460040160009054906101000a900460ff1683805461075790611bcb565b80601f016020809104026020016040519081016040528092919081815260200182805461078390611bcb565b80156107d05780601f106107a5576101008083540402835291602001916107d0565b820191906000526020600020905b8154815290600101906020018083116107b357829003601f168201915b50505050509350955095509550955095505091939590929450565b600160048111156107ff576107fe611bfc565b5b600160009054906101000a900473ffffffffffffffffffffffffffffffffffffffff1673ffffffffffffffffffffffffffffffffffffffff166327820851336040518263ffffffff1660e01b815260040161085a9190611c2b565b602060405180830381865afa158015610877573d6000803e3d6000fd5b505050506040513d601f19601f8201168201806040525081019061089b9190611c6b565b60048111156108ad576108ac611bfc565b5b1480156109525750600160009054906101000a900473ffffffffffffffffffffffffffffffffffffffff1673ffffffffffffffffffffffffffffffffffffffff16633da1c0c3336040518263ffffffff1660e01b81526004016109109190611c2b565b602060405180830381865afa15801561092d573d6000803e3d6000fd5b505050506040513d601f19601f820116820180604052508101906109519190611cc4565b5b610991576040517f08c379a0000000000000000000000000000000000000000000000000000000008152600401610988906121e4565b60405180910390fd5b610999611575565b60006002600084815260200190815260200160002090508060040160009054906101000a900460ff16610a01576040517f08c379a00000000000000000000000000000000000000000000000000000000081526004016109f890612250565b60405180910390fd5b8060050160003373ffffffffffffffffffffffffffffffffffffffff1673ffffffffffffffffffffffffffffffffffffffff16815260200190815260200160002060009054906101000a900460ff16610a8f576040517f08c379a0000000000000000000000000000000000000000000000000000000008152600401610a86906122bc565b60405180910390fd5b80600201544210158015610aa7575080600301544211155b610ae6576040517f08c379a0000000000000000000000000000000000000000000000000000000008152600401610add90612328565b60405180910390fd5b818160060160003373ffffffffffffffffffffffffffffffffffffffff1673ffffffffffffffffffffffffffffffffffffffff1681526020019081526020016000209081610b3491906120c6565b503373ffffffffffffffffffffffffffffffffffffffff16837f13faec3eaa48a862c34c26e12c1f14835de3d1392dd9bde324258d2ce315b85260405160405180910390a350610b826115c4565b5050565b60046020528160005260406000208181548110610ba257600080fd5b90600052602060002001600091509150505481565b600160009054906101000a900473ffffffffffffffffffffffffffffffffffffffff1681565b60008060006002600086815260200190815260200160002090508060070160008573ffffffffffffffffffffffffffffffffffffffff1673ffffffffffffffffffffffffffffffffffffffff168152602001908152602001600020548160080160008673ffffffffffffffffffffffffffffffffffffffff1673ffffffffffffffffffffffffffffffffffffffff16815260200190815260200160002060009054906101000a900460ff1692509250509250929050565b60036020528160005260406000208181548110610cb057600080fd5b90600052602060002001600091509150505481565b60026004811115610cd957610cd8611bfc565b5b600160009054906101000a900473ffffffffffffffffffffffffffffffffffffffff1673ffffffffffffffffffffffffffffffffffffffff166327820851336040518263ffffffff1660e01b8152600401610d349190611c2b565b602060405180830381865afa158015610d51573d6000803e3d6000fd5b505050506040513d601f19601f82011682018060405250810190610d759190611c6b565b6004811115610d8757610d86611bfc565b5b148015610e2c5750600160009054906101000a900473ffffffffffffffffffffffffffffffffffffffff1673ffffffffffffffffffffffffffffffffffffffff16633da1c0c3336040518263ffffffff1660e01b8152600401610dea9190611c2b565b602060405180830381865afa158015610e07573d6000803e3d6000fd5b505050506040513d601f19601f82011682018060405250810190610e2b9190611cc4565b5b610e6b576040517f08c379a0000000000000000000000000000000000000000000000000000000008152600401610e6290611d3d565b60405180910390fd5b610e73611575565b60006002600085815260200190815260200160002090503373ffffffffffffffffffffffffffffffffffffffff168160000160009054906101000a900473ffffffffffffffffffffffffffffffffffffffff1673ffffffffffffffffffffffffffffffffffffffff1614610f1c576040517f08c379a0000000000000000000000000000000000000000000000000000000008152600401610f1390612394565b60405180910390fd5b8060050160008473ffffffffffffffffffffffffffffffffffffffff1673ffffffffffffffffffffffffffffffffffffffff16815260200190815260200160002060009054906101000a900460ff16610faa576040517f08c379a0000000000000000000000000000000000000000000000000000000008152600401610fa190612400565b60405180910390fd5b8060080160008473ffffffffffffffffffffffffffffffffffffffff1673ffffffffffffffffffffffffffffffffffffffff16815260200190815260200160002060009054906101000a900460ff1615611039576040517f08c379a00000000000000000000000000000000000000000000000000000000081526004016110309061246c565b60405180910390fd5b606482111561107d576040517f08c379a0000000000000000000000000000000000000000000000000000000008152600401611074906124d8565b60405180910390fd5b818160070160008573ffffffffffffffffffffffffffffffffffffffff1673ffffffffffffffffffffffffffffffffffffffff1681526020019081526020016000208190555060018160080160008573ffffffffffffffffffffffffffffffffffffffff1673ffffffffffffffffffffffffffffffffffffffff16815260200190815260200160002060006101000a81548160ff0219169083151502179055508273ffffffffffffffffffffffffffffffffffffffff16847f019f8d0e86909df9ca28ba9f762269838b7d277a26f66c906072b1af14a5cc848460405161116491906124f8565b60405180910390a3506111756115c4565b505050565b6001600481111561118e5761118d611bfc565b5b600160009054906101000a900473ffffffffffffffffffffffffffffffffffffffff1673ffffffffffffffffffffffffffffffffffffffff166327820851336040518263ffffffff1660e01b81526004016111e99190611c2b565b602060405180830381865afa158015611206573d6000803e3d6000fd5b505050506040513d601f19601f8201168201806040525081019061122a9190611c6b565b600481111561123c5761123b611bfc565b5b1480156112e15750600160009054906101000a900473ffffffffffffffffffffffffffffffffffffffff1673ffffffffffffffffffffffffffffffffffffffff16633da1c0c3336040518263ffffffff1660e01b815260040161129f9190611c2b565b602060405180830381865afa1580156112bc573d6000803e3d6000fd5b505050506040513d601f19601f820116820180604052508101906112e09190611cc4565b5b611320576040517f08c379a0000000000000000000000000000000000000000000000000000000008152600401611317906121e4565b60405180910390fd5b611328611575565b60006002600083815260200190815260200160002090508060040160009054906101000a900460ff16611390576040517f08c379a000000000000000000000000000000000000000000000000000000000815260040161138790612250565b60405180910390fd5b806002015442106113d6576040517f08c379a00000000000000000000000000000000000000000000000000000000081526004016113cd9061255f565b60405180910390fd5b8060050160003373ffffffffffffffffffffffffffffffffffffffff1673ffffffffffffffffffffffffffffffffffffffff16815260200190815260200160002060009054906101000a900460ff1615611465576040517f08c379a000000000000000000000000000000000000000000000000000000000815260040161145c906125cb565b60405180910390fd5b60018160050160003373ffffffffffffffffffffffffffffffffffffffff1673ffffffffffffffffffffffffffffffffffffffff16815260200190815260200160002060006101000a81548160ff021916908315150217905550600460003373ffffffffffffffffffffffffffffffffffffffff1673ffffffffffffffffffffffffffffffffffffffff1681526020019081526020016000208290806001815401808255809150506001900390600052602060002001600090919091909150553373ffffffffffffffffffffffffffffffffffffffff16827f2796cdd476632fa2516bccbeb4e27b8416b98c227dec8db5247870143ee384ca60405160405180910390a3506115726115c4565b50565b6002600054036115ba576040517f08c379a00000000000000000000000000000000000000000000000000000000081526004016115b190612637565b60405180910390fd5b6002600081905550565b6001600081905550565b6000604051905090565b600080fd5b600080fd5b6000819050919050565b6115f5816115e2565b811461160057600080fd5b50565b600081359050611612816115ec565b92915050565b60006020828403121561162e5761162d6115d8565b5b600061163c84828501611603565b91505092915050565b600073ffffffffffffffffffffffffffffffffffffffff82169050919050565b600061167082611645565b9050919050565b61168081611665565b82525050565b600081519050919050565b600082825260208201905092915050565b60005b838110156116c05780820151818401526020810190506116a5565b60008484015250505050565b6000601f19601f8301169050919050565b60006116e882611686565b6116f28185611691565b93506117028185602086016116a2565b61170b816116cc565b840191505092915050565b6000819050919050565b61172981611716565b82525050565b60008115159050919050565b6117448161172f565b82525050565b600060a08201905061175f6000830188611677565b818103602083015261177181876116dd565b90506117806040830186611720565b61178d6060830185611720565b61179a608083018461173b565b9695505050505050565b600080fd5b600080fd5b7f4e487b7100000000000000000000000000000000000000000000000000000000600052604160045260246000fd5b6117e6826116cc565b810181811067ffffffffffffffff82111715611805576118046117ae565b5b80604052505050565b60006118186115ce565b905061182482826117dd565b919050565b600067ffffffffffffffff821115611844576118436117ae565b5b61184d826116cc565b9050602081019050919050565b82818337600083830152505050565b600061187c61187784611829565b61180e565b905082815260208101848484011115611898576118976117a9565b5b6118a384828561185a565b509392505050565b600082601f8301126118c0576118bf6117a4565b5b81356118d0848260208601611869565b91505092915050565b6118e281611716565b81146118ed57600080fd5b50565b6000813590506118ff816118d9565b92915050565b60008060006060848603121561191e5761191d6115d8565b5b600084013567ffffffffffffffff81111561193c5761193b6115dd565b5b611948868287016118ab565b9350506020611959868287016118f0565b925050604061196a868287016118f0565b9150509250925092565b61197d816115e2565b82525050565b60006020820190506119986000830184611974565b92915050565b600080604083850312156119b5576119b46115d8565b5b60006119c385828601611603565b925050602083013567ffffffffffffffff8111156119e4576119e36115dd565b5b6119f0858286016118ab565b9150509250929050565b611a0381611665565b8114611a0e57600080fd5b50565b600081359050611a20816119fa565b92915050565b60008060408385031215611a3d57611a3c6115d8565b5b6000611a4b85828601611a11565b9250506020611a5c858286016118f0565b9150509250929050565b6000819050919050565b6000611a8b611a86611a8184611645565b611a66565b611645565b9050919050565b6000611a9d82611a70565b9050919050565b6000611aaf82611a92565b9050919050565b611abf81611aa4565b82525050565b6000602082019050611ada6000830184611ab6565b92915050565b60008060408385031215611af757611af66115d8565b5b6000611b0585828601611603565b9250506020611b1685828601611a11565b9150509250929050565b6000604082019050611b356000830185611720565b611b42602083018461173b565b9392505050565b600080600060608486031215611b6257611b616115d8565b5b6000611b7086828701611603565b9350506020611b8186828701611a11565b9250506040611b92868287016118f0565b9150509250925092565b7f4e487b7100000000000000000000000000000000000000000000000000000000600052602260045260246000fd5b60006002820490506001821680611be357607f821691505b602082108103611bf657611bf5611b9c565b5b50919050565b7f4e487b7100000000000000000000000000000000000000000000000000000000600052602160045260246000fd5b6000602082019050611c406000830184611677565b92915050565b60058110611c5357600080fd5b50565b600081519050611c6581611c46565b92915050565b600060208284031215611c8157611c806115d8565b5b6000611c8f84828501611c56565b91505092915050565b611ca18161172f565b8114611cac57600080fd5b50565b600081519050611cbe81611c98565b92915050565b600060208284031215611cda57611cd96115d8565b5b6000611ce884828501611caf565b91505092915050565b7f4e6f74206120766572696669656420696e737469747574696f6e000000000000600082015250565b6000611d27601a83611691565b9150611d3282611cf1565b602082019050919050565b60006020820190508181036000830152611d5681611d1a565b9050919050565b7f496e76616c69642073746172742074696d650000000000000000000000000000600082015250565b6000611d93601283611691565b9150611d9e82611d5d565b602082019050919050565b60006020820190508181036000830152611dc281611d86565b9050919050565b7f496e76616c696420656e642074696d6500000000000000000000000000000000600082015250565b6000611dff601083611691565b9150611e0a82611dc9565b602082019050919050565b60006020820190508181036000830152611e2e81611df2565b9050919050565b60008160601b9050919050565b6000611e4d82611e35565b9050919050565b6000611e5f82611e42565b9050919050565b611e77611e7282611665565b611e54565b82525050565b600081905092915050565b6000611e9382611686565b611e9d8185611e7d565b9350611ead8185602086016116a2565b80840191505092915050565b6000819050919050565b611ed4611ecf82611716565b611eb9565b82525050565b6000611ee68287611e66565b601482019150611ef68286611e88565b9150611f028285611ec3565b602082019150611f128284611ec3565b60208201915081905095945050505050565b60008190508160005260206000209050919050565b60006020601f8301049050919050565b600082821b905092915050565b600060088302611f867fffffffffffffffffffffffffffffffffffffffffffffffffffffffffffffffff82611f49565b611f908683611f49565b95508019841693508086168417925050509392505050565b6000611fc3611fbe611fb984611716565b611a66565b611716565b9050919050565b6000819050919050565b611fdd83611fa8565b611ff1611fe982611fca565b848454611f56565b825550505050565b600090565b612006611ff9565b612011818484611fd4565b505050565b5b818110156120355761202a600082611ffe565b600181019050612017565b5050565b601f82111561207a5761204b81611f24565b61205484611f39565b81016020851015612063578190505b61207761206f85611f39565b830182612016565b50505b505050565b600082821c905092915050565b600061209d6000198460080261207f565b1980831691505092915050565b60006120b6838361208c565b9150826002028217905092915050565b6120cf82611686565b67ffffffffffffffff8111156120e8576120e76117ae565b5b6120f28254611bcb565b6120fd828285612039565b600060209050601f831160018114612130576000841561211e578287015190505b61212885826120aa565b865550612190565b601f19841661213e86611f24565b60005b8281101561216657848901518255600182019150602085019450602081019050612141565b86831015612183578489015161217f601f89168261208c565b8355505b6001600288020188555050505b505050505050565b7f4e6f7420612076657269666965642073747564656e7400000000000000000000600082015250565b60006121ce601683611691565b91506121d982612198565b602082019050919050565b600060208201905081810360008301526121fd816121c1565b9050919050565b7f4578616d696e6174696f6e206e6f742061637469766500000000000000000000600082015250565b600061223a601683611691565b915061224582612204565b602082019050919050565b600060208201905081810360008301526122698161222d565b9050919050565b7f4e6f74207265676973746572656420666f72206578616d000000000000000000600082015250565b60006122a6601783611691565b91506122b182612270565b602082019050919050565b600060208201905081810360008301526122d581612299565b9050919050565b7f4e6f742077697468696e206578616d696e6174696f6e20706572696f64000000600082015250565b6000612312601d83611691565b915061231d826122dc565b602082019050919050565b6000602082019050818103600083015261234181612305565b9050919050565b7f4e6f74206578616d696e6174696f6e2063726561746f72000000000000000000600082015250565b600061237e601783611691565b915061238982612348565b602082019050919050565b600060208201905081810360008301526123ad81612371565b9050919050565b7f53747564656e74206e6f74207265676973746572656400000000000000000000600082015250565b60006123ea601683611691565b91506123f5826123b4565b602082019050919050565b60006020820190508181036000830152612419816123dd565b9050919050565b7f416c726561647920677261646564000000000000000000000000000000000000600082015250565b6000612456600e83611691565b915061246182612420565b602082019050919050565b6000602082019050818103600083015261248581612449565b9050919050565b7f496e76616c696420677261646500000000000000000000000000000000000000600082015250565b60006124c2600d83611691565b91506124cd8261248c565b602082019050919050565b600060208201905081810360008301526124f1816124b5565b9050919050565b600060208201905061250d6000830184611720565b92915050565b7f526567697374726174696f6e20706572696f6420656e64656400000000000000600082015250565b6000612549601983611691565b915061255482612513565b602082019050919050565b600060208201905081810360008301526125788161253c565b9050919050565b7f416c726561647920726567697374657265640000000000000000000000000000600082015250565b60006125b5601283611691565b91506125c08261257f565b602082019050919050565b600060208201905081810360008301526125e4816125a8565b9050919050565b7f5265656e7472616e637947756172643a207265656e7472616e742063616c6c00600082015250565b6000612621601f83611691565b915061262c826125eb565b602082019050919050565b6000602082019050818103600083015261265081612614565b905091905056fea2646970667358221220e6ec6e91b8b050efa10b8b00424a5a5c4e7c2573408ff9bc97c1b544f85df32d64736f6c63430008130033",
  "immutableReferences": {},
  "source": "// SPDX-License-Identifier: MIT\r\npragma solidity ^0.8.19;\r\n\r\nimport \"@openzeppelin/contracts/security/ReentrancyGuard.sol\";\r\nimport \"./Identity.sol\";\r\n\r\ncontract Examinations is ReentrancyGuard {\r\n    Identity public identityContract;\r\n    \r\n    struct Examination {\r\n        address institution;\r\n        string ipfsHash;  // Contains exam details and questions\r\n        uint256 startTime;\r\n        uint256 endTime;\r\n        bool isActive;\r\n        mapping(address => bool) registeredStudents;\r\n        mapping(address => string) studentAnswers;  // IPFS hash of student answers\r\n        mapping(address => uint256) grades;\r\n        mapping(address => bool) graded;\r\n    }\r\n    \r\n    mapping(bytes32 => Examination) public examinations;\r\n    mapping(address => bytes32[]) public institutionExams;\r\n    mapping(address => bytes32[]) public studentExams;\r\n    \r\n    event ExaminationCreated(bytes32 indexed examId, address indexed institution);\r\n    event StudentRegistered(bytes32 indexed examId, address indexed student);\r\n    event AnswersSubmitted(bytes32 indexed examId, address indexed student);\r\n    event GradeAssigned(bytes32 indexed examId, address indexed student, uint256 grade);\r\n    \r\n    constructor(address _identityContract) {\r\n        identityContract = Identity(_identityContract);\r\n    }\r\n    \r\n    modifier onlyVerifiedInstitution() {\r\n        require(\r\n            identityContract.getUserRole(msg.sender) == Identity.UserRole.INSTITUTION &&\r\n            identityContract.isVerifiedUser(msg.sender),\r\n            \"Not a verified institution\"\r\n        );\r\n        _;\r\n    }\r\n    \r\n    modifier onlyVerifiedStudent() {\r\n        require(\r\n            identityContract.getUserRole(msg.sender) == Identity.UserRole.STUDENT &&\r\n            identityContract.isVerifiedUser(msg.sender),\r\n            \"Not a verified student\"\r\n        );\r\n        _;\r\n    }\r\n    \r\n    function createExamination(\r\n        string memory _ipfsHash,\r\n        uint256 _startTime,\r\n        uint256 _endTime\r\n    ) external onlyVerifiedInstitution nonReentrant returns (bytes32) {\r\n        require(_startTime > block.timestamp, \"Invalid start time\");\r\n        require(_endTime > _startTime, \"Invalid end time\");\r\n        \r\n        bytes32 examId = keccak256(\r\n            abi.encodePacked(msg.sender, _ipfsHash, _startTime, _endTime)\r\n        );\r\n        \r\n        Examination storage exam = examinations[examId];\r\n        exam.institution = msg.sender;\r\n        exam.ipfsHash = _ipfsHash;\r\n        exam.startTime = _startTime;\r\n        exam.endTime = _endTime;\r\n        exam.isActive = true;\r\n        \r\n        institutionExams[msg.sender].push(examId);\r\n        \r\n        emit ExaminationCreated(examId, msg.sender);\r\n        \r\n        return examId;\r\n    }\r\n    \r\n    function registerForExam(bytes32 _examId) external onlyVerifiedStudent nonReentrant {\r\n        Examination storage exam = examinations[_examId];\r\n        require(exam.isActive, \"Examination not active\");\r\n        require(block.timestamp < exam.startTime, \"Registration period ended\");\r\n        require(!exam.registeredStudents[msg.sender], \"Already registered\");\r\n        \r\n        exam.registeredStudents[msg.sender] = true;\r\n        studentExams[msg.sender].push(_examId);\r\n        \r\n        emit StudentRegistered(_examId, msg.sender);\r\n    }\r\n    \r\n    function submitAnswers(\r\n        bytes32 _examId,\r\n        string memory _answersIpfsHash\r\n    ) external onlyVerifiedStudent nonReentrant {\r\n        Examination storage exam = examinations[_examId];\r\n        require(exam.isActive, \"Examination not active\");\r\n        require(exam.registeredStudents[msg.sender], \"Not registered for exam\");\r\n        require(\r\n            block.timestamp >= exam.startTime && block.timestamp <= exam.endTime,\r\n            \"Not within examination period\"\r\n        );\r\n        \r\n        exam.studentAnswers[msg.sender] = _answersIpfsHash;\r\n        \r\n        emit AnswersSubmitted(_examId, msg.sender);\r\n    }\r\n    \r\n    function assignGrade(\r\n        bytes32 _examId,\r\n        address _student,\r\n        uint256 _grade\r\n    ) external onlyVerifiedInstitution nonReentrant {\r\n        Examination storage exam = examinations[_examId];\r\n        require(exam.institution == msg.sender, \"Not examination creator\");\r\n        require(exam.registeredStudents[_student], \"Student not registered\");\r\n        require(!exam.graded[_student], \"Already graded\");\r\n        require(_grade <= 100, \"Invalid grade\");\r\n        \r\n        exam.grades[_student] = _grade;\r\n        exam.graded[_student] = true;\r\n        \r\n        emit GradeAssigned(_examId, _student, _grade);\r\n    }\r\n    \r\n    function getExamDetails(bytes32 _examId) external view returns (\r\n        address institution,\r\n        string memory ipfsHash,\r\n        uint256 startTime,\r\n        uint256 endTime,\r\n        bool isActive\r\n    ) {\r\n        Examination storage exam = examinations[_examId];\r\n        return (\r\n            exam.institution,\r\n            exam.ipfsHash,\r\n            exam.startTime,\r\n            exam.endTime,\r\n            exam.isActive\r\n        );\r\n    }\r\n    \r\n    function getStudentGrade(bytes32 _examId, address _student) external view returns (\r\n        uint256 grade,\r\n        bool isGraded\r\n    ) {\r\n        Examination storage exam = examinations[_examId];\r\n        return (exam.grades[_student], exam.graded[_student]);\r\n    }\r\n} ",
  "sourcePath": "C:\\Users\\osama\\OneDrive\\Desktop\\Graduation\\contracts\\Examinations.sol",
  "compiler": {
    "name": "solc",
    "version": "0.8.19+commit.7dd6d404.Emscripten.clang"
  },
  "schemaVersion": "3.4.16",
  "updatedAt": "2025-04-30T03:42:48.412Z",
  "networkType": "ethereum",
  "devdoc": {
    "kind": "dev",
    "methods": {},
    "version": 1
  },
  "userdoc": {
    "kind": "user",
    "methods": {},
    "version": 1
  }
}