{
  "contractName": "ExamManagement",
  "abi": [
    {
      "anonymous": false,
      "inputs": [
        {
          "indexed": true,
          "internalType": "bytes32",
          "name": "certificateId",
          "type": "bytes32"
        },
        {
          "indexed": true,
          "internalType": "address",
          "name": "student",
          "type": "address"
        }
      ],
      "name": "CertificateIssued",
      "type": "event"
    },
    {
      "anonymous": false,
      "inputs": [
        {
          "indexed": true,
          "internalType": "bytes32",
          "name": "examId",
          "type": "bytes32"
        },
        {
          "indexed": false,
          "internalType": "string",
          "name": "title",
          "type": "string"
        }
      ],
      "name": "ExamCreated",
      "type": "event"
    },
    {
      "anonymous": false,
      "inputs": [
        {
          "indexed": true,
          "internalType": "bytes32",
          "name": "examId",
          "type": "bytes32"
        },
        {
          "indexed": false,
          "internalType": "string",
          "name": "status",
          "type": "string"
        }
      ],
      "name": "ExamStatusUpdated",
      "type": "event"
    },
    {
      "anonymous": false,
      "inputs": [
        {
          "indexed": true,
          "internalType": "address",
          "name": "institution",
          "type": "address"
        },
        {
          "indexed": false,
          "internalType": "string",
          "name": "name",
          "type": "string"
        }
      ],
      "name": "InstitutionProfileUpdated",
      "type": "event"
    },
    {
      "anonymous": false,
      "inputs": [
        {
          "indexed": true,
          "internalType": "address",
          "name": "institution",
          "type": "address"
        },
        {
          "indexed": false,
          "internalType": "string",
          "name": "name",
          "type": "string"
        }
      ],
      "name": "InstitutionRegistered",
      "type": "event"
    },
    {
      "anonymous": false,
      "inputs": [
        {
          "indexed": true,
          "internalType": "address",
          "name": "institution",
          "type": "address"
        }
      ],
      "name": "InstitutionVerified",
      "type": "event"
    },
    {
      "anonymous": false,
      "inputs": [
        {
          "indexed": true,
          "internalType": "address",
          "name": "previousOwner",
          "type": "address"
        },
        {
          "indexed": true,
          "internalType": "address",
          "name": "newOwner",
          "type": "address"
        }
      ],
      "name": "OwnershipTransferred",
      "type": "event"
    },
    {
      "anonymous": false,
      "inputs": [
        {
          "indexed": false,
          "internalType": "address",
          "name": "account",
          "type": "address"
        }
      ],
      "name": "Paused",
      "type": "event"
    },
    {
      "anonymous": false,
      "inputs": [
        {
          "indexed": true,
          "internalType": "bytes32",
          "name": "examId",
          "type": "bytes32"
        },
        {
          "indexed": true,
          "internalType": "address",
          "name": "student",
          "type": "address"
        }
      ],
      "name": "ResultSubmitted",
      "type": "event"
    },
    {
      "anonymous": false,
      "inputs": [
        {
          "indexed": true,
          "internalType": "address",
          "name": "institution",
          "type": "address"
        },
        {
          "indexed": true,
          "internalType": "address",
          "name": "student",
          "type": "address"
        }
      ],
      "name": "StudentAdded",
      "type": "event"
    },
    {
      "anonymous": false,
      "inputs": [
        {
          "indexed": true,
          "internalType": "address",
          "name": "student",
          "type": "address"
        },
        {
          "indexed": false,
          "internalType": "string",
          "name": "status",
          "type": "string"
        }
      ],
      "name": "StudentStatusUpdated",
      "type": "event"
    },
    {
      "anonymous": false,
      "inputs": [
        {
          "indexed": true,
          "internalType": "bytes32",
          "name": "examId",
          "type": "bytes32"
        },
        {
          "indexed": false,
          "internalType": "address[]",
          "name": "students",
          "type": "address[]"
        }
      ],
      "name": "StudentsRegistered",
      "type": "event"
    },
    {
      "anonymous": false,
      "inputs": [
        {
          "indexed": false,
          "internalType": "address",
          "name": "account",
          "type": "address"
        }
      ],
      "name": "Unpaused",
      "type": "event"
    },
    {
      "inputs": [
        {
          "internalType": "bytes32",
          "name": "",
          "type": "bytes32"
        }
      ],
      "name": "certificates",
      "outputs": [
        {
          "internalType": "address",
          "name": "student",
          "type": "address"
        },
        {
          "internalType": "address",
          "name": "issuer",
          "type": "address"
        },
        {
          "internalType": "string",
          "name": "ipfsHash",
          "type": "string"
        },
        {
          "internalType": "uint256",
          "name": "issuedAt",
          "type": "uint256"
        },
        {
          "internalType": "bool",
          "name": "exists",
          "type": "bool"
        }
      ],
      "stateMutability": "view",
      "type": "function",
      "constant": true
    },
    {
      "inputs": [
        {
          "internalType": "bytes32",
          "name": "",
          "type": "bytes32"
        },
        {
          "internalType": "address",
          "name": "",
          "type": "address"
        }
      ],
      "name": "examResults",
      "outputs": [
        {
          "internalType": "uint256",
          "name": "score",
          "type": "uint256"
        },
        {
          "internalType": "string",
          "name": "grade",
          "type": "string"
        },
        {
          "internalType": "string",
          "name": "notes",
          "type": "string"
        },
        {
          "internalType": "bool",
          "name": "exists",
          "type": "bool"
        }
      ],
      "stateMutability": "view",
      "type": "function",
      "constant": true
    },
    {
      "inputs": [
        {
          "internalType": "bytes32",
          "name": "",
          "type": "bytes32"
        }
      ],
      "name": "exams",
      "outputs": [
        {
          "internalType": "string",
          "name": "title",
          "type": "string"
        },
        {
          "internalType": "string",
          "name": "description",
          "type": "string"
        },
        {
          "internalType": "uint256",
          "name": "date",
          "type": "uint256"
        },
        {
          "internalType": "uint256",
          "name": "duration",
          "type": "uint256"
        },
        {
          "internalType": "string",
          "name": "status",
          "type": "string"
        },
        {
          "internalType": "string",
          "name": "ipfsHash",
          "type": "string"
        },
        {
          "internalType": "bool",
          "name": "exists",
          "type": "bool"
        }
      ],
      "stateMutability": "view",
      "type": "function",
      "constant": true
    },
    {
      "inputs": [
        {
          "internalType": "address",
          "name": "",
          "type": "address"
        },
        {
          "internalType": "uint256",
          "name": "",
          "type": "uint256"
        }
      ],
      "name": "institutionExams",
      "outputs": [
        {
          "internalType": "bytes32",
          "name": "",
          "type": "bytes32"
        }
      ],
      "stateMutability": "view",
      "type": "function",
      "constant": true
    },
    {
      "inputs": [
        {
          "internalType": "address",
          "name": "",
          "type": "address"
        },
        {
          "internalType": "address",
          "name": "",
          "type": "address"
        }
      ],
      "name": "institutionStudents",
      "outputs": [
        {
          "internalType": "bool",
          "name": "",
          "type": "bool"
        }
      ],
      "stateMutability": "view",
      "type": "function",
      "constant": true
    },
    {
      "inputs": [
        {
          "internalType": "address",
          "name": "",
          "type": "address"
        }
      ],
      "name": "institutions",
      "outputs": [
        {
          "internalType": "string",
          "name": "name",
          "type": "string"
        },
        {
          "internalType": "string",
          "name": "description",
          "type": "string"
        },
        {
          "internalType": "string",
          "name": "physicalAddress",
          "type": "string"
        },
        {
          "internalType": "string",
          "name": "email",
          "type": "string"
        },
        {
          "internalType": "string",
          "name": "phone",
          "type": "string"
        },
        {
          "internalType": "string",
          "name": "website",
          "type": "string"
        },
        {
          "internalType": "string",
          "name": "logo",
          "type": "string"
        },
        {
          "internalType": "string",
          "name": "ministry",
          "type": "string"
        },
        {
          "internalType": "string",
          "name": "university",
          "type": "string"
        },
        {
          "internalType": "string",
          "name": "college",
          "type": "string"
        },
        {
          "internalType": "bool",
          "name": "isVerified",
          "type": "bool"
        },
        {
          "internalType": "bool",
          "name": "exists",
          "type": "bool"
        }
      ],
      "stateMutability": "view",
      "type": "function",
      "constant": true
    },
    {
      "inputs": [],
      "name": "owner",
      "outputs": [
        {
          "internalType": "address",
          "name": "",
          "type": "address"
        }
      ],
      "stateMutability": "view",
      "type": "function",
      "constant": true
    },
    {
      "inputs": [],
      "name": "paused",
      "outputs": [
        {
          "internalType": "bool",
          "name": "",
          "type": "bool"
        }
      ],
      "stateMutability": "view",
      "type": "function",
      "constant": true
    },
    {
      "inputs": [],
      "name": "renounceOwnership",
      "outputs": [],
      "stateMutability": "nonpayable",
      "type": "function"
    },
    {
      "inputs": [
        {
          "internalType": "address",
          "name": "",
          "type": "address"
        }
      ],
      "name": "students",
      "outputs": [
        {
          "internalType": "string",
          "name": "name",
          "type": "string"
        },
        {
          "internalType": "string",
          "name": "email",
          "type": "string"
        },
        {
          "internalType": "uint256",
          "name": "enrollmentDate",
          "type": "uint256"
        },
        {
          "internalType": "string",
          "name": "status",
          "type": "string"
        },
        {
          "internalType": "bool",
          "name": "exists",
          "type": "bool"
        }
      ],
      "stateMutability": "view",
      "type": "function",
      "constant": true
    },
    {
      "inputs": [
        {
          "internalType": "address",
          "name": "newOwner",
          "type": "address"
        }
      ],
      "name": "transferOwnership",
      "outputs": [],
      "stateMutability": "nonpayable",
      "type": "function"
    },
    {
      "inputs": [
        {
          "internalType": "string",
          "name": "name",
          "type": "string"
        },
        {
          "internalType": "string",
          "name": "description",
          "type": "string"
        },
        {
          "internalType": "string",
          "name": "physicalAddress",
          "type": "string"
        },
        {
          "internalType": "string",
          "name": "email",
          "type": "string"
        },
        {
          "internalType": "string",
          "name": "phone",
          "type": "string"
        },
        {
          "internalType": "string",
          "name": "website",
          "type": "string"
        },
        {
          "internalType": "string",
          "name": "logo",
          "type": "string"
        },
        {
          "internalType": "string",
          "name": "ministry",
          "type": "string"
        },
        {
          "internalType": "string",
          "name": "university",
          "type": "string"
        },
        {
          "internalType": "string",
          "name": "college",
          "type": "string"
        }
      ],
      "name": "registerInstitution",
      "outputs": [],
      "stateMutability": "nonpayable",
      "type": "function"
    },
    {
      "inputs": [
        {
          "internalType": "address",
          "name": "institution",
          "type": "address"
        }
      ],
      "name": "verifyInstitution",
      "outputs": [],
      "stateMutability": "nonpayable",
      "type": "function"
    },
    {
      "inputs": [
        {
          "internalType": "string",
          "name": "name",
          "type": "string"
        },
        {
          "internalType": "string",
          "name": "ministry",
          "type": "string"
        },
        {
          "internalType": "string",
          "name": "university",
          "type": "string"
        },
        {
          "internalType": "string",
          "name": "college",
          "type": "string"
        },
        {
          "internalType": "string",
          "name": "description",
          "type": "string"
        },
        {
          "internalType": "string",
          "name": "logo",
          "type": "string"
        },
        {
          "internalType": "string",
          "name": "website",
          "type": "string"
        },
        {
          "internalType": "string",
          "name": "email",
          "type": "string"
        },
        {
          "internalType": "string",
          "name": "phone",
          "type": "string"
        }
      ],
      "name": "updateInstitutionProfile",
      "outputs": [],
      "stateMutability": "nonpayable",
      "type": "function"
    },
    {
      "inputs": [
        {
          "internalType": "address",
          "name": "studentAddress",
          "type": "address"
        },
        {
          "internalType": "string",
          "name": "name",
          "type": "string"
        },
        {
          "internalType": "string",
          "name": "email",
          "type": "string"
        }
      ],
      "name": "addStudent",
      "outputs": [],
      "stateMutability": "nonpayable",
      "type": "function"
    },
    {
      "inputs": [
        {
          "internalType": "address",
          "name": "studentAddress",
          "type": "address"
        },
        {
          "internalType": "string",
          "name": "newStatus",
          "type": "string"
        }
      ],
      "name": "updateStudentStatus",
      "outputs": [],
      "stateMutability": "nonpayable",
      "type": "function"
    },
    {
      "inputs": [
        {
          "internalType": "string",
          "name": "title",
          "type": "string"
        },
        {
          "internalType": "string",
          "name": "description",
          "type": "string"
        },
        {
          "internalType": "uint256",
          "name": "date",
          "type": "uint256"
        },
        {
          "internalType": "uint256",
          "name": "duration",
          "type": "uint256"
        },
        {
          "internalType": "string",
          "name": "ipfsHash",
          "type": "string"
        }
      ],
      "name": "createExam",
      "outputs": [
        {
          "internalType": "bytes32",
          "name": "",
          "type": "bytes32"
        }
      ],
      "stateMutability": "nonpayable",
      "type": "function"
    },
    {
      "inputs": [
        {
          "internalType": "bytes32",
          "name": "examId",
          "type": "bytes32"
        },
        {
          "internalType": "string",
          "name": "newStatus",
          "type": "string"
        }
      ],
      "name": "updateExamStatus",
      "outputs": [],
      "stateMutability": "nonpayable",
      "type": "function"
    },
    {
      "inputs": [
        {
          "internalType": "bytes32",
          "name": "examId",
          "type": "bytes32"
        },
        {
          "internalType": "address[]",
          "name": "studentAddresses",
          "type": "address[]"
        }
      ],
      "name": "registerStudentsForExam",
      "outputs": [],
      "stateMutability": "nonpayable",
      "type": "function"
    },
    {
      "inputs": [
        {
          "internalType": "bytes32",
          "name": "examId",
          "type": "bytes32"
        },
        {
          "internalType": "address",
          "name": "student",
          "type": "address"
        },
        {
          "internalType": "uint256",
          "name": "score",
          "type": "uint256"
        },
        {
          "internalType": "string",
          "name": "grade",
          "type": "string"
        },
        {
          "internalType": "string",
          "name": "notes",
          "type": "string"
        }
      ],
      "name": "submitResult",
      "outputs": [],
      "stateMutability": "nonpayable",
      "type": "function"
    },
    {
      "inputs": [
        {
          "internalType": "address",
          "name": "student",
          "type": "address"
        },
        {
          "internalType": "string",
          "name": "ipfsHash",
          "type": "string"
        }
      ],
      "name": "issueCertificate",
      "outputs": [],
      "stateMutability": "nonpayable",
      "type": "function"
    },
    {
      "inputs": [
        {
          "internalType": "address",
          "name": "institution",
          "type": "address"
        }
      ],
      "name": "getInstitution",
      "outputs": [
        {
          "internalType": "string",
          "name": "name",
          "type": "string"
        },
        {
          "internalType": "string",
          "name": "description",
          "type": "string"
        },
        {
          "internalType": "string",
          "name": "physicalAddress",
          "type": "string"
        },
        {
          "internalType": "string",
          "name": "email",
          "type": "string"
        },
        {
          "internalType": "string",
          "name": "phone",
          "type": "string"
        },
        {
          "internalType": "string",
          "name": "website",
          "type": "string"
        },
        {
          "internalType": "string",
          "name": "logo",
          "type": "string"
        },
        {
          "internalType": "string",
          "name": "ministry",
          "type": "string"
        },
        {
          "internalType": "string",
          "name": "university",
          "type": "string"
        },
        {
          "internalType": "string",
          "name": "college",
          "type": "string"
        },
        {
          "internalType": "bool",
          "name": "isVerified",
          "type": "bool"
        }
      ],
      "stateMutability": "view",
      "type": "function",
      "constant": true
    },
    {
      "inputs": [
        {
          "internalType": "address",
          "name": "student",
          "type": "address"
        }
      ],
      "name": "getStudent",
      "outputs": [
        {
          "internalType": "string",
          "name": "name",
          "type": "string"
        },
        {
          "internalType": "string",
          "name": "email",
          "type": "string"
        },
        {
          "internalType": "uint256",
          "name": "enrollmentDate",
          "type": "uint256"
        },
        {
          "internalType": "string",
          "name": "status",
          "type": "string"
        }
      ],
      "stateMutability": "view",
      "type": "function",
      "constant": true
    },
    {
      "inputs": [
        {
          "internalType": "bytes32",
          "name": "examId",
          "type": "bytes32"
        },
        {
          "internalType": "address",
          "name": "student",
          "type": "address"
        }
      ],
      "name": "getExamResult",
      "outputs": [
        {
          "internalType": "uint256",
          "name": "score",
          "type": "uint256"
        },
        {
          "internalType": "string",
          "name": "grade",
          "type": "string"
        },
        {
          "internalType": "string",
          "name": "notes",
          "type": "string"
        }
      ],
      "stateMutability": "view",
      "type": "function",
      "constant": true
    },
    {
      "inputs": [
        {
          "internalType": "bytes32",
          "name": "examId",
          "type": "bytes32"
        }
      ],
      "name": "getExamStatistics",
      "outputs": [
        {
          "internalType": "uint256",
          "name": "totalStudents",
          "type": "uint256"
        },
        {
          "internalType": "uint256",
          "name": "passRate",
          "type": "uint256"
        },
        {
          "internalType": "uint256",
          "name": "averageScore",
          "type": "uint256"
        }
      ],
      "stateMutability": "view",
      "type": "function",
      "constant": true
    },
    {
      "inputs": [
        {
          "internalType": "address",
          "name": "institution",
          "type": "address"
        }
      ],
      "name": "getInstitutionExamList",
      "outputs": [
        {
          "internalType": "bytes32[]",
          "name": "",
          "type": "bytes32[]"
        }
      ],
      "stateMutability": "view",
      "type": "function",
      "constant": true
    }
  ],
  "bytecode": "0x60806040523480156200001157600080fd5b5062000032620000266200005260201b60201c565b6200005a60201b60201c565b60008060146101000a81548160ff0219169083151502179055506200011e565b600033905090565b60008060009054906101000a900473ffffffffffffffffffffffffffffffffffffffff169050816000806101000a81548173ffffffffffffffffffffffffffffffffffffffff021916908373ffffffffffffffffffffffffffffffffffffffff1602179055508173ffffffffffffffffffffffffffffffffffffffff168173ffffffffffffffffffffffffffffffffffffffff167f8be0079c531659141344cd1fd0a4f28419497f9722a3daafe3b4186f6b6457e060405160405180910390a35050565b615faf806200012e6000396000f3fe608060405234801561001057600080fd5b506004361061018e5760003560e01c8063a6c807a9116100de578063cb28b17d11610097578063f2fde38b11610071578063f2fde38b146104de578063f87b8b0c146104fa578063fb3548d01461052c578063fec4b0361461055e5761018e565b8063cb28b17d1461045f578063db18302214610492578063dd6aa93c146104ae5761018e565b8063a6c807a914610380578063b2d9767f146103b4578063b532363b146103ef578063b6c11da81461040b578063bb721aab14610427578063c0a9062a146104435761018e565b80636b7b44d71161014b578063715018a611610125578063715018a6146102ee578063742f0688146102f85780638da5cb5b1461032c57806399341a8a1461034a5761018e565b80636b7b44d7146102515780636e6dbb3f1461028457806371199236146102b45761018e565b8063181862a01461019357806321a829c6146101af5780633e168516146101cb5780634b841ff7146101e75780635c975abb146102175780636155cce814610235575b600080fd5b6101ad60048036038101906101a891906144b8565b61058e565b005b6101c960048036038101906101c491906146dc565b61075c565b005b6101e560048036038101906101e09190614767565b610b0b565b005b61020160048036038101906101fc9190614767565b610c42565b60405161020e919061485c565b60405180910390f35b61021f610d68565b60405161022c9190614899565b60405180910390f35b61024f600480360381019061024a91906148b4565b610d7e565b005b61026b60048036038101906102669190614767565b611098565b60405161027b94939291906149a8565b60405180910390f35b61029e60048036038101906102999190614a2e565b6112ec565b6040516102ab9190614a7d565b60405180910390f35b6102ce60048036038101906102c99190614767565b61131d565b6040516102e59b9a99989796959493929190614a98565b60405180910390f35b6102f66119c6565b005b610312600480360381019061030d9190614bb5565b6119da565b604051610323959493929190614bf1565b60405180910390f35b610334611ae5565b6040516103419190614c4b565b60405180910390f35b610364600480360381019061035f9190614bb5565b611b0e565b6040516103779796959493929190614c66565b60405180910390f35b61039a60048036038101906103959190614767565b611d7d565b6040516103ab959493929190614cf1565b60405180910390f35b6103ce60048036038101906103c99190614767565b611f58565b6040516103e69c9b9a99989796959493929190614d59565b60405180910390f35b61040960048036038101906104049190614e59565b612522565b005b61042560048036038101906104209190615050565b6127c6565b005b610441600480360381019061043c91906148b4565b612b2a565b005b61045d60048036038101906104589190615103565b612f67565b005b6104796004803603810190610474919061515f565b61314a565b604051610489949392919061519f565b60405180910390f35b6104ac60048036038101906104a791906152ba565b6132a4565b005b6104c860048036038101906104c39190615316565b613591565b6040516104d59190614899565b60405180910390f35b6104f860048036038101906104f39190614767565b6135c0565b005b610514600480360381019061050f9190614bb5565b613643565b60405161052393929190615356565b60405180910390f35b6105466004803603810190610541919061515f565b613bfa565b6040516105559392919061538d565b60405180910390f35b610578600480360381019061057391906153d2565b613dc4565b6040516105859190614a7d565b60405180910390f35b600160003373ffffffffffffffffffffffffffffffffffffffff1673ffffffffffffffffffffffffffffffffffffffff168152602001908152602001600020600a0160019054906101000a900460ff1661061d576040517f08c379a0000000000000000000000000000000000000000000000000000000008152600401610614906154ed565b60405180910390fd5b6000600160003373ffffffffffffffffffffffffffffffffffffffff1673ffffffffffffffffffffffffffffffffffffffff1681526020019081526020016000209050898160000190816106719190615719565b50888160070190816106839190615719565b50878160080190816106959190615719565b50868160090190816106a79190615719565b50858160010190816106b99190615719565b50848160060190816106cb9190615719565b50838160050190816106dd9190615719565b50828160030190816106ef9190615719565b50818160040190816107019190615719565b503373ffffffffffffffffffffffffffffffffffffffff167f655d9a02ca12cc7569076641886b1626a4dda688c79db17d717c86aad58e60748b60405161074891906157eb565b60405180910390a250505050505050505050565b600160003373ffffffffffffffffffffffffffffffffffffffff1673ffffffffffffffffffffffffffffffffffffffff168152602001908152602001600020600a0160019054906101000a900460ff166107eb576040517f08c379a00000000000000000000000000000000000000000000000000000000081526004016107e2906154ed565b60405180910390fd5b600160003373ffffffffffffffffffffffffffffffffffffffff1673ffffffffffffffffffffffffffffffffffffffff168152602001908152602001600020600a0160009054906101000a900460ff1661087a576040517f08c379a000000000000000000000000000000000000000000000000000000000815260040161087190615859565b60405180910390fd5b600260008473ffffffffffffffffffffffffffffffffffffffff1673ffffffffffffffffffffffffffffffffffffffff16815260200190815260200160002060040160009054906101000a900460ff161561090a576040517f08c379a0000000000000000000000000000000000000000000000000000000008152600401610901906158c5565b60405180910390fd5b6040518060a001604052808381526020018281526020014281526020016040518060400160405280600681526020017f6163746976650000000000000000000000000000000000000000000000000000815250815260200160011515815250600260008573ffffffffffffffffffffffffffffffffffffffff1673ffffffffffffffffffffffffffffffffffffffff16815260200190815260200160002060008201518160000190816109bd9190615719565b5060208201518160010190816109d39190615719565b506040820151816002015560608201518160030190816109f39190615719565b5060808201518160040160006101000a81548160ff0219169083151502179055509050506001600360003373ffffffffffffffffffffffffffffffffffffffff1673ffffffffffffffffffffffffffffffffffffffff16815260200190815260200160002060008573ffffffffffffffffffffffffffffffffffffffff1673ffffffffffffffffffffffffffffffffffffffff16815260200190815260200160002060006101000a81548160ff0219169083151502179055508273ffffffffffffffffffffffffffffffffffffffff163373ffffffffffffffffffffffffffffffffffffffff167fc93a03c6c4e1438e4120d83d473f9028b8bb1947b3d183cafd9519473754e34c60405160405180910390a3505050565b610b13614149565b600160008273ffffffffffffffffffffffffffffffffffffffff1673ffffffffffffffffffffffffffffffffffffffff168152602001908152602001600020600a0160019054906101000a900460ff16610ba2576040517f08c379a0000000000000000000000000000000000000000000000000000000008152600401610b99906154ed565b60405180910390fd5b60018060008373ffffffffffffffffffffffffffffffffffffffff1673ffffffffffffffffffffffffffffffffffffffff168152602001908152602001600020600a0160006101000a81548160ff0219169083151502179055508073ffffffffffffffffffffffffffffffffffffffff167f59eb63526c88dac6c2e738ca3b5d5511d9955629a0f9d61ff80c1abc63d1cfb160405160405180910390a250565b6060600160008373ffffffffffffffffffffffffffffffffffffffff1673ffffffffffffffffffffffffffffffffffffffff168152602001908152602001600020600a0160019054906101000a900460ff16610cd3576040517f08c379a0000000000000000000000000000000000000000000000000000000008152600401610cca906154ed565b60405180910390fd5b600760008373ffffffffffffffffffffffffffffffffffffffff1673ffffffffffffffffffffffffffffffffffffffff168152602001908152602001600020805480602002602001604051908101604052809291908181526020018280548015610d5c57602002820191906000526020600020905b815481526020019060010190808311610d48575b50505050509050919050565b60008060149054906101000a900460ff16905090565b600160003373ffffffffffffffffffffffffffffffffffffffff1673ffffffffffffffffffffffffffffffffffffffff168152602001908152602001600020600a0160019054906101000a900460ff16610e0d576040517f08c379a0000000000000000000000000000000000000000000000000000000008152600401610e04906154ed565b60405180910390fd5b600160003373ffffffffffffffffffffffffffffffffffffffff1673ffffffffffffffffffffffffffffffffffffffff168152602001908152602001600020600a0160009054906101000a900460ff16610e9c576040517f08c379a0000000000000000000000000000000000000000000000000000000008152600401610e9390615859565b60405180910390fd5b81600260008273ffffffffffffffffffffffffffffffffffffffff1673ffffffffffffffffffffffffffffffffffffffff16815260200190815260200160002060040160009054906101000a900460ff16610f2c576040517f08c379a0000000000000000000000000000000000000000000000000000000008152600401610f2390615931565b60405180910390fd5b600360003373ffffffffffffffffffffffffffffffffffffffff1673ffffffffffffffffffffffffffffffffffffffff16815260200190815260200160002060008473ffffffffffffffffffffffffffffffffffffffff1673ffffffffffffffffffffffffffffffffffffffff16815260200190815260200160002060009054906101000a900460ff16610ff5576040517f08c379a0000000000000000000000000000000000000000000000000000000008152600401610fec906159c3565b60405180910390fd5b81600260008573ffffffffffffffffffffffffffffffffffffffff1673ffffffffffffffffffffffffffffffffffffffff16815260200190815260200160002060030190816110449190615719565b508273ffffffffffffffffffffffffffffffffffffffff167f08c864cdb2074c7e172f9f881a919f5b24830abcfd1290e79d656504627177b48360405161108b91906157eb565b60405180910390a2505050565b606080600060606000600260008773ffffffffffffffffffffffffffffffffffffffff1673ffffffffffffffffffffffffffffffffffffffff1681526020019081526020016000206040518060a00160405290816000820180546110fb9061553c565b80601f01602080910402602001604051908101604052809291908181526020018280546111279061553c565b80156111745780601f1061114957610100808354040283529160200191611174565b820191906000526020600020905b81548152906001019060200180831161115757829003601f168201915b5050505050815260200160018201805461118d9061553c565b80601f01602080910402602001604051908101604052809291908181526020018280546111b99061553c565b80156112065780601f106111db57610100808354040283529160200191611206565b820191906000526020600020905b8154815290600101906020018083116111e957829003601f168201915b50505050508152602001600282015481526020016003820180546112299061553c565b80601f01602080910402602001604051908101604052809291908181526020018280546112559061553c565b80156112a25780601f10611277576101008083540402835291602001916112a2565b820191906000526020600020905b81548152906001019060200180831161128557829003601f168201915b505050505081526020016004820160009054906101000a900460ff161515151581525050905080600001518160200151826040015183606001519450945094509450509193509193565b6007602052816000526040600020818154811061130857600080fd5b90600052602060002001600091509150505481565b606080606080606080606080606080600080600160008e73ffffffffffffffffffffffffffffffffffffffff1673ffffffffffffffffffffffffffffffffffffffff1681526020019081526020016000206040518061018001604052908160008201805461138a9061553c565b80601f01602080910402602001604051908101604052809291908181526020018280546113b69061553c565b80156114035780601f106113d857610100808354040283529160200191611403565b820191906000526020600020905b8154815290600101906020018083116113e657829003601f168201915b5050505050815260200160018201805461141c9061553c565b80601f01602080910402602001604051908101604052809291908181526020018280546114489061553c565b80156114955780601f1061146a57610100808354040283529160200191611495565b820191906000526020600020905b81548152906001019060200180831161147857829003601f168201915b505050505081526020016002820180546114ae9061553c565b80601f01602080910402602001604051908101604052809291908181526020018280546114da9061553c565b80156115275780601f106114fc57610100808354040283529160200191611527565b820191906000526020600020905b81548152906001019060200180831161150a57829003601f168201915b505050505081526020016003820180546115409061553c565b80601f016020809104026020016040519081016040528092919081815260200182805461156c9061553c565b80156115b95780601f1061158e576101008083540402835291602001916115b9565b820191906000526020600020905b81548152906001019060200180831161159c57829003601f168201915b505050505081526020016004820180546115d29061553c565b80601f01602080910402602001604051908101604052809291908181526020018280546115fe9061553c565b801561164b5780601f106116205761010080835404028352916020019161164b565b820191906000526020600020905b81548152906001019060200180831161162e57829003601f168201915b505050505081526020016005820180546116649061553c565b80601f01602080910402602001604051908101604052809291908181526020018280546116909061553c565b80156116dd5780601f106116b2576101008083540402835291602001916116dd565b820191906000526020600020905b8154815290600101906020018083116116c057829003601f168201915b505050505081526020016006820180546116f69061553c565b80601f01602080910402602001604051908101604052809291908181526020018280546117229061553c565b801561176f5780601f106117445761010080835404028352916020019161176f565b820191906000526020600020905b81548152906001019060200180831161175257829003601f168201915b505050505081526020016007820180546117889061553c565b80601f01602080910402602001604051908101604052809291908181526020018280546117b49061553c565b80156118015780601f106117d657610100808354040283529160200191611801565b820191906000526020600020905b8154815290600101906020018083116117e457829003601f168201915b5050505050815260200160088201805461181a9061553c565b80601f01602080910402602001604051908101604052809291908181526020018280546118469061553c565b80156118935780601f1061186857610100808354040283529160200191611893565b820191906000526020600020905b81548152906001019060200180831161187657829003601f168201915b505050505081526020016009820180546118ac9061553c565b80601f01602080910402602001604051908101604052809291908181526020018280546118d89061553c565b80156119255780601f106118fa57610100808354040283529160200191611925565b820191906000526020600020905b81548152906001019060200180831161190857829003601f168201915b50505050508152602001600a820160009054906101000a900460ff16151515158152602001600a820160019054906101000a900460ff1615151515815250509050806000015181602001518260400151836060015184608001518560a001518660c001518760e001518861010001518961012001518a61014001519b509b509b509b509b509b509b509b509b509b509b505091939597999b90929496989a50565b6119ce614149565b6119d860006141c7565b565b60066020528060005260406000206000915090508060000160009054906101000a900473ffffffffffffffffffffffffffffffffffffffff16908060010160009054906101000a900473ffffffffffffffffffffffffffffffffffffffff1690806002018054611a499061553c565b80601f0160208091040260200160405190810160405280929190818152602001828054611a759061553c565b8015611ac25780601f10611a9757610100808354040283529160200191611ac2565b820191906000526020600020905b815481529060010190602001808311611aa557829003601f168201915b5050505050908060030154908060040160009054906101000a900460ff16905085565b60008060009054906101000a900473ffffffffffffffffffffffffffffffffffffffff16905090565b6004602052806000526040600020600091509050806000018054611b319061553c565b80601f0160208091040260200160405190810160405280929190818152602001828054611b5d9061553c565b8015611baa5780601f10611b7f57610100808354040283529160200191611baa565b820191906000526020600020905b815481529060010190602001808311611b8d57829003601f168201915b505050505090806001018054611bbf9061553c565b80601f0160208091040260200160405190810160405280929190818152602001828054611beb9061553c565b8015611c385780601f10611c0d57610100808354040283529160200191611c38565b820191906000526020600020905b815481529060010190602001808311611c1b57829003601f168201915b505050505090806002015490806003015490806004018054611c599061553c565b80601f0160208091040260200160405190810160405280929190818152602001828054611c859061553c565b8015611cd25780601f10611ca757610100808354040283529160200191611cd2565b820191906000526020600020905b815481529060010190602001808311611cb557829003601f168201915b505050505090806005018054611ce79061553c565b80601f0160208091040260200160405190810160405280929190818152602001828054611d139061553c565b8015611d605780601f10611d3557610100808354040283529160200191611d60565b820191906000526020600020905b815481529060010190602001808311611d4357829003601f168201915b5050505050908060070160009054906101000a900460ff16905087565b6002602052806000526040600020600091509050806000018054611da09061553c565b80601f0160208091040260200160405190810160405280929190818152602001828054611dcc9061553c565b8015611e195780601f10611dee57610100808354040283529160200191611e19565b820191906000526020600020905b815481529060010190602001808311611dfc57829003601f168201915b505050505090806001018054611e2e9061553c565b80601f0160208091040260200160405190810160405280929190818152602001828054611e5a9061553c565b8015611ea75780601f10611e7c57610100808354040283529160200191611ea7565b820191906000526020600020905b815481529060010190602001808311611e8a57829003601f168201915b505050505090806002015490806003018054611ec29061553c565b80601f0160208091040260200160405190810160405280929190818152602001828054611eee9061553c565b8015611f3b5780601f10611f1057610100808354040283529160200191611f3b565b820191906000526020600020905b815481529060010190602001808311611f1e57829003601f168201915b5050505050908060040160009054906101000a900460ff16905085565b6001602052806000526040600020600091509050806000018054611f7b9061553c565b80601f0160208091040260200160405190810160405280929190818152602001828054611fa79061553c565b8015611ff45780601f10611fc957610100808354040283529160200191611ff4565b820191906000526020600020905b815481529060010190602001808311611fd757829003601f168201915b5050505050908060010180546120099061553c565b80601f01602080910402602001604051908101604052809291908181526020018280546120359061553c565b80156120825780601f1061205757610100808354040283529160200191612082565b820191906000526020600020905b81548152906001019060200180831161206557829003601f168201915b5050505050908060020180546120979061553c565b80601f01602080910402602001604051908101604052809291908181526020018280546120c39061553c565b80156121105780601f106120e557610100808354040283529160200191612110565b820191906000526020600020905b8154815290600101906020018083116120f357829003601f168201915b5050505050908060030180546121259061553c565b80601f01602080910402602001604051908101604052809291908181526020018280546121519061553c565b801561219e5780601f106121735761010080835404028352916020019161219e565b820191906000526020600020905b81548152906001019060200180831161218157829003601f168201915b5050505050908060040180546121b39061553c565b80601f01602080910402602001604051908101604052809291908181526020018280546121df9061553c565b801561222c5780601f106122015761010080835404028352916020019161222c565b820191906000526020600020905b81548152906001019060200180831161220f57829003601f168201915b5050505050908060050180546122419061553c565b80601f016020809104026020016040519081016040528092919081815260200182805461226d9061553c565b80156122ba5780601f1061228f576101008083540402835291602001916122ba565b820191906000526020600020905b81548152906001019060200180831161229d57829003601f168201915b5050505050908060060180546122cf9061553c565b80601f01602080910402602001604051908101604052809291908181526020018280546122fb9061553c565b80156123485780601f1061231d57610100808354040283529160200191612348565b820191906000526020600020905b81548152906001019060200180831161232b57829003601f168201915b50505050509080600701805461235d9061553c565b80601f01602080910402602001604051908101604052809291908181526020018280546123899061553c565b80156123d65780601f106123ab576101008083540402835291602001916123d6565b820191906000526020600020905b8154815290600101906020018083116123b957829003601f168201915b5050505050908060080180546123eb9061553c565b80601f01602080910402602001604051908101604052809291908181526020018280546124179061553c565b80156124645780601f1061243957610100808354040283529160200191612464565b820191906000526020600020905b81548152906001019060200180831161244757829003601f168201915b5050505050908060090180546124799061553c565b80601f01602080910402602001604051908101604052809291908181526020018280546124a59061553c565b80156124f25780601f106124c7576101008083540402835291602001916124f2565b820191906000526020600020905b8154815290600101906020018083116124d557829003601f168201915b50505050509080600a0160009054906101000a900460ff169080600a0160019054906101000a900460ff1690508c565b600160003373ffffffffffffffffffffffffffffffffffffffff1673ffffffffffffffffffffffffffffffffffffffff168152602001908152602001600020600a0160019054906101000a900460ff16156125b2576040517f08c379a00000000000000000000000000000000000000000000000000000000081526004016125a990615a2f565b60405180910390fd5b6040518061018001604052808b81526020018a815260200189815260200188815260200187815260200186815260200185815260200184815260200183815260200182815260200160001515815260200160011515815250600160003373ffffffffffffffffffffffffffffffffffffffff1673ffffffffffffffffffffffffffffffffffffffff168152602001908152602001600020600082015181600001908161265e9190615719565b5060208201518160010190816126749190615719565b50604082015181600201908161268a9190615719565b5060608201518160030190816126a09190615719565b5060808201518160040190816126b69190615719565b5060a08201518160050190816126cc9190615719565b5060c08201518160060190816126e29190615719565b5060e08201518160070190816126f89190615719565b5061010082015181600801908161270f9190615719565b506101208201518160090190816127269190615719565b5061014082015181600a0160006101000a81548160ff02191690831515021790555061016082015181600a0160016101000a81548160ff0219169083151502179055509050503373ffffffffffffffffffffffffffffffffffffffff167f73a52c071d4a02996481449bf1ad04d8f24559a7ec51210c4ec5e43d3baee8818b6040516127b291906157eb565b60405180910390a250505050505050505050565b600160003373ffffffffffffffffffffffffffffffffffffffff1673ffffffffffffffffffffffffffffffffffffffff168152602001908152602001600020600a0160019054906101000a900460ff16612855576040517f08c379a000000000000000000000000000000000000000000000000000000000815260040161284c906154ed565b60405180910390fd5b600160003373ffffffffffffffffffffffffffffffffffffffff1673ffffffffffffffffffffffffffffffffffffffff168152602001908152602001600020600a0160009054906101000a900460ff166128e4576040517f08c379a00000000000000000000000000000000000000000000000000000000081526004016128db90615859565b60405180910390fd5b846004600082815260200190815260200160002060070160009054906101000a900460ff16612948576040517f08c379a000000000000000000000000000000000000000000000000000000000815260040161293f90615a9b565b60405180910390fd5b600360003373ffffffffffffffffffffffffffffffffffffffff1673ffffffffffffffffffffffffffffffffffffffff16815260200190815260200160002060008673ffffffffffffffffffffffffffffffffffffffff1673ffffffffffffffffffffffffffffffffffffffff16815260200190815260200160002060009054906101000a900460ff16612a11576040517f08c379a0000000000000000000000000000000000000000000000000000000008152600401612a08906159c3565b60405180910390fd5b6040518060800160405280858152602001848152602001838152602001600115158152506005600088815260200190815260200160002060008773ffffffffffffffffffffffffffffffffffffffff1673ffffffffffffffffffffffffffffffffffffffff168152602001908152602001600020600082015181600001556020820151816001019081612aa49190615719565b506040820151816002019081612aba9190615719565b5060608201518160030160006101000a81548160ff0219169083151502179055509050508473ffffffffffffffffffffffffffffffffffffffff16867ff97d37817a3016d675a5cf7d2f08c621bf2ace42e26029a856fefb5b538ef2f860405160405180910390a3505050505050565b600160003373ffffffffffffffffffffffffffffffffffffffff1673ffffffffffffffffffffffffffffffffffffffff168152602001908152602001600020600a0160019054906101000a900460ff16612bb9576040517f08c379a0000000000000000000000000000000000000000000000000000000008152600401612bb0906154ed565b60405180910390fd5b600160003373ffffffffffffffffffffffffffffffffffffffff1673ffffffffffffffffffffffffffffffffffffffff168152602001908152602001600020600a0160009054906101000a900460ff16612c48576040517f08c379a0000000000000000000000000000000000000000000000000000000008152600401612c3f90615859565b60405180910390fd5b81600260008273ffffffffffffffffffffffffffffffffffffffff1673ffffffffffffffffffffffffffffffffffffffff16815260200190815260200160002060040160009054906101000a900460ff16612cd8576040517f08c379a0000000000000000000000000000000000000000000000000000000008152600401612ccf90615931565b60405180910390fd5b600360003373ffffffffffffffffffffffffffffffffffffffff1673ffffffffffffffffffffffffffffffffffffffff16815260200190815260200160002060008473ffffffffffffffffffffffffffffffffffffffff1673ffffffffffffffffffffffffffffffffffffffff16815260200190815260200160002060009054906101000a900460ff16612da1576040517f08c379a0000000000000000000000000000000000000000000000000000000008152600401612d98906159c3565b60405180910390fd5b612dab600961428b565b6000612db760096142a1565b3385604051602001612dcb93929190615b24565b6040516020818303038152906040528051906020012090506040518060a001604052808573ffffffffffffffffffffffffffffffffffffffff1681526020013373ffffffffffffffffffffffffffffffffffffffff168152602001848152602001428152602001600115158152506006600083815260200190815260200160002060008201518160000160006101000a81548173ffffffffffffffffffffffffffffffffffffffff021916908373ffffffffffffffffffffffffffffffffffffffff16021790555060208201518160010160006101000a81548173ffffffffffffffffffffffffffffffffffffffff021916908373ffffffffffffffffffffffffffffffffffffffff1602179055506040820151816002019081612eef9190615719565b506060820151816003015560808201518160040160006101000a81548160ff0219169083151502179055509050508373ffffffffffffffffffffffffffffffffffffffff16817f11fb9f283c08b0122fe14bf3b5692d38f07282003f545f4bbc8b766ddcbda83260405160405180910390a350505050565b600160003373ffffffffffffffffffffffffffffffffffffffff1673ffffffffffffffffffffffffffffffffffffffff168152602001908152602001600020600a0160019054906101000a900460ff16612ff6576040517f08c379a0000000000000000000000000000000000000000000000000000000008152600401612fed906154ed565b60405180910390fd5b600160003373ffffffffffffffffffffffffffffffffffffffff1673ffffffffffffffffffffffffffffffffffffffff168152602001908152602001600020600a0160009054906101000a900460ff16613085576040517f08c379a000000000000000000000000000000000000000000000000000000000815260040161307c90615859565b60405180910390fd5b816004600082815260200190815260200160002060070160009054906101000a900460ff166130e9576040517f08c379a00000000000000000000000000000000000000000000000000000000081526004016130e090615a9b565b60405180910390fd5b8160046000858152602001908152602001600020600401908161310c9190615719565b50827ff992fe1bd266a3995a256e5cc687b256f18fc830ade96b248360ef2fe29a4c4c8360405161313d91906157eb565b60405180910390a2505050565b6005602052816000526040600020602052806000526040600020600091509150508060000154908060010180546131809061553c565b80601f01602080910402602001604051908101604052809291908181526020018280546131ac9061553c565b80156131f95780601f106131ce576101008083540402835291602001916131f9565b820191906000526020600020905b8154815290600101906020018083116131dc57829003601f168201915b50505050509080600201805461320e9061553c565b80601f016020809104026020016040519081016040528092919081815260200182805461323a9061553c565b80156132875780601f1061325c57610100808354040283529160200191613287565b820191906000526020600020905b81548152906001019060200180831161326a57829003601f168201915b5050505050908060030160009054906101000a900460ff16905084565b600160003373ffffffffffffffffffffffffffffffffffffffff1673ffffffffffffffffffffffffffffffffffffffff168152602001908152602001600020600a0160019054906101000a900460ff16613333576040517f08c379a000000000000000000000000000000000000000000000000000000000815260040161332a906154ed565b60405180910390fd5b600160003373ffffffffffffffffffffffffffffffffffffffff1673ffffffffffffffffffffffffffffffffffffffff168152602001908152602001600020600a0160009054906101000a900460ff166133c2576040517f08c379a00000000000000000000000000000000000000000000000000000000081526004016133b990615859565b60405180910390fd5b816004600082815260200190815260200160002060070160009054906101000a900460ff16613426576040517f08c379a000000000000000000000000000000000000000000000000000000000815260040161341d90615a9b565b60405180910390fd5b60005b825181101561352857600360003373ffffffffffffffffffffffffffffffffffffffff1673ffffffffffffffffffffffffffffffffffffffff168152602001908152602001600020600084838151811061348657613485615b61565b5b602002602001015173ffffffffffffffffffffffffffffffffffffffff1673ffffffffffffffffffffffffffffffffffffffff16815260200190815260200160002060009054906101000a900460ff16613515576040517f08c379a000000000000000000000000000000000000000000000000000000000815260040161350c90615c02565b60405180910390fd5b808061352090615c51565b915050613429565b50816004600085815260200190815260200160002060060190805190602001906135539291906142b7565b50827f70b162532c2b8935bbf6a4aa9c3d8f91fe22c1aa0c8e5d3d34264e9b7570e0c5836040516135849190615d57565b60405180910390a2505050565b60036020528160005260406000206020528060005260406000206000915091509054906101000a900460ff1681565b6135c8614149565b600073ffffffffffffffffffffffffffffffffffffffff168173ffffffffffffffffffffffffffffffffffffffff1603613637576040517f08c379a000000000000000000000000000000000000000000000000000000000815260040161362e90615deb565b60405180910390fd5b613640816141c7565b50565b60008060008060046000868152602001908152602001600020604051806101000160405290816000820180546136789061553c565b80601f01602080910402602001604051908101604052809291908181526020018280546136a49061553c565b80156136f15780601f106136c6576101008083540402835291602001916136f1565b820191906000526020600020905b8154815290600101906020018083116136d457829003601f168201915b5050505050815260200160018201805461370a9061553c565b80601f01602080910402602001604051908101604052809291908181526020018280546137369061553c565b80156137835780601f1061375857610100808354040283529160200191613783565b820191906000526020600020905b81548152906001019060200180831161376657829003601f168201915b5050505050815260200160028201548152602001600382015481526020016004820180546137b09061553c565b80601f01602080910402602001604051908101604052809291908181526020018280546137dc9061553c565b80156138295780601f106137fe57610100808354040283529160200191613829565b820191906000526020600020905b81548152906001019060200180831161380c57829003601f168201915b505050505081526020016005820180546138429061553c565b80601f016020809104026020016040519081016040528092919081815260200182805461386e9061553c565b80156138bb5780601f10613890576101008083540402835291602001916138bb565b820191906000526020600020905b81548152906001019060200180831161389e57829003601f168201915b505050505081526020016006820180548060200260200160405190810160405280929190818152602001828054801561394957602002820191906000526020600020905b8160009054906101000a900473ffffffffffffffffffffffffffffffffffffffff1673ffffffffffffffffffffffffffffffffffffffff16815260200190600101908083116138ff575b505050505081526020016007820160009054906101000a900460ff16151515158152505090506000806000805b8460c0015151811015613ba3576000600560008b815260200190815260200160002060008760c0015184815181106139b1576139b0615b61565b5b602002602001015173ffffffffffffffffffffffffffffffffffffffff1673ffffffffffffffffffffffffffffffffffffffff16815260200190815260200160002060405180608001604052908160008201548152602001600182018054613a189061553c565b80601f0160208091040260200160405190810160405280929190818152602001828054613a449061553c565b8015613a915780601f10613a6657610100808354040283529160200191613a91565b820191906000526020600020905b815481529060010190602001808311613a7457829003601f168201915b50505050508152602001600282018054613aaa9061553c565b80601f0160208091040260200160405190810160405280929190818152602001828054613ad69061553c565b8015613b235780601f10613af857610100808354040283529160200191613b23565b820191906000526020600020905b815481529060010190602001808311613b0657829003601f168201915b505050505081526020016003820160009054906101000a900460ff1615151515815250509050806060015115613b8f578480613b5e90615c51565b955050806000015183613b719190615e0b565b9250603c816000015110613b8e578380613b8a90615c51565b9450505b5b508080613b9b90615c51565b915050613976565b508260008411613bb4576000613bcd565b83606484613bc29190615e3f565b613bcc9190615eb0565b5b60008511613bdc576000613be9565b8483613be89190615eb0565b5b965096509650505050509193909250565b600060608060006005600087815260200190815260200160002060008673ffffffffffffffffffffffffffffffffffffffff1673ffffffffffffffffffffffffffffffffffffffff16815260200190815260200160002060405180608001604052908160008201548152602001600182018054613c769061553c565b80601f0160208091040260200160405190810160405280929190818152602001828054613ca29061553c565b8015613cef5780601f10613cc457610100808354040283529160200191613cef565b820191906000526020600020905b815481529060010190602001808311613cd257829003601f168201915b50505050508152602001600282018054613d089061553c565b80601f0160208091040260200160405190810160405280929190818152602001828054613d349061553c565b8015613d815780601f10613d5657610100808354040283529160200191613d81565b820191906000526020600020905b815481529060010190602001808311613d6457829003601f168201915b505050505081526020016003820160009054906101000a900460ff1615151515815250509050806000015181602001518260400151935093509350509250925092565b6000600160003373ffffffffffffffffffffffffffffffffffffffff1673ffffffffffffffffffffffffffffffffffffffff168152602001908152602001600020600a0160019054906101000a900460ff16613e55576040517f08c379a0000000000000000000000000000000000000000000000000000000008152600401613e4c906154ed565b60405180910390fd5b600160003373ffffffffffffffffffffffffffffffffffffffff1673ffffffffffffffffffffffffffffffffffffffff168152602001908152602001600020600a0160009054906101000a900460ff16613ee4576040517f08c379a0000000000000000000000000000000000000000000000000000000008152600401613edb90615859565b60405180910390fd5b613eee600861428b565b6000613efa60086142a1565b33604051602001613f0c929190615ee1565b6040516020818303038152906040528051906020012090506040518061010001604052808881526020018781526020018681526020018581526020016040518060400160405280600781526020017f70656e64696e67000000000000000000000000000000000000000000000000008152508152602001848152602001600067ffffffffffffffff811115613fa457613fa361438d565b5b604051908082528060200260200182016040528015613fd25781602001602082028036833780820191505090505b508152602001600115158152506004600083815260200190815260200160002060008201518160000190816140079190615719565b50602082015181600101908161401d9190615719565b50604082015181600201556060820151816003015560808201518160040190816140479190615719565b5060a082015181600501908161405d9190615719565b5060c082015181600601908051906020019061407a9291906142b7565b5060e08201518160070160006101000a81548160ff021916908315150217905550905050600760003373ffffffffffffffffffffffffffffffffffffffff1673ffffffffffffffffffffffffffffffffffffffff168152602001908152602001600020819080600181540180825580915050600190039060005260206000200160009091909190915055807f01cc58dcd5983c834936e93747192e03a1d4179dc2bf868e41eb1021e23736898860405161413491906157eb565b60405180910390a28091505095945050505050565b6141516142af565b73ffffffffffffffffffffffffffffffffffffffff1661416f611ae5565b73ffffffffffffffffffffffffffffffffffffffff16146141c5576040517f08c379a00000000000000000000000000000000000000000000000000000000081526004016141bc90615f59565b60405180910390fd5b565b60008060009054906101000a900473ffffffffffffffffffffffffffffffffffffffff169050816000806101000a81548173ffffffffffffffffffffffffffffffffffffffff021916908373ffffffffffffffffffffffffffffffffffffffff1602179055508173ffffffffffffffffffffffffffffffffffffffff168173ffffffffffffffffffffffffffffffffffffffff167f8be0079c531659141344cd1fd0a4f28419497f9722a3daafe3b4186f6b6457e060405160405180910390a35050565b6001816000016000828254019250508190555050565b600081600001549050919050565b600033905090565b828054828255906000526020600020908101928215614330579160200282015b8281111561432f5782518260006101000a81548173ffffffffffffffffffffffffffffffffffffffff021916908373ffffffffffffffffffffffffffffffffffffffff160217905550916020019190600101906142d7565b5b50905061433d9190614341565b5090565b5b8082111561435a576000816000905550600101614342565b5090565b6000604051905090565b600080fd5b600080fd5b600080fd5b600080fd5b6000601f19601f8301169050919050565b7f4e487b7100000000000000000000000000000000000000000000000000000000600052604160045260246000fd5b6143c58261437c565b810181811067ffffffffffffffff821117156143e4576143e361438d565b5b80604052505050565b60006143f761435e565b905061440382826143bc565b919050565b600067ffffffffffffffff8211156144235761442261438d565b5b61442c8261437c565b9050602081019050919050565b82818337600083830152505050565b600061445b61445684614408565b6143ed565b90508281526020810184848401111561447757614476614377565b5b614482848285614439565b509392505050565b600082601f83011261449f5761449e614372565b5b81356144af848260208601614448565b91505092915050565b60008060008060008060008060006101208a8c0312156144db576144da614368565b5b60008a013567ffffffffffffffff8111156144f9576144f861436d565b5b6145058c828d0161448a565b99505060208a013567ffffffffffffffff8111156145265761452561436d565b5b6145328c828d0161448a565b98505060408a013567ffffffffffffffff8111156145535761455261436d565b5b61455f8c828d0161448a565b97505060608a013567ffffffffffffffff8111156145805761457f61436d565b5b61458c8c828d0161448a565b96505060808a013567ffffffffffffffff8111156145ad576145ac61436d565b5b6145b98c828d0161448a565b95505060a08a013567ffffffffffffffff8111156145da576145d961436d565b5b6145e68c828d0161448a565b94505060c08a013567ffffffffffffffff8111156146075761460661436d565b5b6146138c828d0161448a565b93505060e08a013567ffffffffffffffff8111156146345761463361436d565b5b6146408c828d0161448a565b9250506101008a013567ffffffffffffffff8111156146625761466161436d565b5b61466e8c828d0161448a565b9150509295985092959850929598565b600073ffffffffffffffffffffffffffffffffffffffff82169050919050565b60006146a98261467e565b9050919050565b6146b98161469e565b81146146c457600080fd5b50565b6000813590506146d6816146b0565b92915050565b6000806000606084860312156146f5576146f4614368565b5b6000614703868287016146c7565b935050602084013567ffffffffffffffff8111156147245761472361436d565b5b6147308682870161448a565b925050604084013567ffffffffffffffff8111156147515761475061436d565b5b61475d8682870161448a565b9150509250925092565b60006020828403121561477d5761477c614368565b5b600061478b848285016146c7565b91505092915050565b600081519050919050565b600082825260208201905092915050565b6000819050602082019050919050565b6000819050919050565b6147d3816147c0565b82525050565b60006147e583836147ca565b60208301905092915050565b6000602082019050919050565b600061480982614794565b614813818561479f565b935061481e836147b0565b8060005b8381101561484f57815161483688826147d9565b9750614841836147f1565b925050600181019050614822565b5085935050505092915050565b6000602082019050818103600083015261487681846147fe565b905092915050565b60008115159050919050565b6148938161487e565b82525050565b60006020820190506148ae600083018461488a565b92915050565b600080604083850312156148cb576148ca614368565b5b60006148d9858286016146c7565b925050602083013567ffffffffffffffff8111156148fa576148f961436d565b5b6149068582860161448a565b9150509250929050565b600081519050919050565b600082825260208201905092915050565b60005b8381101561494a57808201518184015260208101905061492f565b60008484015250505050565b600061496182614910565b61496b818561491b565b935061497b81856020860161492c565b6149848161437c565b840191505092915050565b6000819050919050565b6149a28161498f565b82525050565b600060808201905081810360008301526149c28187614956565b905081810360208301526149d68186614956565b90506149e56040830185614999565b81810360608301526149f78184614956565b905095945050505050565b614a0b8161498f565b8114614a1657600080fd5b50565b600081359050614a2881614a02565b92915050565b60008060408385031215614a4557614a44614368565b5b6000614a53858286016146c7565b9250506020614a6485828601614a19565b9150509250929050565b614a77816147c0565b82525050565b6000602082019050614a926000830184614a6e565b92915050565b6000610160820190508181036000830152614ab3818e614956565b90508181036020830152614ac7818d614956565b90508181036040830152614adb818c614956565b90508181036060830152614aef818b614956565b90508181036080830152614b03818a614956565b905081810360a0830152614b178189614956565b905081810360c0830152614b2b8188614956565b905081810360e0830152614b3f8187614956565b9050818103610100830152614b548186614956565b9050818103610120830152614b698185614956565b9050614b7961014083018461488a565b9c9b505050505050505050505050565b614b92816147c0565b8114614b9d57600080fd5b50565b600081359050614baf81614b89565b92915050565b600060208284031215614bcb57614bca614368565b5b6000614bd984828501614ba0565b91505092915050565b614beb8161469e565b82525050565b600060a082019050614c066000830188614be2565b614c136020830187614be2565b8181036040830152614c258186614956565b9050614c346060830185614999565b614c41608083018461488a565b9695505050505050565b6000602082019050614c606000830184614be2565b92915050565b600060e0820190508181036000830152614c80818a614956565b90508181036020830152614c948189614956565b9050614ca36040830188614999565b614cb06060830187614999565b8181036080830152614cc28186614956565b905081810360a0830152614cd68185614956565b9050614ce560c083018461488a565b98975050505050505050565b600060a0820190508181036000830152614d0b8188614956565b90508181036020830152614d1f8187614956565b9050614d2e6040830186614999565b8181036060830152614d408185614956565b9050614d4f608083018461488a565b9695505050505050565b6000610180820190508181036000830152614d74818f614956565b90508181036020830152614d88818e614956565b90508181036040830152614d9c818d614956565b90508181036060830152614db0818c614956565b90508181036080830152614dc4818b614956565b905081810360a0830152614dd8818a614956565b905081810360c0830152614dec8189614956565b905081810360e0830152614e008188614956565b9050818103610100830152614e158187614956565b9050818103610120830152614e2a8186614956565b9050614e3a61014083018561488a565b614e4861016083018461488a565b9d9c50505050505050505050505050565b6000806000806000806000806000806101408b8d031215614e7d57614e7c614368565b5b60008b013567ffffffffffffffff811115614e9b57614e9a61436d565b5b614ea78d828e0161448a565b9a505060208b013567ffffffffffffffff811115614ec857614ec761436d565b5b614ed48d828e0161448a565b99505060408b013567ffffffffffffffff811115614ef557614ef461436d565b5b614f018d828e0161448a565b98505060608b013567ffffffffffffffff811115614f2257614f2161436d565b5b614f2e8d828e0161448a565b97505060808b013567ffffffffffffffff811115614f4f57614f4e61436d565b5b614f5b8d828e0161448a565b96505060a08b013567ffffffffffffffff811115614f7c57614f7b61436d565b5b614f888d828e0161448a565b95505060c08b013567ffffffffffffffff811115614fa957614fa861436d565b5b614fb58d828e0161448a565b94505060e08b013567ffffffffffffffff811115614fd657614fd561436d565b5b614fe28d828e0161448a565b9350506101008b013567ffffffffffffffff8111156150045761500361436d565b5b6150108d828e0161448a565b9250506101208b013567ffffffffffffffff8111156150325761503161436d565b5b61503e8d828e0161448a565b9150509295989b9194979a5092959850565b600080600080600060a0868803121561506c5761506b614368565b5b600061507a88828901614ba0565b955050602061508b888289016146c7565b945050604061509c88828901614a19565b935050606086013567ffffffffffffffff8111156150bd576150bc61436d565b5b6150c98882890161448a565b925050608086013567ffffffffffffffff8111156150ea576150e961436d565b5b6150f68882890161448a565b9150509295509295909350565b6000806040838503121561511a57615119614368565b5b600061512885828601614ba0565b925050602083013567ffffffffffffffff8111156151495761514861436d565b5b6151558582860161448a565b9150509250929050565b6000806040838503121561517657615175614368565b5b600061518485828601614ba0565b9250506020615195858286016146c7565b9150509250929050565b60006080820190506151b46000830187614999565b81810360208301526151c68186614956565b905081810360408301526151da8185614956565b90506151e9606083018461488a565b95945050505050565b600067ffffffffffffffff82111561520d5761520c61438d565b5b602082029050602081019050919050565b600080fd5b6000615236615231846151f2565b6143ed565b905080838252602082019050602084028301858111156152595761525861521e565b5b835b81811015615282578061526e88826146c7565b84526020840193505060208101905061525b565b5050509392505050565b600082601f8301126152a1576152a0614372565b5b81356152b1848260208601615223565b91505092915050565b600080604083850312156152d1576152d0614368565b5b60006152df85828601614ba0565b925050602083013567ffffffffffffffff811115615300576152ff61436d565b5b61530c8582860161528c565b9150509250929050565b6000806040838503121561532d5761532c614368565b5b600061533b858286016146c7565b925050602061534c858286016146c7565b9150509250929050565b600060608201905061536b6000830186614999565b6153786020830185614999565b6153856040830184614999565b949350505050565b60006060820190506153a26000830186614999565b81810360208301526153b48185614956565b905081810360408301526153c88184614956565b9050949350505050565b600080600080600060a086880312156153ee576153ed614368565b5b600086013567ffffffffffffffff81111561540c5761540b61436d565b5b6154188882890161448a565b955050602086013567ffffffffffffffff8111156154395761543861436d565b5b6154458882890161448a565b945050604061545688828901614a19565b935050606061546788828901614a19565b925050608086013567ffffffffffffffff8111156154885761548761436d565b5b6154948882890161448a565b9150509295509295909350565b7f496e737469747574696f6e20646f6573206e6f74206578697374000000000000600082015250565b60006154d7601a8361491b565b91506154e2826154a1565b602082019050919050565b60006020820190508181036000830152615506816154ca565b9050919050565b7f4e487b7100000000000000000000000000000000000000000000000000000000600052602260045260246000fd5b6000600282049050600182168061555457607f821691505b6020821081036155675761556661550d565b5b50919050565b60008190508160005260206000209050919050565b60006020601f8301049050919050565b600082821b905092915050565b6000600883026155cf7fffffffffffffffffffffffffffffffffffffffffffffffffffffffffffffffff82615592565b6155d98683615592565b95508019841693508086168417925050509392505050565b6000819050919050565b600061561661561161560c8461498f565b6155f1565b61498f565b9050919050565b6000819050919050565b615630836155fb565b61564461563c8261561d565b84845461559f565b825550505050565b600090565b61565961564c565b615664818484615627565b505050565b5b818110156156885761567d600082615651565b60018101905061566a565b5050565b601f8211156156cd5761569e8161556d565b6156a784615582565b810160208510156156b6578190505b6156ca6156c285615582565b830182615669565b50505b505050565b600082821c905092915050565b60006156f0600019846008026156d2565b1980831691505092915050565b600061570983836156df565b9150826002028217905092915050565b61572282614910565b67ffffffffffffffff81111561573b5761573a61438d565b5b615745825461553c565b61575082828561568c565b600060209050601f8311600181146157835760008415615771578287015190505b61577b85826156fd565b8655506157e3565b601f1984166157918661556d565b60005b828110156157b957848901518255600182019150602085019450602081019050615794565b868310156157d657848901516157d2601f8916826156df565b8355505b6001600288020188555050505b505050505050565b600060208201905081810360008301526158058184614956565b905092915050565b7f496e737469747574696f6e206973206e6f742076657269666965640000000000600082015250565b6000615843601b8361491b565b915061584e8261580d565b602082019050919050565b6000602082019050818103600083015261587281615836565b9050919050565b7f53747564656e7420616c72656164792065786973747300000000000000000000600082015250565b60006158af60168361491b565b91506158ba82615879565b602082019050919050565b600060208201905081810360008301526158de816158a2565b9050919050565b7f53747564656e7420646f6573206e6f7420657869737400000000000000000000600082015250565b600061591b60168361491b565b9150615926826158e5565b602082019050919050565b6000602082019050818103600083015261594a8161590e565b9050919050565b7f53747564656e74206e6f7420656e726f6c6c656420696e207468697320696e7360008201527f7469747574696f6e000000000000000000000000000000000000000000000000602082015250565b60006159ad60288361491b565b91506159b882615951565b604082019050919050565b600060208201905081810360008301526159dc816159a0565b9050919050565b7f496e737469747574696f6e20616c726561647920726567697374657265640000600082015250565b6000615a19601e8361491b565b9150615a24826159e3565b602082019050919050565b60006020820190508181036000830152615a4881615a0c565b9050919050565b7f4578616d20646f6573206e6f7420657869737400000000000000000000000000600082015250565b6000615a8560138361491b565b9150615a9082615a4f565b602082019050919050565b60006020820190508181036000830152615ab481615a78565b9050919050565b6000819050919050565b615ad6615ad18261498f565b615abb565b82525050565b60008160601b9050919050565b6000615af482615adc565b9050919050565b6000615b0682615ae9565b9050919050565b615b1e615b198261469e565b615afb565b82525050565b6000615b308286615ac5565b602082019150615b408285615b0d565b601482019150615b508284615b0d565b601482019150819050949350505050565b7f4e487b7100000000000000000000000000000000000000000000000000000000600052603260045260246000fd5b7f4f6e65206f72206d6f72652073747564656e7473206e6f7420656e726f6c6c6560008201527f6420696e207468697320696e737469747574696f6e0000000000000000000000602082015250565b6000615bec60358361491b565b9150615bf782615b90565b604082019050919050565b60006020820190508181036000830152615c1b81615bdf565b9050919050565b7f4e487b7100000000000000000000000000000000000000000000000000000000600052601160045260246000fd5b6000615c5c8261498f565b91507fffffffffffffffffffffffffffffffffffffffffffffffffffffffffffffffff8203615c8e57615c8d615c22565b5b600182019050919050565b600081519050919050565b600082825260208201905092915050565b6000819050602082019050919050565b615cce8161469e565b82525050565b6000615ce08383615cc5565b60208301905092915050565b6000602082019050919050565b6000615d0482615c99565b615d0e8185615ca4565b9350615d1983615cb5565b8060005b83811015615d4a578151615d318882615cd4565b9750615d3c83615cec565b925050600181019050615d1d565b5085935050505092915050565b60006020820190508181036000830152615d718184615cf9565b905092915050565b7f4f776e61626c653a206e6577206f776e657220697320746865207a65726f206160008201527f6464726573730000000000000000000000000000000000000000000000000000602082015250565b6000615dd560268361491b565b9150615de082615d79565b604082019050919050565b60006020820190508181036000830152615e0481615dc8565b9050919050565b6000615e168261498f565b9150615e218361498f565b9250828201905080821115615e3957615e38615c22565b5b92915050565b6000615e4a8261498f565b9150615e558361498f565b9250828202615e638161498f565b91508282048414831517615e7a57615e79615c22565b5b5092915050565b7f4e487b7100000000000000000000000000000000000000000000000000000000600052601260045260246000fd5b6000615ebb8261498f565b9150615ec68361498f565b925082615ed657615ed5615e81565b5b828204905092915050565b6000615eed8285615ac5565b602082019150615efd8284615b0d565b6014820191508190509392505050565b7f4f776e61626c653a2063616c6c6572206973206e6f7420746865206f776e6572600082015250565b6000615f4360208361491b565b9150615f4e82615f0d565b602082019050919050565b60006020820190508181036000830152615f7281615f36565b905091905056fea264697066735822122003b27c10387bfdf8674c33cdec4b5e84f57713f35764a8d94e7e1ec6e7baf4e264736f6c63430008130033",
  "immutableReferences": {},
  "source": "// SPDX-License-Identifier: MIT\r\npragma solidity ^0.8.19;\r\n\r\nimport \"@openzeppelin/contracts/access/Ownable.sol\";\r\nimport \"@openzeppelin/contracts/security/Pausable.sol\";\r\nimport \"@openzeppelin/contracts/utils/Counters.sol\";\r\n\r\ncontract ExamManagement is Ownable, Pausable {\r\n    using Counters for Counters.Counter;\r\n\r\n    struct Institution {\r\n        string name;\r\n        string description;\r\n        string physicalAddress;\r\n        string email;\r\n        string phone;\r\n        string website;\r\n        string logo;\r\n        string ministry;\r\n        string university;\r\n        string college;\r\n        bool isVerified;\r\n        bool exists;\r\n    }\r\n\r\n    struct Student {\r\n        string name;\r\n        string email;\r\n        uint256 enrollmentDate;\r\n        string status; // \"active\", \"inactive\", \"graduated\"\r\n        bool exists;\r\n    }\r\n\r\n    struct Exam {\r\n        string title;\r\n        string description;\r\n        uint256 date;\r\n        uint256 duration;\r\n        string status; // \"pending\", \"active\", \"completed\"\r\n        string ipfsHash;\r\n        address[] students;\r\n        bool exists;\r\n    }\r\n\r\n    struct Certificate {\r\n        address student;\r\n        address issuer;\r\n        string ipfsHash;\r\n        uint256 issuedAt;\r\n        bool exists;\r\n    }\r\n\r\n    struct ExamResult {\r\n        uint256 score;\r\n        string grade;\r\n        string notes;\r\n        bool exists;\r\n    }\r\n\r\n    // Mappings\r\n    mapping(address => Institution) public institutions;\r\n    mapping(address => Student) public students;\r\n    mapping(address => mapping(address => bool)) public institutionStudents;\r\n    mapping(bytes32 => Exam) public exams;\r\n    mapping(bytes32 => mapping(address => ExamResult)) public examResults;\r\n    mapping(bytes32 => Certificate) public certificates;\r\n    mapping(address => bytes32[]) public institutionExams;\r\n    \r\n    // Counters\r\n    Counters.Counter private _examIds;\r\n    Counters.Counter private _certificateIds;\r\n\r\n    // Events\r\n    event InstitutionRegistered(address indexed institution, string name);\r\n    event InstitutionVerified(address indexed institution);\r\n    event StudentAdded(address indexed institution, address indexed student);\r\n    event StudentStatusUpdated(address indexed student, string status);\r\n    event ExamCreated(bytes32 indexed examId, string title);\r\n    event ExamStatusUpdated(bytes32 indexed examId, string status);\r\n    event StudentsRegistered(bytes32 indexed examId, address[] students);\r\n    event ResultSubmitted(bytes32 indexed examId, address indexed student);\r\n    event CertificateIssued(bytes32 indexed certificateId, address indexed student);\r\n    event InstitutionProfileUpdated(address indexed institution, string name);\r\n\r\n    // Modifiers\r\n    modifier onlyVerifiedInstitution() {\r\n        require(institutions[msg.sender].exists, \"Institution does not exist\");\r\n        require(institutions[msg.sender].isVerified, \"Institution is not verified\");\r\n        _;\r\n    }\r\n\r\n    modifier onlyExistingExam(bytes32 examId) {\r\n        require(exams[examId].exists, \"Exam does not exist\");\r\n        _;\r\n    }\r\n\r\n    modifier onlyExistingStudent(address student) {\r\n        require(students[student].exists, \"Student does not exist\");\r\n        _;\r\n    }\r\n\r\n    // Institution Management\r\n    function registerInstitution(\r\n        string memory name,\r\n        string memory description,\r\n        string memory physicalAddress,\r\n        string memory email,\r\n        string memory phone,\r\n        string memory website,\r\n        string memory logo,\r\n        string memory ministry,\r\n        string memory university,\r\n        string memory college\r\n    ) external {\r\n        require(!institutions[msg.sender].exists, \"Institution already registered\");\r\n        \r\n        institutions[msg.sender] = Institution({\r\n            name: name,\r\n            description: description,\r\n            physicalAddress: physicalAddress,\r\n            email: email,\r\n            phone: phone,\r\n            website: website,\r\n            logo: logo,\r\n            ministry: ministry,\r\n            university: university,\r\n            college: college,\r\n            isVerified: false,\r\n            exists: true\r\n        });\r\n\r\n        emit InstitutionRegistered(msg.sender, name);\r\n    }\r\n\r\n    function verifyInstitution(address institution) external onlyOwner {\r\n        require(institutions[institution].exists, \"Institution does not exist\");\r\n        institutions[institution].isVerified = true;\r\n        emit InstitutionVerified(institution);\r\n    }\r\n\r\n    function updateInstitutionProfile(\r\n        string memory name,\r\n        string memory ministry,\r\n        string memory university,\r\n        string memory college,\r\n        string memory description,\r\n        string memory logo,\r\n        string memory website,\r\n        string memory email,\r\n        string memory phone\r\n    ) external {\r\n        require(institutions[msg.sender].exists, \"Institution does not exist\");\r\n        \r\n        Institution storage institution = institutions[msg.sender];\r\n        institution.name = name;\r\n        institution.ministry = ministry;\r\n        institution.university = university;\r\n        institution.college = college;\r\n        institution.description = description;\r\n        institution.logo = logo;\r\n        institution.website = website;\r\n        institution.email = email;\r\n        institution.phone = phone;\r\n\r\n        emit InstitutionProfileUpdated(msg.sender, name);\r\n    }\r\n\r\n    // Student Management\r\n    function addStudent(\r\n        address studentAddress,\r\n        string memory name,\r\n        string memory email\r\n    ) external onlyVerifiedInstitution {\r\n        require(!students[studentAddress].exists, \"Student already exists\");\r\n        \r\n        students[studentAddress] = Student({\r\n            name: name,\r\n            email: email,\r\n            enrollmentDate: block.timestamp,\r\n            status: \"active\",\r\n            exists: true\r\n        });\r\n\r\n        institutionStudents[msg.sender][studentAddress] = true;\r\n        emit StudentAdded(msg.sender, studentAddress);\r\n    }\r\n\r\n    function updateStudentStatus(\r\n        address studentAddress,\r\n        string memory newStatus\r\n    ) external onlyVerifiedInstitution onlyExistingStudent(studentAddress) {\r\n        require(institutionStudents[msg.sender][studentAddress], \"Student not enrolled in this institution\");\r\n        students[studentAddress].status = newStatus;\r\n        emit StudentStatusUpdated(studentAddress, newStatus);\r\n    }\r\n\r\n    // Exam Management\r\n    function createExam(\r\n        string memory title,\r\n        string memory description,\r\n        uint256 date,\r\n        uint256 duration,\r\n        string memory ipfsHash\r\n    ) external onlyVerifiedInstitution returns (bytes32) {\r\n        _examIds.increment();\r\n        bytes32 examId = keccak256(abi.encodePacked(_examIds.current(), msg.sender));\r\n        \r\n        exams[examId] = Exam({\r\n            title: title,\r\n            description: description,\r\n            date: date,\r\n            duration: duration,\r\n            status: \"pending\",\r\n            ipfsHash: ipfsHash,\r\n            students: new address[](0),\r\n            exists: true\r\n        });\r\n\r\n        institutionExams[msg.sender].push(examId);\r\n\r\n        emit ExamCreated(examId, title);\r\n        return examId;\r\n    }\r\n\r\n    function updateExamStatus(\r\n        bytes32 examId,\r\n        string memory newStatus\r\n    ) external onlyVerifiedInstitution onlyExistingExam(examId) {\r\n        exams[examId].status = newStatus;\r\n        emit ExamStatusUpdated(examId, newStatus);\r\n    }\r\n\r\n    function registerStudentsForExam(\r\n        bytes32 examId,\r\n        address[] memory studentAddresses\r\n    ) external onlyVerifiedInstitution onlyExistingExam(examId) {\r\n        for (uint i = 0; i < studentAddresses.length; i++) {\r\n            require(\r\n                institutionStudents[msg.sender][studentAddresses[i]],\r\n                \"One or more students not enrolled in this institution\"\r\n            );\r\n        }\r\n        exams[examId].students = studentAddresses;\r\n        emit StudentsRegistered(examId, studentAddresses);\r\n    }\r\n\r\n    // Result Management\r\n    function submitResult(\r\n        bytes32 examId,\r\n        address student,\r\n        uint256 score,\r\n        string memory grade,\r\n        string memory notes\r\n    ) external onlyVerifiedInstitution onlyExistingExam(examId) {\r\n        require(\r\n            institutionStudents[msg.sender][student],\r\n            \"Student not enrolled in this institution\"\r\n        );\r\n        \r\n        examResults[examId][student] = ExamResult({\r\n            score: score,\r\n            grade: grade,\r\n            notes: notes,\r\n            exists: true\r\n        });\r\n\r\n        emit ResultSubmitted(examId, student);\r\n    }\r\n\r\n    // Certificate Management\r\n    function issueCertificate(\r\n        address student,\r\n        string memory ipfsHash\r\n    ) external onlyVerifiedInstitution onlyExistingStudent(student) {\r\n        require(\r\n            institutionStudents[msg.sender][student],\r\n            \"Student not enrolled in this institution\"\r\n        );\r\n\r\n        _certificateIds.increment();\r\n        bytes32 certificateId = keccak256(abi.encodePacked(_certificateIds.current(), msg.sender, student));\r\n        \r\n        certificates[certificateId] = Certificate({\r\n            student: student,\r\n            issuer: msg.sender,\r\n            ipfsHash: ipfsHash,\r\n            issuedAt: block.timestamp,\r\n            exists: true\r\n        });\r\n\r\n        emit CertificateIssued(certificateId, student);\r\n    }\r\n\r\n    // View Functions\r\n    function getInstitution(address institution) external view returns (\r\n        string memory name,\r\n        string memory description,\r\n        string memory physicalAddress,\r\n        string memory email,\r\n        string memory phone,\r\n        string memory website,\r\n        string memory logo,\r\n        string memory ministry,\r\n        string memory university,\r\n        string memory college,\r\n        bool isVerified\r\n    ) {\r\n        Institution memory inst = institutions[institution];\r\n        return (\r\n            inst.name,\r\n            inst.description,\r\n            inst.physicalAddress,\r\n            inst.email,\r\n            inst.phone,\r\n            inst.website,\r\n            inst.logo,\r\n            inst.ministry,\r\n            inst.university,\r\n            inst.college,\r\n            inst.isVerified\r\n        );\r\n    }\r\n\r\n    function getStudent(address student) external view returns (\r\n        string memory name,\r\n        string memory email,\r\n        uint256 enrollmentDate,\r\n        string memory status\r\n    ) {\r\n        Student memory stud = students[student];\r\n        return (\r\n            stud.name,\r\n            stud.email,\r\n            stud.enrollmentDate,\r\n            stud.status\r\n        );\r\n    }\r\n\r\n    function getExamResult(bytes32 examId, address student) external view returns (\r\n        uint256 score,\r\n        string memory grade,\r\n        string memory notes\r\n    ) {\r\n        ExamResult memory result = examResults[examId][student];\r\n        return (\r\n            result.score,\r\n            result.grade,\r\n            result.notes\r\n        );\r\n    }\r\n\r\n    function getExamStatistics(bytes32 examId) external view returns (\r\n        uint256 totalStudents,\r\n        uint256 passRate,\r\n        uint256 averageScore\r\n    ) {\r\n        Exam memory exam = exams[examId];\r\n        uint256 total = 0;\r\n        uint256 passed = 0;\r\n        uint256 scoreSum = 0;\r\n        \r\n        for (uint i = 0; i < exam.students.length; i++) {\r\n            ExamResult memory result = examResults[examId][exam.students[i]];\r\n            if (result.exists) {\r\n                total++;\r\n                scoreSum += result.score;\r\n                if (result.score >= 60) {\r\n                    passed++;\r\n                }\r\n            }\r\n        }\r\n        \r\n        return (\r\n            total,\r\n            total > 0 ? (passed * 100) / total : 0,\r\n            total > 0 ? scoreSum / total : 0\r\n        );\r\n    }\r\n\r\n    function getInstitutionExamList(address institution) external view returns (bytes32[] memory) {\r\n        require(institutions[institution].exists, \"Institution does not exist\");\r\n        return institutionExams[institution];\r\n    }\r\n} ",
  "sourcePath": "C:\\Users\\osama\\OneDrive\\Desktop\\Graduation\\contracts\\ExamManagement.sol",
  "compiler": {
    "name": "solc",
    "version": "0.8.19+commit.7dd6d404.Emscripten.clang"
  },
  "schemaVersion": "3.4.16",
  "updatedAt": "2025-04-30T03:42:48.437Z",
  "networkType": "ethereum",
  "devdoc": {
    "events": {
      "Paused(address)": {
        "details": "Emitted when the pause is triggered by `account`."
      },
      "Unpaused(address)": {
        "details": "Emitted when the pause is lifted by `account`."
      }
    },
    "kind": "dev",
    "methods": {
      "owner()": {
        "details": "Returns the address of the current owner."
      },
      "paused()": {
        "details": "Returns true if the contract is paused, and false otherwise."
      },
      "renounceOwnership()": {
        "details": "Leaves the contract without owner. It will not be possible to call `onlyOwner` functions anymore. Can only be called by the current owner. NOTE: Renouncing ownership will leave the contract without an owner, thereby removing any functionality that is only available to the owner."
      },
      "transferOwnership(address)": {
        "details": "Transfers ownership of the contract to a new account (`newOwner`). Can only be called by the current owner."
      }
    },
    "version": 1
  },
  "userdoc": {
    "kind": "user",
    "methods": {},
    "version": 1
  }
}