{
  "contractName": "Identity",
  "abi": [
    {
      "inputs": [],
      "stateMutability": "nonpayable",
      "type": "constructor"
    },
    {
      "anonymous": false,
      "inputs": [
        {
          "indexed": true,
          "internalType": "address",
          "name": "admin",
          "type": "address"
        }
      ],
      "name": "AdminAdded",
      "type": "event"
    },
    {
      "anonymous": false,
      "inputs": [
        {
          "indexed": true,
          "internalType": "address",
          "name": "admin",
          "type": "address"
        }
      ],
      "name": "AdminRemoved",
      "type": "event"
    },
    {
      "anonymous": false,
      "inputs": [
        {
          "indexed": true,
          "internalType": "address",
          "name": "institution",
          "type": "address"
        }
      ],
      "name": "InstitutionAdded",
      "type": "event"
    },
    {
      "anonymous": false,
      "inputs": [
        {
          "indexed": true,
          "internalType": "address",
          "name": "previousOwner",
          "type": "address"
        },
        {
          "indexed": true,
          "internalType": "address",
          "name": "newOwner",
          "type": "address"
        }
      ],
      "name": "OwnershipTransferred",
      "type": "event"
    },
    {
      "anonymous": false,
      "inputs": [
        {
          "indexed": false,
          "internalType": "address",
          "name": "account",
          "type": "address"
        }
      ],
      "name": "Paused",
      "type": "event"
    },
    {
      "anonymous": false,
      "inputs": [
        {
          "indexed": false,
          "internalType": "address",
          "name": "account",
          "type": "address"
        }
      ],
      "name": "Unpaused",
      "type": "event"
    },
    {
      "anonymous": false,
      "inputs": [
        {
          "indexed": true,
          "internalType": "address",
          "name": "userAddress",
          "type": "address"
        },
        {
          "indexed": false,
          "internalType": "enum Identity.UserRole",
          "name": "role",
          "type": "uint8"
        }
      ],
      "name": "UserRegistered",
      "type": "event"
    },
    {
      "anonymous": false,
      "inputs": [
        {
          "indexed": true,
          "internalType": "address",
          "name": "userAddress",
          "type": "address"
        }
      ],
      "name": "UserVerified",
      "type": "event"
    },
    {
      "inputs": [
        {
          "internalType": "address",
          "name": "",
          "type": "address"
        }
      ],
      "name": "admins",
      "outputs": [
        {
          "internalType": "bool",
          "name": "",
          "type": "bool"
        }
      ],
      "stateMutability": "view",
      "type": "function"
    },
    {
      "inputs": [
        {
          "internalType": "address",
          "name": "",
          "type": "address"
        }
      ],
      "name": "institutions",
      "outputs": [
        {
          "internalType": "bool",
          "name": "",
          "type": "bool"
        }
      ],
      "stateMutability": "view",
      "type": "function"
    },
    {
      "inputs": [],
      "name": "owner",
      "outputs": [
        {
          "internalType": "address",
          "name": "",
          "type": "address"
        }
      ],
      "stateMutability": "view",
      "type": "function"
    },
    {
      "inputs": [],
      "name": "paused",
      "outputs": [
        {
          "internalType": "bool",
          "name": "",
          "type": "bool"
        }
      ],
      "stateMutability": "view",
      "type": "function"
    },
    {
      "inputs": [],
      "name": "renounceOwnership",
      "outputs": [],
      "stateMutability": "nonpayable",
      "type": "function"
    },
    {
      "inputs": [
        {
          "internalType": "address",
          "name": "newOwner",
          "type": "address"
        }
      ],
      "name": "transferOwnership",
      "outputs": [],
      "stateMutability": "nonpayable",
      "type": "function"
    },
    {
      "inputs": [
        {
          "internalType": "address",
          "name": "",
          "type": "address"
        }
      ],
      "name": "users",
      "outputs": [
        {
          "internalType": "address",
          "name": "userAddress",
          "type": "address"
        },
        {
          "internalType": "string",
          "name": "ipfsHash",
          "type": "string"
        },
        {
          "internalType": "enum Identity.UserRole",
          "name": "role",
          "type": "uint8"
        },
        {
          "internalType": "bool",
          "name": "isVerified",
          "type": "bool"
        },
        {
          "internalType": "uint256",
          "name": "createdAt",
          "type": "uint256"
        }
      ],
      "stateMutability": "view",
      "type": "function"
    },
    {
      "inputs": [
        {
          "internalType": "address",
          "name": "_newAdmin",
          "type": "address"
        }
      ],
      "name": "addAdmin",
      "outputs": [],
      "stateMutability": "nonpayable",
      "type": "function"
    },
    {
      "inputs": [
        {
          "internalType": "address",
          "name": "_admin",
          "type": "address"
        }
      ],
      "name": "removeAdmin",
      "outputs": [],
      "stateMutability": "nonpayable",
      "type": "function"
    },
    {
      "inputs": [
        {
          "internalType": "address",
          "name": "_address",
          "type": "address"
        }
      ],
      "name": "isAdmin",
      "outputs": [
        {
          "internalType": "bool",
          "name": "",
          "type": "bool"
        }
      ],
      "stateMutability": "view",
      "type": "function"
    },
    {
      "inputs": [
        {
          "internalType": "enum Identity.UserRole",
          "name": "_role",
          "type": "uint8"
        },
        {
          "internalType": "string",
          "name": "_ipfsHash",
          "type": "string"
        }
      ],
      "name": "registerUser",
      "outputs": [],
      "stateMutability": "nonpayable",
      "type": "function"
    },
    {
      "inputs": [
        {
          "internalType": "address",
          "name": "_userAddress",
          "type": "address"
        }
      ],
      "name": "verifyUser",
      "outputs": [],
      "stateMutability": "nonpayable",
      "type": "function"
    },
    {
      "inputs": [
        {
          "internalType": "string",
          "name": "_newIpfsHash",
          "type": "string"
        }
      ],
      "name": "updateUserIPFS",
      "outputs": [],
      "stateMutability": "nonpayable",
      "type": "function"
    },
    {
      "inputs": [
        {
          "internalType": "address",
          "name": "_userAddress",
          "type": "address"
        }
      ],
      "name": "getUserRole",
      "outputs": [
        {
          "internalType": "enum Identity.UserRole",
          "name": "",
          "type": "uint8"
        }
      ],
      "stateMutability": "view",
      "type": "function"
    },
    {
      "inputs": [
        {
          "internalType": "address",
          "name": "_userAddress",
          "type": "address"
        }
      ],
      "name": "isVerifiedUser",
      "outputs": [
        {
          "internalType": "bool",
          "name": "",
          "type": "bool"
        }
      ],
      "stateMutability": "view",
      "type": "function"
    },
    {
      "inputs": [
        {
          "internalType": "address",
          "name": "_userAddress",
          "type": "address"
        },
        {
          "internalType": "enum Identity.UserRole",
          "name": "_newRole",
          "type": "uint8"
        }
      ],
      "name": "updateUserRole",
      "outputs": [],
      "stateMutability": "nonpayable",
      "type": "function"
    },
    {
      "inputs": [],
      "name": "pause",
      "outputs": [],
      "stateMutability": "nonpayable",
      "type": "function"
    },
    {
      "inputs": [],
      "name": "unpause",
      "outputs": [],
      "stateMutability": "nonpayable",
      "type": "function"
    },
    {
      "inputs": [
        {
          "internalType": "address",
          "name": "_address",
          "type": "address"
        }
      ],
      "name": "isInstitution",
      "outputs": [
        {
          "internalType": "bool",
          "name": "",
          "type": "bool"
        }
      ],
      "stateMutability": "view",
      "type": "function"
    }
  ],
  "bytecode": "0x608060405234801562000010575f80fd5b5062000031620000256200006160201b60201c565b6200006860201b60201c565b5f8060146101000a81548160ff0219169083151502179055506200005b336200012960201b60201c565b62000792565b5f33905090565b5f805f9054906101000a900473ffffffffffffffffffffffffffffffffffffffff169050815f806101000a81548173ffffffffffffffffffffffffffffffffffffffff021916908373ffffffffffffffffffffffffffffffffffffffff1602179055508173ffffffffffffffffffffffffffffffffffffffff168173ffffffffffffffffffffffffffffffffffffffff167f8be0079c531659141344cd1fd0a4f28419497f9722a3daafe3b4186f6b6457e060405160405180910390a35050565b6040518060a001604052808273ffffffffffffffffffffffffffffffffffffffff16815260200160405180602001604052805f81525081526020016004808111156200017a5762000179620003b3565b5b81526020016001151581526020014281525060015f8373ffffffffffffffffffffffffffffffffffffffff1673ffffffffffffffffffffffffffffffffffffffff1681526020019081526020015f205f820151815f015f6101000a81548173ffffffffffffffffffffffffffffffffffffffff021916908373ffffffffffffffffffffffffffffffffffffffff160217905550602082015181600101908162000224919062000644565b506040820151816002015f6101000a81548160ff02191690836004811115620002525762000251620003b3565b5b021790555060608201518160020160016101000a81548160ff02191690831515021790555060808201518160030155905050600160035f8373ffffffffffffffffffffffffffffffffffffffff1673ffffffffffffffffffffffffffffffffffffffff1681526020019081526020015f205f6101000a81548160ff0219169083151502179055508073ffffffffffffffffffffffffffffffffffffffff167f44d6d25963f097ad14f29f06854a01f575648a1ef82f30e562ccd3889717e33960405160405180910390a28073ffffffffffffffffffffffffffffffffffffffff167f8e18574f8a7333e6a87112742a55853a643e2f0550f4e1a3a2c3f1bb2994441d600460405162000365919062000777565b60405180910390a28073ffffffffffffffffffffffffffffffffffffffff167fa6625d2d26e786e2f473111bea4b2fcdbbf1863d883a2359989ce3a103d2972a60405160405180910390a250565b7f4e487b71000000000000000000000000000000000000000000000000000000005f52602160045260245ffd5b5f81519050919050565b7f4e487b71000000000000000000000000000000000000000000000000000000005f52604160045260245ffd5b7f4e487b71000000000000000000000000000000000000000000000000000000005f52602260045260245ffd5b5f60028204905060018216806200045c57607f821691505b60208210810362000472576200047162000417565b5b50919050565b5f819050815f5260205f209050919050565b5f6020601f8301049050919050565b5f82821b905092915050565b5f60088302620004d67fffffffffffffffffffffffffffffffffffffffffffffffffffffffffffffffff8262000499565b620004e2868362000499565b95508019841693508086168417925050509392505050565b5f819050919050565b5f819050919050565b5f6200052c620005266200052084620004fa565b62000503565b620004fa565b9050919050565b5f819050919050565b62000547836200050c565b6200055f620005568262000533565b848454620004a5565b825550505050565b5f90565b6200057562000567565b620005828184846200053c565b505050565b5b81811015620005a9576200059d5f826200056b565b60018101905062000588565b5050565b601f821115620005f857620005c28162000478565b620005cd846200048a565b81016020851015620005dd578190505b620005f5620005ec856200048a565b83018262000587565b50505b505050565b5f82821c905092915050565b5f6200061a5f1984600802620005fd565b1980831691505092915050565b5f62000634838362000609565b9150826002028217905092915050565b6200064f82620003e0565b67ffffffffffffffff8111156200066b576200066a620003ea565b5b62000677825462000444565b62000684828285620005ad565b5f60209050601f831160018114620006ba575f8415620006a5578287015190505b620006b1858262000627565b86555062000720565b601f198416620006ca8662000478565b5f5b82811015620006f357848901518255600182019150602085019450602081019050620006cc565b868310156200071357848901516200070f601f89168262000609565b8355505b6001600288020188555050505b505050505050565b600581106200073c576200073b620003b3565b5b50565b5f8190506200074e8262000728565b919050565b5f6200075f826200073f565b9050919050565b620007718162000753565b82525050565b5f6020820190506200078c5f83018462000766565b92915050565b6128fb80620007a05f395ff3fe608060405234801561000f575f80fd5b506004361061011f575f3560e01c806370480275116100ab578063b2d9767f1161006f578063b2d9767f146102f5578063c291fe6214610325578063c946c1b414610341578063d29bcc5c1461035d578063f2fde38b146103795761011f565b80637048027514610273578063715018a61461028f5780638456cb59146102995780638da5cb5b146102a3578063a87430ba146102c15761011f565b80633da1c0c3116100f25780633da1c0c3146101cf5780633f4ba83a146101ff578063429b62e5146102095780634d813120146102395780635c975abb146102555761011f565b80630331df07146101235780631785f53c1461015357806324d7806c1461016f578063278208511461019f575b5f80fd5b61013d60048036038101906101389190611d24565b610395565b60405161014a9190611d69565b60405180910390f35b61016d60048036038101906101689190611d24565b6103e7565b005b61018960048036038101906101849190611d24565b610646565b6040516101969190611d69565b60405180910390f35b6101b960048036038101906101b49190611d24565b6106d5565b6040516101c69190611df5565b60405180910390f35b6101e960048036038101906101e49190611d24565b61072a565b6040516101f69190611d69565b60405180910390f35b610207610780565b005b610223600480360381019061021e9190611d24565b610850565b6040516102309190611d69565b60405180910390f35b610253600480360381019061024e9190611d24565b61086d565b005b61025d610b2b565b60405161026a9190611d69565b60405180910390f35b61028d60048036038101906102889190611d24565b610b40565b005b610297610bde565b005b6102a1610bf1565b005b6102ab610cc1565b6040516102b89190611e1d565b60405180910390f35b6102db60048036038101906102d69190611d24565b610ce8565b6040516102ec959493929190611ed8565b60405180910390f35b61030f600480360381019061030a9190611d24565b610dd8565b60405161031c9190611d69565b60405180910390f35b61033f600480360381019061033a9190611f53565b610df5565b005b61035b600480360381019061035691906120bd565b611230565b005b61037760048036038101906103729190612104565b611355565b005b610393600480360381019061038e9190611d24565b61171b565b005b5f60025f8373ffffffffffffffffffffffffffffffffffffffff1673ffffffffffffffffffffffffffffffffffffffff1681526020019081526020015f205f9054906101000a900460ff169050919050565b6103ef61179d565b6103f7610cc1565b73ffffffffffffffffffffffffffffffffffffffff168173ffffffffffffffffffffffffffffffffffffffff1603610464576040517f08c379a000000000000000000000000000000000000000000000000000000000815260040161045b906121a8565b60405180910390fd5b60035f8273ffffffffffffffffffffffffffffffffffffffff1673ffffffffffffffffffffffffffffffffffffffff1681526020019081526020015f205f9054906101000a900460ff166104ed576040517f08c379a00000000000000000000000000000000000000000000000000000000081526004016104e490612210565b60405180910390fd5b5f60035f8373ffffffffffffffffffffffffffffffffffffffff1673ffffffffffffffffffffffffffffffffffffffff1681526020019081526020015f205f6101000a81548160ff0219169083151502179055505f60015f8373ffffffffffffffffffffffffffffffffffffffff1673ffffffffffffffffffffffffffffffffffffffff1681526020019081526020015f206002015f6101000a81548160ff021916908360048111156105a3576105a2611d82565b5b02179055505f60015f8373ffffffffffffffffffffffffffffffffffffffff1673ffffffffffffffffffffffffffffffffffffffff1681526020019081526020015f2060020160016101000a81548160ff0219169083151502179055508073ffffffffffffffffffffffffffffffffffffffff167fa3b62bc36326052d97ea62d63c3d60308ed4c3ea8ac079dd8499f1e9c4f80c0f60405160405180910390a250565b5f60035f8373ffffffffffffffffffffffffffffffffffffffff1673ffffffffffffffffffffffffffffffffffffffff1681526020019081526020015f205f9054906101000a900460ff16806106ce575061069f610cc1565b73ffffffffffffffffffffffffffffffffffffffff168273ffffffffffffffffffffffffffffffffffffffff16145b9050919050565b5f60015f8373ffffffffffffffffffffffffffffffffffffffff1673ffffffffffffffffffffffffffffffffffffffff1681526020019081526020015f206002015f9054906101000a900460ff169050919050565b5f60015f8373ffffffffffffffffffffffffffffffffffffffff1673ffffffffffffffffffffffffffffffffffffffff1681526020019081526020015f2060020160019054906101000a900460ff169050919050565b60035f3373ffffffffffffffffffffffffffffffffffffffff1673ffffffffffffffffffffffffffffffffffffffff1681526020019081526020015f205f9054906101000a900460ff168061080757506107d8610cc1565b73ffffffffffffffffffffffffffffffffffffffff163373ffffffffffffffffffffffffffffffffffffffff16145b610846576040517f08c379a000000000000000000000000000000000000000000000000000000000815260040161083d90612210565b60405180910390fd5b61084e61181b565b565b6003602052805f5260405f205f915054906101000a900460ff1681565b60035f3373ffffffffffffffffffffffffffffffffffffffff1673ffffffffffffffffffffffffffffffffffffffff1681526020019081526020015f205f9054906101000a900460ff16806108f457506108c5610cc1565b73ffffffffffffffffffffffffffffffffffffffff163373ffffffffffffffffffffffffffffffffffffffff16145b610933576040517f08c379a000000000000000000000000000000000000000000000000000000000815260040161092a90612210565b60405180910390fd5b5f73ffffffffffffffffffffffffffffffffffffffff1660015f8373ffffffffffffffffffffffffffffffffffffffff1673ffffffffffffffffffffffffffffffffffffffff1681526020019081526020015f205f015f9054906101000a900473ffffffffffffffffffffffffffffffffffffffff1673ffffffffffffffffffffffffffffffffffffffff16036109ff576040517f08c379a00000000000000000000000000000000000000000000000000000000081526004016109f690612278565b60405180910390fd5b60015f8273ffffffffffffffffffffffffffffffffffffffff1673ffffffffffffffffffffffffffffffffffffffff1681526020019081526020015f2060020160019054906101000a900460ff1615610a8d576040517f08c379a0000000000000000000000000000000000000000000000000000000008152600401610a84906122e0565b60405180910390fd5b6001805f8373ffffffffffffffffffffffffffffffffffffffff1673ffffffffffffffffffffffffffffffffffffffff1681526020019081526020015f2060020160016101000a81548160ff0219169083151502179055508073ffffffffffffffffffffffffffffffffffffffff167fa6625d2d26e786e2f473111bea4b2fcdbbf1863d883a2359989ce3a103d2972a60405160405180910390a250565b5f8060149054906101000a900460ff16905090565b610b4861179d565b60035f8273ffffffffffffffffffffffffffffffffffffffff1673ffffffffffffffffffffffffffffffffffffffff1681526020019081526020015f205f9054906101000a900460ff1615610bd2576040517f08c379a0000000000000000000000000000000000000000000000000000000008152600401610bc990612348565b60405180910390fd5b610bdb8161187c565b50565b610be661179d565b610bef5f611afc565b565b60035f3373ffffffffffffffffffffffffffffffffffffffff1673ffffffffffffffffffffffffffffffffffffffff1681526020019081526020015f205f9054906101000a900460ff1680610c785750610c49610cc1565b73ffffffffffffffffffffffffffffffffffffffff163373ffffffffffffffffffffffffffffffffffffffff16145b610cb7576040517f08c379a0000000000000000000000000000000000000000000000000000000008152600401610cae90612210565b60405180910390fd5b610cbf611bbd565b565b5f805f9054906101000a900473ffffffffffffffffffffffffffffffffffffffff16905090565b6001602052805f5260405f205f91509050805f015f9054906101000a900473ffffffffffffffffffffffffffffffffffffffff1690806001018054610d2c90612393565b80601f0160208091040260200160405190810160405280929190818152602001828054610d5890612393565b8015610da35780601f10610d7a57610100808354040283529160200191610da3565b820191905f5260205f20905b815481529060010190602001808311610d8657829003601f168201915b505050505090806002015f9054906101000a900460ff16908060020160019054906101000a900460ff16908060030154905085565b6002602052805f5260405f205f915054906101000a900460ff1681565b60035f3373ffffffffffffffffffffffffffffffffffffffff1673ffffffffffffffffffffffffffffffffffffffff1681526020019081526020015f205f9054906101000a900460ff1680610e7c5750610e4d610cc1565b73ffffffffffffffffffffffffffffffffffffffff163373ffffffffffffffffffffffffffffffffffffffff16145b610ebb576040517f08c379a0000000000000000000000000000000000000000000000000000000008152600401610eb290612210565b60405180910390fd5b5f73ffffffffffffffffffffffffffffffffffffffff1660015f8473ffffffffffffffffffffffffffffffffffffffff1673ffffffffffffffffffffffffffffffffffffffff1681526020019081526020015f205f015f9054906101000a900473ffffffffffffffffffffffffffffffffffffffff1673ffffffffffffffffffffffffffffffffffffffff1603610f87576040517f08c379a0000000000000000000000000000000000000000000000000000000008152600401610f7e90612278565b60405180910390fd5b5f6004811115610f9a57610f99611d82565b5b816004811115610fad57610fac611d82565b5b14158015610fdf5750600480811115610fc957610fc8611d82565b5b816004811115610fdc57610fdb611d82565b5b14155b61101e576040517f08c379a00000000000000000000000000000000000000000000000000000000081526004016110159061240d565b60405180910390fd5b5f60015f8473ffffffffffffffffffffffffffffffffffffffff1673ffffffffffffffffffffffffffffffffffffffff1681526020019081526020015f206002015f9054906101000a900460ff1690508160015f8573ffffffffffffffffffffffffffffffffffffffff1673ffffffffffffffffffffffffffffffffffffffff1681526020019081526020015f206002015f6101000a81548160ff021916908360048111156110d0576110cf611d82565b5b0217905550600260048111156110e9576110e8611d82565b5b8260048111156110fc576110fb611d82565b5b0361115b57600160025f8573ffffffffffffffffffffffffffffffffffffffff1673ffffffffffffffffffffffffffffffffffffffff1681526020019081526020015f205f6101000a81548160ff0219169083151502179055506111dd565b6002600481111561116f5761116e611d82565b5b81600481111561118257611181611d82565b5b036111dc575f60025f8573ffffffffffffffffffffffffffffffffffffffff1673ffffffffffffffffffffffffffffffffffffffff1681526020019081526020015f205f6101000a81548160ff0219169083151502179055505b5b8273ffffffffffffffffffffffffffffffffffffffff167f8e18574f8a7333e6a87112742a55853a643e2f0550f4e1a3a2c3f1bb2994441d836040516112239190611df5565b60405180910390a2505050565b611238611c1f565b5f73ffffffffffffffffffffffffffffffffffffffff1660015f3373ffffffffffffffffffffffffffffffffffffffff1673ffffffffffffffffffffffffffffffffffffffff1681526020019081526020015f205f015f9054906101000a900473ffffffffffffffffffffffffffffffffffffffff1673ffffffffffffffffffffffffffffffffffffffff1603611304576040517f08c379a00000000000000000000000000000000000000000000000000000000081526004016112fb90612278565b60405180910390fd5b8060015f3373ffffffffffffffffffffffffffffffffffffffff1673ffffffffffffffffffffffffffffffffffffffff1681526020019081526020015f20600101908161135191906125c8565b5050565b61135d611c1f565b5f73ffffffffffffffffffffffffffffffffffffffff1660015f3373ffffffffffffffffffffffffffffffffffffffff1673ffffffffffffffffffffffffffffffffffffffff1681526020019081526020015f205f015f9054906101000a900473ffffffffffffffffffffffffffffffffffffffff1673ffffffffffffffffffffffffffffffffffffffff1614611429576040517f08c379a0000000000000000000000000000000000000000000000000000000008152600401611420906126e1565b60405180910390fd5b5f600481111561143c5761143b611d82565b5b82600481111561144f5761144e611d82565b5b14158015611481575060048081111561146b5761146a611d82565b5b82600481111561147e5761147d611d82565b5b14155b6114c0576040517f08c379a00000000000000000000000000000000000000000000000000000000081526004016114b79061240d565b60405180910390fd5b6040518060a001604052803373ffffffffffffffffffffffffffffffffffffffff168152602001828152602001836004811115611500576114ff611d82565b5b81526020015f151581526020014281525060015f3373ffffffffffffffffffffffffffffffffffffffff1673ffffffffffffffffffffffffffffffffffffffff1681526020019081526020015f205f820151815f015f6101000a81548173ffffffffffffffffffffffffffffffffffffffff021916908373ffffffffffffffffffffffffffffffffffffffff16021790555060208201518160010190816115a791906125c8565b506040820151816002015f6101000a81548160ff021916908360048111156115d2576115d1611d82565b5b021790555060608201518160020160016101000a81548160ff021916908315150217905550608082015181600301559050506002600481111561161857611617611d82565b5b82600481111561162b5761162a611d82565b5b036116c957600160025f3373ffffffffffffffffffffffffffffffffffffffff1673ffffffffffffffffffffffffffffffffffffffff1681526020019081526020015f205f6101000a81548160ff0219169083151502179055503373ffffffffffffffffffffffffffffffffffffffff167f0bfb62b1fbb00013554ed3ff21ca179a519aee08ccf015aed3482362436b6b3560405160405180910390a25b3373ffffffffffffffffffffffffffffffffffffffff167f8e18574f8a7333e6a87112742a55853a643e2f0550f4e1a3a2c3f1bb2994441d8360405161170f9190611df5565b60405180910390a25050565b61172361179d565b5f73ffffffffffffffffffffffffffffffffffffffff168173ffffffffffffffffffffffffffffffffffffffff1603611791576040517f08c379a00000000000000000000000000000000000000000000000000000000081526004016117889061276f565b60405180910390fd5b61179a81611afc565b50565b6117a5611c69565b73ffffffffffffffffffffffffffffffffffffffff166117c3610cc1565b73ffffffffffffffffffffffffffffffffffffffff1614611819576040517f08c379a0000000000000000000000000000000000000000000000000000000008152600401611810906127d7565b60405180910390fd5b565b611823611c70565b5f8060146101000a81548160ff0219169083151502179055507f5db9ee0a495bf2e6ff9c91a7834c1ba4fdd244a5e8aa4e537bd38aeae4b073aa611865611c69565b6040516118729190611e1d565b60405180910390a1565b6040518060a001604052808273ffffffffffffffffffffffffffffffffffffffff16815260200160405180602001604052805f81525081526020016004808111156118ca576118c9611d82565b5b81526020016001151581526020014281525060015f8373ffffffffffffffffffffffffffffffffffffffff1673ffffffffffffffffffffffffffffffffffffffff1681526020019081526020015f205f820151815f015f6101000a81548173ffffffffffffffffffffffffffffffffffffffff021916908373ffffffffffffffffffffffffffffffffffffffff160217905550602082015181600101908161197291906125c8565b506040820151816002015f6101000a81548160ff0219169083600481111561199d5761199c611d82565b5b021790555060608201518160020160016101000a81548160ff02191690831515021790555060808201518160030155905050600160035f8373ffffffffffffffffffffffffffffffffffffffff1673ffffffffffffffffffffffffffffffffffffffff1681526020019081526020015f205f6101000a81548160ff0219169083151502179055508073ffffffffffffffffffffffffffffffffffffffff167f44d6d25963f097ad14f29f06854a01f575648a1ef82f30e562ccd3889717e33960405160405180910390a28073ffffffffffffffffffffffffffffffffffffffff167f8e18574f8a7333e6a87112742a55853a643e2f0550f4e1a3a2c3f1bb2994441d6004604051611aae9190611df5565b60405180910390a28073ffffffffffffffffffffffffffffffffffffffff167fa6625d2d26e786e2f473111bea4b2fcdbbf1863d883a2359989ce3a103d2972a60405160405180910390a250565b5f805f9054906101000a900473ffffffffffffffffffffffffffffffffffffffff169050815f806101000a81548173ffffffffffffffffffffffffffffffffffffffff021916908373ffffffffffffffffffffffffffffffffffffffff1602179055508173ffffffffffffffffffffffffffffffffffffffff168173ffffffffffffffffffffffffffffffffffffffff167f8be0079c531659141344cd1fd0a4f28419497f9722a3daafe3b4186f6b6457e060405160405180910390a35050565b611bc5611c1f565b60015f60146101000a81548160ff0219169083151502179055507f62e78cea01bee320cd4e420270b5ea74000d11b0c9f74754ebdbfc544b05a258611c08611c69565b604051611c159190611e1d565b60405180910390a1565b611c27610b2b565b15611c67576040517f08c379a0000000000000000000000000000000000000000000000000000000008152600401611c5e9061283f565b60405180910390fd5b565b5f33905090565b611c78610b2b565b611cb7576040517f08c379a0000000000000000000000000000000000000000000000000000000008152600401611cae906128a7565b60405180910390fd5b565b5f604051905090565b5f80fd5b5f80fd5b5f73ffffffffffffffffffffffffffffffffffffffff82169050919050565b5f611cf382611cca565b9050919050565b611d0381611ce9565b8114611d0d575f80fd5b50565b5f81359050611d1e81611cfa565b92915050565b5f60208284031215611d3957611d38611cc2565b5b5f611d4684828501611d10565b91505092915050565b5f8115159050919050565b611d6381611d4f565b82525050565b5f602082019050611d7c5f830184611d5a565b92915050565b7f4e487b71000000000000000000000000000000000000000000000000000000005f52602160045260245ffd5b60058110611dc057611dbf611d82565b5b50565b5f819050611dd082611daf565b919050565b5f611ddf82611dc3565b9050919050565b611def81611dd5565b82525050565b5f602082019050611e085f830184611de6565b92915050565b611e1781611ce9565b82525050565b5f602082019050611e305f830184611e0e565b92915050565b5f81519050919050565b5f82825260208201905092915050565b5f5b83811015611e6d578082015181840152602081019050611e52565b5f8484015250505050565b5f601f19601f8301169050919050565b5f611e9282611e36565b611e9c8185611e40565b9350611eac818560208601611e50565b611eb581611e78565b840191505092915050565b5f819050919050565b611ed281611ec0565b82525050565b5f60a082019050611eeb5f830188611e0e565b8181036020830152611efd8187611e88565b9050611f0c6040830186611de6565b611f196060830185611d5a565b611f266080830184611ec9565b9695505050505050565b60058110611f3c575f80fd5b50565b5f81359050611f4d81611f30565b92915050565b5f8060408385031215611f6957611f68611cc2565b5b5f611f7685828601611d10565b9250506020611f8785828601611f3f565b9150509250929050565b5f80fd5b5f80fd5b7f4e487b71000000000000000000000000000000000000000000000000000000005f52604160045260245ffd5b611fcf82611e78565b810181811067ffffffffffffffff82111715611fee57611fed611f99565b5b80604052505050565b5f612000611cb9565b905061200c8282611fc6565b919050565b5f67ffffffffffffffff82111561202b5761202a611f99565b5b61203482611e78565b9050602081019050919050565b828183375f83830152505050565b5f61206161205c84612011565b611ff7565b90508281526020810184848401111561207d5761207c611f95565b5b612088848285612041565b509392505050565b5f82601f8301126120a4576120a3611f91565b5b81356120b484826020860161204f565b91505092915050565b5f602082840312156120d2576120d1611cc2565b5b5f82013567ffffffffffffffff8111156120ef576120ee611cc6565b5b6120fb84828501612090565b91505092915050565b5f806040838503121561211a57612119611cc2565b5b5f61212785828601611f3f565b925050602083013567ffffffffffffffff81111561214857612147611cc6565b5b61215485828601612090565b9150509250929050565b7f43616e6e6f742072656d6f7665206f776e6572000000000000000000000000005f82015250565b5f612192601383611e40565b915061219d8261215e565b602082019050919050565b5f6020820190508181035f8301526121bf81612186565b9050919050565b7f4e6f7420616e2061646d696e00000000000000000000000000000000000000005f82015250565b5f6121fa600c83611e40565b9150612205826121c6565b602082019050919050565b5f6020820190508181035f830152612227816121ee565b9050919050565b7f5573657220646f6573206e6f74206578697374000000000000000000000000005f82015250565b5f612262601383611e40565b915061226d8261222e565b602082019050919050565b5f6020820190508181035f83015261228f81612256565b9050919050565b7f5573657220616c726561647920766572696669656400000000000000000000005f82015250565b5f6122ca601583611e40565b91506122d582612296565b602082019050919050565b5f6020820190508181035f8301526122f7816122be565b9050919050565b7f416c726561647920616e2061646d696e000000000000000000000000000000005f82015250565b5f612332601083611e40565b915061233d826122fe565b602082019050919050565b5f6020820190508181035f83015261235f81612326565b9050919050565b7f4e487b71000000000000000000000000000000000000000000000000000000005f52602260045260245ffd5b5f60028204905060018216806123aa57607f821691505b6020821081036123bd576123bc612366565b5b50919050565b7f496e76616c696420726f6c6500000000000000000000000000000000000000005f82015250565b5f6123f7600c83611e40565b9150612402826123c3565b602082019050919050565b5f6020820190508181035f830152612424816123eb565b9050919050565b5f819050815f5260205f209050919050565b5f6020601f8301049050919050565b5f82821b905092915050565b5f600883026124877fffffffffffffffffffffffffffffffffffffffffffffffffffffffffffffffff8261244c565b612491868361244c565b95508019841693508086168417925050509392505050565b5f819050919050565b5f6124cc6124c76124c284611ec0565b6124a9565b611ec0565b9050919050565b5f819050919050565b6124e5836124b2565b6124f96124f1826124d3565b848454612458565b825550505050565b5f90565b61250d612501565b6125188184846124dc565b505050565b5b8181101561253b576125305f82612505565b60018101905061251e565b5050565b601f821115612580576125518161242b565b61255a8461243d565b81016020851015612569578190505b61257d6125758561243d565b83018261251d565b50505b505050565b5f82821c905092915050565b5f6125a05f1984600802612585565b1980831691505092915050565b5f6125b88383612591565b9150826002028217905092915050565b6125d182611e36565b67ffffffffffffffff8111156125ea576125e9611f99565b5b6125f48254612393565b6125ff82828561253f565b5f60209050601f831160018114612630575f841561261e578287015190505b61262885826125ad565b86555061268f565b601f19841661263e8661242b565b5f5b8281101561266557848901518255600182019150602085019450602081019050612640565b86831015612682578489015161267e601f891682612591565b8355505b6001600288020188555050505b505050505050565b7f5573657220616c726561647920657869737473000000000000000000000000005f82015250565b5f6126cb601383611e40565b91506126d682612697565b602082019050919050565b5f6020820190508181035f8301526126f8816126bf565b9050919050565b7f4f776e61626c653a206e6577206f776e657220697320746865207a65726f20615f8201527f6464726573730000000000000000000000000000000000000000000000000000602082015250565b5f612759602683611e40565b9150612764826126ff565b604082019050919050565b5f6020820190508181035f8301526127868161274d565b9050919050565b7f4f776e61626c653a2063616c6c6572206973206e6f7420746865206f776e65725f82015250565b5f6127c1602083611e40565b91506127cc8261278d565b602082019050919050565b5f6020820190508181035f8301526127ee816127b5565b9050919050565b7f5061757361626c653a20706175736564000000000000000000000000000000005f82015250565b5f612829601083611e40565b9150612834826127f5565b602082019050919050565b5f6020820190508181035f8301526128568161281d565b9050919050565b7f5061757361626c653a206e6f74207061757365640000000000000000000000005f82015250565b5f612891601483611e40565b915061289c8261285d565b602082019050919050565b5f6020820190508181035f8301526128be81612885565b905091905056fea26469706673582212201dee5cdffe46caca9cc6a25cc5a41d100997d7968a541c3365fe92a8e424419864736f6c63430008140033",
  "immutableReferences": {},
  "source": "// SPDX-License-Identifier: MIT\r\npragma solidity ^0.8.19;\r\n\r\nimport \"@openzeppelin/contracts/access/Ownable.sol\";\r\nimport \"@openzeppelin/contracts/security/Pausable.sol\";\r\n\r\ncontract Identity is Ownable, Pausable {\r\n    enum UserRole { NONE, STUDENT, INSTITUTION, EMPLOYER, ADMIN }\r\n    \r\n    struct User {\r\n        address userAddress;\r\n        string ipfsHash;  // IPFS hash containing user details\r\n        UserRole role;\r\n        bool isVerified;\r\n        uint256 createdAt;\r\n    }\r\n    \r\n    mapping(address => User) public users;\r\n    mapping(address => bool) public institutions;\r\n    mapping(address => bool) public admins;\r\n    \r\n    event UserRegistered(address indexed userAddress, UserRole role);\r\n    event UserVerified(address indexed userAddress);\r\n    event InstitutionAdded(address indexed institution);\r\n    event AdminAdded(address indexed admin);\r\n    event AdminRemoved(address indexed admin);\r\n    \r\n    modifier onlyVerifiedInstitution() {\r\n        require(institutions[msg.sender] && users[msg.sender].isVerified, \"Not a verified institution\");\r\n        _;\r\n    }\r\n    \r\n    modifier onlyAdmin() {\r\n        require(admins[msg.sender] || msg.sender == owner(), \"Not an admin\");\r\n        _;\r\n    }\r\n    \r\n    constructor() {\r\n        // Set deployer as admin\r\n        _setupAdmin(msg.sender);\r\n    }\r\n    \r\n    function _setupAdmin(address _admin) private {\r\n        users[_admin] = User(\r\n            _admin,\r\n            \"\",\r\n            UserRole.ADMIN,\r\n            true,\r\n            block.timestamp\r\n        );\r\n        admins[_admin] = true;\r\n        emit AdminAdded(_admin);\r\n        emit UserRegistered(_admin, UserRole.ADMIN);\r\n        emit UserVerified(_admin);\r\n    }\r\n    \r\n    function addAdmin(address _newAdmin) external onlyOwner {\r\n        require(!admins[_newAdmin], \"Already an admin\");\r\n        _setupAdmin(_newAdmin);\r\n    }\r\n    \r\n    function removeAdmin(address _admin) external onlyOwner {\r\n        require(_admin != owner(), \"Cannot remove owner\");\r\n        require(admins[_admin], \"Not an admin\");\r\n        admins[_admin] = false;\r\n        users[_admin].role = UserRole.NONE;\r\n        users[_admin].isVerified = false;\r\n        emit AdminRemoved(_admin);\r\n    }\r\n    \r\n    function isAdmin(address _address) public view returns (bool) {\r\n        return admins[_address] || _address == owner();\r\n    }\r\n    \r\n    function registerUser(UserRole _role, string memory _ipfsHash) external whenNotPaused {\r\n        require(users[msg.sender].userAddress == address(0), \"User already exists\");\r\n        require(_role != UserRole.NONE && _role != UserRole.ADMIN, \"Invalid role\");\r\n        \r\n        users[msg.sender] = User(\r\n            msg.sender,\r\n            _ipfsHash,\r\n            _role,\r\n            false,\r\n            block.timestamp\r\n        );\r\n        \r\n        if (_role == UserRole.INSTITUTION) {\r\n            institutions[msg.sender] = true;\r\n            emit InstitutionAdded(msg.sender);  // Add this line\r\n        }\r\n        \r\n        emit UserRegistered(msg.sender, _role);\r\n    }\r\n    \r\n    function verifyUser(address _userAddress) external onlyAdmin {\r\n        require(users[_userAddress].userAddress != address(0), \"User does not exist\");\r\n        require(!users[_userAddress].isVerified, \"User already verified\");\r\n        \r\n        users[_userAddress].isVerified = true;\r\n        emit UserVerified(_userAddress);\r\n    }\r\n    \r\n    function updateUserIPFS(string memory _newIpfsHash) external whenNotPaused {\r\n        require(users[msg.sender].userAddress != address(0), \"User does not exist\");\r\n        users[msg.sender].ipfsHash = _newIpfsHash;\r\n    }\r\n    \r\n    function getUserRole(address _userAddress) external view returns (UserRole) {\r\n        return users[_userAddress].role;\r\n    }\r\n    \r\n    function isVerifiedUser(address _userAddress) external view returns (bool) {\r\n        return users[_userAddress].isVerified;\r\n    }\r\n    \r\n    function updateUserRole(address _userAddress, UserRole _newRole) external onlyAdmin {\r\n        require(users[_userAddress].userAddress != address(0), \"User does not exist\");\r\n        require(_newRole != UserRole.NONE && _newRole != UserRole.ADMIN, \"Invalid role\");\r\n        \r\n        UserRole oldRole = users[_userAddress].role;\r\n        users[_userAddress].role = _newRole;\r\n        \r\n        if (_newRole == UserRole.INSTITUTION) {\r\n            institutions[_userAddress] = true;\r\n        } else if (oldRole == UserRole.INSTITUTION) {\r\n            institutions[_userAddress] = false;\r\n        }\r\n        \r\n        emit UserRegistered(_userAddress, _newRole);\r\n    }\r\n    \r\n    // Emergency functions\r\n    function pause() external onlyAdmin {\r\n        _pause();\r\n    }\r\n    \r\n    function unpause() external onlyAdmin {\r\n        _unpause();\r\n    }\r\n    \r\n    // Add this function to check if an address is registered as an institution\r\n    function isInstitution(address _address) public view returns (bool) {\r\n        return institutions[_address];\r\n    }\r\n}",
  "sourcePath": "C:\\Users\\osama\\OneDrive\\Desktop\\Graduation\\grad-main-0.1\\contracts\\Identity.sol",
  "compiler": {
    "name": "solc",
    "version": "0.8.20+commit.a1b79de6.Emscripten.clang"
  },
  "schemaVersion": "3.4.16",
  "updatedAt": "2025-04-17T20:24:07.805Z",
  "devdoc": {
    "events": {
      "Paused(address)": {
        "details": "Emitted when the pause is triggered by `account`."
      },
      "Unpaused(address)": {
        "details": "Emitted when the pause is lifted by `account`."
      }
    },
    "kind": "dev",
    "methods": {
      "owner()": {
        "details": "Returns the address of the current owner."
      },
      "paused()": {
        "details": "Returns true if the contract is paused, and false otherwise."
      },
      "renounceOwnership()": {
        "details": "Leaves the contract without owner. It will not be possible to call `onlyOwner` functions. Can only be called by the current owner. NOTE: Renouncing ownership will leave the contract without an owner, thereby disabling any functionality that is only available to the owner."
      },
      "transferOwnership(address)": {
        "details": "Transfers ownership of the contract to a new account (`newOwner`). Can only be called by the current owner."
      }
    },
    "version": 1
  },
  "userdoc": {
    "kind": "user",
    "methods": {},
    "version": 1
  }
}