{
  "contractName": "Identity",
  "abi": [
    {
      "inputs": [],
      "stateMutability": "nonpayable",
      "type": "constructor"
    },
    {
      "anonymous": false,
      "inputs": [
        {
          "indexed": true,
          "internalType": "address",
          "name": "admin",
          "type": "address"
        }
      ],
      "name": "AdminAdded",
      "type": "event"
    },
    {
      "anonymous": false,
      "inputs": [
        {
          "indexed": true,
          "internalType": "address",
          "name": "admin",
          "type": "address"
        }
      ],
      "name": "AdminRemoved",
      "type": "event"
    },
    {
      "anonymous": false,
      "inputs": [
        {
          "indexed": true,
          "internalType": "address",
          "name": "institution",
          "type": "address"
        }
      ],
      "name": "InstitutionAdded",
      "type": "event"
    },
    {
      "anonymous": false,
      "inputs": [
        {
          "indexed": true,
          "internalType": "address",
          "name": "previousOwner",
          "type": "address"
        },
        {
          "indexed": true,
          "internalType": "address",
          "name": "newOwner",
          "type": "address"
        }
      ],
      "name": "OwnershipTransferred",
      "type": "event"
    },
    {
      "anonymous": false,
      "inputs": [
        {
          "indexed": false,
          "internalType": "address",
          "name": "account",
          "type": "address"
        }
      ],
      "name": "Paused",
      "type": "event"
    },
    {
      "anonymous": false,
      "inputs": [
        {
          "indexed": false,
          "internalType": "address",
          "name": "account",
          "type": "address"
        }
      ],
      "name": "Unpaused",
      "type": "event"
    },
    {
      "anonymous": false,
      "inputs": [
        {
          "indexed": true,
          "internalType": "address",
          "name": "userAddress",
          "type": "address"
        },
        {
          "indexed": false,
          "internalType": "enum Identity.UserRole",
          "name": "role",
          "type": "uint8"
        }
      ],
      "name": "UserRegistered",
      "type": "event"
    },
    {
      "anonymous": false,
      "inputs": [
        {
          "indexed": true,
          "internalType": "address",
          "name": "userAddress",
          "type": "address"
        }
      ],
      "name": "UserVerified",
      "type": "event"
    },
    {
      "inputs": [
        {
          "internalType": "address",
          "name": "",
          "type": "address"
        }
      ],
      "name": "admins",
      "outputs": [
        {
          "internalType": "bool",
          "name": "",
          "type": "bool"
        }
      ],
      "stateMutability": "view",
      "type": "function",
      "constant": true
    },
    {
      "inputs": [
        {
          "internalType": "address",
          "name": "",
          "type": "address"
        }
      ],
      "name": "institutions",
      "outputs": [
        {
          "internalType": "bool",
          "name": "",
          "type": "bool"
        }
      ],
      "stateMutability": "view",
      "type": "function",
      "constant": true
    },
    {
      "inputs": [],
      "name": "owner",
      "outputs": [
        {
          "internalType": "address",
          "name": "",
          "type": "address"
        }
      ],
      "stateMutability": "view",
      "type": "function",
      "constant": true
    },
    {
      "inputs": [],
      "name": "paused",
      "outputs": [
        {
          "internalType": "bool",
          "name": "",
          "type": "bool"
        }
      ],
      "stateMutability": "view",
      "type": "function",
      "constant": true
    },
    {
      "inputs": [],
      "name": "renounceOwnership",
      "outputs": [],
      "stateMutability": "nonpayable",
      "type": "function"
    },
    {
      "inputs": [
        {
          "internalType": "address",
          "name": "newOwner",
          "type": "address"
        }
      ],
      "name": "transferOwnership",
      "outputs": [],
      "stateMutability": "nonpayable",
      "type": "function"
    },
    {
      "inputs": [
        {
          "internalType": "address",
          "name": "",
          "type": "address"
        }
      ],
      "name": "users",
      "outputs": [
        {
          "internalType": "address",
          "name": "userAddress",
          "type": "address"
        },
        {
          "internalType": "string",
          "name": "ipfsHash",
          "type": "string"
        },
        {
          "internalType": "enum Identity.UserRole",
          "name": "role",
          "type": "uint8"
        },
        {
          "internalType": "bool",
          "name": "isVerified",
          "type": "bool"
        },
        {
          "internalType": "uint256",
          "name": "createdAt",
          "type": "uint256"
        }
      ],
      "stateMutability": "view",
      "type": "function",
      "constant": true
    },
    {
      "inputs": [
        {
          "internalType": "address",
          "name": "_newAdmin",
          "type": "address"
        }
      ],
      "name": "addAdmin",
      "outputs": [],
      "stateMutability": "nonpayable",
      "type": "function"
    },
    {
      "inputs": [
        {
          "internalType": "address",
          "name": "_admin",
          "type": "address"
        }
      ],
      "name": "removeAdmin",
      "outputs": [],
      "stateMutability": "nonpayable",
      "type": "function"
    },
    {
      "inputs": [
        {
          "internalType": "address",
          "name": "_address",
          "type": "address"
        }
      ],
      "name": "isAdmin",
      "outputs": [
        {
          "internalType": "bool",
          "name": "",
          "type": "bool"
        }
      ],
      "stateMutability": "view",
      "type": "function",
      "constant": true
    },
    {
      "inputs": [
        {
          "internalType": "enum Identity.UserRole",
          "name": "_role",
          "type": "uint8"
        },
        {
          "internalType": "string",
          "name": "_ipfsHash",
          "type": "string"
        }
      ],
      "name": "registerUser",
      "outputs": [],
      "stateMutability": "nonpayable",
      "type": "function"
    },
    {
      "inputs": [
        {
          "internalType": "address",
          "name": "_userAddress",
          "type": "address"
        }
      ],
      "name": "verifyUser",
      "outputs": [],
      "stateMutability": "nonpayable",
      "type": "function"
    },
    {
      "inputs": [
        {
          "internalType": "string",
          "name": "_newIpfsHash",
          "type": "string"
        }
      ],
      "name": "updateUserIPFS",
      "outputs": [],
      "stateMutability": "nonpayable",
      "type": "function"
    },
    {
      "inputs": [
        {
          "internalType": "address",
          "name": "_userAddress",
          "type": "address"
        }
      ],
      "name": "getUserRole",
      "outputs": [
        {
          "internalType": "enum Identity.UserRole",
          "name": "",
          "type": "uint8"
        }
      ],
      "stateMutability": "view",
      "type": "function",
      "constant": true
    },
    {
      "inputs": [
        {
          "internalType": "address",
          "name": "_userAddress",
          "type": "address"
        }
      ],
      "name": "isVerifiedUser",
      "outputs": [
        {
          "internalType": "bool",
          "name": "",
          "type": "bool"
        }
      ],
      "stateMutability": "view",
      "type": "function",
      "constant": true
    },
    {
      "inputs": [
        {
          "internalType": "address",
          "name": "_userAddress",
          "type": "address"
        },
        {
          "internalType": "enum Identity.UserRole",
          "name": "_newRole",
          "type": "uint8"
        }
      ],
      "name": "updateUserRole",
      "outputs": [],
      "stateMutability": "nonpayable",
      "type": "function"
    },
    {
      "inputs": [],
      "name": "pause",
      "outputs": [],
      "stateMutability": "nonpayable",
      "type": "function"
    },
    {
      "inputs": [],
      "name": "unpause",
      "outputs": [],
      "stateMutability": "nonpayable",
      "type": "function"
    }
  ],
  "bytecode": "0x60806040523480156200001157600080fd5b5062000032620000266200006360201b60201c565b6200006b60201b60201c565b60008060146101000a81548160ff0219169083151502179055506200005d336200012f60201b60201c565b620007c1565b600033905090565b60008060009054906101000a900473ffffffffffffffffffffffffffffffffffffffff169050816000806101000a81548173ffffffffffffffffffffffffffffffffffffffff021916908373ffffffffffffffffffffffffffffffffffffffff1602179055508173ffffffffffffffffffffffffffffffffffffffff168173ffffffffffffffffffffffffffffffffffffffff167f8be0079c531659141344cd1fd0a4f28419497f9722a3daafe3b4186f6b6457e060405160405180910390a35050565b6040518060a001604052808273ffffffffffffffffffffffffffffffffffffffff168152602001604051806020016040528060008152508152602001600480811115620001815762000180620003c3565b5b815260200160011515815260200142815250600160008373ffffffffffffffffffffffffffffffffffffffff1673ffffffffffffffffffffffffffffffffffffffff16815260200190815260200160002060008201518160000160006101000a81548173ffffffffffffffffffffffffffffffffffffffff021916908373ffffffffffffffffffffffffffffffffffffffff16021790555060208201518160010190816200023091906200066c565b5060408201518160020160006101000a81548160ff021916908360048111156200025f576200025e620003c3565b5b021790555060608201518160020160016101000a81548160ff021916908315150217905550608082015181600301559050506001600360008373ffffffffffffffffffffffffffffffffffffffff1673ffffffffffffffffffffffffffffffffffffffff16815260200190815260200160002060006101000a81548160ff0219169083151502179055508073ffffffffffffffffffffffffffffffffffffffff167f44d6d25963f097ad14f29f06854a01f575648a1ef82f30e562ccd3889717e33960405160405180910390a28073ffffffffffffffffffffffffffffffffffffffff167f8e18574f8a7333e6a87112742a55853a643e2f0550f4e1a3a2c3f1bb2994441d6004604051620003759190620007a4565b60405180910390a28073ffffffffffffffffffffffffffffffffffffffff167fa6625d2d26e786e2f473111bea4b2fcdbbf1863d883a2359989ce3a103d2972a60405160405180910390a250565b7f4e487b7100000000000000000000000000000000000000000000000000000000600052602160045260246000fd5b600081519050919050565b7f4e487b7100000000000000000000000000000000000000000000000000000000600052604160045260246000fd5b7f4e487b7100000000000000000000000000000000000000000000000000000000600052602260045260246000fd5b600060028204905060018216806200047457607f821691505b6020821081036200048a57620004896200042c565b5b50919050565b60008190508160005260206000209050919050565b60006020601f8301049050919050565b600082821b905092915050565b600060088302620004f47fffffffffffffffffffffffffffffffffffffffffffffffffffffffffffffffff82620004b5565b620005008683620004b5565b95508019841693508086168417925050509392505050565b6000819050919050565b6000819050919050565b60006200054d62000547620005418462000518565b62000522565b62000518565b9050919050565b6000819050919050565b62000569836200052c565b62000581620005788262000554565b848454620004c2565b825550505050565b600090565b6200059862000589565b620005a58184846200055e565b505050565b5b81811015620005cd57620005c16000826200058e565b600181019050620005ab565b5050565b601f8211156200061c57620005e68162000490565b620005f184620004a5565b8101602085101562000601578190505b620006196200061085620004a5565b830182620005aa565b50505b505050565b600082821c905092915050565b6000620006416000198460080262000621565b1980831691505092915050565b60006200065c83836200062e565b9150826002028217905092915050565b6200067782620003f2565b67ffffffffffffffff811115620006935762000692620003fd565b5b6200069f82546200045b565b620006ac828285620005d1565b600060209050601f831160018114620006e45760008415620006cf578287015190505b620006db85826200064e565b8655506200074b565b601f198416620006f48662000490565b60005b828110156200071e57848901518255600182019150602085019450602081019050620006f7565b868310156200073e57848901516200073a601f8916826200062e565b8355505b6001600288020188555050505b505050505050565b60058110620007675762000766620003c3565b5b50565b60008190506200077a8262000753565b919050565b60006200078c826200076a565b9050919050565b6200079e816200077f565b82525050565b6000602082019050620007bb600083018462000793565b92915050565b61291c80620007d16000396000f3fe608060405234801561001057600080fd5b50600436106101165760003560e01c8063715018a6116100a2578063b2d9767f11610071578063b2d9767f146102bd578063c291fe62146102ed578063c946c1b414610309578063d29bcc5c14610325578063f2fde38b1461034157610116565b8063715018a6146102575780638456cb59146102615780638da5cb5b1461026b578063a87430ba1461028957610116565b80633f4ba83a116100e95780633f4ba83a146101c7578063429b62e5146101d15780634d813120146102015780635c975abb1461021d578063704802751461023b57610116565b80631785f53c1461011b57806324d7806c1461013757806327820851146101675780633da1c0c314610197575b600080fd5b61013560048036038101906101309190611cdd565b61035d565b005b610151600480360381019061014c9190611cdd565b6105ca565b60405161015e9190611d25565b60405180910390f35b610181600480360381019061017c9190611cdd565b61065d565b60405161018e9190611db7565b60405180910390f35b6101b160048036038101906101ac9190611cdd565b6106b6565b6040516101be9190611d25565b60405180910390f35b6101cf61070f565b005b6101eb60048036038101906101e69190611cdd565b6107e2565b6040516101f89190611d25565b60405180910390f35b61021b60048036038101906102169190611cdd565b610802565b005b610225610acc565b6040516102329190611d25565b60405180910390f35b61025560048036038101906102509190611cdd565b610ae2565b005b61025f610b83565b005b610269610b97565b005b610273610c6a565b6040516102809190611de1565b60405180910390f35b6102a3600480360381019061029e9190611cdd565b610c93565b6040516102b4959493929190611ea5565b60405180910390f35b6102d760048036038101906102d29190611cdd565b610d8b565b6040516102e49190611d25565b60405180910390f35b61030760048036038101906103029190611f24565b610dab565b005b610323600480360381019061031e9190612099565b6111fd565b005b61033f600480360381019061033a91906120e2565b611329565b005b61035b60048036038101906103569190611cdd565b6116bc565b005b61036561173f565b61036d610c6a565b73ffffffffffffffffffffffffffffffffffffffff168173ffffffffffffffffffffffffffffffffffffffff16036103da576040517f08c379a00000000000000000000000000000000000000000000000000000000081526004016103d19061218a565b60405180910390fd5b600360008273ffffffffffffffffffffffffffffffffffffffff1673ffffffffffffffffffffffffffffffffffffffff16815260200190815260200160002060009054906101000a900460ff16610466576040517f08c379a000000000000000000000000000000000000000000000000000000000815260040161045d906121f6565b60405180910390fd5b6000600360008373ffffffffffffffffffffffffffffffffffffffff1673ffffffffffffffffffffffffffffffffffffffff16815260200190815260200160002060006101000a81548160ff0219169083151502179055506000600160008373ffffffffffffffffffffffffffffffffffffffff1673ffffffffffffffffffffffffffffffffffffffff16815260200190815260200160002060020160006101000a81548160ff0219169083600481111561052457610523611d40565b5b02179055506000600160008373ffffffffffffffffffffffffffffffffffffffff1673ffffffffffffffffffffffffffffffffffffffff16815260200190815260200160002060020160016101000a81548160ff0219169083151502179055508073ffffffffffffffffffffffffffffffffffffffff167fa3b62bc36326052d97ea62d63c3d60308ed4c3ea8ac079dd8499f1e9c4f80c0f60405160405180910390a250565b6000600360008373ffffffffffffffffffffffffffffffffffffffff1673ffffffffffffffffffffffffffffffffffffffff16815260200190815260200160002060009054906101000a900460ff16806106565750610627610c6a565b73ffffffffffffffffffffffffffffffffffffffff168273ffffffffffffffffffffffffffffffffffffffff16145b9050919050565b6000600160008373ffffffffffffffffffffffffffffffffffffffff1673ffffffffffffffffffffffffffffffffffffffff16815260200190815260200160002060020160009054906101000a900460ff169050919050565b6000600160008373ffffffffffffffffffffffffffffffffffffffff1673ffffffffffffffffffffffffffffffffffffffff16815260200190815260200160002060020160019054906101000a900460ff169050919050565b600360003373ffffffffffffffffffffffffffffffffffffffff1673ffffffffffffffffffffffffffffffffffffffff16815260200190815260200160002060009054906101000a900460ff1680610799575061076a610c6a565b73ffffffffffffffffffffffffffffffffffffffff163373ffffffffffffffffffffffffffffffffffffffff16145b6107d8576040517f08c379a00000000000000000000000000000000000000000000000000000000081526004016107cf906121f6565b60405180910390fd5b6107e06117bd565b565b60036020528060005260406000206000915054906101000a900460ff1681565b600360003373ffffffffffffffffffffffffffffffffffffffff1673ffffffffffffffffffffffffffffffffffffffff16815260200190815260200160002060009054906101000a900460ff168061088c575061085d610c6a565b73ffffffffffffffffffffffffffffffffffffffff163373ffffffffffffffffffffffffffffffffffffffff16145b6108cb576040517f08c379a00000000000000000000000000000000000000000000000000000000081526004016108c2906121f6565b60405180910390fd5b600073ffffffffffffffffffffffffffffffffffffffff16600160008373ffffffffffffffffffffffffffffffffffffffff1673ffffffffffffffffffffffffffffffffffffffff16815260200190815260200160002060000160009054906101000a900473ffffffffffffffffffffffffffffffffffffffff1673ffffffffffffffffffffffffffffffffffffffff160361099c576040517f08c379a000000000000000000000000000000000000000000000000000000000815260040161099390612262565b60405180910390fd5b600160008273ffffffffffffffffffffffffffffffffffffffff1673ffffffffffffffffffffffffffffffffffffffff16815260200190815260200160002060020160019054906101000a900460ff1615610a2c576040517f08c379a0000000000000000000000000000000000000000000000000000000008152600401610a23906122ce565b60405180910390fd5b60018060008373ffffffffffffffffffffffffffffffffffffffff1673ffffffffffffffffffffffffffffffffffffffff16815260200190815260200160002060020160016101000a81548160ff0219169083151502179055508073ffffffffffffffffffffffffffffffffffffffff167fa6625d2d26e786e2f473111bea4b2fcdbbf1863d883a2359989ce3a103d2972a60405160405180910390a250565b60008060149054906101000a900460ff16905090565b610aea61173f565b600360008273ffffffffffffffffffffffffffffffffffffffff1673ffffffffffffffffffffffffffffffffffffffff16815260200190815260200160002060009054906101000a900460ff1615610b77576040517f08c379a0000000000000000000000000000000000000000000000000000000008152600401610b6e9061233a565b60405180910390fd5b610b808161181f565b50565b610b8b61173f565b610b956000611aa9565b565b600360003373ffffffffffffffffffffffffffffffffffffffff1673ffffffffffffffffffffffffffffffffffffffff16815260200190815260200160002060009054906101000a900460ff1680610c215750610bf2610c6a565b73ffffffffffffffffffffffffffffffffffffffff163373ffffffffffffffffffffffffffffffffffffffff16145b610c60576040517f08c379a0000000000000000000000000000000000000000000000000000000008152600401610c57906121f6565b60405180910390fd5b610c68611b6d565b565b60008060009054906101000a900473ffffffffffffffffffffffffffffffffffffffff16905090565b60016020528060005260406000206000915090508060000160009054906101000a900473ffffffffffffffffffffffffffffffffffffffff1690806001018054610cdc90612389565b80601f0160208091040260200160405190810160405280929190818152602001828054610d0890612389565b8015610d555780601f10610d2a57610100808354040283529160200191610d55565b820191906000526020600020905b815481529060010190602001808311610d3857829003601f168201915b5050505050908060020160009054906101000a900460ff16908060020160019054906101000a900460ff16908060030154905085565b60026020528060005260406000206000915054906101000a900460ff1681565b600360003373ffffffffffffffffffffffffffffffffffffffff1673ffffffffffffffffffffffffffffffffffffffff16815260200190815260200160002060009054906101000a900460ff1680610e355750610e06610c6a565b73ffffffffffffffffffffffffffffffffffffffff163373ffffffffffffffffffffffffffffffffffffffff16145b610e74576040517f08c379a0000000000000000000000000000000000000000000000000000000008152600401610e6b906121f6565b60405180910390fd5b600073ffffffffffffffffffffffffffffffffffffffff16600160008473ffffffffffffffffffffffffffffffffffffffff1673ffffffffffffffffffffffffffffffffffffffff16815260200190815260200160002060000160009054906101000a900473ffffffffffffffffffffffffffffffffffffffff1673ffffffffffffffffffffffffffffffffffffffff1603610f45576040517f08c379a0000000000000000000000000000000000000000000000000000000008152600401610f3c90612262565b60405180910390fd5b60006004811115610f5957610f58611d40565b5b816004811115610f6c57610f6b611d40565b5b14158015610f9e5750600480811115610f8857610f87611d40565b5b816004811115610f9b57610f9a611d40565b5b14155b610fdd576040517f08c379a0000000000000000000000000000000000000000000000000000000008152600401610fd490612406565b60405180910390fd5b6000600160008473ffffffffffffffffffffffffffffffffffffffff1673ffffffffffffffffffffffffffffffffffffffff16815260200190815260200160002060020160009054906101000a900460ff16905081600160008573ffffffffffffffffffffffffffffffffffffffff1673ffffffffffffffffffffffffffffffffffffffff16815260200190815260200160002060020160006101000a81548160ff0219169083600481111561109657611095611d40565b5b0217905550600260048111156110af576110ae611d40565b5b8260048111156110c2576110c1611d40565b5b03611124576001600260008573ffffffffffffffffffffffffffffffffffffffff1673ffffffffffffffffffffffffffffffffffffffff16815260200190815260200160002060006101000a81548160ff0219169083151502179055506111aa565b6002600481111561113857611137611d40565b5b81600481111561114b5761114a611d40565b5b036111a9576000600260008573ffffffffffffffffffffffffffffffffffffffff1673ffffffffffffffffffffffffffffffffffffffff16815260200190815260200160002060006101000a81548160ff0219169083151502179055505b5b8273ffffffffffffffffffffffffffffffffffffffff167f8e18574f8a7333e6a87112742a55853a643e2f0550f4e1a3a2c3f1bb2994441d836040516111f09190611db7565b60405180910390a2505050565b611205611bd0565b600073ffffffffffffffffffffffffffffffffffffffff16600160003373ffffffffffffffffffffffffffffffffffffffff1673ffffffffffffffffffffffffffffffffffffffff16815260200190815260200160002060000160009054906101000a900473ffffffffffffffffffffffffffffffffffffffff1673ffffffffffffffffffffffffffffffffffffffff16036112d6576040517f08c379a00000000000000000000000000000000000000000000000000000000081526004016112cd90612262565b60405180910390fd5b80600160003373ffffffffffffffffffffffffffffffffffffffff1673ffffffffffffffffffffffffffffffffffffffff168152602001908152602001600020600101908161132591906125d2565b5050565b611331611bd0565b600073ffffffffffffffffffffffffffffffffffffffff16600160003373ffffffffffffffffffffffffffffffffffffffff1673ffffffffffffffffffffffffffffffffffffffff16815260200190815260200160002060000160009054906101000a900473ffffffffffffffffffffffffffffffffffffffff1673ffffffffffffffffffffffffffffffffffffffff1614611402576040517f08c379a00000000000000000000000000000000000000000000000000000000081526004016113f9906126f0565b60405180910390fd5b6000600481111561141657611415611d40565b5b82600481111561142957611428611d40565b5b1415801561145b575060048081111561144557611444611d40565b5b82600481111561145857611457611d40565b5b14155b61149a576040517f08c379a000000000000000000000000000000000000000000000000000000000815260040161149190612406565b60405180910390fd5b6040518060a001604052803373ffffffffffffffffffffffffffffffffffffffff1681526020018281526020018360048111156114da576114d9611d40565b5b815260200160001515815260200142815250600160003373ffffffffffffffffffffffffffffffffffffffff1673ffffffffffffffffffffffffffffffffffffffff16815260200190815260200160002060008201518160000160006101000a81548173ffffffffffffffffffffffffffffffffffffffff021916908373ffffffffffffffffffffffffffffffffffffffff160217905550602082015181600101908161158791906125d2565b5060408201518160020160006101000a81548160ff021916908360048111156115b3576115b2611d40565b5b021790555060608201518160020160016101000a81548160ff02191690831515021790555060808201518160030155905050600260048111156115f9576115f8611d40565b5b82600481111561160c5761160b611d40565b5b0361166a576001600260003373ffffffffffffffffffffffffffffffffffffffff1673ffffffffffffffffffffffffffffffffffffffff16815260200190815260200160002060006101000a81548160ff0219169083151502179055505b3373ffffffffffffffffffffffffffffffffffffffff167f8e18574f8a7333e6a87112742a55853a643e2f0550f4e1a3a2c3f1bb2994441d836040516116b09190611db7565b60405180910390a25050565b6116c461173f565b600073ffffffffffffffffffffffffffffffffffffffff168173ffffffffffffffffffffffffffffffffffffffff1603611733576040517f08c379a000000000000000000000000000000000000000000000000000000000815260040161172a90612782565b60405180910390fd5b61173c81611aa9565b50565b611747611c1a565b73ffffffffffffffffffffffffffffffffffffffff16611765610c6a565b73ffffffffffffffffffffffffffffffffffffffff16146117bb576040517f08c379a00000000000000000000000000000000000000000000000000000000081526004016117b2906127ee565b60405180910390fd5b565b6117c5611c22565b60008060146101000a81548160ff0219169083151502179055507f5db9ee0a495bf2e6ff9c91a7834c1ba4fdd244a5e8aa4e537bd38aeae4b073aa611808611c1a565b6040516118159190611de1565b60405180910390a1565b6040518060a001604052808273ffffffffffffffffffffffffffffffffffffffff16815260200160405180602001604052806000815250815260200160048081111561186e5761186d611d40565b5b815260200160011515815260200142815250600160008373ffffffffffffffffffffffffffffffffffffffff1673ffffffffffffffffffffffffffffffffffffffff16815260200190815260200160002060008201518160000160006101000a81548173ffffffffffffffffffffffffffffffffffffffff021916908373ffffffffffffffffffffffffffffffffffffffff160217905550602082015181600101908161191b91906125d2565b5060408201518160020160006101000a81548160ff0219169083600481111561194757611946611d40565b5b021790555060608201518160020160016101000a81548160ff021916908315150217905550608082015181600301559050506001600360008373ffffffffffffffffffffffffffffffffffffffff1673ffffffffffffffffffffffffffffffffffffffff16815260200190815260200160002060006101000a81548160ff0219169083151502179055508073ffffffffffffffffffffffffffffffffffffffff167f44d6d25963f097ad14f29f06854a01f575648a1ef82f30e562ccd3889717e33960405160405180910390a28073ffffffffffffffffffffffffffffffffffffffff167f8e18574f8a7333e6a87112742a55853a643e2f0550f4e1a3a2c3f1bb2994441d6004604051611a5b9190611db7565b60405180910390a28073ffffffffffffffffffffffffffffffffffffffff167fa6625d2d26e786e2f473111bea4b2fcdbbf1863d883a2359989ce3a103d2972a60405160405180910390a250565b60008060009054906101000a900473ffffffffffffffffffffffffffffffffffffffff169050816000806101000a81548173ffffffffffffffffffffffffffffffffffffffff021916908373ffffffffffffffffffffffffffffffffffffffff1602179055508173ffffffffffffffffffffffffffffffffffffffff168173ffffffffffffffffffffffffffffffffffffffff167f8be0079c531659141344cd1fd0a4f28419497f9722a3daafe3b4186f6b6457e060405160405180910390a35050565b611b75611bd0565b6001600060146101000a81548160ff0219169083151502179055507f62e78cea01bee320cd4e420270b5ea74000d11b0c9f74754ebdbfc544b05a258611bb9611c1a565b604051611bc69190611de1565b60405180910390a1565b611bd8610acc565b15611c18576040517f08c379a0000000000000000000000000000000000000000000000000000000008152600401611c0f9061285a565b60405180910390fd5b565b600033905090565b611c2a610acc565b611c69576040517f08c379a0000000000000000000000000000000000000000000000000000000008152600401611c60906128c6565b60405180910390fd5b565b6000604051905090565b600080fd5b600080fd5b600073ffffffffffffffffffffffffffffffffffffffff82169050919050565b6000611caa82611c7f565b9050919050565b611cba81611c9f565b8114611cc557600080fd5b50565b600081359050611cd781611cb1565b92915050565b600060208284031215611cf357611cf2611c75565b5b6000611d0184828501611cc8565b91505092915050565b60008115159050919050565b611d1f81611d0a565b82525050565b6000602082019050611d3a6000830184611d16565b92915050565b7f4e487b7100000000000000000000000000000000000000000000000000000000600052602160045260246000fd5b60058110611d8057611d7f611d40565b5b50565b6000819050611d9182611d6f565b919050565b6000611da182611d83565b9050919050565b611db181611d96565b82525050565b6000602082019050611dcc6000830184611da8565b92915050565b611ddb81611c9f565b82525050565b6000602082019050611df66000830184611dd2565b92915050565b600081519050919050565b600082825260208201905092915050565b60005b83811015611e36578082015181840152602081019050611e1b565b60008484015250505050565b6000601f19601f8301169050919050565b6000611e5e82611dfc565b611e688185611e07565b9350611e78818560208601611e18565b611e8181611e42565b840191505092915050565b6000819050919050565b611e9f81611e8c565b82525050565b600060a082019050611eba6000830188611dd2565b8181036020830152611ecc8187611e53565b9050611edb6040830186611da8565b611ee86060830185611d16565b611ef56080830184611e96565b9695505050505050565b60058110611f0c57600080fd5b50565b600081359050611f1e81611eff565b92915050565b60008060408385031215611f3b57611f3a611c75565b5b6000611f4985828601611cc8565b9250506020611f5a85828601611f0f565b9150509250929050565b600080fd5b600080fd5b7f4e487b7100000000000000000000000000000000000000000000000000000000600052604160045260246000fd5b611fa682611e42565b810181811067ffffffffffffffff82111715611fc557611fc4611f6e565b5b80604052505050565b6000611fd8611c6b565b9050611fe48282611f9d565b919050565b600067ffffffffffffffff82111561200457612003611f6e565b5b61200d82611e42565b9050602081019050919050565b82818337600083830152505050565b600061203c61203784611fe9565b611fce565b90508281526020810184848401111561205857612057611f69565b5b61206384828561201a565b509392505050565b600082601f8301126120805761207f611f64565b5b8135612090848260208601612029565b91505092915050565b6000602082840312156120af576120ae611c75565b5b600082013567ffffffffffffffff8111156120cd576120cc611c7a565b5b6120d98482850161206b565b91505092915050565b600080604083850312156120f9576120f8611c75565b5b600061210785828601611f0f565b925050602083013567ffffffffffffffff81111561212857612127611c7a565b5b6121348582860161206b565b9150509250929050565b7f43616e6e6f742072656d6f7665206f776e657200000000000000000000000000600082015250565b6000612174601383611e07565b915061217f8261213e565b602082019050919050565b600060208201905081810360008301526121a381612167565b9050919050565b7f4e6f7420616e2061646d696e0000000000000000000000000000000000000000600082015250565b60006121e0600c83611e07565b91506121eb826121aa565b602082019050919050565b6000602082019050818103600083015261220f816121d3565b9050919050565b7f5573657220646f6573206e6f7420657869737400000000000000000000000000600082015250565b600061224c601383611e07565b915061225782612216565b602082019050919050565b6000602082019050818103600083015261227b8161223f565b9050919050565b7f5573657220616c72656164792076657269666965640000000000000000000000600082015250565b60006122b8601583611e07565b91506122c382612282565b602082019050919050565b600060208201905081810360008301526122e7816122ab565b9050919050565b7f416c726561647920616e2061646d696e00000000000000000000000000000000600082015250565b6000612324601083611e07565b915061232f826122ee565b602082019050919050565b6000602082019050818103600083015261235381612317565b9050919050565b7f4e487b7100000000000000000000000000000000000000000000000000000000600052602260045260246000fd5b600060028204905060018216806123a157607f821691505b6020821081036123b4576123b361235a565b5b50919050565b7f496e76616c696420726f6c650000000000000000000000000000000000000000600082015250565b60006123f0600c83611e07565b91506123fb826123ba565b602082019050919050565b6000602082019050818103600083015261241f816123e3565b9050919050565b60008190508160005260206000209050919050565b60006020601f8301049050919050565b600082821b905092915050565b6000600883026124887fffffffffffffffffffffffffffffffffffffffffffffffffffffffffffffffff8261244b565b612492868361244b565b95508019841693508086168417925050509392505050565b6000819050919050565b60006124cf6124ca6124c584611e8c565b6124aa565b611e8c565b9050919050565b6000819050919050565b6124e9836124b4565b6124fd6124f5826124d6565b848454612458565b825550505050565b600090565b612512612505565b61251d8184846124e0565b505050565b5b818110156125415761253660008261250a565b600181019050612523565b5050565b601f8211156125865761255781612426565b6125608461243b565b8101602085101561256f578190505b61258361257b8561243b565b830182612522565b50505b505050565b600082821c905092915050565b60006125a96000198460080261258b565b1980831691505092915050565b60006125c28383612598565b9150826002028217905092915050565b6125db82611dfc565b67ffffffffffffffff8111156125f4576125f3611f6e565b5b6125fe8254612389565b612609828285612545565b600060209050601f83116001811461263c576000841561262a578287015190505b61263485826125b6565b86555061269c565b601f19841661264a86612426565b60005b828110156126725784890151825560018201915060208501945060208101905061264d565b8683101561268f578489015161268b601f891682612598565b8355505b6001600288020188555050505b505050505050565b7f5573657220616c72656164792065786973747300000000000000000000000000600082015250565b60006126da601383611e07565b91506126e5826126a4565b602082019050919050565b60006020820190508181036000830152612709816126cd565b9050919050565b7f4f776e61626c653a206e6577206f776e657220697320746865207a65726f206160008201527f6464726573730000000000000000000000000000000000000000000000000000602082015250565b600061276c602683611e07565b915061277782612710565b604082019050919050565b6000602082019050818103600083015261279b8161275f565b9050919050565b7f4f776e61626c653a2063616c6c6572206973206e6f7420746865206f776e6572600082015250565b60006127d8602083611e07565b91506127e3826127a2565b602082019050919050565b60006020820190508181036000830152612807816127cb565b9050919050565b7f5061757361626c653a2070617573656400000000000000000000000000000000600082015250565b6000612844601083611e07565b915061284f8261280e565b602082019050919050565b6000602082019050818103600083015261287381612837565b9050919050565b7f5061757361626c653a206e6f7420706175736564000000000000000000000000600082015250565b60006128b0601483611e07565b91506128bb8261287a565b602082019050919050565b600060208201905081810360008301526128df816128a3565b905091905056fea2646970667358221220e8185c890b431c1f3fee97013b0c5f1a034a18ffea1f0d84e3322ad6ce1e964b64736f6c63430008130033",
  "immutableReferences": {},
  "source": "// SPDX-License-Identifier: MIT\npragma solidity ^0.8.19;\n\nimport \"@openzeppelin/contracts/access/Ownable.sol\";\nimport \"@openzeppelin/contracts/security/Pausable.sol\";\n\ncontract Identity is Ownable, Pausable {\n    enum UserRole { NONE, STUDENT, INSTITUTION, EMPLOYER, ADMIN }\n    \n    struct User {\n        address userAddress;\n        string ipfsHash;  // IPFS hash containing user details\n        UserRole role;\n        bool isVerified;\n        uint256 createdAt;\n    }\n    \n    mapping(address => User) public users;\n    mapping(address => bool) public institutions;\n    mapping(address => bool) public admins;\n    \n    event UserRegistered(address indexed userAddress, UserRole role);\n    event UserVerified(address indexed userAddress);\n    event InstitutionAdded(address indexed institution);\n    event AdminAdded(address indexed admin);\n    event AdminRemoved(address indexed admin);\n    \n    modifier onlyVerifiedInstitution() {\n        require(institutions[msg.sender] && users[msg.sender].isVerified, \"Not a verified institution\");\n        _;\n    }\n    \n    modifier onlyAdmin() {\n        require(admins[msg.sender] || msg.sender == owner(), \"Not an admin\");\n        _;\n    }\n    \n    constructor() {\n        // Set deployer as admin\n        _setupAdmin(msg.sender);\n    }\n    \n    function _setupAdmin(address _admin) private {\n        users[_admin] = User(\n            _admin,\n            \"\",\n            UserRole.ADMIN,\n            true,\n            block.timestamp\n        );\n        admins[_admin] = true;\n        emit AdminAdded(_admin);\n        emit UserRegistered(_admin, UserRole.ADMIN);\n        emit UserVerified(_admin);\n    }\n    \n    function addAdmin(address _newAdmin) external onlyOwner {\n        require(!admins[_newAdmin], \"Already an admin\");\n        _setupAdmin(_newAdmin);\n    }\n    \n    function removeAdmin(address _admin) external onlyOwner {\n        require(_admin != owner(), \"Cannot remove owner\");\n        require(admins[_admin], \"Not an admin\");\n        admins[_admin] = false;\n        users[_admin].role = UserRole.NONE;\n        users[_admin].isVerified = false;\n        emit AdminRemoved(_admin);\n    }\n    \n    function isAdmin(address _address) public view returns (bool) {\n        return admins[_address] || _address == owner();\n    }\n    \n    function registerUser(UserRole _role, string memory _ipfsHash) external whenNotPaused {\n        require(users[msg.sender].userAddress == address(0), \"User already exists\");\n        require(_role != UserRole.NONE && _role != UserRole.ADMIN, \"Invalid role\");\n        \n        users[msg.sender] = User(\n            msg.sender,\n            _ipfsHash,\n            _role,\n            false,\n            block.timestamp\n        );\n        \n        if (_role == UserRole.INSTITUTION) {\n            institutions[msg.sender] = true;\n        }\n        \n        emit UserRegistered(msg.sender, _role);\n    }\n    \n    function verifyUser(address _userAddress) external onlyAdmin {\n        require(users[_userAddress].userAddress != address(0), \"User does not exist\");\n        require(!users[_userAddress].isVerified, \"User already verified\");\n        \n        users[_userAddress].isVerified = true;\n        emit UserVerified(_userAddress);\n    }\n    \n    function updateUserIPFS(string memory _newIpfsHash) external whenNotPaused {\n        require(users[msg.sender].userAddress != address(0), \"User does not exist\");\n        users[msg.sender].ipfsHash = _newIpfsHash;\n    }\n    \n    function getUserRole(address _userAddress) external view returns (UserRole) {\n        return users[_userAddress].role;\n    }\n    \n    function isVerifiedUser(address _userAddress) external view returns (bool) {\n        return users[_userAddress].isVerified;\n    }\n    \n    function updateUserRole(address _userAddress, UserRole _newRole) external onlyAdmin {\n        require(users[_userAddress].userAddress != address(0), \"User does not exist\");\n        require(_newRole != UserRole.NONE && _newRole != UserRole.ADMIN, \"Invalid role\");\n        \n        UserRole oldRole = users[_userAddress].role;\n        users[_userAddress].role = _newRole;\n        \n        if (_newRole == UserRole.INSTITUTION) {\n            institutions[_userAddress] = true;\n        } else if (oldRole == UserRole.INSTITUTION) {\n            institutions[_userAddress] = false;\n        }\n        \n        emit UserRegistered(_userAddress, _newRole);\n    }\n    \n    // Emergency functions\n    function pause() external onlyAdmin {\n        _pause();\n    }\n    \n    function unpause() external onlyAdmin {\n        _unpause();\n    }\n} ",
  "sourcePath": "C:\\Users\\osama\\OneDrive\\Desktop\\Graduation\\grad-main-0.1\\contracts\\Identity.sol",
  "compiler": {
    "name": "solc",
    "version": "0.8.19+commit.7dd6d404.Emscripten.clang"
  },
  "schemaVersion": "3.4.16",
  "updatedAt": "2025-04-17T00:42:23.810Z",
  "networkType": "ethereum",
  "devdoc": {
    "events": {
      "Paused(address)": {
        "details": "Emitted when the pause is triggered by `account`."
      },
      "Unpaused(address)": {
        "details": "Emitted when the pause is lifted by `account`."
      }
    },
    "kind": "dev",
    "methods": {
      "owner()": {
        "details": "Returns the address of the current owner."
      },
      "paused()": {
        "details": "Returns true if the contract is paused, and false otherwise."
      },
      "renounceOwnership()": {
        "details": "Leaves the contract without owner. It will not be possible to call `onlyOwner` functions. Can only be called by the current owner. NOTE: Renouncing ownership will leave the contract without an owner, thereby disabling any functionality that is only available to the owner."
      },
      "transferOwnership(address)": {
        "details": "Transfers ownership of the contract to a new account (`newOwner`). Can only be called by the current owner."
      }
    },
    "version": 1
  },
  "userdoc": {
    "kind": "user",
    "methods": {},
    "version": 1
  }
}