{
  "contractName": "Identity",
  "abi": [
    {
      "inputs": [],
      "stateMutability": "nonpayable",
      "type": "constructor"
    },
    {
      "anonymous": false,
      "inputs": [
        {
          "indexed": true,
          "internalType": "address",
          "name": "admin",
          "type": "address"
        }
      ],
      "name": "AdminAdded",
      "type": "event"
    },
    {
      "anonymous": false,
      "inputs": [
        {
          "indexed": true,
          "internalType": "address",
          "name": "admin",
          "type": "address"
        }
      ],
      "name": "AdminRemoved",
      "type": "event"
    },
    {
      "anonymous": false,
      "inputs": [
        {
          "indexed": true,
          "internalType": "address",
          "name": "user",
          "type": "address"
        },
        {
          "indexed": false,
          "internalType": "string",
          "name": "ipfsHash",
          "type": "string"
        }
      ],
      "name": "IPFSHashUpdated",
      "type": "event"
    },
    {
      "anonymous": false,
      "inputs": [
        {
          "indexed": true,
          "internalType": "address",
          "name": "institution",
          "type": "address"
        }
      ],
      "name": "InstitutionAdded",
      "type": "event"
    },
    {
      "anonymous": false,
      "inputs": [
        {
          "indexed": true,
          "internalType": "address",
          "name": "previousOwner",
          "type": "address"
        },
        {
          "indexed": true,
          "internalType": "address",
          "name": "newOwner",
          "type": "address"
        }
      ],
      "name": "OwnershipTransferred",
      "type": "event"
    },
    {
      "anonymous": false,
      "inputs": [
        {
          "indexed": false,
          "internalType": "address",
          "name": "account",
          "type": "address"
        }
      ],
      "name": "Paused",
      "type": "event"
    },
    {
      "anonymous": false,
      "inputs": [
        {
          "indexed": false,
          "internalType": "address",
          "name": "account",
          "type": "address"
        }
      ],
      "name": "Unpaused",
      "type": "event"
    },
    {
      "anonymous": false,
      "inputs": [
        {
          "indexed": true,
          "internalType": "address",
          "name": "userAddress",
          "type": "address"
        },
        {
          "indexed": false,
          "internalType": "enum Identity.UserRole",
          "name": "role",
          "type": "uint8"
        }
      ],
      "name": "UserRegistered",
      "type": "event"
    },
    {
      "anonymous": false,
      "inputs": [
        {
          "indexed": true,
          "internalType": "address",
          "name": "userAddress",
          "type": "address"
        }
      ],
      "name": "UserVerified",
      "type": "event"
    },
    {
      "inputs": [
        {
          "internalType": "address",
          "name": "",
          "type": "address"
        }
      ],
      "name": "admins",
      "outputs": [
        {
          "internalType": "bool",
          "name": "",
          "type": "bool"
        }
      ],
      "stateMutability": "view",
      "type": "function",
      "constant": true
    },
    {
      "inputs": [
        {
          "internalType": "address",
          "name": "",
          "type": "address"
        }
      ],
      "name": "institutions",
      "outputs": [
        {
          "internalType": "bool",
          "name": "",
          "type": "bool"
        }
      ],
      "stateMutability": "view",
      "type": "function",
      "constant": true
    },
    {
      "inputs": [],
      "name": "owner",
      "outputs": [
        {
          "internalType": "address",
          "name": "",
          "type": "address"
        }
      ],
      "stateMutability": "view",
      "type": "function",
      "constant": true
    },
    {
      "inputs": [],
      "name": "paused",
      "outputs": [
        {
          "internalType": "bool",
          "name": "",
          "type": "bool"
        }
      ],
      "stateMutability": "view",
      "type": "function",
      "constant": true
    },
    {
      "inputs": [],
      "name": "renounceOwnership",
      "outputs": [],
      "stateMutability": "nonpayable",
      "type": "function"
    },
    {
      "inputs": [
        {
          "internalType": "address",
          "name": "newOwner",
          "type": "address"
        }
      ],
      "name": "transferOwnership",
      "outputs": [],
      "stateMutability": "nonpayable",
      "type": "function"
    },
    {
      "inputs": [
        {
          "internalType": "address",
          "name": "",
          "type": "address"
        }
      ],
      "name": "users",
      "outputs": [
        {
          "internalType": "address",
          "name": "userAddress",
          "type": "address"
        },
        {
          "internalType": "string",
          "name": "ipfsHash",
          "type": "string"
        },
        {
          "internalType": "enum Identity.UserRole",
          "name": "role",
          "type": "uint8"
        },
        {
          "internalType": "bool",
          "name": "isVerified",
          "type": "bool"
        },
        {
          "internalType": "uint256",
          "name": "createdAt",
          "type": "uint256"
        }
      ],
      "stateMutability": "view",
      "type": "function",
      "constant": true
    },
    {
      "inputs": [
        {
          "internalType": "address",
          "name": "_newAdmin",
          "type": "address"
        }
      ],
      "name": "addAdmin",
      "outputs": [],
      "stateMutability": "nonpayable",
      "type": "function"
    },
    {
      "inputs": [
        {
          "internalType": "address",
          "name": "_admin",
          "type": "address"
        }
      ],
      "name": "removeAdmin",
      "outputs": [],
      "stateMutability": "nonpayable",
      "type": "function"
    },
    {
      "inputs": [
        {
          "internalType": "address",
          "name": "_address",
          "type": "address"
        }
      ],
      "name": "isAdmin",
      "outputs": [
        {
          "internalType": "bool",
          "name": "",
          "type": "bool"
        }
      ],
      "stateMutability": "view",
      "type": "function",
      "constant": true
    },
    {
      "inputs": [
        {
          "internalType": "enum Identity.UserRole",
          "name": "_role",
          "type": "uint8"
        },
        {
          "internalType": "string",
          "name": "_ipfsHash",
          "type": "string"
        }
      ],
      "name": "registerUser",
      "outputs": [],
      "stateMutability": "nonpayable",
      "type": "function"
    },
    {
      "inputs": [
        {
          "internalType": "address",
          "name": "_userAddress",
          "type": "address"
        }
      ],
      "name": "verifyUser",
      "outputs": [],
      "stateMutability": "nonpayable",
      "type": "function"
    },
    {
      "inputs": [
        {
          "internalType": "string",
          "name": "_newIpfsHash",
          "type": "string"
        }
      ],
      "name": "updateUserIPFS",
      "outputs": [],
      "stateMutability": "nonpayable",
      "type": "function"
    },
    {
      "inputs": [
        {
          "internalType": "address",
          "name": "_userAddress",
          "type": "address"
        }
      ],
      "name": "getUserRole",
      "outputs": [
        {
          "internalType": "enum Identity.UserRole",
          "name": "",
          "type": "uint8"
        }
      ],
      "stateMutability": "view",
      "type": "function",
      "constant": true
    },
    {
      "inputs": [
        {
          "internalType": "address",
          "name": "_userAddress",
          "type": "address"
        }
      ],
      "name": "isVerifiedUser",
      "outputs": [
        {
          "internalType": "bool",
          "name": "",
          "type": "bool"
        }
      ],
      "stateMutability": "view",
      "type": "function",
      "constant": true
    },
    {
      "inputs": [
        {
          "internalType": "address",
          "name": "_userAddress",
          "type": "address"
        },
        {
          "internalType": "enum Identity.UserRole",
          "name": "_newRole",
          "type": "uint8"
        }
      ],
      "name": "updateUserRole",
      "outputs": [],
      "stateMutability": "nonpayable",
      "type": "function"
    },
    {
      "inputs": [],
      "name": "pause",
      "outputs": [],
      "stateMutability": "nonpayable",
      "type": "function"
    },
    {
      "inputs": [],
      "name": "unpause",
      "outputs": [],
      "stateMutability": "nonpayable",
      "type": "function"
    },
    {
      "inputs": [
        {
          "internalType": "address",
          "name": "_address",
          "type": "address"
        }
      ],
      "name": "isInstitution",
      "outputs": [
        {
          "internalType": "bool",
          "name": "",
          "type": "bool"
        }
      ],
      "stateMutability": "view",
      "type": "function",
      "constant": true
    }
  ],
  "bytecode": "0x60806040523480156200001157600080fd5b5062000032620000266200006360201b60201c565b6200006b60201b60201c565b60008060146101000a81548160ff0219169083151502179055506200005d336200012f60201b60201c565b620007c1565b600033905090565b60008060009054906101000a900473ffffffffffffffffffffffffffffffffffffffff169050816000806101000a81548173ffffffffffffffffffffffffffffffffffffffff021916908373ffffffffffffffffffffffffffffffffffffffff1602179055508173ffffffffffffffffffffffffffffffffffffffff168173ffffffffffffffffffffffffffffffffffffffff167f8be0079c531659141344cd1fd0a4f28419497f9722a3daafe3b4186f6b6457e060405160405180910390a35050565b6040518060a001604052808273ffffffffffffffffffffffffffffffffffffffff168152602001604051806020016040528060008152508152602001600480811115620001815762000180620003c3565b5b815260200160011515815260200142815250600160008373ffffffffffffffffffffffffffffffffffffffff1673ffffffffffffffffffffffffffffffffffffffff16815260200190815260200160002060008201518160000160006101000a81548173ffffffffffffffffffffffffffffffffffffffff021916908373ffffffffffffffffffffffffffffffffffffffff16021790555060208201518160010190816200023091906200066c565b5060408201518160020160006101000a81548160ff021916908360048111156200025f576200025e620003c3565b5b021790555060608201518160020160016101000a81548160ff021916908315150217905550608082015181600301559050506001600360008373ffffffffffffffffffffffffffffffffffffffff1673ffffffffffffffffffffffffffffffffffffffff16815260200190815260200160002060006101000a81548160ff0219169083151502179055508073ffffffffffffffffffffffffffffffffffffffff167f44d6d25963f097ad14f29f06854a01f575648a1ef82f30e562ccd3889717e33960405160405180910390a28073ffffffffffffffffffffffffffffffffffffffff167f8e18574f8a7333e6a87112742a55853a643e2f0550f4e1a3a2c3f1bb2994441d6004604051620003759190620007a4565b60405180910390a28073ffffffffffffffffffffffffffffffffffffffff167fa6625d2d26e786e2f473111bea4b2fcdbbf1863d883a2359989ce3a103d2972a60405160405180910390a250565b7f4e487b7100000000000000000000000000000000000000000000000000000000600052602160045260246000fd5b600081519050919050565b7f4e487b7100000000000000000000000000000000000000000000000000000000600052604160045260246000fd5b7f4e487b7100000000000000000000000000000000000000000000000000000000600052602260045260246000fd5b600060028204905060018216806200047457607f821691505b6020821081036200048a57620004896200042c565b5b50919050565b60008190508160005260206000209050919050565b60006020601f8301049050919050565b600082821b905092915050565b600060088302620004f47fffffffffffffffffffffffffffffffffffffffffffffffffffffffffffffffff82620004b5565b620005008683620004b5565b95508019841693508086168417925050509392505050565b6000819050919050565b6000819050919050565b60006200054d62000547620005418462000518565b62000522565b62000518565b9050919050565b6000819050919050565b62000569836200052c565b62000581620005788262000554565b848454620004c2565b825550505050565b600090565b6200059862000589565b620005a58184846200055e565b505050565b5b81811015620005cd57620005c16000826200058e565b600181019050620005ab565b5050565b601f8211156200061c57620005e68162000490565b620005f184620004a5565b8101602085101562000601578190505b620006196200061085620004a5565b830182620005aa565b50505b505050565b600082821c905092915050565b6000620006416000198460080262000621565b1980831691505092915050565b60006200065c83836200062e565b9150826002028217905092915050565b6200067782620003f2565b67ffffffffffffffff811115620006935762000692620003fd565b5b6200069f82546200045b565b620006ac828285620005d1565b600060209050601f831160018114620006e45760008415620006cf578287015190505b620006db85826200064e565b8655506200074b565b601f198416620006f48662000490565b60005b828110156200071e57848901518255600182019150602085019450602081019050620006f7565b868310156200073e57848901516200073a601f8916826200062e565b8355505b6001600288020188555050505b505050505050565b60058110620007675762000766620003c3565b5b50565b60008190506200077a8262000753565b919050565b60006200078c826200076a565b9050919050565b6200079e816200077f565b82525050565b6000602082019050620007bb600083018462000793565b92915050565b612a6080620007d16000396000f3fe608060405234801561001057600080fd5b50600436106101215760003560e01c806370480275116100ad578063b2d9767f11610071578063b2d9767f146102f8578063c291fe6214610328578063c946c1b414610344578063d29bcc5c14610360578063f2fde38b1461037c57610121565b80637048027514610276578063715018a6146102925780638456cb591461029c5780638da5cb5b146102a6578063a87430ba146102c457610121565b80633da1c0c3116100f45780633da1c0c3146101d25780633f4ba83a14610202578063429b62e51461020c5780634d8131201461023c5780635c975abb1461025857610121565b80630331df07146101265780631785f53c1461015657806324d7806c1461017257806327820851146101a2575b600080fd5b610140600480360381019061013b9190611dff565b610398565b60405161014d9190611e47565b60405180910390f35b610170600480360381019061016b9190611dff565b6103ee565b005b61018c60048036038101906101879190611dff565b61065b565b6040516101999190611e47565b60405180910390f35b6101bc60048036038101906101b79190611dff565b6106ee565b6040516101c99190611ed9565b60405180910390f35b6101ec60048036038101906101e79190611dff565b610747565b6040516101f99190611e47565b60405180910390f35b61020a6107a0565b005b61022660048036038101906102219190611dff565b610873565b6040516102339190611e47565b60405180910390f35b61025660048036038101906102519190611dff565b610893565b005b610260610b5d565b60405161026d9190611e47565b60405180910390f35b610290600480360381019061028b9190611dff565b610b73565b005b61029a610c14565b005b6102a4610c28565b005b6102ae610cfb565b6040516102bb9190611f03565b60405180910390f35b6102de60048036038101906102d99190611dff565b610d24565b6040516102ef959493929190611fc7565b60405180910390f35b610312600480360381019061030d9190611dff565b610e1c565b60405161031f9190611e47565b60405180910390f35b610342600480360381019061033d9190612046565b610e3c565b005b61035e600480360381019061035991906121bb565b61128e565b005b61037a60048036038101906103759190612204565b611408565b005b61039660048036038101906103919190611dff565b6117de565b005b6000600260008373ffffffffffffffffffffffffffffffffffffffff1673ffffffffffffffffffffffffffffffffffffffff16815260200190815260200160002060009054906101000a900460ff169050919050565b6103f6611861565b6103fe610cfb565b73ffffffffffffffffffffffffffffffffffffffff168173ffffffffffffffffffffffffffffffffffffffff160361046b576040517f08c379a0000000000000000000000000000000000000000000000000000000008152600401610462906122ac565b60405180910390fd5b600360008273ffffffffffffffffffffffffffffffffffffffff1673ffffffffffffffffffffffffffffffffffffffff16815260200190815260200160002060009054906101000a900460ff166104f7576040517f08c379a00000000000000000000000000000000000000000000000000000000081526004016104ee90612318565b60405180910390fd5b6000600360008373ffffffffffffffffffffffffffffffffffffffff1673ffffffffffffffffffffffffffffffffffffffff16815260200190815260200160002060006101000a81548160ff0219169083151502179055506000600160008373ffffffffffffffffffffffffffffffffffffffff1673ffffffffffffffffffffffffffffffffffffffff16815260200190815260200160002060020160006101000a81548160ff021916908360048111156105b5576105b4611e62565b5b02179055506000600160008373ffffffffffffffffffffffffffffffffffffffff1673ffffffffffffffffffffffffffffffffffffffff16815260200190815260200160002060020160016101000a81548160ff0219169083151502179055508073ffffffffffffffffffffffffffffffffffffffff167fa3b62bc36326052d97ea62d63c3d60308ed4c3ea8ac079dd8499f1e9c4f80c0f60405160405180910390a250565b6000600360008373ffffffffffffffffffffffffffffffffffffffff1673ffffffffffffffffffffffffffffffffffffffff16815260200190815260200160002060009054906101000a900460ff16806106e757506106b8610cfb565b73ffffffffffffffffffffffffffffffffffffffff168273ffffffffffffffffffffffffffffffffffffffff16145b9050919050565b6000600160008373ffffffffffffffffffffffffffffffffffffffff1673ffffffffffffffffffffffffffffffffffffffff16815260200190815260200160002060020160009054906101000a900460ff169050919050565b6000600160008373ffffffffffffffffffffffffffffffffffffffff1673ffffffffffffffffffffffffffffffffffffffff16815260200190815260200160002060020160019054906101000a900460ff169050919050565b600360003373ffffffffffffffffffffffffffffffffffffffff1673ffffffffffffffffffffffffffffffffffffffff16815260200190815260200160002060009054906101000a900460ff168061082a57506107fb610cfb565b73ffffffffffffffffffffffffffffffffffffffff163373ffffffffffffffffffffffffffffffffffffffff16145b610869576040517f08c379a000000000000000000000000000000000000000000000000000000000815260040161086090612318565b60405180910390fd5b6108716118df565b565b60036020528060005260406000206000915054906101000a900460ff1681565b600360003373ffffffffffffffffffffffffffffffffffffffff1673ffffffffffffffffffffffffffffffffffffffff16815260200190815260200160002060009054906101000a900460ff168061091d57506108ee610cfb565b73ffffffffffffffffffffffffffffffffffffffff163373ffffffffffffffffffffffffffffffffffffffff16145b61095c576040517f08c379a000000000000000000000000000000000000000000000000000000000815260040161095390612318565b60405180910390fd5b600073ffffffffffffffffffffffffffffffffffffffff16600160008373ffffffffffffffffffffffffffffffffffffffff1673ffffffffffffffffffffffffffffffffffffffff16815260200190815260200160002060000160009054906101000a900473ffffffffffffffffffffffffffffffffffffffff1673ffffffffffffffffffffffffffffffffffffffff1603610a2d576040517f08c379a0000000000000000000000000000000000000000000000000000000008152600401610a2490612384565b60405180910390fd5b600160008273ffffffffffffffffffffffffffffffffffffffff1673ffffffffffffffffffffffffffffffffffffffff16815260200190815260200160002060020160019054906101000a900460ff1615610abd576040517f08c379a0000000000000000000000000000000000000000000000000000000008152600401610ab4906123f0565b60405180910390fd5b60018060008373ffffffffffffffffffffffffffffffffffffffff1673ffffffffffffffffffffffffffffffffffffffff16815260200190815260200160002060020160016101000a81548160ff0219169083151502179055508073ffffffffffffffffffffffffffffffffffffffff167fa6625d2d26e786e2f473111bea4b2fcdbbf1863d883a2359989ce3a103d2972a60405160405180910390a250565b60008060149054906101000a900460ff16905090565b610b7b611861565b600360008273ffffffffffffffffffffffffffffffffffffffff1673ffffffffffffffffffffffffffffffffffffffff16815260200190815260200160002060009054906101000a900460ff1615610c08576040517f08c379a0000000000000000000000000000000000000000000000000000000008152600401610bff9061245c565b60405180910390fd5b610c1181611941565b50565b610c1c611861565b610c266000611bcb565b565b600360003373ffffffffffffffffffffffffffffffffffffffff1673ffffffffffffffffffffffffffffffffffffffff16815260200190815260200160002060009054906101000a900460ff1680610cb25750610c83610cfb565b73ffffffffffffffffffffffffffffffffffffffff163373ffffffffffffffffffffffffffffffffffffffff16145b610cf1576040517f08c379a0000000000000000000000000000000000000000000000000000000008152600401610ce890612318565b60405180910390fd5b610cf9611c8f565b565b60008060009054906101000a900473ffffffffffffffffffffffffffffffffffffffff16905090565b60016020528060005260406000206000915090508060000160009054906101000a900473ffffffffffffffffffffffffffffffffffffffff1690806001018054610d6d906124ab565b80601f0160208091040260200160405190810160405280929190818152602001828054610d99906124ab565b8015610de65780601f10610dbb57610100808354040283529160200191610de6565b820191906000526020600020905b815481529060010190602001808311610dc957829003601f168201915b5050505050908060020160009054906101000a900460ff16908060020160019054906101000a900460ff16908060030154905085565b60026020528060005260406000206000915054906101000a900460ff1681565b600360003373ffffffffffffffffffffffffffffffffffffffff1673ffffffffffffffffffffffffffffffffffffffff16815260200190815260200160002060009054906101000a900460ff1680610ec65750610e97610cfb565b73ffffffffffffffffffffffffffffffffffffffff163373ffffffffffffffffffffffffffffffffffffffff16145b610f05576040517f08c379a0000000000000000000000000000000000000000000000000000000008152600401610efc90612318565b60405180910390fd5b600073ffffffffffffffffffffffffffffffffffffffff16600160008473ffffffffffffffffffffffffffffffffffffffff1673ffffffffffffffffffffffffffffffffffffffff16815260200190815260200160002060000160009054906101000a900473ffffffffffffffffffffffffffffffffffffffff1673ffffffffffffffffffffffffffffffffffffffff1603610fd6576040517f08c379a0000000000000000000000000000000000000000000000000000000008152600401610fcd90612384565b60405180910390fd5b60006004811115610fea57610fe9611e62565b5b816004811115610ffd57610ffc611e62565b5b1415801561102f575060048081111561101957611018611e62565b5b81600481111561102c5761102b611e62565b5b14155b61106e576040517f08c379a000000000000000000000000000000000000000000000000000000000815260040161106590612528565b60405180910390fd5b6000600160008473ffffffffffffffffffffffffffffffffffffffff1673ffffffffffffffffffffffffffffffffffffffff16815260200190815260200160002060020160009054906101000a900460ff16905081600160008573ffffffffffffffffffffffffffffffffffffffff1673ffffffffffffffffffffffffffffffffffffffff16815260200190815260200160002060020160006101000a81548160ff0219169083600481111561112757611126611e62565b5b0217905550600260048111156111405761113f611e62565b5b82600481111561115357611152611e62565b5b036111b5576001600260008573ffffffffffffffffffffffffffffffffffffffff1673ffffffffffffffffffffffffffffffffffffffff16815260200190815260200160002060006101000a81548160ff02191690831515021790555061123b565b600260048111156111c9576111c8611e62565b5b8160048111156111dc576111db611e62565b5b0361123a576000600260008573ffffffffffffffffffffffffffffffffffffffff1673ffffffffffffffffffffffffffffffffffffffff16815260200190815260200160002060006101000a81548160ff0219169083151502179055505b5b8273ffffffffffffffffffffffffffffffffffffffff167f8e18574f8a7333e6a87112742a55853a643e2f0550f4e1a3a2c3f1bb2994441d836040516112819190611ed9565b60405180910390a2505050565b611296611cf2565b600073ffffffffffffffffffffffffffffffffffffffff16600160003373ffffffffffffffffffffffffffffffffffffffff1673ffffffffffffffffffffffffffffffffffffffff16815260200190815260200160002060000160009054906101000a900473ffffffffffffffffffffffffffffffffffffffff1673ffffffffffffffffffffffffffffffffffffffff1603611367576040517f08c379a000000000000000000000000000000000000000000000000000000000815260040161135e90612384565b60405180910390fd5b80600160003373ffffffffffffffffffffffffffffffffffffffff1673ffffffffffffffffffffffffffffffffffffffff16815260200190815260200160002060010190816113b691906126f4565b503373ffffffffffffffffffffffffffffffffffffffff167f6960dcefbe2a6b1fecddb3d98019e7d5cf93216411327458c79e35109736b087826040516113fd91906127c6565b60405180910390a250565b611410611cf2565b600073ffffffffffffffffffffffffffffffffffffffff16600160003373ffffffffffffffffffffffffffffffffffffffff1673ffffffffffffffffffffffffffffffffffffffff16815260200190815260200160002060000160009054906101000a900473ffffffffffffffffffffffffffffffffffffffff1673ffffffffffffffffffffffffffffffffffffffff16146114e1576040517f08c379a00000000000000000000000000000000000000000000000000000000081526004016114d890612834565b60405180910390fd5b600060048111156114f5576114f4611e62565b5b82600481111561150857611507611e62565b5b1415801561153a575060048081111561152457611523611e62565b5b82600481111561153757611536611e62565b5b14155b611579576040517f08c379a000000000000000000000000000000000000000000000000000000000815260040161157090612528565b60405180910390fd5b6040518060a001604052803373ffffffffffffffffffffffffffffffffffffffff1681526020018281526020018360048111156115b9576115b8611e62565b5b815260200160001515815260200142815250600160003373ffffffffffffffffffffffffffffffffffffffff1673ffffffffffffffffffffffffffffffffffffffff16815260200190815260200160002060008201518160000160006101000a81548173ffffffffffffffffffffffffffffffffffffffff021916908373ffffffffffffffffffffffffffffffffffffffff160217905550602082015181600101908161166691906126f4565b5060408201518160020160006101000a81548160ff0219169083600481111561169257611691611e62565b5b021790555060608201518160020160016101000a81548160ff02191690831515021790555060808201518160030155905050600260048111156116d8576116d7611e62565b5b8260048111156116eb576116ea611e62565b5b0361178c576001600260003373ffffffffffffffffffffffffffffffffffffffff1673ffffffffffffffffffffffffffffffffffffffff16815260200190815260200160002060006101000a81548160ff0219169083151502179055503373ffffffffffffffffffffffffffffffffffffffff167f0bfb62b1fbb00013554ed3ff21ca179a519aee08ccf015aed3482362436b6b3560405160405180910390a25b3373ffffffffffffffffffffffffffffffffffffffff167f8e18574f8a7333e6a87112742a55853a643e2f0550f4e1a3a2c3f1bb2994441d836040516117d29190611ed9565b60405180910390a25050565b6117e6611861565b600073ffffffffffffffffffffffffffffffffffffffff168173ffffffffffffffffffffffffffffffffffffffff1603611855576040517f08c379a000000000000000000000000000000000000000000000000000000000815260040161184c906128c6565b60405180910390fd5b61185e81611bcb565b50565b611869611d3c565b73ffffffffffffffffffffffffffffffffffffffff16611887610cfb565b73ffffffffffffffffffffffffffffffffffffffff16146118dd576040517f08c379a00000000000000000000000000000000000000000000000000000000081526004016118d490612932565b60405180910390fd5b565b6118e7611d44565b60008060146101000a81548160ff0219169083151502179055507f5db9ee0a495bf2e6ff9c91a7834c1ba4fdd244a5e8aa4e537bd38aeae4b073aa61192a611d3c565b6040516119379190611f03565b60405180910390a1565b6040518060a001604052808273ffffffffffffffffffffffffffffffffffffffff1681526020016040518060200160405280600081525081526020016004808111156119905761198f611e62565b5b815260200160011515815260200142815250600160008373ffffffffffffffffffffffffffffffffffffffff1673ffffffffffffffffffffffffffffffffffffffff16815260200190815260200160002060008201518160000160006101000a81548173ffffffffffffffffffffffffffffffffffffffff021916908373ffffffffffffffffffffffffffffffffffffffff1602179055506020820151816001019081611a3d91906126f4565b5060408201518160020160006101000a81548160ff02191690836004811115611a6957611a68611e62565b5b021790555060608201518160020160016101000a81548160ff021916908315150217905550608082015181600301559050506001600360008373ffffffffffffffffffffffffffffffffffffffff1673ffffffffffffffffffffffffffffffffffffffff16815260200190815260200160002060006101000a81548160ff0219169083151502179055508073ffffffffffffffffffffffffffffffffffffffff167f44d6d25963f097ad14f29f06854a01f575648a1ef82f30e562ccd3889717e33960405160405180910390a28073ffffffffffffffffffffffffffffffffffffffff167f8e18574f8a7333e6a87112742a55853a643e2f0550f4e1a3a2c3f1bb2994441d6004604051611b7d9190611ed9565b60405180910390a28073ffffffffffffffffffffffffffffffffffffffff167fa6625d2d26e786e2f473111bea4b2fcdbbf1863d883a2359989ce3a103d2972a60405160405180910390a250565b60008060009054906101000a900473ffffffffffffffffffffffffffffffffffffffff169050816000806101000a81548173ffffffffffffffffffffffffffffffffffffffff021916908373ffffffffffffffffffffffffffffffffffffffff1602179055508173ffffffffffffffffffffffffffffffffffffffff168173ffffffffffffffffffffffffffffffffffffffff167f8be0079c531659141344cd1fd0a4f28419497f9722a3daafe3b4186f6b6457e060405160405180910390a35050565b611c97611cf2565b6001600060146101000a81548160ff0219169083151502179055507f62e78cea01bee320cd4e420270b5ea74000d11b0c9f74754ebdbfc544b05a258611cdb611d3c565b604051611ce89190611f03565b60405180910390a1565b611cfa610b5d565b15611d3a576040517f08c379a0000000000000000000000000000000000000000000000000000000008152600401611d319061299e565b60405180910390fd5b565b600033905090565b611d4c610b5d565b611d8b576040517f08c379a0000000000000000000000000000000000000000000000000000000008152600401611d8290612a0a565b60405180910390fd5b565b6000604051905090565b600080fd5b600080fd5b600073ffffffffffffffffffffffffffffffffffffffff82169050919050565b6000611dcc82611da1565b9050919050565b611ddc81611dc1565b8114611de757600080fd5b50565b600081359050611df981611dd3565b92915050565b600060208284031215611e1557611e14611d97565b5b6000611e2384828501611dea565b91505092915050565b60008115159050919050565b611e4181611e2c565b82525050565b6000602082019050611e5c6000830184611e38565b92915050565b7f4e487b7100000000000000000000000000000000000000000000000000000000600052602160045260246000fd5b60058110611ea257611ea1611e62565b5b50565b6000819050611eb382611e91565b919050565b6000611ec382611ea5565b9050919050565b611ed381611eb8565b82525050565b6000602082019050611eee6000830184611eca565b92915050565b611efd81611dc1565b82525050565b6000602082019050611f186000830184611ef4565b92915050565b600081519050919050565b600082825260208201905092915050565b60005b83811015611f58578082015181840152602081019050611f3d565b60008484015250505050565b6000601f19601f8301169050919050565b6000611f8082611f1e565b611f8a8185611f29565b9350611f9a818560208601611f3a565b611fa381611f64565b840191505092915050565b6000819050919050565b611fc181611fae565b82525050565b600060a082019050611fdc6000830188611ef4565b8181036020830152611fee8187611f75565b9050611ffd6040830186611eca565b61200a6060830185611e38565b6120176080830184611fb8565b9695505050505050565b6005811061202e57600080fd5b50565b60008135905061204081612021565b92915050565b6000806040838503121561205d5761205c611d97565b5b600061206b85828601611dea565b925050602061207c85828601612031565b9150509250929050565b600080fd5b600080fd5b7f4e487b7100000000000000000000000000000000000000000000000000000000600052604160045260246000fd5b6120c882611f64565b810181811067ffffffffffffffff821117156120e7576120e6612090565b5b80604052505050565b60006120fa611d8d565b905061210682826120bf565b919050565b600067ffffffffffffffff82111561212657612125612090565b5b61212f82611f64565b9050602081019050919050565b82818337600083830152505050565b600061215e6121598461210b565b6120f0565b90508281526020810184848401111561217a5761217961208b565b5b61218584828561213c565b509392505050565b600082601f8301126121a2576121a1612086565b5b81356121b284826020860161214b565b91505092915050565b6000602082840312156121d1576121d0611d97565b5b600082013567ffffffffffffffff8111156121ef576121ee611d9c565b5b6121fb8482850161218d565b91505092915050565b6000806040838503121561221b5761221a611d97565b5b600061222985828601612031565b925050602083013567ffffffffffffffff81111561224a57612249611d9c565b5b6122568582860161218d565b9150509250929050565b7f43616e6e6f742072656d6f7665206f776e657200000000000000000000000000600082015250565b6000612296601383611f29565b91506122a182612260565b602082019050919050565b600060208201905081810360008301526122c581612289565b9050919050565b7f4e6f7420616e2061646d696e0000000000000000000000000000000000000000600082015250565b6000612302600c83611f29565b915061230d826122cc565b602082019050919050565b60006020820190508181036000830152612331816122f5565b9050919050565b7f5573657220646f6573206e6f7420657869737400000000000000000000000000600082015250565b600061236e601383611f29565b915061237982612338565b602082019050919050565b6000602082019050818103600083015261239d81612361565b9050919050565b7f5573657220616c72656164792076657269666965640000000000000000000000600082015250565b60006123da601583611f29565b91506123e5826123a4565b602082019050919050565b60006020820190508181036000830152612409816123cd565b9050919050565b7f416c726561647920616e2061646d696e00000000000000000000000000000000600082015250565b6000612446601083611f29565b915061245182612410565b602082019050919050565b6000602082019050818103600083015261247581612439565b9050919050565b7f4e487b7100000000000000000000000000000000000000000000000000000000600052602260045260246000fd5b600060028204905060018216806124c357607f821691505b6020821081036124d6576124d561247c565b5b50919050565b7f496e76616c696420726f6c650000000000000000000000000000000000000000600082015250565b6000612512600c83611f29565b915061251d826124dc565b602082019050919050565b6000602082019050818103600083015261254181612505565b9050919050565b60008190508160005260206000209050919050565b60006020601f8301049050919050565b600082821b905092915050565b6000600883026125aa7fffffffffffffffffffffffffffffffffffffffffffffffffffffffffffffffff8261256d565b6125b4868361256d565b95508019841693508086168417925050509392505050565b6000819050919050565b60006125f16125ec6125e784611fae565b6125cc565b611fae565b9050919050565b6000819050919050565b61260b836125d6565b61261f612617826125f8565b84845461257a565b825550505050565b600090565b612634612627565b61263f818484612602565b505050565b5b818110156126635761265860008261262c565b600181019050612645565b5050565b601f8211156126a85761267981612548565b6126828461255d565b81016020851015612691578190505b6126a561269d8561255d565b830182612644565b50505b505050565b600082821c905092915050565b60006126cb600019846008026126ad565b1980831691505092915050565b60006126e483836126ba565b9150826002028217905092915050565b6126fd82611f1e565b67ffffffffffffffff81111561271657612715612090565b5b61272082546124ab565b61272b828285612667565b600060209050601f83116001811461275e576000841561274c578287015190505b61275685826126d8565b8655506127be565b601f19841661276c86612548565b60005b828110156127945784890151825560018201915060208501945060208101905061276f565b868310156127b157848901516127ad601f8916826126ba565b8355505b6001600288020188555050505b505050505050565b600060208201905081810360008301526127e08184611f75565b905092915050565b7f5573657220616c72656164792065786973747300000000000000000000000000600082015250565b600061281e601383611f29565b9150612829826127e8565b602082019050919050565b6000602082019050818103600083015261284d81612811565b9050919050565b7f4f776e61626c653a206e6577206f776e657220697320746865207a65726f206160008201527f6464726573730000000000000000000000000000000000000000000000000000602082015250565b60006128b0602683611f29565b91506128bb82612854565b604082019050919050565b600060208201905081810360008301526128df816128a3565b9050919050565b7f4f776e61626c653a2063616c6c6572206973206e6f7420746865206f776e6572600082015250565b600061291c602083611f29565b9150612927826128e6565b602082019050919050565b6000602082019050818103600083015261294b8161290f565b9050919050565b7f5061757361626c653a2070617573656400000000000000000000000000000000600082015250565b6000612988601083611f29565b915061299382612952565b602082019050919050565b600060208201905081810360008301526129b78161297b565b9050919050565b7f5061757361626c653a206e6f7420706175736564000000000000000000000000600082015250565b60006129f4601483611f29565b91506129ff826129be565b602082019050919050565b60006020820190508181036000830152612a23816129e7565b905091905056fea26469706673582212205deb06a674ef646b395b7f72fe5e7d35adfb639a4e569ceca04fbdd58e59ea9c64736f6c63430008130033",
  "immutableReferences": {},
  "source": "// SPDX-License-Identifier: MIT\r\npragma solidity ^0.8.19;\r\n\r\nimport \"@openzeppelin/contracts/access/Ownable.sol\";\r\nimport \"@openzeppelin/contracts/security/Pausable.sol\";\r\n\r\ncontract Identity is Ownable, Pausable {\r\n    enum UserRole { NONE, STUDENT, INSTITUTION, EMPLOYER, ADMIN }\r\n    \r\n    struct User {\r\n        address userAddress;\r\n        string ipfsHash;  // IPFS hash containing user details\r\n        UserRole role;\r\n        bool isVerified;\r\n        uint256 createdAt;\r\n    }\r\n    \r\n    mapping(address => User) public users;\r\n    mapping(address => bool) public institutions;\r\n    mapping(address => bool) public admins;\r\n    \r\n    event UserRegistered(address indexed userAddress, UserRole role);\r\n    event UserVerified(address indexed userAddress);\r\n    event InstitutionAdded(address indexed institution);\r\n    event AdminAdded(address indexed admin);\r\n    event AdminRemoved(address indexed admin);\r\n    event IPFSHashUpdated(address indexed user, string ipfsHash);\r\n    \r\n    modifier onlyVerifiedInstitution() {\r\n        require(institutions[msg.sender] && users[msg.sender].isVerified, \"Not a verified institution\");\r\n        _;\r\n    }\r\n    \r\n    modifier onlyAdmin() {\r\n        require(admins[msg.sender] || msg.sender == owner(), \"Not an admin\");\r\n        _;\r\n    }\r\n    \r\n    constructor() {\r\n        // Set deployer as admin\r\n        _setupAdmin(msg.sender);\r\n    }\r\n    \r\n    function _setupAdmin(address _admin) private {\r\n        users[_admin] = User(\r\n            _admin,\r\n            \"\",\r\n            UserRole.ADMIN,\r\n            true,\r\n            block.timestamp\r\n        );\r\n        admins[_admin] = true;\r\n        emit AdminAdded(_admin);\r\n        emit UserRegistered(_admin, UserRole.ADMIN);\r\n        emit UserVerified(_admin);\r\n    }\r\n    \r\n    function addAdmin(address _newAdmin) external onlyOwner {\r\n        require(!admins[_newAdmin], \"Already an admin\");\r\n        _setupAdmin(_newAdmin);\r\n    }\r\n    \r\n    function removeAdmin(address _admin) external onlyOwner {\r\n        require(_admin != owner(), \"Cannot remove owner\");\r\n        require(admins[_admin], \"Not an admin\");\r\n        admins[_admin] = false;\r\n        users[_admin].role = UserRole.NONE;\r\n        users[_admin].isVerified = false;\r\n        emit AdminRemoved(_admin);\r\n    }\r\n    \r\n    function isAdmin(address _address) public view returns (bool) {\r\n        return admins[_address] || _address == owner();\r\n    }\r\n    \r\n    function registerUser(UserRole _role, string memory _ipfsHash) external whenNotPaused {\r\n        require(users[msg.sender].userAddress == address(0), \"User already exists\");\r\n        require(_role != UserRole.NONE && _role != UserRole.ADMIN, \"Invalid role\");\r\n        \r\n        users[msg.sender] = User(\r\n            msg.sender,\r\n            _ipfsHash,\r\n            _role,\r\n            false,\r\n            block.timestamp\r\n        );\r\n        \r\n        if (_role == UserRole.INSTITUTION) {\r\n            institutions[msg.sender] = true;\r\n            emit InstitutionAdded(msg.sender);  // Add this line\r\n        }\r\n        \r\n        emit UserRegistered(msg.sender, _role);\r\n    }\r\n    \r\n    function verifyUser(address _userAddress) external onlyAdmin {\r\n        require(users[_userAddress].userAddress != address(0), \"User does not exist\");\r\n        require(!users[_userAddress].isVerified, \"User already verified\");\r\n        \r\n        users[_userAddress].isVerified = true;\r\n        emit UserVerified(_userAddress);\r\n    }\r\n    \r\n    function updateUserIPFS(string memory _newIpfsHash) external whenNotPaused {\r\n        require(users[msg.sender].userAddress != address(0), \"User does not exist\");\r\n        users[msg.sender].ipfsHash = _newIpfsHash;\r\n        emit IPFSHashUpdated(msg.sender, _newIpfsHash);\r\n    }\r\n    \r\n    function getUserRole(address _userAddress) external view returns (UserRole) {\r\n        return users[_userAddress].role;\r\n    }\r\n    \r\n    function isVerifiedUser(address _userAddress) external view returns (bool) {\r\n        return users[_userAddress].isVerified;\r\n    }\r\n    \r\n    function updateUserRole(address _userAddress, UserRole _newRole) external onlyAdmin {\r\n        require(users[_userAddress].userAddress != address(0), \"User does not exist\");\r\n        require(_newRole != UserRole.NONE && _newRole != UserRole.ADMIN, \"Invalid role\");\r\n        \r\n        UserRole oldRole = users[_userAddress].role;\r\n        users[_userAddress].role = _newRole;\r\n        \r\n        if (_newRole == UserRole.INSTITUTION) {\r\n            institutions[_userAddress] = true;\r\n        } else if (oldRole == UserRole.INSTITUTION) {\r\n            institutions[_userAddress] = false;\r\n        }\r\n        \r\n        emit UserRegistered(_userAddress, _newRole);\r\n    }\r\n    \r\n    // Emergency functions\r\n    function pause() external onlyAdmin {\r\n        _pause();\r\n    }\r\n    \r\n    function unpause() external onlyAdmin {\r\n        _unpause();\r\n    }\r\n    \r\n    // Add this function to check if an address is registered as an institution\r\n    function isInstitution(address _address) public view returns (bool) {\r\n        return institutions[_address];\r\n    }\r\n}",
  "sourcePath": "C:\\Users\\osama\\OneDrive\\Desktop\\Graduation\\contracts\\Identity.sol",
  "compiler": {
    "name": "solc",
    "version": "0.8.19+commit.7dd6d404.Emscripten.clang"
  },
  "schemaVersion": "3.4.16",
  "updatedAt": "2025-04-30T03:42:48.385Z",
  "networkType": "ethereum",
  "devdoc": {
    "events": {
      "Paused(address)": {
        "details": "Emitted when the pause is triggered by `account`."
      },
      "Unpaused(address)": {
        "details": "Emitted when the pause is lifted by `account`."
      }
    },
    "kind": "dev",
    "methods": {
      "owner()": {
        "details": "Returns the address of the current owner."
      },
      "paused()": {
        "details": "Returns true if the contract is paused, and false otherwise."
      },
      "renounceOwnership()": {
        "details": "Leaves the contract without owner. It will not be possible to call `onlyOwner` functions anymore. Can only be called by the current owner. NOTE: Renouncing ownership will leave the contract without an owner, thereby removing any functionality that is only available to the owner."
      },
      "transferOwnership(address)": {
        "details": "Transfers ownership of the contract to a new account (`newOwner`). Can only be called by the current owner."
      }
    },
    "version": 1
  },
  "userdoc": {
    "kind": "user",
    "methods": {},
    "version": 1
  }
}