{
  "contractName": "SecurityUtils",
  "abi": [
    {
      "anonymous": false,
      "inputs": [
        {
          "indexed": true,
          "internalType": "address",
          "name": "account",
          "type": "address"
        },
        {
          "indexed": false,
          "internalType": "bool",
          "name": "isBlacklisted",
          "type": "bool"
        }
      ],
      "name": "BlacklistUpdated",
      "type": "event"
    },
    {
      "anonymous": false,
      "inputs": [
        {
          "indexed": true,
          "internalType": "address",
          "name": "triggeredBy",
          "type": "address"
        }
      ],
      "name": "EmergencyRecovery",
      "type": "event"
    },
    {
      "anonymous": false,
      "inputs": [
        {
          "indexed": true,
          "internalType": "address",
          "name": "triggeredBy",
          "type": "address"
        }
      ],
      "name": "EmergencyShutdown",
      "type": "event"
    },
    {
      "anonymous": false,
      "inputs": [
        {
          "indexed": true,
          "internalType": "address",
          "name": "previousOwner",
          "type": "address"
        },
        {
          "indexed": true,
          "internalType": "address",
          "name": "newOwner",
          "type": "address"
        }
      ],
      "name": "OwnershipTransferred",
      "type": "event"
    },
    {
      "anonymous": false,
      "inputs": [
        {
          "indexed": false,
          "internalType": "address",
          "name": "account",
          "type": "address"
        }
      ],
      "name": "Paused",
      "type": "event"
    },
    {
      "anonymous": false,
      "inputs": [
        {
          "indexed": false,
          "internalType": "address",
          "name": "account",
          "type": "address"
        }
      ],
      "name": "Unpaused",
      "type": "event"
    },
    {
      "inputs": [],
      "name": "MAX_BATCH_SIZE",
      "outputs": [
        {
          "internalType": "uint256",
          "name": "",
          "type": "uint256"
        }
      ],
      "stateMutability": "view",
      "type": "function",
      "constant": true
    },
    {
      "inputs": [],
      "name": "MIN_OPERATION_INTERVAL",
      "outputs": [
        {
          "internalType": "uint256",
          "name": "",
          "type": "uint256"
        }
      ],
      "stateMutability": "view",
      "type": "function",
      "constant": true
    },
    {
      "inputs": [
        {
          "internalType": "address",
          "name": "",
          "type": "address"
        }
      ],
      "name": "blacklisted",
      "outputs": [
        {
          "internalType": "bool",
          "name": "",
          "type": "bool"
        }
      ],
      "stateMutability": "view",
      "type": "function",
      "constant": true
    },
    {
      "inputs": [
        {
          "internalType": "address",
          "name": "",
          "type": "address"
        }
      ],
      "name": "lastOperationTime",
      "outputs": [
        {
          "internalType": "uint256",
          "name": "",
          "type": "uint256"
        }
      ],
      "stateMutability": "view",
      "type": "function",
      "constant": true
    },
    {
      "inputs": [],
      "name": "owner",
      "outputs": [
        {
          "internalType": "address",
          "name": "",
          "type": "address"
        }
      ],
      "stateMutability": "view",
      "type": "function",
      "constant": true
    },
    {
      "inputs": [],
      "name": "paused",
      "outputs": [
        {
          "internalType": "bool",
          "name": "",
          "type": "bool"
        }
      ],
      "stateMutability": "view",
      "type": "function",
      "constant": true
    },
    {
      "inputs": [],
      "name": "renounceOwnership",
      "outputs": [],
      "stateMutability": "nonpayable",
      "type": "function"
    },
    {
      "inputs": [
        {
          "internalType": "address",
          "name": "newOwner",
          "type": "address"
        }
      ],
      "name": "transferOwnership",
      "outputs": [],
      "stateMutability": "nonpayable",
      "type": "function"
    },
    {
      "inputs": [
        {
          "internalType": "address",
          "name": "_account",
          "type": "address"
        }
      ],
      "name": "addToBlacklist",
      "outputs": [],
      "stateMutability": "nonpayable",
      "type": "function"
    },
    {
      "inputs": [
        {
          "internalType": "address",
          "name": "_account",
          "type": "address"
        }
      ],
      "name": "removeFromBlacklist",
      "outputs": [],
      "stateMutability": "nonpayable",
      "type": "function"
    },
    {
      "inputs": [],
      "name": "emergencyShutdown",
      "outputs": [],
      "stateMutability": "nonpayable",
      "type": "function"
    },
    {
      "inputs": [],
      "name": "emergencyRecovery",
      "outputs": [],
      "stateMutability": "nonpayable",
      "type": "function"
    },
    {
      "inputs": [
        {
          "internalType": "address",
          "name": "_addr",
          "type": "address"
        }
      ],
      "name": "isContract",
      "outputs": [
        {
          "internalType": "bool",
          "name": "",
          "type": "bool"
        }
      ],
      "stateMutability": "view",
      "type": "function",
      "constant": true
    },
    {
      "inputs": [
        {
          "internalType": "uint256",
          "name": "_size",
          "type": "uint256"
        }
      ],
      "name": "validateBatchSize",
      "outputs": [],
      "stateMutability": "pure",
      "type": "function",
      "constant": true
    },
    {
      "inputs": [
        {
          "internalType": "address",
          "name": "_user",
          "type": "address"
        }
      ],
      "name": "checkRateLimit",
      "outputs": [],
      "stateMutability": "view",
      "type": "function",
      "constant": true
    }
  ],
  "bytecode": "0x608060405234801561001057600080fd5b50600160008190555061003561002a61005560201b60201c565b61005d60201b60201c565b6000600160146101000a81548160ff021916908315150217905550610123565b600033905090565b6000600160009054906101000a900473ffffffffffffffffffffffffffffffffffffffff16905081600160006101000a81548173ffffffffffffffffffffffffffffffffffffffff021916908373ffffffffffffffffffffffffffffffffffffffff1602179055508173ffffffffffffffffffffffffffffffffffffffff168173ffffffffffffffffffffffffffffffffffffffff167f8be0079c531659141344cd1fd0a4f28419497f9722a3daafe3b4186f6b6457e060405160405180910390a35050565b610e3e806101326000396000f3fe608060405234801561001057600080fd5b50600436106100f55760003560e01c80636934535e11610097578063dbac26e911610066578063dbac26e914610214578063df408f6314610244578063f2fde38b14610274578063f3d73eb214610290576100f5565b80636934535e146101b2578063715018a6146101ce5780638da5cb5b146101d8578063cfdbf254146101f6576100f5565b806344337ea1116100d357806344337ea1146101525780634e8bea041461016e578063537df3b6146101785780635c975abb14610194576100f5565b80630df607e7146100fa57806316279055146101185780633403c2fc14610148575b600080fd5b6101026102ac565b60405161010f9190610982565b60405180910390f35b610132600480360381019061012d9190610a00565b6102b1565b60405161013f9190610a48565b60405180910390f35b6101506102ca565b005b61016c60048036038101906101679190610a00565b61031f565b005b6101766103d1565b005b610192600480360381019061018d9190610a00565b610426565b005b61019c6104d8565b6040516101a99190610a48565b60405180910390f35b6101cc60048036038101906101c79190610a00565b6104ef565b005b6101d6610580565b005b6101e0610594565b6040516101ed9190610a72565b60405180910390f35b6101fe6105be565b60405161020b9190610982565b60405180910390f35b61022e60048036038101906102299190610a00565b6105c3565b60405161023b9190610a48565b60405180910390f35b61025e60048036038101906102599190610a00565b6105e3565b60405161026b9190610982565b60405180910390f35b61028e60048036038101906102899190610a00565b6105fb565b005b6102aa60048036038101906102a59190610ab9565b61067e565b005b603c81565b600080823b905060008163ffffffff1611915050919050565b6102d26106c5565b6102da610743565b3373ffffffffffffffffffffffffffffffffffffffff167f1fc1e771236d2e93bb9541cdcb4654ba0fd3fb615b48d829b7b365f03998512660405160405180910390a2565b6103276106c5565b6001600260008373ffffffffffffffffffffffffffffffffffffffff1673ffffffffffffffffffffffffffffffffffffffff16815260200190815260200160002060006101000a81548160ff0219169083151502179055508073ffffffffffffffffffffffffffffffffffffffff167f6a12b3df6cba4203bd7fd06b816789f87de8c594299aed5717ae070fac781bac60016040516103c69190610a48565b60405180910390a250565b6103d96106c5565b6103e16107a5565b3373ffffffffffffffffffffffffffffffffffffffff167f21867dc03c8a7c783db4b956a15551a5195ec965c0d92ef2bc731ace8732c02060405160405180910390a2565b61042e6106c5565b6000600260008373ffffffffffffffffffffffffffffffffffffffff1673ffffffffffffffffffffffffffffffffffffffff16815260200190815260200160002060006101000a81548160ff0219169083151502179055508073ffffffffffffffffffffffffffffffffffffffff167f6a12b3df6cba4203bd7fd06b816789f87de8c594299aed5717ae070fac781bac60006040516104cd9190610a48565b60405180910390a250565b6000600160149054906101000a900460ff16905090565b603c600360008373ffffffffffffffffffffffffffffffffffffffff1673ffffffffffffffffffffffffffffffffffffffff1681526020019081526020016000205461053b9190610b15565b42101561057d576040517f08c379a000000000000000000000000000000000000000000000000000000000815260040161057490610ba6565b60405180910390fd5b50565b6105886106c5565b6105926000610808565b565b6000600160009054906101000a900473ffffffffffffffffffffffffffffffffffffffff16905090565b603281565b60026020528060005260406000206000915054906101000a900460ff1681565b60036020528060005260406000206000915090505481565b6106036106c5565b600073ffffffffffffffffffffffffffffffffffffffff168173ffffffffffffffffffffffffffffffffffffffff1603610672576040517f08c379a000000000000000000000000000000000000000000000000000000000815260040161066990610c38565b60405180910390fd5b61067b81610808565b50565b60328111156106c2576040517f08c379a00000000000000000000000000000000000000000000000000000000081526004016106b990610ca4565b60405180910390fd5b50565b6106cd6108ce565b73ffffffffffffffffffffffffffffffffffffffff166106eb610594565b73ffffffffffffffffffffffffffffffffffffffff1614610741576040517f08c379a000000000000000000000000000000000000000000000000000000000815260040161073890610d10565b60405180910390fd5b565b61074b6108d6565b60018060146101000a81548160ff0219169083151502179055507f62e78cea01bee320cd4e420270b5ea74000d11b0c9f74754ebdbfc544b05a25861078e6108ce565b60405161079b9190610a72565b60405180910390a1565b6107ad610920565b6000600160146101000a81548160ff0219169083151502179055507f5db9ee0a495bf2e6ff9c91a7834c1ba4fdd244a5e8aa4e537bd38aeae4b073aa6107f16108ce565b6040516107fe9190610a72565b60405180910390a1565b6000600160009054906101000a900473ffffffffffffffffffffffffffffffffffffffff16905081600160006101000a81548173ffffffffffffffffffffffffffffffffffffffff021916908373ffffffffffffffffffffffffffffffffffffffff1602179055508173ffffffffffffffffffffffffffffffffffffffff168173ffffffffffffffffffffffffffffffffffffffff167f8be0079c531659141344cd1fd0a4f28419497f9722a3daafe3b4186f6b6457e060405160405180910390a35050565b600033905090565b6108de6104d8565b1561091e576040517f08c379a000000000000000000000000000000000000000000000000000000000815260040161091590610d7c565b60405180910390fd5b565b6109286104d8565b610967576040517f08c379a000000000000000000000000000000000000000000000000000000000815260040161095e90610de8565b60405180910390fd5b565b6000819050919050565b61097c81610969565b82525050565b60006020820190506109976000830184610973565b92915050565b600080fd5b600073ffffffffffffffffffffffffffffffffffffffff82169050919050565b60006109cd826109a2565b9050919050565b6109dd816109c2565b81146109e857600080fd5b50565b6000813590506109fa816109d4565b92915050565b600060208284031215610a1657610a1561099d565b5b6000610a24848285016109eb565b91505092915050565b60008115159050919050565b610a4281610a2d565b82525050565b6000602082019050610a5d6000830184610a39565b92915050565b610a6c816109c2565b82525050565b6000602082019050610a876000830184610a63565b92915050565b610a9681610969565b8114610aa157600080fd5b50565b600081359050610ab381610a8d565b92915050565b600060208284031215610acf57610ace61099d565b5b6000610add84828501610aa4565b91505092915050565b7f4e487b7100000000000000000000000000000000000000000000000000000000600052601160045260246000fd5b6000610b2082610969565b9150610b2b83610969565b9250828201905080821115610b4357610b42610ae6565b5b92915050565b600082825260208201905092915050565b7f52617465206c696d697420657863656564656400000000000000000000000000600082015250565b6000610b90601383610b49565b9150610b9b82610b5a565b602082019050919050565b60006020820190508181036000830152610bbf81610b83565b9050919050565b7f4f776e61626c653a206e6577206f776e657220697320746865207a65726f206160008201527f6464726573730000000000000000000000000000000000000000000000000000602082015250565b6000610c22602683610b49565b9150610c2d82610bc6565b604082019050919050565b60006020820190508181036000830152610c5181610c15565b9050919050565b7f42617463682073697a6520746f6f206c61726765000000000000000000000000600082015250565b6000610c8e601483610b49565b9150610c9982610c58565b602082019050919050565b60006020820190508181036000830152610cbd81610c81565b9050919050565b7f4f776e61626c653a2063616c6c6572206973206e6f7420746865206f776e6572600082015250565b6000610cfa602083610b49565b9150610d0582610cc4565b602082019050919050565b60006020820190508181036000830152610d2981610ced565b9050919050565b7f5061757361626c653a2070617573656400000000000000000000000000000000600082015250565b6000610d66601083610b49565b9150610d7182610d30565b602082019050919050565b60006020820190508181036000830152610d9581610d59565b9050919050565b7f5061757361626c653a206e6f7420706175736564000000000000000000000000600082015250565b6000610dd2601483610b49565b9150610ddd82610d9c565b602082019050919050565b60006020820190508181036000830152610e0181610dc5565b905091905056fea264697066735822122012c22c628a4e75bd415defd2db784ac575186f0912641af426ca313db981e8bf64736f6c63430008130033",
  "immutableReferences": {},
  "source": "// SPDX-License-Identifier: MIT\npragma solidity ^0.8.19;\n\nimport \"@openzeppelin/contracts/security/ReentrancyGuard.sol\";\nimport \"@openzeppelin/contracts/access/Ownable.sol\";\nimport \"@openzeppelin/contracts/security/Pausable.sol\";\n\ncontract SecurityUtils is ReentrancyGuard, Ownable, Pausable {\n    // Events\n    event EmergencyShutdown(address indexed triggeredBy);\n    event EmergencyRecovery(address indexed triggeredBy);\n    event BlacklistUpdated(address indexed account, bool isBlacklisted);\n\n    // State variables\n    mapping(address => bool) public blacklisted;\n    uint256 public constant MAX_BATCH_SIZE = 50;\n    uint256 public constant MIN_OPERATION_INTERVAL = 1 minutes;\n    mapping(address => uint256) public lastOperationTime;\n\n    // Modifiers\n    modifier notBlacklisted(address _account) {\n        require(!blacklisted[_account], \"Account is blacklisted\");\n        _;\n    }\n\n    modifier withCooldown() {\n        require(\n            block.timestamp >= lastOperationTime[msg.sender] + MIN_OPERATION_INTERVAL,\n            \"Operation too frequent\"\n        );\n        lastOperationTime[msg.sender] = block.timestamp;\n        _;\n    }\n\n    modifier validAddress(address _address) {\n        require(_address != address(0), \"Invalid address\");\n        require(_address != address(this), \"Cannot be contract address\");\n        _;\n    }\n\n    // Security functions\n    function addToBlacklist(address _account) external onlyOwner {\n        blacklisted[_account] = true;\n        emit BlacklistUpdated(_account, true);\n    }\n\n    function removeFromBlacklist(address _account) external onlyOwner {\n        blacklisted[_account] = false;\n        emit BlacklistUpdated(_account, false);\n    }\n\n    function emergencyShutdown() external onlyOwner {\n        _pause();\n        emit EmergencyShutdown(msg.sender);\n    }\n\n    function emergencyRecovery() external onlyOwner {\n        _unpause();\n        emit EmergencyRecovery(msg.sender);\n    }\n\n    // Utility functions\n    function isContract(address _addr) public view returns (bool) {\n        uint32 size;\n        assembly {\n            size := extcodesize(_addr)\n        }\n        return (size > 0);\n    }\n\n    function validateBatchSize(uint256 _size) public pure {\n        require(_size <= MAX_BATCH_SIZE, \"Batch size too large\");\n    }\n\n    // Rate limiting\n    function checkRateLimit(address _user) public view {\n        require(\n            block.timestamp >= lastOperationTime[_user] + MIN_OPERATION_INTERVAL,\n            \"Rate limit exceeded\"\n        );\n    }\n} ",
  "sourcePath": "C:\\Users\\osama\\OneDrive\\Desktop\\Graduation\\grad-main-0.1\\contracts\\security\\SecurityUtils.sol",
  "compiler": {
    "name": "solc",
    "version": "0.8.19+commit.7dd6d404.Emscripten.clang"
  },
  "schemaVersion": "3.4.16",
  "updatedAt": "2025-04-17T00:42:23.881Z",
  "networkType": "ethereum",
  "devdoc": {
    "events": {
      "Paused(address)": {
        "details": "Emitted when the pause is triggered by `account`."
      },
      "Unpaused(address)": {
        "details": "Emitted when the pause is lifted by `account`."
      }
    },
    "kind": "dev",
    "methods": {
      "owner()": {
        "details": "Returns the address of the current owner."
      },
      "paused()": {
        "details": "Returns true if the contract is paused, and false otherwise."
      },
      "renounceOwnership()": {
        "details": "Leaves the contract without owner. It will not be possible to call `onlyOwner` functions. Can only be called by the current owner. NOTE: Renouncing ownership will leave the contract without an owner, thereby disabling any functionality that is only available to the owner."
      },
      "transferOwnership(address)": {
        "details": "Transfers ownership of the contract to a new account (`newOwner`). Can only be called by the current owner."
      }
    },
    "version": 1
  },
  "userdoc": {
    "kind": "user",
    "methods": {},
    "version": 1
  }
}