{
  "contractName": "SecurityUtils",
  "abi": [
    {
      "anonymous": false,
      "inputs": [
        {
          "indexed": true,
          "internalType": "address",
          "name": "account",
          "type": "address"
        },
        {
          "indexed": false,
          "internalType": "bool",
          "name": "isBlacklisted",
          "type": "bool"
        }
      ],
      "name": "BlacklistUpdated",
      "type": "event"
    },
    {
      "anonymous": false,
      "inputs": [
        {
          "indexed": true,
          "internalType": "address",
          "name": "triggeredBy",
          "type": "address"
        }
      ],
      "name": "EmergencyRecovery",
      "type": "event"
    },
    {
      "anonymous": false,
      "inputs": [
        {
          "indexed": true,
          "internalType": "address",
          "name": "triggeredBy",
          "type": "address"
        }
      ],
      "name": "EmergencyShutdown",
      "type": "event"
    },
    {
      "anonymous": false,
      "inputs": [
        {
          "indexed": true,
          "internalType": "address",
          "name": "previousOwner",
          "type": "address"
        },
        {
          "indexed": true,
          "internalType": "address",
          "name": "newOwner",
          "type": "address"
        }
      ],
      "name": "OwnershipTransferred",
      "type": "event"
    },
    {
      "anonymous": false,
      "inputs": [
        {
          "indexed": false,
          "internalType": "address",
          "name": "account",
          "type": "address"
        }
      ],
      "name": "Paused",
      "type": "event"
    },
    {
      "anonymous": false,
      "inputs": [
        {
          "indexed": false,
          "internalType": "address",
          "name": "account",
          "type": "address"
        }
      ],
      "name": "Unpaused",
      "type": "event"
    },
    {
      "inputs": [],
      "name": "MAX_BATCH_SIZE",
      "outputs": [
        {
          "internalType": "uint256",
          "name": "",
          "type": "uint256"
        }
      ],
      "stateMutability": "view",
      "type": "function"
    },
    {
      "inputs": [],
      "name": "MIN_OPERATION_INTERVAL",
      "outputs": [
        {
          "internalType": "uint256",
          "name": "",
          "type": "uint256"
        }
      ],
      "stateMutability": "view",
      "type": "function"
    },
    {
      "inputs": [
        {
          "internalType": "address",
          "name": "",
          "type": "address"
        }
      ],
      "name": "blacklisted",
      "outputs": [
        {
          "internalType": "bool",
          "name": "",
          "type": "bool"
        }
      ],
      "stateMutability": "view",
      "type": "function"
    },
    {
      "inputs": [
        {
          "internalType": "address",
          "name": "",
          "type": "address"
        }
      ],
      "name": "lastOperationTime",
      "outputs": [
        {
          "internalType": "uint256",
          "name": "",
          "type": "uint256"
        }
      ],
      "stateMutability": "view",
      "type": "function"
    },
    {
      "inputs": [],
      "name": "owner",
      "outputs": [
        {
          "internalType": "address",
          "name": "",
          "type": "address"
        }
      ],
      "stateMutability": "view",
      "type": "function"
    },
    {
      "inputs": [],
      "name": "paused",
      "outputs": [
        {
          "internalType": "bool",
          "name": "",
          "type": "bool"
        }
      ],
      "stateMutability": "view",
      "type": "function"
    },
    {
      "inputs": [],
      "name": "renounceOwnership",
      "outputs": [],
      "stateMutability": "nonpayable",
      "type": "function"
    },
    {
      "inputs": [
        {
          "internalType": "address",
          "name": "newOwner",
          "type": "address"
        }
      ],
      "name": "transferOwnership",
      "outputs": [],
      "stateMutability": "nonpayable",
      "type": "function"
    },
    {
      "inputs": [
        {
          "internalType": "address",
          "name": "_account",
          "type": "address"
        }
      ],
      "name": "addToBlacklist",
      "outputs": [],
      "stateMutability": "nonpayable",
      "type": "function"
    },
    {
      "inputs": [
        {
          "internalType": "address",
          "name": "_account",
          "type": "address"
        }
      ],
      "name": "removeFromBlacklist",
      "outputs": [],
      "stateMutability": "nonpayable",
      "type": "function"
    },
    {
      "inputs": [],
      "name": "emergencyShutdown",
      "outputs": [],
      "stateMutability": "nonpayable",
      "type": "function"
    },
    {
      "inputs": [],
      "name": "emergencyRecovery",
      "outputs": [],
      "stateMutability": "nonpayable",
      "type": "function"
    },
    {
      "inputs": [
        {
          "internalType": "address",
          "name": "_addr",
          "type": "address"
        }
      ],
      "name": "isContract",
      "outputs": [
        {
          "internalType": "bool",
          "name": "",
          "type": "bool"
        }
      ],
      "stateMutability": "view",
      "type": "function"
    },
    {
      "inputs": [
        {
          "internalType": "uint256",
          "name": "_size",
          "type": "uint256"
        }
      ],
      "name": "validateBatchSize",
      "outputs": [],
      "stateMutability": "pure",
      "type": "function"
    },
    {
      "inputs": [
        {
          "internalType": "address",
          "name": "_user",
          "type": "address"
        }
      ],
      "name": "checkRateLimit",
      "outputs": [],
      "stateMutability": "view",
      "type": "function"
    }
  ],
  "bytecode": "0x608060405234801561000f575f80fd5b5060015f8190555061003361002861005260201b60201c565b61005960201b60201c565b5f600160146101000a81548160ff02191690831515021790555061011c565b5f33905090565b5f60015f9054906101000a900473ffffffffffffffffffffffffffffffffffffffff1690508160015f6101000a81548173ffffffffffffffffffffffffffffffffffffffff021916908373ffffffffffffffffffffffffffffffffffffffff1602179055508173ffffffffffffffffffffffffffffffffffffffff168173ffffffffffffffffffffffffffffffffffffffff167f8be0079c531659141344cd1fd0a4f28419497f9722a3daafe3b4186f6b6457e060405160405180910390a35050565b610df0806101295f395ff3fe608060405234801561000f575f80fd5b50600436106100f3575f3560e01c80636934535e11610095578063dbac26e911610064578063dbac26e914610211578063df408f6314610241578063f2fde38b14610271578063f3d73eb21461028d576100f3565b80636934535e146101af578063715018a6146101cb5780638da5cb5b146101d5578063cfdbf254146101f3576100f3565b806344337ea1116100d157806344337ea11461014f5780634e8bea041461016b578063537df3b6146101755780635c975abb14610191576100f3565b80630df607e7146100f757806316279055146101155780633403c2fc14610145575b5f80fd5b6100ff6102a9565b60405161010c9190610962565b60405180910390f35b61012f600480360381019061012a91906109d9565b6102ae565b60405161013c9190610a1e565b60405180910390f35b61014d6102c5565b005b610169600480360381019061016491906109d9565b61031a565b005b6101736103c9565b005b61018f600480360381019061018a91906109d9565b61041e565b005b6101996104cb565b6040516101a69190610a1e565b60405180910390f35b6101c960048036038101906101c491906109d9565b6104e1565b005b6101d3610570565b005b6101dd610583565b6040516101ea9190610a46565b60405180910390f35b6101fb6105ab565b6040516102089190610962565b60405180910390f35b61022b600480360381019061022691906109d9565b6105b0565b6040516102389190610a1e565b60405180910390f35b61025b600480360381019061025691906109d9565b6105cd565b6040516102689190610962565b60405180910390f35b61028b600480360381019061028691906109d9565b6105e2565b005b6102a760048036038101906102a29190610a89565b610664565b005b603c81565b5f80823b90505f8163ffffffff1611915050919050565b6102cd6106ab565b6102d5610729565b3373ffffffffffffffffffffffffffffffffffffffff167f1fc1e771236d2e93bb9541cdcb4654ba0fd3fb615b48d829b7b365f03998512660405160405180910390a2565b6103226106ab565b600160025f8373ffffffffffffffffffffffffffffffffffffffff1673ffffffffffffffffffffffffffffffffffffffff1681526020019081526020015f205f6101000a81548160ff0219169083151502179055508073ffffffffffffffffffffffffffffffffffffffff167f6a12b3df6cba4203bd7fd06b816789f87de8c594299aed5717ae070fac781bac60016040516103be9190610a1e565b60405180910390a250565b6103d16106ab565b6103d961078b565b3373ffffffffffffffffffffffffffffffffffffffff167f21867dc03c8a7c783db4b956a15551a5195ec965c0d92ef2bc731ace8732c02060405160405180910390a2565b6104266106ab565b5f60025f8373ffffffffffffffffffffffffffffffffffffffff1673ffffffffffffffffffffffffffffffffffffffff1681526020019081526020015f205f6101000a81548160ff0219169083151502179055508073ffffffffffffffffffffffffffffffffffffffff167f6a12b3df6cba4203bd7fd06b816789f87de8c594299aed5717ae070fac781bac5f6040516104c09190610a1e565b60405180910390a250565b5f600160149054906101000a900460ff16905090565b603c60035f8373ffffffffffffffffffffffffffffffffffffffff1673ffffffffffffffffffffffffffffffffffffffff1681526020019081526020015f205461052b9190610ae1565b42101561056d576040517f08c379a000000000000000000000000000000000000000000000000000000000815260040161056490610b6e565b60405180910390fd5b50565b6105786106ab565b6105815f6107ed565b565b5f60015f9054906101000a900473ffffffffffffffffffffffffffffffffffffffff16905090565b603281565b6002602052805f5260405f205f915054906101000a900460ff1681565b6003602052805f5260405f205f915090505481565b6105ea6106ab565b5f73ffffffffffffffffffffffffffffffffffffffff168173ffffffffffffffffffffffffffffffffffffffff1603610658576040517f08c379a000000000000000000000000000000000000000000000000000000000815260040161064f90610bfc565b60405180910390fd5b610661816107ed565b50565b60328111156106a8576040517f08c379a000000000000000000000000000000000000000000000000000000000815260040161069f90610c64565b60405180910390fd5b50565b6106b36108b0565b73ffffffffffffffffffffffffffffffffffffffff166106d1610583565b73ffffffffffffffffffffffffffffffffffffffff1614610727576040517f08c379a000000000000000000000000000000000000000000000000000000000815260040161071e90610ccc565b60405180910390fd5b565b6107316108b7565b60018060146101000a81548160ff0219169083151502179055507f62e78cea01bee320cd4e420270b5ea74000d11b0c9f74754ebdbfc544b05a2586107746108b0565b6040516107819190610a46565b60405180910390a1565b610793610901565b5f600160146101000a81548160ff0219169083151502179055507f5db9ee0a495bf2e6ff9c91a7834c1ba4fdd244a5e8aa4e537bd38aeae4b073aa6107d66108b0565b6040516107e39190610a46565b60405180910390a1565b5f60015f9054906101000a900473ffffffffffffffffffffffffffffffffffffffff1690508160015f6101000a81548173ffffffffffffffffffffffffffffffffffffffff021916908373ffffffffffffffffffffffffffffffffffffffff1602179055508173ffffffffffffffffffffffffffffffffffffffff168173ffffffffffffffffffffffffffffffffffffffff167f8be0079c531659141344cd1fd0a4f28419497f9722a3daafe3b4186f6b6457e060405160405180910390a35050565b5f33905090565b6108bf6104cb565b156108ff576040517f08c379a00000000000000000000000000000000000000000000000000000000081526004016108f690610d34565b60405180910390fd5b565b6109096104cb565b610948576040517f08c379a000000000000000000000000000000000000000000000000000000000815260040161093f90610d9c565b60405180910390fd5b565b5f819050919050565b61095c8161094a565b82525050565b5f6020820190506109755f830184610953565b92915050565b5f80fd5b5f73ffffffffffffffffffffffffffffffffffffffff82169050919050565b5f6109a88261097f565b9050919050565b6109b88161099e565b81146109c2575f80fd5b50565b5f813590506109d3816109af565b92915050565b5f602082840312156109ee576109ed61097b565b5b5f6109fb848285016109c5565b91505092915050565b5f8115159050919050565b610a1881610a04565b82525050565b5f602082019050610a315f830184610a0f565b92915050565b610a408161099e565b82525050565b5f602082019050610a595f830184610a37565b92915050565b610a688161094a565b8114610a72575f80fd5b50565b5f81359050610a8381610a5f565b92915050565b5f60208284031215610a9e57610a9d61097b565b5b5f610aab84828501610a75565b91505092915050565b7f4e487b71000000000000000000000000000000000000000000000000000000005f52601160045260245ffd5b5f610aeb8261094a565b9150610af68361094a565b9250828201905080821115610b0e57610b0d610ab4565b5b92915050565b5f82825260208201905092915050565b7f52617465206c696d6974206578636565646564000000000000000000000000005f82015250565b5f610b58601383610b14565b9150610b6382610b24565b602082019050919050565b5f6020820190508181035f830152610b8581610b4c565b9050919050565b7f4f776e61626c653a206e6577206f776e657220697320746865207a65726f20615f8201527f6464726573730000000000000000000000000000000000000000000000000000602082015250565b5f610be6602683610b14565b9150610bf182610b8c565b604082019050919050565b5f6020820190508181035f830152610c1381610bda565b9050919050565b7f42617463682073697a6520746f6f206c617267650000000000000000000000005f82015250565b5f610c4e601483610b14565b9150610c5982610c1a565b602082019050919050565b5f6020820190508181035f830152610c7b81610c42565b9050919050565b7f4f776e61626c653a2063616c6c6572206973206e6f7420746865206f776e65725f82015250565b5f610cb6602083610b14565b9150610cc182610c82565b602082019050919050565b5f6020820190508181035f830152610ce381610caa565b9050919050565b7f5061757361626c653a20706175736564000000000000000000000000000000005f82015250565b5f610d1e601083610b14565b9150610d2982610cea565b602082019050919050565b5f6020820190508181035f830152610d4b81610d12565b9050919050565b7f5061757361626c653a206e6f74207061757365640000000000000000000000005f82015250565b5f610d86601483610b14565b9150610d9182610d52565b602082019050919050565b5f6020820190508181035f830152610db381610d7a565b905091905056fea264697066735822122032d6d59fbccf61183f0809fb9331394e430f979d0ed02893385460fe8c8a212464736f6c63430008140033",
  "immutableReferences": {},
  "source": "// SPDX-License-Identifier: MIT\r\npragma solidity ^0.8.20;\r\n\r\nimport \"@openzeppelin/contracts/security/ReentrancyGuard.sol\";\r\nimport \"@openzeppelin/contracts/access/Ownable.sol\";\r\nimport \"@openzeppelin/contracts/security/Pausable.sol\";\r\n\r\ncontract SecurityUtils is ReentrancyGuard, Ownable, Pausable {\r\n    // Events\r\n    event EmergencyShutdown(address indexed triggeredBy);\r\n    event EmergencyRecovery(address indexed triggeredBy);\r\n    event BlacklistUpdated(address indexed account, bool isBlacklisted);\r\n\r\n    // State variables\r\n    mapping(address => bool) public blacklisted;\r\n    uint256 public constant MAX_BATCH_SIZE = 50;\r\n    uint256 public constant MIN_OPERATION_INTERVAL = 1 minutes;\r\n    mapping(address => uint256) public lastOperationTime;\r\n\r\n    // Modifiers\r\n    modifier notBlacklisted(address _account) {\r\n        require(!blacklisted[_account], \"Account is blacklisted\");\r\n        _;\r\n    }\r\n\r\n    modifier withCooldown() {\r\n        require(\r\n            block.timestamp >= lastOperationTime[msg.sender] + MIN_OPERATION_INTERVAL,\r\n            \"Operation too frequent\"\r\n        );\r\n        lastOperationTime[msg.sender] = block.timestamp;\r\n        _;\r\n    }\r\n\r\n    modifier validAddress(address _address) {\r\n        require(_address != address(0), \"Invalid address\");\r\n        require(_address != address(this), \"Cannot be contract address\");\r\n        _;\r\n    }\r\n\r\n    // Security functions\r\n    function addToBlacklist(address _account) external onlyOwner {\r\n        blacklisted[_account] = true;\r\n        emit BlacklistUpdated(_account, true);\r\n    }\r\n\r\n    function removeFromBlacklist(address _account) external onlyOwner {\r\n        blacklisted[_account] = false;\r\n        emit BlacklistUpdated(_account, false);\r\n    }\r\n\r\n    function emergencyShutdown() external onlyOwner {\r\n        _pause();\r\n        emit EmergencyShutdown(msg.sender);\r\n    }\r\n\r\n    function emergencyRecovery() external onlyOwner {\r\n        _unpause();\r\n        emit EmergencyRecovery(msg.sender);\r\n    }\r\n\r\n    // Utility functions\r\n    function isContract(address _addr) public view returns (bool) {\r\n        uint32 size;\r\n        assembly {\r\n            size := extcodesize(_addr)\r\n        }\r\n        return (size > 0);\r\n    }\r\n\r\n    function validateBatchSize(uint256 _size) public pure {\r\n        require(_size <= MAX_BATCH_SIZE, \"Batch size too large\");\r\n    }\r\n\r\n    // Rate limiting\r\n    function checkRateLimit(address _user) public view {\r\n        require(\r\n            block.timestamp >= lastOperationTime[_user] + MIN_OPERATION_INTERVAL,\r\n            \"Rate limit exceeded\"\r\n        );\r\n    }\r\n} ",
  "sourcePath": "C:\\Users\\osama\\OneDrive\\Desktop\\Graduation\\grad-main-0.1\\contracts\\security\\SecurityUtils.sol",
  "compiler": {
    "name": "solc",
    "version": "0.8.20+commit.a1b79de6.Emscripten.clang"
  },
  "schemaVersion": "3.4.16",
  "updatedAt": "2025-04-17T20:24:07.822Z",
  "devdoc": {
    "events": {
      "Paused(address)": {
        "details": "Emitted when the pause is triggered by `account`."
      },
      "Unpaused(address)": {
        "details": "Emitted when the pause is lifted by `account`."
      }
    },
    "kind": "dev",
    "methods": {
      "owner()": {
        "details": "Returns the address of the current owner."
      },
      "paused()": {
        "details": "Returns true if the contract is paused, and false otherwise."
      },
      "renounceOwnership()": {
        "details": "Leaves the contract without owner. It will not be possible to call `onlyOwner` functions. Can only be called by the current owner. NOTE: Renouncing ownership will leave the contract without an owner, thereby disabling any functionality that is only available to the owner."
      },
      "transferOwnership(address)": {
        "details": "Transfers ownership of the contract to a new account (`newOwner`). Can only be called by the current owner."
      }
    },
    "version": 1
  },
  "userdoc": {
    "kind": "user",
    "methods": {},
    "version": 1
  }
}